:020000040000FA
:0400000007EF00F016
:0A0008004582BDED0AF07AEF0BF01F
:101000000068656C6C6F0000AEEC0BF0B7EC0BF099
:10101000BCEC0BF0770ED36E0F0E9B6E40C08CFFB6
:1010200026EF09F038503910D8B419EF08F01BEF4B
:1010300008F020EF08F0402A010E826F0EEF08F052
:1010400032503310D8B427EF08F029EF08F050EFF2
:1010500009F04006040E826F0EEF08F0395009E1E6
:10106000650E385CD8A037EF08F039EF08F03DEF97
:1010700008F0020E826F0EEF08F038503910D8A435
:1010800044EF08F046EF08F00EEF08F0325033104E
:10109000D8B44DEF08F04FEF08F051EF08F02AEF09
:1010A00008F0000E826F0EEF08F0375009E1330EA2
:1010B000365CD8A05EEF08F060EF08F065EF08F04E
:1010C000402A000E376E000E366E2D0E385C010E73
:1010D0003958D8A06EEF08F070EF08F074EF08F000
:1010E000030E826F0EEF08F038503910D8A47BEF52
:1010F00008F07DEF08F00EEF08F032503310D8B44E
:1011000084EF08F086EF08F051EF08F02AEF08F0BE
:10111000355009E10B0E345CD8A091EF08F093EF45
:1011200008F098EF08F0402A000E356E000E346E7D
:1011300038503910D8A49FEF08F0A1EF08F00EEF57
:1011400008F032503310D8B4A8EF08F0AAEF08F036
:1011500051EF08F02AEF08F0335009E1650E325CD8
:10116000D8A0B5EF08F0B7EF08F0BBEF08F0050E18
:10117000826F0EEF08F032503310D8A4C2EF08F09F
:10118000C4EF08F00EEF08F038503910D8B4CBEFA8
:1011900008F0CDEF08F051EF08F01CEF08F03150E7
:1011A00009E1330E305CD8A0D8EF08F0DAEF08F090
:1011B000DFEF08F04006000E316E000E306E2D0E8F
:1011C000325C010E3358D8A0E8EF08F0EAEF08F0DF
:1011D000EEEF08F0060E826F0EEF08F0325033107B
:1011E000D8A4F5EF08F0F7EF08F00EEF08F038504C
:1011F0003910D8B4FEEF08F000EF09F051EF08F015
:101200001CEF08F02F5009E10B0E2E5CD8A00BEF5D
:1012100009F00DEF09F012EF09F04006000E2F6EF5
:10122000000E2E6E32503310D8A419EF09F01BEFC8
:1012300009F00EEF08F038503910D8B422EF09F059
:1012400024EF09F051EF08F01CEF08F00001825183
:10125000806F816B8151000AD8B431EF09F00EEF35
:1012600008F08051000AD8B412EF08F0010AD8B48F
:101270002EEF08F0030AD8B455EF08F0010AD8B4ED
:1012800088EF08F0070AD8B4ACEF08F0010AD8B428
:10129000CFEF08F0030AD8B402EF09F00EEF08F020
:1012A0000EEF08F007EF00F052EC0BF001C003F076
:1012B00002C004F02AEC0BF001C005F002C006F0F9
:1012C000020E03180410D8A468EF09F06AEF09F0C1
:1012D00096EF09F0000E336E000E326E000E316E86
:1012E000000E306E000E2F6E000E2E6E384A392A18
:1012F0002D0E385C010E3958D8A081EF09F083EF2C
:1013000009F087EF09F0344A352AF6EF09F0395031
:1013100009E1650E385CD8A090EF09F092EF09F072
:10132000F6EF09F0364A372AF6EF09F0020E0518F3
:101330000610D8A49EEF09F0A0EF09F0CCEF09F059
:10134000000E396E000E386E000E376E000E366ECF
:10135000000E356E000E346E324A332A2D0E325C8A
:10136000010E3358D8A0B7EF09F0B9EF09F0BDEF7F
:1013700009F02E4A2F2AF6EF09F0335009E1650EE5
:10138000325CD8A0C6EF09F0C8EF09F0F6EF09F01B
:10139000304A312AF6EF09F005040610D8B4D3EF2D
:1013A00009F0D5EF09F0DEEF09F003040410D8A42A
:1013B000DCEF09F0DEEF09F0F6EF09F0000E396E10
:1013C000000E386E000E376E000E366E000E356E53
:1013D000000E346E000E336E000E326E000E316E53
:1013E000000E306E000E2F6E000E2E6E12000CC01E
:1013F000D9FF0DC0DAFFDECFF6FFDDCFF7FF000E1D
:10140000F86E0800F550250AD8A409EF0AF00BEF92
:101410000AF054EF0AF00CC0D9FF0DC0DAFFDE2A43
:10142000000EDD22000E296E000E286E28C02CF062
:1014300029C02DF02A682B680CC0D9FF0DC0DAFF37
:10144000DECFF6FFDDCFF7FF000EF86E0800F55097
:10145000250AD8A42EEF0AF030EF0AF047EF0AF081
:101460000CC0D9FF0DC0DAFFDE2A000EDD22000E0F
:10147000026E250E016E0AC003F00BC004F072EC80
:101480000AF0000E0B6E010E0A6E71EF0AF00CC02E
:10149000D9FF0DC0DAFFDE2A000EDD22000E0B6E32
:1014A000000E0A6E71EF0AF00CC0D9FF0DC0DAFF12
:1014B000DECFF6FFDDCFF7FF000EF86E0800F55027
:1014C000016E026A0AC003F00BC004F072EC0AF06D
:1014D0000CC0D9FF0DC0DAFFDE2A000EDD2241EF7D
:1014E0000AF0120003500410D8B479EF0AF07BEF31
:1014F0000AF084EF0AF003500410D8A482EF0AF037
:1015000084EF0AF089EF0AF00150C1EC0BF0BCEF58
:101510000AF020EE04F00350D9260450DA22DE50FF
:10152000DE10D8B496EF0AF098EF0AF0B3EF0AF0A5
:1015300020EE04F00350D9260450DA2210EE02F017
:101540000350E1260450E222DE50E65CE650800AB9
:10155000096EDE50800A0958D8B0B1EF0AF0B3EF37
:101560000AF0BCEF0AF020EE02F00350D926045036
:10157000DA22DE2A000EDD2212000600E1CF1EF084
:10158000E2CF1FF0D9CF20F0DACF21F0F6CF22F052
:10159000F7CF23F0F8CF24F0F5CF25F0F2AAD3EF60
:1015A0000AF0D5EF0AF0E7EF0AF0F2A4DAEF0AF05A
:1015B000DCEF0AF0E7EF0AF0F294B10ED66E54ECCD
:1015C00009F0010E186E100E196E9BEC0BF025C081
:1015D000F5FF24C0F8FF23C0F7FF22C0F6FF21C0AB
:1015E000DAFF20C0D9FF1FC0E2FF1EC0E1FF459215
:1015F000110012C016F013C017F0000E276E000E77
:10160000266E15EF0BF010C00AF011C00BF0160E8D
:101610000C6E000E0D6E14C00EF015C00FF0F7EC3E
:1016200009F00A5026260B50272216C0F6FF17C0D5
:10163000F7FF000EF86E0800F5500009D8A423EF5C
:101640000BF025EF0BF003EF0BF026C010F027C0D6
:1016500011F0120041C042F0000E81B0010E416E47
:1016600042504118D8A437EF0BF039EF0BF04DEF93
:101670000BF04150D8B43FEF0BF041EF0BF047EFC8
:101680000BF0000E026E010E016E51EF0BF0000E1A
:10169000026E020E016E51EF0BF0000E026E000E94
:1016A000016E120043C044F0000E80BA010E436E7A
:1016B00044504318D8A45FEF0BF061EF0BF075EFC7
:1016C0000BF04350D8B467EF0BF069EF0BF06FEFFE
:1016D0000BF0000E026E010E016E79EF0BF0000EA2
:1016E000026E020E016E79EF0BF0000E026E000E1C
:1016F000016E12007E0EF66E170EF76E000EF86E7B
:1017000000EE41F010EE04F00900F5CFEEFFE550D9
:10171000E150FAE100EE60F0200EEE6AE806FDE12D
:1017200000EE26F01B0EEE6AE806FDE145904592BC
:10173000000104EF08F01A0E1C6E000E1D6E000E64
:10174000106E000E116E18C012F019C013F01C0EAE
:10175000146E000E156EF9EC0AF01200000E956E74
:10176000000E8C6E928A93800F0EC16E1200C70E0F
:10177000D56EB10ED66E1200F28AF28E1200010101
:041780000101120051
:020000040020DA
:08000000FFFFFFFFFFFFFFFF00
:020000040030CA
:0E000000FF09191EF38381FFFFC0FFE0FF40E0
:00000001FF
