:020000040000FA
:0400000007EF00F016
:0A000800418296ED0BF075EF0BF04E
:101000000044656372656173650A00496E637265C9
:101010006173650A00003BC08CFF33EF09F0335069
:101020003410D8B416EF08F018EF08F023EF08F0EA
:101030003B2A0B0E216E100E226EACEC0BF0010E53
:101040003C6E5CEF09F031503210D8B42AEF08F052
:101050002CEF08F05CEF09F03B06010E216E100E3C
:10106000226EACEC0BF0040E3C6E5CEF09F03450D9
:1010700009E1650E335CD8A040EF08F042EF08F0BC
:1010800046EF08F0020E3C6E5CEF09F0335034106E
:10109000D8A44DEF08F04FEF08F05CEF09F03150A5
:1010A0003210D8B456EF08F058EF08F05AEF08F0B5
:1010B00033EF08F0000E3C6E5CEF09F03850D8B406
:1010C00064EF08F066EF08F06FEF08F03B2A0B0EB4
:1010D000216E100E226EACEC0BF0000E386E2D0E51
:1010E000335C010E3458D8A078EF08F07AEF08F09E
:1010F0007EEF08F0030E3C6E5CEF09F033503410C5
:10110000D8A485EF08F087EF08F05CEF09F03150C4
:101110003210D8B48EEF08F090EF08F05AEF08F0D4
:1011200033EF08F03750D8B498EF08F09AEF08F092
:10113000A3EF08F03B2A0B0E216E100E226EACECD2
:101140000BF0000E376E33503410D8A4AAEF08F01D
:10115000ACEF08F05CEF09F031503210D8B4B3EFC7
:1011600008F0B5EF08F05AEF08F033EF08F032500E
:1011700009E1650E315CD8A0C0EF08F0C2EF08F0BD
:10118000C6EF08F0050E3C6E5CEF09F031503210EE
:10119000D8A4CDEF08F0CFEF08F05CEF09F03350A2
:1011A0003410D8B4D6EF08F0D8EF08F05AEF08F0B2
:1011B0001FEF08F03650D8B4E0EF08F0E2EF08F087
:1011C000EBEF08F03B06010E216E100E226EACEC28
:1011D0000BF0000E366E2D0E315C010E3258D8A089
:1011E000F4EF08F0F6EF08F0FAEF08F0060E3C6EA8
:1011F0005CEF09F031503210D8A401EF09F003EF91
:1012000009F05CEF09F033503410D8B40AEF09F05C
:101210000CEF09F05AEF08F01FEF08F03550D8B482
:1012200014EF09F016EF09F01FEF09F03B06010E6D
:10123000216E100E226EACEC0BF0000E356E3150AC
:101240003210D8A426EF09F028EF09F05CEF09F07E
:1012500033503410D8B42FEF09F031EF09F05AEFC2
:1012600008F01FEF08F03C50276E286A2850000A4B
:10127000D8B43DEF09F05CEF09F02750000AD8B46C
:101280000FEF08F0010AD8B437EF08F0030AD8B41A
:101290005EEF08F0010AD8B492EF08F0070AD8B45C
:1012A000B7EF08F0010AD8B4DAEF08F0030AD8B4AF
:1012B0000EEF09F05CEF09F012004DEC0BF001C0ED
:1012C00006F002C007F025EC0BF001C008F002C0E8
:1012D00009F0020E06180710D8A471EF09F073EF99
:1012E00009F0A5EF09F0000E326E000E316E334AA0
:1012F000342A33C001F034C002F0000E046E0A0E2E
:10130000036EC2EC0AF001500210D8A48AEF09F073
:101310008CEF09F08EEF09F0010E376E33C001F04B
:1013200034C002F0000E046E320E036EC2EC0AF0FE
:1013300001500210D8A49FEF09F0A1EF09F0FBEFD4
:1013400009F0010E386EFBEF09F0020E08180910C3
:10135000D8A4ADEF09F0AFEF09F0E1EF09F0000E0E
:10136000346E000E336E314A322A31C001F032C081
:1013700002F0000E046E0A0E036EC2EC0AF0015079
:101380000210D8A4C6EF09F0C8EF09F0CAEF09F0BF
:10139000010E356E31C001F032C002F0000E046E55
:1013A000320E036EC2EC0AF001500210D8A4DBEF3B
:1013B00009F0DDEF09F0FBEF09F0010E366EFBEFEF
:1013C00009F008040910D8B4E8EF09F0EAEF09F0D1
:1013D000F3EF09F006040710D8A4F1EF09F0F3EFDA
:1013E00009F0FBEF09F0000E346E000E336E000EB4
:1013F000326E000E316E120015C0D9FF16C0DAFF32
:10140000DECFF6FFDDCFF7FF000EF86E0800F550D7
:10141000250AD8A40EEF0AF010EF0AF059EF0AF0EF
:1014200015C0D9FF16C0DAFFDE2A000EDD22000E3D
:101430002C6E000E2B6E2BC02FF02CC030F02D68C0
:101440002E6815C0D9FF16C0DAFFDECFF6FFDDCF5C
:10145000F7FF000EF86E0800F550250AD8A433EF08
:101460000AF035EF0AF04CEF0AF015C0D9FF16C0AC
:10147000DAFFDE2A000EDD22000E0B6E250E0A6E4C
:1014800013C00CF014C00DF077EC0AF0000E146ECF
:10149000010E136E76EF0AF015C0D9FF16C0DAFF01
:1014A000DE2A000EDD22000E146E000E136E76EFA3
:1014B0000AF015C0D9FF16C0DAFFDECFF6FFDDCF88
:1014C000F7FF000EF86E0800F5500A6E0B6A13C0A5
:1014D0000CF014C00DF077EC0AF015C0D9FF16C05F
:1014E000DAFFDE2A000EDD2246EF0AF012000C5071
:1014F0000D10D8B47EEF0AF080EF0AF089EF0AF001
:101500000C500D10D8A487EF0AF089EF0AF08EEF87
:101510000AF00A50E5EC0BF0C1EF0AF020EE04F0FF
:101520000C50D9260D50DA22DE50DE10D8B49BEFD5
:101530000AF09DEF0AF0B8EF0AF020EE04F00C502C
:10154000D9260D50DA2210EE02F00C50E1260D5093
:10155000E222DE50E65CE650800A126EDE50800A1F
:101560001258D8B0B6EF0AF0B8EF0AF0C1EF0AF09F
:1015700020EE02F00C50D9260D50DA22DE2A000EA1
:10158000DD22120003500410D8B4C9EF0AF0CBEFEB
:101590000AF0EFEF0AF0010E056ED3EF0AF0D890D3
:1015A00003360436052A04AED8EF0AF0DAEF0AF063
:1015B000CFEF0AF00350015C04500258D8A0E3EFCB
:1015C0000AF0E5EF0AF0E9EF0AF00350015E04507B
:1015D000025AD89004320332052EDAEF0AF001C025
:1015E00001F002C002F012001BC01FF01CC020F06E
:1015F000000E2A6E000E296E10EF0BF019C013F0CA
:101600001AC014F01F0E156E000E166E1DC017F0D6
:101610001EC018F0FCEC09F01350292614502A22A1
:101620001FC0F6FF20C0F7FF000EF86E0800F5504F
:101630000009D8A41EEF0BF020EF0BF0FEEF0AF02C
:1016400029C019F02AC01AF012003DC03EF0000E69
:1016500081B0010E3D6E3E503D18D8A432EF0BF024
:1016600034EF0BF048EF0BF03D50D8B43AEF0BF0ED
:101670003CEF0BF042EF0BF0000E026E010E016E1C
:101680004CEF0BF0000E026E020E016E4CEF0BF0F1
:10169000000E026E000E016E12003FC040F0000E00
:1016A00080BA010E3F6E40503F18D8A45AEF0BF09D
:1016B0005CEF0BF070EF0BF03F50D8B462EF0BF023
:1016C00064EF0BF06AEF0BF0000E026E010E016E7C
:1016D00074EF0BF0000E026E020E016E74EF0BF051
:1016E000000E026E000E016E1200C60EF66E170E90
:1016F000F76E000EF86E00EE3DF010EE04F00900FB
:10170000F5CFEEFFE550E150FAE100EE60F0200E7B
:10171000EE6AE806FDE100EE29F0140EEE6AE80636
:10172000FDE1419041920001BFEF0BF00600F2AAEB
:101730009CEF0BF09EEF0BF0AAEF0BF0F2A4A3EFDF
:101740000BF0A5EF0BF0AAEF0BF0F294B10ED66EF2
:101750005DEC09F041921100230E256E000E266EFD
:10176000000E196E000E1A6E21C01BF022C01CF074
:10177000250E1D6E000E1E6EF4EC0AF01200CDEC6C
:101780000BF0D6EC0BF0E0EC0BF0DBEC0BF00BEC21
:1017900008F0C7EF0BF007EF00F0000E956E000E9B
:1017A0008C6E928A93800F0EC16E1200C70ED56E9A
:1017B000B10ED66E1200770ED36E0F0E9B6E120016
:0C17C000F28AF28E1200010101011200F9
:020000040020DA
:08000000FFFFFFFFFFFFFFFF00
:020000040030CA
:0E000000FF09191EF38381FFFFC0FFE0FF40E0
:00000001FF
