:020000040000FA
:0400000007EF00F016
:0A000800418295ED0AF084EF0BF041
:101000000068656C6C6F0000000E0001826FB8EC28
:101010000BF0C1EC0BF0CBEC0BF0C6EC0BF03CC0D2
:101020008CFF02EF09F030503110D8B41AEF08F0FD
:101030001CEF08F021EF08F03C2A010E826F0FEF41
:1010400008F02E502F10D8B428EF08F02AEF08F03F
:101050002CEF09F03C06040E826F0FEF08F03150C0
:1010600009E1650E305CD8A038EF08F03AEF08F0DF
:101070003EEF08F0020E826F0FEF08F03050311093
:10108000D8A445EF08F047EF08F00FEF08F02E5016
:101090002F10D8A44EEF08F050EF08F02BEF08F017
:1010A000000E826F0FEF08F03550D8B45AEF08F0F9
:1010B0005CEF08F05FEF08F03C2A000E356E2D0E55
:1010C000305C010E3158D8A068EF08F06AEF08F0E4
:1010D0006EEF08F0030E826F0FEF08F03050311002
:1010E000D8A475EF08F077EF08F00FEF08F02E5056
:1010F0002F10D8A47EEF08F080EF08F02BEF08F057
:1011000050EF08F03450D8B488EF08F08AEF08F0B8
:101110008DEF08F03C2A000E346E30503110D8A408
:1011200094EF08F096EF08F00FEF08F02E502F1014
:10113000D8A49DEF08F09FEF08F02BEF08F050EFD8
:1011400008F02F5009E1650E2E5CD8A0AAEF08F038
:10115000ACEF08F0B0EF08F0050E826F0FEF08F06B
:101160002E502F10D8A4B7EF08F0B9EF08F02CEFED
:1011700009F030503110D8A4C0EF08F0C3EF08F0E8
:10118000010EC4EF08F0000E826F0FEF08F033502D
:10119000D8B4CDEF08F0CFEF08F0D2EF08F03C065E
:1011A000000E336E2D0E2E5C010E2F58D8A0DBEFF3
:1011B00008F0DDEF08F0E1EF08F0060E826F0FEFA8
:1011C00008F02E502F10D8A4E8EF08F0EAEF08F04E
:1011D0002CEF09F0B9EF08F03250D8B4F2EF08F074
:1011E000F4EF08F0F7EF08F03C06000E326E2E50D8
:1011F0002F10D8A4FEEF08F000EF09F00FEF08F071
:10120000B9EF08F000018251806F816B8151000AB3
:10121000D8B40DEF09F00FEF08F08051000AD8B4F0
:1012200013EF08F0010AD8B42FEF08F0030AD8B47E
:1012300054EF08F0010AD8B482EF08F0070AD8B4D6
:10124000A1EF08F0010AD8B4C7EF08F0030AD8B438
:10125000ECEF08F00FEF08F00FEF08F007EF00F0E9
:101260005CEC0BF001C006F002C007F034EC0BF0B0
:1012700001C008F002C009F0020E06180710D8A439
:1012800044EF09F046EF09F078EF09F0000E2F6EF9
:10129000000E2E6E304A312A30C001F031C002F00B
:1012A000000E046E0A0E036ED1EC0AF0015002101B
:1012B000D8A45DEF09F05FEF09F061EF09F0010ECE
:1012C000346E30C001F031C002F0000E046E320EF8
:1012D000036ED1EC0AF001500210D8A472EF09F0AD
:1012E00074EF09F0CEEF09F0010E356ECEEF09F084
:1012F000020E08180910D8A480EF09F082EF09F057
:10130000B4EF09F0000E316E000E306E2E4A2F2A17
:101310002EC001F02FC002F0000E046E0A0E036E04
:10132000D1EC0AF001500210D8A499EF09F09BEF1C
:1013300009F09DEF09F0010E326E2EC001F02FC0B2
:1013400002F0000E046E320E036ED1EC0AF0015072
:101350000210D8A4AEEF09F0B0EF09F0CEEF09F01B
:10136000010E336ECEEF09F008040910D8B4BBEFBC
:1013700009F0BDEF09F0C6EF09F006040710D8A484
:10138000C4EF09F0C6EF09F0CEEF09F0000E316EA0
:10139000000E306E000E2F6E000E2E6E12000CC06E
:1013A000D9FF0DC0DAFFDECFF6FFDDCFF7FF000E6D
:1013B000F86E0800F550250AD8A4E1EF09F0E3EF34
:1013C00009F02CEF0AF00CC0D9FF0DC0DAFFDE2ABD
:1013D000000EDD22000E296E000E286E28C02CF0B3
:1013E00029C02DF02A682B680CC0D9FF0DC0DAFF88
:1013F000DECFF6FFDDCFF7FF000EF86E0800F550E8
:10140000250AD8A406EF0AF008EF0AF01FEF0AF049
:101410000CC0D9FF0DC0DAFFDE2A000EDD22000E5F
:10142000026E250E016E0AC003F00BC004F04AECF8
:101430000AF0000E0B6E010E0A6E49EF0AF00CC0A6
:10144000D9FF0DC0DAFFDE2A000EDD22000E0B6E82
:10145000000E0A6E49EF0AF00CC0D9FF0DC0DAFF8A
:10146000DECFF6FFDDCFF7FF000EF86E0800F55077
:10147000016E026A0AC003F00BC004F04AEC0AF0E5
:101480000CC0D9FF0DC0DAFFDE2A000EDD2219EFF5
:101490000AF0120003500410D8B451EF0AF053EFD1
:1014A0000AF05CEF0AF003500410D8A45AEF0AF0D7
:1014B0005CEF0AF061EF0AF00150D0EC0BF094EF12
:1014C0000AF020EE04F00350D9260450DA22DE5050
:1014D000DE10D8B46EEF0AF070EF0AF08BEF0AF06E
:1014E00020EE04F00350D9260450DA2210EE02F068
:1014F0000350E1260450E222DE50E65CE650800A0A
:10150000096EDE50800A0958D8B089EF0AF08BEFD7
:101510000AF094EF0AF020EE02F00350D9260450AE
:10152000DA22DE2A000EDD2212000600E1CF1EF0D4
:10153000E2CF1FF0D9CF20F0DACF21F0F6CF22F0A2
:10154000F7CF23F0F8CF24F0F5CF25F0F2AAABEFD8
:101550000AF0ADEF0AF0BFEF0AF0F2A4B2EF0AF022
:10156000B4EF0AF0BFEF0AF0F294B10ED66E30EC91
:1015700009F0010E186E100E196EA5EC0BF025C0C7
:10158000F5FF24C0F8FF23C0F7FF22C0F6FF21C0FB
:10159000DAFF20C0D9FF1FC0E2FF1EC0E1FF419269
:1015A000110003500410D8B4D8EF0AF0DAEF0AF0B3
:1015B000FEEF0AF0010E056EE2EF0AF0D890033656
:1015C0000436052A04AEE7EF0AF0E9EF0AF0DEEF91
:1015D0000AF00350015C04500258D8A0F2EF0AF060
:1015E000F4EF0AF0F8EF0AF00350015E0450025ADB
:1015F000D89004320332052EE9EF0AF001C001F061
:1016000002C002F0120012C016F013C017F0000E54
:10161000276E000E266E1FEF0BF010C00AF011C0EF
:101620000BF0160E0C6E000E0D6E14C00EF015C0F1
:101630000FF0CFEC09F00A5026260B50272216C0D7
:10164000F6FF17C0F7FF000EF86E0800F55000090E
:10165000D8A42DEF0BF02FEF0BF00DEF0BF026C001
:1016600010F027C011F012003DC03EF0000E81B016
:10167000010E3D6E3E503D18D8A441EF0BF043EFF4
:101680000BF057EF0BF03D50D8B449EF0BF04BEF98
:101690000BF051EF0BF0000E026E010E016E5BEFCE
:1016A0000BF0000E026E020E016E5BEF0BF0000EEF
:1016B000026E000E016E12003FC040F0000E80BAB4
:1016C000010E3F6E40503F18D8A469EF0BF06BEF4E
:1016D0000BF07FEF0BF03F50D8B471EF0BF073EFCE
:1016E0000BF079EF0BF0000E026E010E016E83EF2E
:1016F0000BF0000E026E020E016E83EF0BF0000E77
:10170000026E000E016E12009C0EF66E170EF76E42
:10171000000EF86E00EE3DF010EE04F00900F5CF7B
:10172000EEFFE550E150FAE100EE60F0200EEE6AC7
:10173000E806FDE100EE26F0170EEE6AE806FDE190
:1017400041904192000104EF08F01A0E1C6E000E49
:101750001D6E000E106E000E116E18C012F019C032
:1017600013F01C0E146E000E156E03EC0BF012003D
:10177000000E956E000E8C6E928A93800F0EC16ED5
:101780001200C70ED56EB10ED66E1200770ED36E54
:101790000F0E9B6E1200F28AF28E120001010101FF
:0217A000120035
:020000040020DA
:08000000FFFFFFFFFFFFFFFF00
:020000040030CA
:0E000000FF09191EF38381FFFFC0FFE0FF40E0
:00000001FF
