:020000040000FA
:0400000007EF00F016
:0A0008004C8227ED08F0B2EF1BF068
:101000000049443A20313731303336342020202013
:1010100020004C544420636F6E74726F6C6C657268
:10102000202000486561742050756D70005368750C
:1010300074646F776E004865617465720046616E16
:10104000333A00483A00543A002C002E00000600C3
:10105000E1CF1FF0E2CF20F0D9CF21F0DACF22F09C
:10106000F3CF23F0F4CF24F0F2AA39EF08F03BEFEE
:1010700008F04CEF08F0F2A440EF08F042EF08F05F
:101080004CEF08F0F294830ED66E010E0001BD27DE
:10109000000EBE23BF23C0239DA051EF08F053EFE5
:1010A00008F0B7EF0AF09EA058EF08F05AEF08F0EA
:1010B000B7EF0AF09E90B10ECF6EE00ECE6E690EC5
:1010C0000001C719D8A467EF08F069EF08F095EFA1
:1010D0000AF0B7EF0AF0C7C032F0336A32C001F04D
:1010E00033C002F0000E046E0F0E036ECBEC1DF049
:1010F0006C0E0124D96E010E0220DA6EDECF25F0CF
:10110000DECF26F0DDCF27F032C001F033C002F091
:10111000000E046E0F0E036ECBEC1DF0710E012459
:10112000D96E010E0220DA6EDECF28F0DDCF29F075
:1011300025C00AF026C00BF027C00CF028C00DF027
:1011400029C00EF090EC19F032C001F033C002F06B
:10115000000E046E0F0E036ECBEC1DF06F0E01241B
:10116000D96E010E0220DA6EDF500001C76F32C067
:1011700001F033C002F0000E046E0F0E036ECBECD4
:101180001DF0680E0124D96E010E0220DA6EDE50C9
:10119000DE10DE10DE10D8A4D0EF08F0D2EF08F099
:1011A000D7EF08F032503DEC13F095EF0AF032C063
:1011B00001F033C002F0000E046E0F0E036ECBEC94
:1011C0001DF0680E0124D96E010E0220DA6E32C0C5
:1011D00001F033C002F0000E046E0F0E036ECBEC74
:1011E0001DF0640E0124E16E010E0220E26EDECFDE
:1011F000E6FFDECFE6FFDECFE6FFDECFE6FF000153
:10120000C7510F0D640EF324D96E010EF420DA6E6F
:10121000DECF2EF0DDCF2FF0690EC719D8B413EF53
:1012200009F015EF09F046EF09F0690EC719D8B4B7
:101230001CEF09F01EEF09F062EF09F02EC00FF06D
:101240002FC010F0000E10BEFF0E116E126E32C0D5
:1012500001F033C002F0000E046E0F0E036ECBECF3
:101260001DF0640E0124D96E010E0220DA6E0F50BB
:10127000DE5C1050DE581150DE581250DE58D8B0E7
:1012800044EF09F046EF09F062EF09F00001C751A1
:101290000F6E106A32C001F033C002F0000E046E0F
:1012A0000F0E036ECBEC1DF06F0E0124D96E010EF4
:1012B0000220DA6E0FC0DEFF10C0DDFF32C0C7F0C3
:1012C00037EF0AF00001C7510F0D6F0EF324D96EEE
:1012D000010EF420DA6EDECF30F0DDCF31F0C7C082
:1012E0002CF02D6AA0EF09F030C001F031C002F0FF
:1012F000000E046E0F0E036ECBEC1DF0640E012485
:10130000D96E010E0220DA6EDE502E26DD502F221D
:1013100030C02CF031C02DF030C001F031C002F0EF
:10132000000E046E0F0E036ECBEC1DF06F0E012449
:10133000D96E010E0220DA6EDECF30F0DDCF31F053
:10134000690E30183110D8B4A8EF09F0AAEF09F0EF
:10135000F6EF09F030C001F031C002F0000E046E6B
:101360000F0E036ECBEC1DF0640E0124D96E010E3E
:101370000220DA6EDECF0FF0DECF10F0DECF11F0FC
:10138000DECF12F02EC013F02FC014F0000E14BEEA
:10139000FF0E156E166E0F501324176E105014208A
:1013A000186E11501520196E125016201A6E32C088
:1013B00001F033C002F0000E046E0F0E036ECBEC92
:1013C0001DF0640E0124D96E010E0220DA6E175052
:1013D000DE5C1850DE581950DE581A50DE58D8B06E
:1013E000F4EF09F0F6EF09F074EF09F02CC001F00A
:1013F0002DC002F0000E046E0F0E036ECBEC1DF03C
:101400006F0E0124D96E010E0220DA6E32C0DEFFAB
:1014100033C0DDFF32C001F033C002F0000E046EB5
:101420000F0E036ECBEC1DF06F0E0124D96E010E72
:101430000220DA6E30C0DEFF31C0DDFF32C001F0C5
:1014400033C002F0000E046E0F0E036ECBEC1DF0E5
:10145000640E0124D96E010E0220DA6E2E50DE5E7B
:101460002F50DE5A000E2FBEFF0EDE5ADE5A32C05B
:1014700001F033C002F0000E046E0F0E036ECBECD1
:101480001DF06F0E0124D96E010E0220DA6E690E76
:10149000DE18DE10D8B44FEF0AF051EF0AF095EFE6
:1014A0000AF032C001F033C002F0000E046E0F0EDD
:1014B000036ECBEC1DF06F0E0124D96E010E0220DD
:1014C000DA6EDECF2AF0DDCF2BF032C001F033C070
:1014D00002F0000E046E0F0E036ECBEC1DF0640ED6
:1014E0000124D96E010E0220DA6EDECF0FF0DECFBE
:1014F00010F0DECF11F0DECF12F02AC001F02BC0C9
:1015000002F0000E046E0F0E036ECBEC1DF0640EA5
:101510000124D96E010E0220DA6E0F50DE5E1050EB
:10152000DE5A1150DE5A1250DE5A0001C7510F0D1B
:10153000640EF324D96E010EF420DA6EDE50DE1054
:10154000DE10DE10D8B4A7EF0AF0A9EF0AF06BEFB7
:1015500008F0C7510F0D640EF324D96E010EF4206C
:10156000DA6E0A0EDE5E000EDE5ADE5ADE5A24C045
:10157000F4FF23C0F3FF22C0DAFF21C0D9FF20C04F
:10158000E2FF1FC0E1FF4C92110000018A51800B65
:10159000936F8A518A25956F89AFD1EF0AF0D3EF07
:1015A0000AF0D4EF0AF095819551D8B4DAEF0AF039
:1015B000DCEF0AF0F1EF0AF09529D8A4E2EF0AF087
:1015C000E4EF0AF0ECEF0AF0000E876F000E886F70
:1015D000000E896F000E8A6F898F000E8A6FF9EFF7
:1015E0000AF0000E876F000E886F000E896F000EE4
:1015F0008A6F8E51800B946F93519419D8B403EF76
:101600000BF005EF0BF006EF0BF0938D8E518E254E
:10161000946F8DAF0EEF0BF010EF0BF011EF0BF09E
:1016200094819451D8B417EF0BF019EF0BF02EEF13
:101630000BF09429D8A41FEF0BF021EF0BF029EF4A
:101640000BF0000E8B6F000E8C6F000E8D6F000E76
:101650008E6F8D8F000E8E6F36EF0BF0000E8B6F3E
:10166000000E8C6F000E8D6F000E8E6F9551945D85
:10167000D8B03DEF0BF03FEF0BF066EF0BF093AD02
:1016800044EF0BF046EF0BF048EF0BF0800E931B8E
:1016900095C096F094C095F096C094F087C096F0EF
:1016A0008BC087F096C08BF088C096F08CC088F015
:1016B00096C08CF089C096F08DC089F096C08DF0F0
:1016C0008AC096F08EC08AF096C08EF0000E966F9B
:1016D000955194C08FF0906B8F5F000E905B90BF20
:1016E0007BEF0BF0905109E11A0E8F5DD8A07BEFD4
:1016F0000BF07DEF0BF0B4EF0BF0875188118911DF
:101700008A11D8A486EF0BF089EF0BF0010E8AEF57
:101710000BF0000E966F000E876F000E886F000EA4
:10172000896F000E8A6F94C095F0BDEF0BF096A103
:101730009CEF0BF09EEF0BF0A4EF0BF0D8909631DE
:101740000109966FA6EF0BF0D890963387A1ABEF07
:101750000BF0ADEF0BF0AEEF0BF0968F8A358A33BE
:10176000893388338733952B9451955DD8A0BBEF8F
:101770000BF0BDEF0BF097EF0BF093BDC2EF0BF04A
:10178000C4EF0BF004EF0CF09551D8A4CAEF0BF0A6
:10179000CCEF0BF0D6EF0BF0000E876F000E886FCA
:1017A000000E896F000E8A6F25EF0DF08B51872791
:1017B0008C5188238D5189238E518A238AA1E3EF8E
:1017C0000BF0E5EF0BF091EF0CF096A1EAEF0BF0C8
:1017D000ECEF0BF0F2EF0BF0D89096310109966F19
:1017E000F4EF0BF0D890963387A1F9EF0BF0FBEFF5
:1017F0000BF0FCEF0BF0968F8A358A3389338833F0
:101800008733952B91EF0CF08B51875D8C51885964
:101810008D5189598A51800A8F6F8E51800A8F5954
:10182000D8B015EF0CF017EF0CF042EF0CF0875129
:101830008B5D8F6F88518C59906F89518D59916F45
:101840008A518E59926FFF0E8F25876FFF0E902160
:10185000886FFF0E9121896FFF0E92218A6F800E93
:10186000931B966D9651D8A438EF0CF03AEF0CF01C
:101870004AEF0CF0010E8727000E882389238A2364
:101880004AEF0CF08B51875F8C51885B8D51895BDF
:101890008E518A5B8751881189118A11D8A453EF20
:1018A0000CF055EF0CF08AEF0CF09651D8A45BEFDA
:1018B0000CF05DEF0CF08AEF0CF0000E876F000E5D
:1018C000886F000E896F000E8A6F25EF0DF0D8909B
:1018D0008737883789378A3796AF71EF0CF073EF07
:1018E0000CF074EF0CF0878196A179EF0CF07BEF90
:1018F0000CF07FEF0CF0D880963781EF0CF0D89089
:1019000096379551D8B487EF0CF089EF0CF08AEF39
:101910000CF0950789AF8FEF0CF091EF0CF067EFAB
:101920000CF0000E946F96AF98EF0CF09AEF0CF05D
:10193000B2EF0CF096C08FF07F0E8F17D8B4A3EFE4
:101940000CF0A5EF0CF0A9EF0CF0010E946FB2EFC4
:101950000CF087A1AEEF0CF0B0EF0CF0B2EF0CF092
:10196000A5EF0CF09451D8B4B8EF0CF0BAEF0CF02E
:10197000E5EF0CF0010E8727000E882389238A23C8
:101980008AA1C5EF0CF0C7EF0CF0E5EF0CF087C0B3
:101990008FF088C090F089C091F08AC092F09235A3
:1019A0009233913390338F338FC087F090C088F09B
:1019B00091C089F092C08AF09529D8B4E2EF0CF07A
:1019C000E4EF0CF0E5EF0CF0952B9529D8B4EBEF94
:1019D0000CF0EDEF0CF0F5EF0CF09551D8A4F3EF0F
:1019E0000CF0F5EF0CF007EF0DF0000E876F000E16
:1019F000886F000E896F000E8A6F9551D8A403EF8F
:101A00000DF005EF0DF007EF0DF0000E936F95A1AF
:101A10000CEF0DF00EEF0DF011EF0DF0898F12EFBE
:101A20000DF0899FD89095318A6F93AF1AEF0DF022
:101A30001CEF0DF01DEF0DF08A8F87C087F088C076
:101A400088F089C089F08AC08AF0120000017151C3
:101A5000800B7A6F71517125806F70AF32EF0DF08E
:101A600034EF0DF035EF0DF080818051D8B43BEFAD
:101A70000DF03DEF0DF050EF0DF08029D8A443EFAD
:101A80000DF045EF0DF04DEF0DF0000E6E6F000EF6
:101A90006F6F000E706F000E716F708F58EF0DF04A
:101AA000000E6E6F000E6F6F000E706F000E716F84
:101AB0007551800B7A1B755175257F6F74AF63EF7D
:101AC0000DF065EF0DF066EF0DF07F817F51D8B41A
:101AD0006CEF0DF06EEF0DF081EF0DF07F29D8A4C3
:101AE00074EF0DF076EF0DF07EEF0DF0000E726FDB
:101AF000000E736F000E746F000E756F748F89EF98
:101B00000DF0000E726F000E736F000E746F000EFA
:101B1000756F7F51D8B48FEF0DF091EF0DF099EF05
:101B20000DF08051D8A497EF0DF099EF0DF0A3EFD1
:101B30000DF0000E6E6F000E6F6F000E706F000ED6
:101B4000716F3BEF0FF074516E03F3CF85F0F4CF5C
:101B500086F085517B6F7C6B7D6B7E6B8651816FD0
:101B6000826B836B846B73516F03F3CF85F0F4CF7B
:101B700086F085517B27000E7C237D237E238651B2
:101B80008127000E82238323842372517003F3CFB5
:101B900085F0F4CF86F085517B27000E7C237D23D2
:101BA0007E2386518127000E8223832384237DC0D8
:101BB0007EF07CC07DF07BC07CF07B6B72516F034C
:101BC000F3CF85F0F4CF86F085517B2786517C23B7
:101BD000000E7D23000E7E2373516E03F3CF85F03C
:101BE000F4CF86F085517B2786517C23000E7D2320
:101BF000000E7E237DC07EF07CC07DF07BC07CF03B
:101C00007B6B72516E03F3CF85F0F4CF86F0855174
:101C10007B2786517C23000E7D23000E7E2374518A
:101C20006F03F3CF85F0F4CF86F08551812786517D
:101C30008223000E8323000E842373517003F3CF9D
:101C400085F0F4CF86F08551812786518223000EDE
:101C50008323000E842374517003F3CF85F0F4CFF7
:101C600086F08551766F8651776F786B796B78C087
:101C700079F077C078F076C077F0766B765181276F
:101C80007751822378518323795184237BC076F066
:101C90007CC077F07DC078F07EC079F0190E56EFE9
:101CA0000EF0D8907933783377337633E82E51EFCE
:101CB0000EF0765181277751822378518323795111
:101CC00084237DC07EF07CC07DF07BC07CF07B6B8C
:101CD0007F5180C076F0776B7627000E7723820ED7
:101CE0007625856FFF0E7721866F8CEF0EF0D890EA
:101CF00081378237833784377EAF81EF0EF083EFF1
:101D00000EF084EF0EF08181D8907B377C377D37E1
:101D10007E378507D8A0860783AF91EF0EF093EF4B
:101D20000EF077EF0EF0000E7F6F7EAF9AEF0EF0A1
:101D30009CEF0EF0C0EF0EF0FF0E7B15766FFF0EDE
:101D40007C15776FFF0E7D15786F7F0E7E15796F8E
:101D50007651771178117911D8B4B1EF0EF0B3EF55
:101D60000EF0B7EF0EF0010E7F6FC0EF0EF081A105
:101D7000BCEF0EF0BEEF0EF0C0EF0EF0B3EF0EF0C2
:101D80007F51D8B4C6EF0EF0C8EF0EF0ECEF0EF0B6
:101D9000010E8127000E82238323842384A1D3EFA5
:101DA0000EF0D5EF0EF0ECEF0EF081C076F082C0B1
:101DB00077F083C078F084C079F07935793378335F
:101DC0007733763376C081F077C082F078C083F0C5
:101DD00079C084F0854B862B86BFF7EF0EF08651D5
:101DE00008E18529D8A0F7EF0EF0F9EF0EF003EF28
:101DF0000FF0000E816F000E826F800E836F7F0EDA
:101E0000846F31EF0FF086BF10EF0FF0865106E1BF
:101E10008505D8B00EEF0FF010EF0FF01CEF0FF0AC
:101E2000000E816F000E826F000E836F000E846FB4
:101E3000000E7A6F31EF0FF085C080F0FF0E811732
:101E4000FF0E82177F0E8317000E841780A12BEFE1
:101E50000FF02DEF0FF02EEF0FF0838FD890803121
:101E6000846F7A51841381C06EF082C06FF083C09A
:101E700070F084C071F012002EEC1EF00009D8B48E
:101E800044EF0FF046EF0FF049EF0FF06D0E0BEF40
:101E900011F0000E0001856F85510F0D6C0EF324BB
:101EA000D96E010EF420DA6EDE50DE10DE10D8A4FA
:101EB0005CEF0FF05EEF0FF060EF0FF069EF0FF0E7
:101EC000852B130E856567EF0FF069EF0FF04CEF70
:101ED0000FF0140E8519D8A470EF0FF072EF0FF009
:101EE00074EF0FF046EF0FF085510F0D640EF324E1
:101EF000D96E010EF420DA6E6AC0DEFF6BC0DEFF21
:101F00006CC0DEFF6DC0DEFF85510F0D680EF3243F
:101F1000D96E010EF420DA6E66C0DEFF67C0DEFF08
:101F200068C0DEFF69C0DEFF85510F0D6C0EF32423
:101F3000D96E010EF420DA6E6EC0DEFF6FC0DEFFD8
:101F400070C0DEFF85510F0D710EF324D96E010EA6
:101F5000F420DA6E71C0DEFF72C0DDFFC82BC751FE
:101F60000F0D640EF324D96E010EF420DA6EDECF6D
:101F700081F0DDCF82F0690EC719D8B4C2EF0FF03F
:101F8000C4EF0FF0E5EF0FF0690EC719D8B4CBEF2F
:101F90000FF0CDEF0FF0F8EF0FF081C073F082C0BB
:101FA00074F0000E74BFFF0E756F766F73516A5D2B
:101FB00074516B5975516C5976516D59D8B0E3EF26
:101FC0000FF0E5EF0FF0F8EF0FF0C751736F746B80
:101FD00085510F0D6F0EF324D96E010EF420DA6EC9
:101FE00073C0DEFF74C0DDFF85C0C7F0C7EF10F01F
:101FF000C7510F0D6F0EF324D96E010EF420DA6E67
:10200000DECF83F0DDCF84F0C7C07FF0806B37EF89
:1020100010F083C060F084C061F0000E636F0F0E9B
:10202000626FB7EC1DF0640E00016025D96E010EE1
:102030006121DA6EDE508127DD50822383C07FF07C
:1020400084C080F083C060F084C061F0000E636FD4
:102050000F0E626FB7EC1DF06F0E00016025D96E98
:10206000010E6121DA6EDECF83F0DDCF84F0690EE0
:1020700083198411D8B43FEF10F041EF10F07EEFD8
:1020800010F083C060F084C061F0000E636F0F0E2B
:10209000626FB7EC1DF0640E00016025D96E010E71
:1020A0006121DA6EDECF73F0DECF74F0DECF75F033
:1020B000DECF76F081C077F082C078F0000E78BF76
:1020C000FF0E796F7A6F735177257B6F745178218A
:1020D0007C6F755179217D6F76517A217E6F7B51AE
:1020E0006A5D7C516B597D516C597E516D59D8B0E8
:1020F0007CEF10F07EEF10F009EF10F08551736F58
:10210000746B7FC060F080C061F0000E636F0F0ED3
:10211000626FB7EC1DF06F0E00016025D96E010EE5
:102120006121DA6E73C0DEFF74C0DDFF85510F0DD3
:102130006F0EF324D96E010EF420DA6E83C0DEFF39
:1021400084C0DDFF81C073F082C074F0000E74BFE4
:10215000FF0E756F766F73516A5D776F74516B59AF
:10216000786F75516C59796F76516D597A6F8551C9
:102170000F0D640EF324D96E010EF420DA6E77C0D1
:10218000DEFF78C0DEFF79C0DEFF7AC0DEFF85515A
:102190000F0D6F0EF324D96E010EF420DA6E690E66
:1021A000DE18DE10D8B4D7EF10F0D9EF10F00AEF38
:1021B00011F085510F0D640EF324D96E010EF42039
:1021C000DA6EDECF73F0DECF74F0DECF75F0DECFE7
:1021D00076F085510F0D6F0EF324D96E010EF420A9
:1021E000DA6EDECF60F0DDCF61F0000E636F0F0EB0
:1021F000626FB7EC1DF0640E00016025D96E010E10
:102200006121DA6E7351DE5E7451DE5A7551DE5A09
:102210007651DE5A85511200000E00016B6F460E9A
:102220006C6F100E6D6F010E59EC1CF0080E000162
:102230006B6F430E6C6F100E6D6F010E59EC1CF03E
:10224000CDC060F0CEC061F0CFC062F0D0C063F00E
:10225000000E0001646F800E656FC70E666F430E3F
:10226000676F3AEC19F00001D8B039EF11F03BEF8D
:1022700011F057EF11F0CDC06EF0CEC06FF0CFC0AF
:1022800070F0D0C071F0000E726F000E736F200EF0
:10229000746F410E756F26EC0DF06EC087F06FC045
:1022A00088F070C089F071C08AF05FEF11F0000E05
:1022B000876F000E886F000E896F000E8A6F87C0CF
:1022C00060F088C061F089C062F08AC063F06DEC94
:1022D00016F060C08FF061C090F0D1C060F0D2C045
:1022E00061F0D3C062F0D4C063F0000E0001646FEF
:1022F000800E656FC70E666F430E676F3AEC19F07C
:102300000001D8B086EF11F088EF11F0A4EF11F0C2
:10231000D1C06EF0D2C06FF0D3C070F0D4C071F0F5
:10232000000E726F000E736F200E746F410E756F8A
:1023300026EC0DF06EC08BF06FC08CF070C08DF08D
:1023400071C08EF0ACEF11F0000E8B6F000E8C6F31
:10235000000E8D6F000E8E6F8BC060F08CC061F030
:102360008DC062F08EC063F06DEC16F060C091F02D
:1023700061C092F0020E00016B6F8FC060F090C0E0
:1023800061F0000E636F640E626FCFEC17F0000116
:102390006051300F6C6F010E1CEC1DF08FC060F0AF
:1023A00090C061F0000E0001636F0A0E626FCFEC07
:1023B00017F060C08FF061C090F0030E00016B6FEA
:1023C000490E6C6F010E1CEC1DF0040E00016B6FCA
:1023D0008FC060F090C061F0000E636F0A0E626FF4
:1023E000CFEC17F000016051300F6C6F010E1CEC48
:1023F0001DF0050E00016B6F8FC060F090C061F0A2
:10240000000E636F0A0E626F32EC18F0000160512B
:10241000300F6C6F010E1CEC1DF0020E00016B6F93
:1024200091C060F092C061F0000E636F640E626F45
:10243000CFEC17F000016051300F6C6F010E1CECF7
:102440001DF091C060F092C061F0000E0001636F5A
:102450000A0E626FCFEC17F060C091F061C092F08D
:10246000030E00016B6F4B0E6C6F010E1CEC1DF028
:10247000040E00016B6F91C060F092C061F0000E1D
:10248000636F0A0E626FCFEC17F000016051300FDE
:102490006C6F010E1CEC1DF0050E00016B6F91C0FE
:1024A00060F092C061F0000E636F0A0E626F32EC52
:1024B00018F000016051300F6C6F010E1CEC1DF024
:1024C00012000001686F00016851D8B46AEF12F081
:1024D0006CEF12F08EEF12F063BF73EF12F071EF3A
:1024E00012F08EEF12F060C064F061C065F062C05F
:1024F00066F063C067F0641F651F661F671F642B6B
:10250000000E65236623672364C06AF065C06BF024
:1025100066C06CF067C06DF096EF12F060C06AF0B4
:1025200061C06BF062C06CF063C06DF0605161110E
:1025300062116311D8A49FEF12F0A1EF12F0ABEF7C
:1025400012F0000E606F000E616F000E626F000EE1
:10255000636F3CEF13F0960E696FB5EF12F0692BC5
:10256000D8906D336C336B336A33000E6A15646F29
:10257000000E6B15656F000E6C15666FFE0E6D1507
:10258000676F6451651166116711D8A4CAEF12F024
:10259000CCEF12F0AFEF12F0DAEF12F0692B010E70
:1025A0006A27000E6B236C236D23D8906D336C3338
:1025B0006B336A33000E6A15646F000E6B15656F1E
:1025C000000E6C15666FFF0E6D15676F6451651117
:1025D00066116711D8A4EFEF12F0F1EF12F0CEEF11
:1025E00012F0F9EF12F06907D8906A376B376C3741
:1025F0006D376CBFFEEF12F000EF13F008EF13F031
:10260000020E696106EF13F008EF13F0F3EF12F01A
:1026100069B10DEF13F00FEF13F010EF13F06C9F93
:10262000D890693369C064F0656B666B676B64C092
:1026300067F0666B656B646B64516A1365516B136D
:1026400066516C1367516D136851D8B42AEF13F0BB
:102650002CEF13F034EF13F063BF33EF13F031EFCF
:1026600013F034EF13F06D8F6AC060F06BC061F04F
:102670006CC062F06DC063F01200066E3BEC1EF0A1
:102680000009D8A446EF13F048EF13F008EF14F058
:1026900006500F0D6C0EF324D96E010EF420DA6E85
:1026A000DE50DE10DE10D8A458EF13F05AEF13F00E
:1026B0005CEF13F008EF14F006500F0D640EF324D6
:1026C000D96E010EF420DA6EDE6ADE6ADE6ADD6A39
:1026D00006500F0D680EF324D96E010EF420DA6E49
:1026E000DE6ADE6ADE6ADD6A06500F0D6C0EF324C8
:1026F000D96E010EF420DA6E000EDE6E000EDE6E74
:10270000000EDE6E06500F0D710EF324D96E010E11
:10271000F420DA6E000EDE6E000EDD6E0001C807DA
:10272000C7510618D8A497EF13F099EF13F0B1EF43
:1027300013F006500F0D6F0EF324D96E010EF42026
:10274000DA6EDF50C76F06500F0D6F0EF324D96E8F
:10275000010EF420DA6E690EDE6E000EDD6E08EFFB
:1027600014F0C7C005F0BFEF13F005500F0D6F0E4A
:10277000F324D96E010EF420DA6EDF50056E055099
:102780000F0D6F0EF324D96E010EF420DA6E690E70
:10279000DE18DE10D8B4CFEF13F0D1EF13F0E8EF6E
:1027A00013F005500F0D6F0EF324D96E010EF420B7
:1027B000DA6E0650036E046ADE50031807E1DE503D
:1027C0000418D8A4E6EF13F0E8EF13F0B5EF13F018
:1027D00006500F0D6F0EF324D96E010EF420DA6E41
:1027E00005500F0D6F0EF324E16E010EF420E26E22
:1027F000DECFE6FFDDCFE5FF06500F0D6F0EF324B1
:10280000D96E010EF420DA6E690EDE6E000EDD6EFA
:10281000120094EF14F0CC51D8B411EF14F013EF70
:1028200014F0B2EF14F0000ECC6F010ECA6F6FEC13
:102830001EF0000E0001616F010E606FDCEC1CF0F9
:10284000000E00016B6F360E6C6F100E6D6F000E78
:1028500059EC1CF050EC1EF060C0B9F061C0BAF049
:1028600062C0BBF063C0BCF0B2EF14F0C951D8B481
:102870003CEF14F03EEF14F0B2EF14F0000EC96F0D
:10288000000E6B6F230E6C6F100E6D6F000E59EC07
:102890001CF0020E0001CA6F50EC1EF060C0B9F0CF
:1028A00061C0BAF062C0BBF063C0BCF073EC1EF054
:1028B00071EC1EF0000E0001616F020E606FDCEC27
:1028C0001CF0B2EF14F0C951D8B469EF14F06BEFFB
:1028D00014F0B2EF14F0000EC96F000E6B6F360EDD
:1028E0006C6F100E6D6F000E59EC1CF050EC1EF06A
:1028F00060C0B9F061C0BAF062C0BBF063C0BCF0A8
:10290000010E0001CA6F75EC1EF06FEC1EF0000E98
:102910000001616F010E606FDCEC1CF0B2EF14F08F
:1029200077EC1EF0B2EF14F00001CA516F6F706BBC
:102930007051000AD8B49FEF14F0B2EF14F06F5149
:10294000000AD8B40BEF14F0010AD8B436EF14F033
:10295000030AD8B463EF14F0010AD8B490EF14F06E
:10296000B2EF14F0120065EC17F00009D8A4BBEF29
:1029700014F0BDEF14F0D0EF14F0000E0001CD6F95
:10298000800ECE6FC70ECF6F430ED06F000ED16F8B
:10299000800ED26FC70ED36F430ED46F4DEF15F07C
:1029A0000001C351606F616B626B636B000E61EC81
:1029B00012F060C0CDF061C0CEF062C0CFF063C055
:1029C000D0F00001C4AFE7EF14F0E9EF14F003EF2B
:1029D00015F0000E976F000E986F800E996FBF0E66
:1029E0009A6FCDC09BF0CEC09CF0CFC09DF0D0C000
:1029F0009EF035EC1CF097C0CDF098C0CEF099C099
:102A0000CFF09AC0D0F0CDC087F0CEC088F0CFC054
:102A100089F0D0C08AF0CD0E0001726FCC0E736FBA
:102A2000CC0E746F3D0E756FC6C09FF00F0E9F17D2
:102A30009F51606F616B626B636B010E61EC12F012
:102A400060C06EF061C06FF062C070F063C071F082
:102A500026EC0DF06EC08BF06FC08CF070C08DF066
:102A600071C08EF0C5EC0AF087C0CDF088C0CEF002
:102A700089C0CFF08AC0D0F00001C151606F616B96
:102A8000626B636B000E61EC12F060C0D1F061C04C
:102A9000D2F062C0D3F063C0D4F01200640E000123
:102AA000666F000E676F000E686F000E696FE80EAC
:102AB0006A6F030E6B6F000E6C6F000E6D6FE20E8F
:102AC0006E6F2D0E6F6F000E706F000E716F000E27
:102AD000726F3CEC0FF00001A56F880E666F130E4D
:102AE000676F000E686F000E696FE80E6A6F030E65
:102AF0006B6F000E6C6F000E6D6F660E6E6F290EA1
:102B00006F6F000E706F000E716F000E726F3CECF5
:102B10000FF00001A66F880E666F130E676F000E30
:102B2000686F000E696F000E6A6F000E6B6F000E0B
:102B30006C6F000E6D6FC60E6E6F310E6F6F000EF4
:102B4000706F000E716F000E726F3CEC0FF00001A1
:102B5000A76F100E666F270E676F000E686F000E6E
:102B6000696F100E6A6F270E6B6F000E6C6F000E90
:102B70006D6FEA0E6E6F3A0E6F6F000E706F000E83
:102B8000716F000E726F3CEC0FF00001A86F100E19
:102B9000666F270E676F000E686F000E696FB80EC4
:102BA0006A6F0B0E6B6F000E6C6F000E6D6F180E60
:102BB0006E6F220E6F6F000E706F000E716F000E41
:102BC000726F3CEC0FF00001A96F1200D7EC1AF005
:102BD000000E0001696F000E686F68C060F069C088
:102BE00061F0000E636F0F0E626FB7EC1DF0640EA4
:102BF00000016025D96E010E6121DA6EDE6ADE6A9F
:102C0000DE6ADD6A68C060F069C061F0000E636F63
:102C10000F0E626FB7EC1DF0680E00016025D96ED3
:102C2000010E6121DA6EDE6ADE6ADE6ADD6A68C084
:102C300060F069C061F0000E636F0F0E626FB7EC59
:102C40001DF06C0E00016025D96E010E6121DA6E57
:102C5000000EDE6E000EDE6E000EDE6E68C060F0EE
:102C600069C061F0000E636F0F0E626FB7EC1DF06C
:102C7000710E00016025D96E010E6121DA6E000E21
:102C8000DE6E000EDD6E68C060F069C061F0000E9F
:102C9000636F0F0E626FB7EC1DF06F0E00016025C1
:102CA000D96E010E6121DA6E690EDE6E000EDD6EE8
:102CB000684B692B69BF66EF16F0695109E1140E84
:102CC000685DD8A066EF16F068EF16F0EDEF15F02E
:102CD000000EC86F690EC76F1200000162356335C0
:102CE000696F6951D8A477EF16F079EF16F083EF8A
:102CF00016F0000E606F000E616F000E626F000E26
:102D0000636FF0EF16F060C064F061C065F062C000
:102D100066F063C067F0200E93EF16F0D89067332B
:102D2000663365336433E82E8EEF16F06451686FB6
:102D3000628FFF0E6017FF0E6117FF0E6217000E05
:102D40006317960E695F69BFAAEF16F0A8EF16F039
:102D5000C0EF16F06951800A970FD8B0B2EF16F0A5
:102D6000B4EF16F0B6EF16F079EF16F0D8906333A3
:102D7000623361336033693FB6EF16F0D8EF16F077
:102D80001F0E6965C6EF16F0C8EF16F0D0EF16F00B
:102D900079EF16F0D890603761376237633769078B
:102DA0006951D8A4D6EF16F0D8EF16F0CAEF16F096
:102DB0006851D8B4DEEF16F0E0EF16F0E8EF16F049
:102DC000631F621F611F606D000E61236223632316
:102DD00060C060F061C061F062C062F063C063F027
:102DE00012000CEC1CF060C066F061C067F0E3EC10
:102DF0001BF060C068F061C069F01CEF17F0020EB4
:102E000066196711D8A407EF17F009EF17F04FEF15
:102E100017F0010EC66F010ECC6F4FEF17F066056D
:102E20006711D8A416EF17F018EF17F04FEF17F04F
:102E3000000EC66F4FEF17F00001C651646F656B4F
:102E40006551000AD8B427EF17F04FEF17F064511F
:102E5000000AD8B4FFEF16F0010AD8B40FEF17F04C
:102E60004FEF17F0020E68196911D8A43AEF17F066
:102E70003CEF17F064EF17F0010EC56F010ECB6F3A
:102E800064EF17F068056911D8A449EF17F04BEF0C
:102E900017F064EF17F0000EC56F64EF17F0C5511F
:102EA000646F656B6551000AD8B459EF17F064EF91
:102EB00017F06451000AD8B432EF17F0010AD8B401
:102EC00042EF17F064EF17F01200000166696769BE
:102ED00094968B86340E0001646FF10EE82EFED7B7
:102EE000642FFCD700D08B96280EE82EFED7948650
:102EF0008AEF17F000016607D8A0670766516711CF
:102F0000D8A485EF17F087EF17F08AEF17F0000EBF
:102F1000CEEF17F082A68FEF17F091EF17F07AEF50
:102F200017F0000166696769A4EF17F06607D8A07B
:102F3000670766516711D8A4A0EF17F0A2EF17F04A
:102F4000A4EF17F087EF17F082B6A9EF17F0ABEFF9
:102F500017F096EF17F0E6EC19F00001C16FE6EC00
:102F600019F00001C26FE6EC19F00001C36FE6EC46
:102F700019F00001C46FE6EC19F00001656FC25151
:102F8000C425C125C3256519D8B4C9EF17F0CBEF07
:102F900017F0CDEF17F087EF17F0010E1200000EBB
:102FA0000001656F63BFD9EF17F0D7EF17F0DFEFC0
:102FB00017F0626D631FD8B0632B010E656F61BFA0
:102FC000E6EF17F0E4EF17F0ECEF17F0606D611F1C
:102FD000D8B0612B010E651B000E676F000E666F87
:102FE00062516311D8B4F7EF17F0F9EF17F021EF42
:102FF00018F0010E646F01EF18F0D8906237633754
:10300000642B63AF06EF18F008EF18F0FDEF17F030
:10301000D890663767376251605D63516159D8A0B7
:1030200014EF18F016EF18F01BEF18F06251605F04
:103030006351615B6681D89063336233642F08EF1C
:1030400018F06551D8B427EF18F029EF18F02DEFDC
:1030500018F0666D671FD8B0672B66C060F067C058
:1030600061F01200000E0001656F61BF3CEF18F0C7
:103070003AEF18F042EF18F0606D611FD8B0612B85
:10308000010E656F63BF49EF18F047EF18F04DEF81
:1030900018F0626D631FD8B0632B62516311D8B40E
:1030A00054EF18F056EF18F07AEF18F0010E646F35
:1030B0005EEF18F0D89062376337642B63AF63EF2D
:1030C00018F065EF18F05AEF18F06251605D635127
:1030D0006159D8A06EEF18F070EF18F074EF18F087
:1030E0006251605F6351615BD89063336233642FD8
:1030F00065EF18F06551D8B480EF18F082EF18F042
:1031000086EF18F0606D611FD8B0612B60C060F071
:1031100061C061F01200000E066E02BE94EF18F05E
:1031200092EF18F09AEF18F0016C021ED8B0022A44
:10313000010E066E04BEA1EF18F09FEF18F0A5EF88
:1031400018F0036C041ED8B0042A03500410D8B43D
:10315000ACEF18F0AEEF18F0D2EF18F0010E056EDC
:10316000B6EF18F0D89003360436052A04AEBBEF4C
:1031700018F0BDEF18F0B2EF18F00350015C0450E6
:103180000258D8A0C6EF18F0C8EF18F0CCEF18F02E
:103190000350015E0450025AD89004320332052EC7
:1031A000BDEF18F00650D8B4D8EF18F0DAEF18F0E9
:1031B000DEEF18F0016C021ED8B0022A01C001F047
:1031C00002C002F012000001CA05D8B4EAEF18F0FC
:1031D000ECEF18F0F5EF18F0020ECA19D8A4F3EFCF
:1031E00018F0F5EF18F039EF19F0D1C060F0D2C047
:1031F00061F0D3C062F0D4C063F06DEC16F060C033
:103200006FF061C070F06FC060F070C061F059EC99
:103210001EF0080E00016B6F3D0E6C6F100E6D6F8F
:10322000000E59EC1CF00D0E00016B6F6FC060F0CA
:1032300070C061F0000E636F0A0E626FCFEC17F082
:10324000000160516C6F000E1CEC1DF00E0E0001B1
:103250006B6F6FC060F070C061F0000E636F0A0E9C
:10326000626F32EC18F0000160516C6F000E1CECC4
:103270001DF01200000E00016015686F000E611550
:10328000696F800E62156A6F7F0E63156B6F6851F0
:1032900069116A116B11D8A450EF19F052EF19F0AF
:1032A0005AEF19F0000E606F000E616F000E626F32
:1032B000000E636F000E6415686F000E6515696F70
:1032C000800E66156A6F7F0E67156B6F6851691106
:1032D0006A116B11D8A46FEF19F071EF19F079EF43
:1032E00019F0000E646F000E656F000E666F000E21
:1032F000676F645160190FE1655161190CE1665106
:10330000621909E167516319D8B489EF19F08BEF9D
:1033100019F08EEF19F0D8908FEF19F0D8801200C5
:1033200020EC1EF00009D8B498EF19F09AEF19F0CC
:103330009CEF19F0E5EF19F00001D72906E1D82933
:10334000D8A4A5EF19F0A7EF19F0ABEF19F0000E14
:10335000D86F000ED76F010ED525016E000ED62155
:10336000026E000E046E140E036E8BEC18F001C09A
:10337000D5F002C0D6F0D5C001F0D6C002F0000EE4
:10338000046E050E036ECBEC1DF0000E0124D96E09
:10339000010E0220DA6E0AC0DEFF0BC0DEFF0CC099
:1033A000DEFFD5C001F0D6C002F0000E046E050E9F
:1033B000036ECBEC1DF0030E0124D96E010E02202A
:1033C000DA6E0DC0DEFF0EC0DDFF1200000E000140
:1033D000606F400E636F61696269FEEF19F061070B
:1033E000D8A0620761516211D8A4F9EF19F0FBEF80
:1033F00019F0FEEF19F0000E3AEF1AF082A603EF73
:103400001AF005EF1AF0EFEF19F01A0EE82EFED7BA
:1034100000D082A60EEF1AF010EF1AF02DEF1AF07E
:10342000000160516311606F6169626926EF1AF0F3
:103430006107D8A0620761516211D8A422EF1AF087
:1034400024EF1AF026EF1AF0FBEF19F082B62BEFFB
:103450001AF02DEF1AF018EF1AF00001D89063312E
:10346000636F6351D8A437EF1AF039EF1AF0EBEF1E
:1034700019F060511200000E00016F6F000E706FA6
:10348000000E716F000E726F000E736F5AEC1DF01C
:103490000009D8B44EEF1AF050EF1AF05BEF1AF0B3
:1034A00020EE6FF000EE68F0040EDBCFEBFFE806D5
:1034B000FCE28BEF1AF0D7C06DF0D8C06EF0010EB1
:1034C0000001D725606F000ED821616F000E636F79
:1034D000140E626F32EC18F060C0D7F061C0D8F003
:1034E0006DC060F06EC061F0000E0001636F050EEC
:1034F000626FB7EC1DF0000E00016025D96E010E61
:103500006121DA6E10EE6FF0040EDBCFE3FFE80608
:10351000FCE250EF1AF0120000016C6F040E000183
:103520006C6595EF1AF097EF1AF0B5EF1AF0D6EF39
:103530001AF0F28AF294C30ED56E830ED66E000E88
:10354000BD6F000EBE6F000EBF6F000EC06FD6EFD6
:103550001AF0E6EC15F09D809E90810ECD6EB10EB6
:10356000CF6EE00ECE6ED6EF1AF06C516A6F6B6BB9
:103570006B51000AD8B4BFEF1AF0D6EF1AF06A51B7
:10358000000AD8B499EF1AF0010AD8B4A9EF1AF0DA
:10359000030AD8B4D6EF1AF0010AD8B4D6EF1AF05D
:1035A000070AD8B4D6EF1AF0D6EF1AF01200000EC0
:1035B0000001676F000E666F66C060F067C061F063
:1035C000000E636F050E626FB7EC1DF0030E000175
:1035D0006025D96E010E6121DA6E000EDE6E000EDE
:1035E000DD6E66C060F067C061F0000E636F050EAF
:1035F000626FB7EC1DF0000E00016025D96E010E60
:103600006121DA6E000EDE6E000EDE6E000EDE6EE2
:10361000664B672B67BF16EF1BF0675109E1140E6D
:10362000665DD8A016EF1BF018EF1BF0DCEF1AF068
:1036300012000001606F60C062F0000E0001616F57
:1036400060AF25EF1BF027EF1BF02AEF1BF08B8AF2
:103650002BEF1BF08B9A8BA830EF1BF032EF1BF097
:1036600036EF1BF0D880623739EF1BF062516225CC
:10367000626F8B8600F000F000F000F000F000F0C8
:103680008B960001D8906037612B070E61654BEF78
:103690001BF04DEF1BF020EF1BF0120047EC1EF06B
:1036A000979C8E9C0D0E0001666FFB0EE82EFED7D8
:1036B000662FFCD700D08E8C000E11EC1EF0010E90
:1036C00011EC1EF0000E0001636F120E01EC1EF0F3
:1036D000270E0001666FF50EE82EFED7662FFCD789
:1036E000320E9BEC1CF03C0E9BEC1CF00C0E9BEC89
:1036F0001CF0010E9BEC1CF0060E9BEC1CF0120063
:10370000A7EF1BF03BEC1AF020EEA0F0040EEBCF7D
:10371000DBFFE806FCE20001A051A111A211D8B420
:1037200094EF1BF096EF1BF0A7EF1BF0A3C062F025
:10373000A4C063F002D8A7EF1BF00500FA6EA051F9
:10374000FD6EA151FE6EA251FF6EFA5012005AECAE
:103750001DF00009D8B4AFEF1BF0B1EF1BF082EF02
:103760001BF01200BE0EF66E3C0EF76E000EF86EE9
:1037700000EED5F010EE0AF00900F5CFEEFFE550AF
:10378000E150FAE101EE64F011EE2CF0EE6AE55042
:10379000E150FCE1E250FAE101EE00F0640EEE6A65
:1037A000E806FDE100EEA5F0300EEE6AE806FDE168
:1037B00000EE34F0180EEE6AE806FDE14C904C92F3
:1037C0000001BCEF1CF0DBC0DCF0000E81B0010E8C
:1037D0000001DB6FDC51DB19D8A4F1EF1BF0F3EF34
:1037E0001BF007EF1CF0DB51D8B4F9EF1BF0FBEF37
:1037F0001BF001EF1CF0000E616F010E606F0BEF0C
:103800001CF0000E616F020E606F0BEF1CF0000EDB
:10381000616F000E606F1200DDC0DEF0000E80BA36
:10382000010E0001DD6FDE51DD19D8A41AEF1CF086
:103830001CEF1CF030EF1CF0DD51D8B422EF1CF06F
:1038400024EF1CF02AEF1CF0000E616F010E606F78
:1038500034EF1CF0000E616F020E606F34EF1CF04D
:10386000000E616F000E606F1200000E00019B1BC6
:10387000000E9C1B000E9D1B800E9E1B97C087F0A8
:1038800098C088F099C089F09AC08AF09BC08BF0EC
:103890009CC08CF09DC08DF09EC08EF0C5EC0AF0EF
:1038A00087C097F088C098F089C099F08AC09AF0D4
:1038B000120000016E6F030E00016E6162EF1CF0DA
:1038C00064EF1CF079EF1CF00F0E6B656AEF1CF0D3
:1038D0006CEF1CF06EEF1CF079EF1CF06BC066F023
:1038E0006E513BEC1DF06CC066F06DC067F0FCECF7
:1038F0001CF012000001656F060EE82EFED700D006
:10390000800E0001636F120E01EC1EF000D065C046
:1039100063F0130E01EC1EF000D0C00E0001636FC7
:10392000120E01EC1EF000D0000E0001636F120EAB
:1039300001EC1EF012000001656F060EE82EFED7A6
:1039400000D0000E0001636F120E01EC1EF000D0DB
:1039500065C063F0130E01EC1EF000D0400E0001B4
:10396000636F120E01EC1EF000D0000E0001636FB9
:10397000120E01EC1EF01200F0EC1DF04EEC15F0F2
:10398000000E00016B6F120E6C6F100E6D6F000E4B
:1039900059EC1CF0000E00016B6F010E6C6F100EE5
:1039A0006D6F010E59EC1CF080EC1BF009EC14F06B
:1039B000D4EF1CF007EF00F0E4EF1CF08C8EFBEF6F
:1039C0001CF08C8CFBEF1CF060C062F061C063F0F7
:1039D00000016351000AD8B4F0EF1CF0FBEF1CF0BB
:1039E0006251010AD8B4DEEF1CF0030AD8B4E1EF4B
:1039F0001CF0FBEF1CF012000BEF1DF066C0F6FF91
:103A000067C0F7FF000EF86E0800F5507AEC1CF066
:103A10000001664B672B66C0F6FF67C0F7FF000E1C
:103A2000F86E0800F5500009D8A419EF1DF01BEF3F
:103A30001DF0FEEF1CF0120000016D6F030E00017F
:103A40006D6125EF1DF027EF1DF03AEF1DF00F0E11
:103A50006B652DEF1DF02FEF1DF031EF1DF03AEFEC
:103A60001DF06BC066F06D513BEC1DF000016C5118
:103A70007AEC1CF012000001676F00016751D8B4A6
:103A800044EF1DF046EF1DF04EEF1DF0C00E662511
:103A9000686F696B000E692354EF1DF0800E662578
:103AA000686F696B000E692368C06AF06A519BEC0D
:103AB0001CF012000001D72906E1D829D8A463EF31
:103AC0001DF065EF1DF068EF1DF0000E74EF1DF0A6
:103AD0008CEC1DF00009D8B470EF1DF073EF1DF0F1
:103AE000010E74EF1DF0000E12000001CA05D8A4EB
:103AF0007CEF1DF07EEF1DF08BEF1DF0020ECA195A
:103B0000D8B485EF1DF087EF1DF089EF1DF08BEF26
:103B10001DF0010EC96F12000001D751D55D666F0F
:103B2000D851D659676F150E6625606F000E672154
:103B3000616F000E636F140E626F32EC18F00001BB
:103B4000605112000001D751D55D076ED851D6598A
:103B5000086E150E0724016E000E0820026E000E7E
:103B6000046E140E036E8BEC18F00150120000016D
:103B700060516203F3CF64F0F4CF65F060516303EA
:103B8000F350652761516203F350652764C060F00C
:103B900065C061F0120001500302F3CF05F0F4CFCD
:103BA00006F001500402F350062602500302F350BF
:103BB000062605C001F006C002F01200000E8B6E52
:103BC000D70E946E0F0EC16E000E896EF30E926EBC
:103BD000000E8A6E9368000E8C6E000E956E1200B9
:103BE00069EC1EF0DEEC1DF06CEC1EF064EC1EF0D7
:103BF0004EEC1BF0000E8CEC1AF0010E8CEC1AF05F
:103C000012000001646F8994400E19EC1BF0000152
:103C1000645119EC1BF00001635119EC1BF089840D
:103C200012000001636F8994400E19EC1BF0000133
:103C3000635119EC1BF0000E19EC1BF08984120083
:103C4000A2EC1DF0096E140E096029EF1EF02CEF96
:103C50001EF0010E2DEF1EF0000E1200140E0001DA
:103C6000C819D8B436EF1EF039EF1EF0010E3AEF46
:103C70001EF0000E12000001C851D8B442EF1EF031
:103C800045EF1EF0010E46EF1EF0000E120092945A
:103C90009488949A949689848B888B9A8B96120038
:103CA000BDC060F0BEC061F0BFC062F0C0C063F0D4
:103CB000120000016051180DF3CF74FF1200FFFFD6
:103CC000FFFF102701010101000E8C6E000E956EA2
:103CD0001200700ED36E1200F28EF28C12008C80E5
:103CE00012008C8212008C9012008C921200120032
:020000040020DA
:08000000FFFFFFFFFFFFFFFF00
:020000040030CA
:0E000000FF09191EF38381FFFFC0FFE0FF40E0
:00000001FF
