:020000040000FA
:0400000007EF00F016
:0A000800578278ED11F02EEF12F090
:10100000005241353D4D4F444946595F484F555276
:101010000A0D005241353D4D4F444946595F484FF6
:10102000555200202020202020202000253032642E
:10103000200900253032643A000049C0D9FF4AC077
:10104000DAFFDECFF6FFDDCFF7FF000EF86E080007
:10105000F550250AD8A42FEF08F031EF08F0C5EFBE
:1010600009F049C0D9FF4AC0DAFFDE2A000EDD22AE
:10107000000E0001636F000E626F62C051F063C02A
:1010800052F04F685068000EA16F000EA06F91EFF4
:1010900008F0518049C0D9FF4AC0DAFFDE2A000EAD
:1010A000DD2291EF08F051824AEF08F051844AEFB7
:1010B00008F051864AEF08F051884AEF08F0000E18
:1010C000A16F010EA06F91EF08F049C0D9FF4AC08F
:1010D000DAFFDECFF6FFDDCFF7FF000EF86E080077
:1010E000F550946F956B9551000AD8B47AEF08F0DB
:1010F0005FEF08F09451200AD8B459EF08F0030AC2
:10110000D8B45CEF08F0080AD8B456EF08F0060A25
:10111000D8B449EF08F01D0AD8B453EF08F05FEFD8
:1011200008F0A051A111D8B498EF08F09AEF08F098
:1011300065EF08F051A09FEF08F0A1EF08F0A2EFD3
:1011400008F0519249C0D9FF4AC0DAFFDECFF6FF5E
:10115000DDCFF7FF000EF86E0800F5502A0AD8A47C
:10116000B4EF08F0B6EF08F0DFEF08F049C0D9FFA0
:101170004AC0DAFFDE2A000EDD224BC0D9FF4CC088
:10118000DAFFDFCF94F0020EDE26DFCF95F0000EFF
:10119000DD2294C0D9FF95C0DAFFDECF62F0DDCF4B
:1011A00063F063BFD8EF08F0D6EF08F025EF09F041
:1011B0005180626D631FD8B0632B25EF09F049C0E1
:1011C000D9FF4AC0DAFFDECF0FF0DDCF10F052ECCE
:1011D0000BF00FC062F010C063F0F6EF08F049C0EA
:1011E000D9FF4AC0DAFFDE2A000EDD22D00E000150
:1011F000946FFF0E956F49C0D9FF4AC0DAFFDECF6A
:10120000F6FFDDCFF7FF000EF86E0800F550966F81
:10121000976B945196279551972397510AE10A0E9F
:10122000965DD8A016EF09F019EF09F0010E1AEF3C
:1012300009F0000EA26FA36BA251A311D8A423EF53
:1012400009F025EF09F0EFEF08F049C0D9FF4AC0D7
:10125000DAFFDECFF6FFDDCFF7FF000EF86E0800F5
:10126000F550640AD8B437EF09F039EF09F04DEFC3
:1012700009F049C0D9FF4AC0DAFFDECFF6FFDDCF63
:10128000F7FF000EF86E0800F550690AD8A44BEF7E
:1012900009F04DEF09F08DEF09F049C0D9FF4AC0C0
:1012A000DAFFDE2A000EDD224BC0D9FF4CC0DAFF88
:1012B000DFCF94F0020EDE26DFCF95F0000EDD22A8
:1012C00094C0D9FF95C0DAFFDECF98F0DDCF99F05A
:1012D000000E99BFFF0E9A6F9B6F9C6F9D6F9E6F64
:1012E0009F6F47C023F048C024F098C025F099C0F4
:1012F00026F09AC027F09BC028F09CC029F09DC022
:101300002AF09EC02BF09FC02CF0E3EC09F023C024
:1013100047F024C048F0E2EF09F049C0D9FF4AC0C5
:10132000DAFFDECFF6FFDDCFF7FF000EF86E080024
:10133000F550250AD8A49FEF09F0A1EF09F0B8EF06
:1013400009F049C0D9FF4AC0DAFFDE2A000EDD22CB
:10135000000E096E250E086E47C00AF048C00BF05B
:10136000FDEC0FF0000E486E010E476EE2EF09F043
:1013700049C0D9FF4AC0DAFFDE2A000EDD22000E86
:10138000486E000E476EE2EF09F049C0D9FF4AC02F
:10139000DAFFDECFF6FFDDCFF7FF000EF86E0800B4
:1013A000F550086E096A47C00AF048C00BF0FDEC22
:1013B0000FF049C0D9FF4AC0DAFFDE2A000EDD2255
:1013C000B2EF09F0120025C03DF026C03EF027C064
:1013D0003FF028C040F029C041F02AC042F02BC0A5
:1013E00043F02CC044F044BEF8EF09F0FBEF09F0E5
:1013F000010EFCEF09F0000E3B6E3C6A3B503C10C6
:10140000D8B405EF0AF007EF0AF017EF0AF0441E10
:10141000431E421E411E401E3F1E3E1E3D6C000EDE
:101420003E223F224022412242224322442250BEF9
:101430001CEF0AF01EEF0AF01FEF0AF0519250BEA7
:101440002CEF0AF0505006E14F04D8B02AEF0AF012
:101450002CEF0AF032EF0AF0000E386E010E376EF4
:1014600036EF0AF04FC037F050C038F062C039F0A4
:1014700063C03AF03B503C10D8A441EF0AF043EF70
:101480000AF04AEF0AF051A448EF0AF04AEF0AF0D6
:101490004DEF0AF03906D8A03A06000E466E1F0E30
:1014A000456E000E0001936FD2EF0AF04506D8A0FA
:1014B0004606740E4524D96E000E4620DA6E3DC0F5
:1014C00008F03EC009F03FC00AF040C00BF041C038
:1014D0000CF042C00DF043C00EF044C00FF00A0EF5
:1014E000106E000E116E000E126E000E136E000EC6
:1014F000146E000E156E000E166E000E176EE8ECE0
:101500000CF008C02DF009C02EF00AC02FF00BC05F
:1015100030F00CC031F00DC032F00EC033F00FC00F
:1015200034F02DC01AF02FC01BF0EFEC11F01A5060
:10153000300FDF6E3706D8A038063906D8A03A0635
:101540003DC008F03EC009F03FC00AF040C00BF0BB
:1015500041C00CF042C00DF043C00EF044C00FF08B
:101560000A0E106E000E116E000E126E000E136E3B
:10157000000E146E000E156E000E166E000E176E25
:1015800024EC0CF008C03DF009C03EF00AC03FF06A
:101590000BC040F00CC041F00DC042F00EC043F053
:1015A0000FC044F046BEDDEF0AF0465008E14504A6
:1015B000D8A0DDEF0AF0DFEF0AF00FEF0BF03D509F
:1015C0003E103F1040104110421043104410D8A468
:1015D000ECEF0AF0EEEF0AF056EF0AF038BEFBEF40
:1015E0000AF0385006E13704D8B0F9EF0AF0FBEF03
:1015F0000AF056EF0AF03ABE06EF0BF03A5008E157
:101600003904D8A006EF0BF008EF0BF00FEF0BF04A
:1016100051B20DEF0BF00FEF0BF056EF0AF03B500D
:101620003C10D8A416EF0BF018EF0BF01FEF0BF0E7
:1016300051A41DEF0BF01FEF0BF03DEF0BF0450633
:10164000D8A046063B503C10D8A429EF0BF02BEF56
:101650000BF031EF0BF0000E366E2B0E356E35EFC2
:101660000BF0000E366E2D0E356E740E4524D96EBD
:10167000000E4620DA6E35C0DFFF23C018F024C00C
:1016800019F0740E45241A6E000E46201B6E39C0E8
:101690001CF03AC01DF0EBEC0EF018C023F019C09E
:1016A00024F01200000E1D6E000E1C6E000E166E51
:1016B000000E156E5EEF0BF00F4A102A010E1B6E26
:1016C0000FC0F6FF10C0F7FF000EF86E0800F550CF
:1016D000200AD8B46EEF0BF070EF0BF08FEF0BF029
:1016E000F70E116EFF0E126E0FC0F6FF10C0F7FF5F
:1016F000000EF86E0800F550136E146A1150132690
:1017000012501422145009E1050E135CD8A08BEF7F
:101710000BF08DEF0BF08FEF0BF0000E1B6E1BC06C
:1017200017F0186A17501810D8A499EF0BF09BEF18
:101730000BF05CEF0BF0A5EF0BF0000E166E010E38
:10174000156E0F4A102ADEEF0BF00FC0F6FF10C027
:10175000F7FF000EF86E0800F550116E126A125075
:10176000000AD8B4B6EF0BF0DEEF0BF011502B0AE5
:10177000D8B4A1EF0BF0060AD8B49DEF0BF0DEEF62
:101780000BF01CC008F01DC009F0000E0B6E0A0E15
:101790000A6EAAEC12F00FC0F6FF10C0F7FF000EA1
:1017A000F86E0800F550085E000E095A300E082445
:1017B0001C6E000E09201D6EA1EF0BF0D00E116EF5
:1017C000FF0E126E0FC0F6FF10C0F7FF000EF86E8E
:1017D0000800F550136E146A11501326125014228B
:1017E00014500AE10A0E135CD8A0F9EF0BF0FCEFDD
:1017F0000BF0010EFDEF0BF0000E196E1A6A195076
:101800001A10D8A406EF0CF008EF0CF0C1EF0BF0A3
:1018100015501610D8A40FEF0CF011EF0CF01FEFBD
:101820000CF01CC011F01DC012F0111E121E114A46
:10183000122A11C00FF012C010F023EF0CF01CC0E0
:101840000FF01DC010F01200000E196E17BE2DEF24
:101850000CF02BEF0CF03FEF0CF0171E161E151EB0
:10186000141E131E121E111E106C000E11221222C5
:1018700013221422152216221722010E196E0FBEF2
:1018800046EF0CF044EF0CF058EF0CF00F1E0E1E5C
:101890000D1E0C1E0B1E0A1E091E086C000E0922CE
:1018A0000A220B220C220D220E220F22010E191ADF
:1018B00020EE1AF0070EDE6AE806FDE21050111065
:1018C000121013101410151016101710D8B46BEF57
:1018D0000CF06DEF0CF0BFEF0CF0010E186E7BEF0B
:1018E0000CF0D890103611361236133614361536E1
:1018F00016361736182A17AE80EF0CF082EF0CF070
:1019000071EF0CF0D8901A361B361C361D361E3679
:101910001F36203621361050085C115009581250DD
:101920000A5813500B5814500C5815500D58165097
:101930000E5817500F58D8A0A0EF0CF0A2EF0CF0E3
:10194000B3EF0CF01050085E1150095A12500A5AA9
:1019500013500B5A14500C5A15500D5A16500E5A5B
:1019600017500F5A1A80D890173216321532143287
:101970001332123211321032182E82EF0CF019503D
:10198000D8B4C5EF0CF0C7EF0CF0D7EF0CF0211E68
:10199000201E1F1E1E1E1D1E1C1E1B1E1A6C000E4E
:1019A0001B221C221D221E221F22202221221AC09D
:1019B00008F01BC009F01CC00AF01DC00BF01EC0CF
:1019C0000CF01FC00DF020C00EF021C00FF012006F
:1019D000000E196E0FBEF1EF0CF0EFEF0CF003EFFD
:1019E0000DF00F1E0E1E0D1E0C1E0B1E0A1E091ED4
:1019F000086C000E09220A220B220C220D220E2254
:101A00000F22010E196E17BE0AEF0DF008EF0DF050
:101A10001AEF0DF0171E161E151E141E131E121E91
:101A2000111E106C000E11221222132214221522F4
:101A30001622172210501110121013101410151026
:101A400016101710D8B427EF0DF029EF0DF071EF35
:101A50000DF0010E186E37EF0DF0D89010361136DC
:101A6000123613361436153616361736182A17AEB0
:101A70003CEF0DF03EEF0DF02DEF0DF01050085C37
:101A80001150095812500A5813500B5814500C5842
:101A900015500D5816500E5817500F58D8A053EF28
:101AA0000DF055EF0DF065EF0DF01050085E115080
:101AB000095A12500A5A13500B5A14500C5A155006
:101AC0000D5A16500E5A17500F5AD8901732163218
:101AD000153214321332123211321032182E3EEFF8
:101AE0000DF01950D8B477EF0DF079EF0DF089EFC4
:101AF0000DF00F1E0E1E0D1E0C1E0B1E0A1E091EC3
:101B0000086C000E09220A220B220C220D220E2242
:101B10000F2208C008F009C009F00AC00AF00BC083
:101B20000BF00CC00CF00DC00DF00EC00EF00FC08D
:101B30000FF01200800EE6EC10F072C008F0096A97
:101B4000000E0B6E0A0E0A6E89EC0EF00850300F74
:101B5000B3EC10F072C008F0096A000E0B6E0A0EAA
:101B60000A6EA5EC0FF00850300FB3EC10F03A0EEF
:101B7000B3EC10F071C008F0096A000E0B6E0A0E8B
:101B80000A6E89EC0EF00850300FB3EC10F071C003
:101B900008F0096A000E0B6E0A0E0A6EA5EC0FF033
:101BA0000850300FB3EC10F03A0EB3EC10F070C0E8
:101BB00008F0096A000E0B6E0A0E0A6E89EC0EF030
:101BC0000850300FB3EC10F070C008F0096A000E36
:101BD0000B6E0A0E0A6EA5EC0FF00850300FB3EC36
:101BE00010F0230E0F6E100E106E0FEC12F0330E6D
:101BF0000001AA6F100EAB6F72C0ACF0AD6B96EC2B
:101C000012F0330E0001AA6F100EAB6F71C0ACF072
:101C1000AD6B96EC12F02C0E0001AA6F100EAB6F9C
:101C200070C0ACF0AD6B96EC12F0120055C056F0DF
:101C3000000E80BA010E556E56505518D8A423EFE9
:101C40000EF025EF0EF088EF0EF073EF0EF055500A
:101C5000D8A42DEF0EF02FEF0EF088EF0EF0000E4F
:101C60000001656F010E646F010E536E684B692BA6
:101C700088EF0EF05550D8B440EF0EF042EF0EF062
:101C80004BEF0EF0000E0001696F000E686F000E42
:101C9000536E88EF0EF00001684B692B695109E122
:101CA000640E685DD8A057EF0EF059EF0EF088EF84
:101CB0000EF068C001F069C002F0000E046E140E50
:101CC000036E19EC11F001500210D8A46AEF0EF067
:101CD0006CEF0EF088EF0EF0000E0001656F010E44
:101CE000646F88EF0EF05350066E076A0750000AC3
:101CF000D8B47DEF0EF088EF0EF00650000AD8B48D
:101D000027EF0EF0010AD8B43AEF0EF088EF0EF08C
:101D10001200000E0D6E0BBE92EF0EF090EF0EF063
:101D200098EF0EF00A6C0B1ED8B00B2A010E0D6E48
:101D300009BE9FEF0EF09DEF0EF0A5EF0EF0086CC0
:101D4000091ED8B0092A010E0D1A000E0F6E000EE2
:101D50000E6E0A500B10D8B4B0EF0EF0B2EF0EF0CA
:101D6000DAEF0EF0010E0C6EBAEF0EF0D8900A36D4
:101D70000B360C2A0BAEBFEF0EF0C1EF0EF0B6EF34
:101D80000EF0D8900E360F360A50085C0B500958EA
:101D9000D8A0CDEF0EF0CFEF0EF0D4EF0EF00A503A
:101DA000085E0B50095A0E80D8900B320A320C2E66
:101DB000C1EF0EF00D50D8B4E0EF0EF0E2EF0EF0F0
:101DC000E6EF0EF00E6C0F1ED8B00F2A0EC008F012
:101DD0000FC009F0120051A0F0EF0EF0F2EF0EF07C
:101DE000FCEF0EF01AC011F01BC012F018C013F077
:101DF00019C014F0CDEC11F01DBE01EF0FF003EF90
:101E00000FF009EF0FF01CC021F01DC022F00DEF04
:101E10000FF0000E226E000E216E000E206E000EDE
:101E20001F6E1FEF0FF0000E096E200E086E18C017
:101E30000AF019C00BF0FDEC0FF01F4A202A2150C8
:101E40001F5C2050800A1E6E2250800A1E58D8A0A7
:101E50002CEF0FF02EEF0FF013EF0FF051B033EF28
:101E60000FF035EF0FF03FEF0FF01AC011F01BC06D
:101E700012F018C013F019C014F0CDEC11F01AC014
:101E800008F01BC009F067EC12F021500824186E0E
:101E900022500920196E1200C00EE6EC10F0130E4D
:101EA0000F6E100E106E0FEC12F0010E0001AA6FF3
:101EB000100EAB6F96EC12F09BEF0FF06F05D8A4ED
:101EC00064EF0FF066EF0FF08CEF0FF0702B3B0E0E
:101ED00070656DEF0FF06FEF0FF072EF0FF0000E07
:101EE000706F712B3B0E716578EF0FF07AEF0FF08A
:101EF0007DEF0FF0000E716F722B170E726583EF7E
:101F00000FF085EF0FF087EF0FF0000E726F9AEC75
:101F10000DF0000E00016F6F64056511D8A493EFFA
:101F20000FF095EF0FF09BEF0FF0000E656F000EB6
:101F3000646F010E736F00017351D8B4A2EF0FF0FC
:101F4000A4EF0FF05EEF0FF01200000E0D6E09BE51
:101F5000AEEF0FF0ACEF0FF0B4EF0FF0086C091E0E
:101F6000D8B0092A010E0D6E0BBEBBEF0FF0B9EF12
:101F70000FF0BFEF0FF00A6C0B1ED8B00B2A0A50FF
:101F80000B10D8B4C6EF0FF0C8EF0FF0ECEF0FF066
:101F9000010E0C6ED0EF0FF0D8900A360B360C2ADB
:101FA0000BAED5EF0FF0D7EF0FF0CCEF0FF00A50DC
:101FB000085C0B500958D8A0E0EF0FF0E2EF0FF0EB
:101FC000E6EF0FF00A50085E0B50095AD8900B321A
:101FD0000A320C2ED7EF0FF00D50D8B4F2EF0FF0FD
:101FE000F4EF0FF0F8EF0FF0086C091ED8B0092AD3
:101FF00008C008F009C009F012000A500B10D8B44C
:1020000004EF10F006EF10F00FEF10F00A500B1075
:10201000D8A40DEF10F00FEF10F014EF10F00850EF
:10202000D8EC12F047EF10F020EE04F00A50D92659
:102030000B50DA22DE50DE10D8B421EF10F023EF7F
:1020400010F03EEF10F020EE04F00A50D9260B50AD
:10205000DA2210EE02F00A50E1260B50E222DE50A6
:10206000E65CE650800A106EDE50800A1058D8B048
:102070003CEF10F03EEF10F047EF10F020EE02F0D2
:102080000A50D9260B50DA22DE2A000EDD22120079
:10209000086E08C00AF0000E096E08AE52EF10F08C
:1020A00054EF10F057EF10F08B8A58EF10F08B9A26
:1020B0008BA85DEF10F05FEF10F063EF10F0D880A9
:1020C0000A3666EF10F00A500A240A6E8B8600F07A
:1020D00000F000F000F000F000F000F000F000F080
:1020E00000F000F000F08B96D8900836092A070E11
:1020F00009647DEF10F07FEF10F04DEF10F012004B
:10210000A6C04DF0A7C04EF0000E0001616F000E9A
:10211000606F9EEF10F0A4C047F0A5C048F04D0ED0
:10212000496E000E4A6EA8C04BF0A9C04CF01DECE1
:1021300008F0475000016027485061234DC0F6FF6A
:102140004EC0F7FF000EF86E0800F5500009D8A445
:10215000ACEF10F0AEEF10F08BEF10F060C0A4F019
:1021600061C0A5F012000E6E110E0D6E3A0EE82E33
:10217000FED70D2EFCD700D0800E0B6E120EBDECDC
:1021800012F0040E0D6E3E0EE82EFED70D2EFCD77B
:102190000EC00BF0130EBDEC12F0040E0D6E3E0ED1
:1021A000E82EFED70D2EFCD7C00E0B6E120EBDEC26
:1021B00012F0040E0D6E3E0EE82EFED70D2EFCD74B
:1021C000000E0B6E120EBDEC12F012000E6E110E10
:1021D0000D6E3A0EE82EFED70D2EFCD700D0000E65
:1021E0000B6E120EBDEC12F0040E0D6E3E0EE82EBC
:1021F000FED70D2EFCD70EC00BF0130EBDEC12F067
:10220000040E0D6E3E0EE82EFED70D2EFCD7400EAE
:102210000B6E120EBDEC12F0040E0D6E3E0EE82E8B
:10222000FED70D2EFCD7000E0B6E120EBDEC12F079
:10223000120003500410D8B420EF11F022EF11F077
:1022400046EF11F0010E056E2AEF11F0D89003361B
:102250000436052A04AE2FEF11F031EF11F026EF0E
:1022600011F00350015C04500258D8A03AEF11F06D
:102270003CEF11F040EF11F00350015E0450025AA0
:10228000D89004320332052E31EF11F001C001F075
:1022900002C002F0120082EC12F0CAEC12F0D4EC90
:1022A00012F0CFEC12F0000E0001736F5CEF11F032
:1022B0004CEC0FF05CEF11F000017351B26FB36B97
:1022C000B351000AD8B467EF11F05CEF11F0B251CE
:1022D000000AD8B458EF11F0010AD8B458EF11F041
:1022E000030AD8B45CEF11F05CEF11F007EF00F0D7
:1022F0000600F2AA7EEF11F080EF11F0A2EF11F0CC
:10230000F2A485EF11F087EF11F0A2EF11F0F29433
:10231000B10ED66E010E546E00016A4B6B2B6B51E1
:1023200009E1640E6A5DD8A098EF11F09AEF11F000
:10233000A0EF11F0010E6F6F000E6B6F000E6A6F51
:1023400016EC0EF057921100010E0E6E200E0818BA
:102350000910D8B4AEEF11F0B0EF11F0C9EF11F0E1
:10236000F70E0A6EFF0E0B6E08C00CF009C00DF0E0
:102370000A500C260B500D220D5009E1050E0C5C85
:10238000D8A0C5EF11F0C7EF11F0C9EF11F0000EA2
:102390000E6E0EC008F0096A1200000E176E000ED5
:1023A000166EDEEF11F015C008F0096A13C00AF0CE
:1023B00014C00BF0FDEC0FF0164A172A165011242A
:1023C000D96E17501220DA6EDF50156E1550D8A452
:1023D000ECEF11F0EEEF11F0D3EF11F012001BBE95
:1023E000FCEF11F01B5006E11A04D8B0FAEF11F01F
:1023F000FCEF11F00AEF12F01AC01CF01BC01DF028
:102400001C1E1D1E1C4A1D2A1CC01AF01DC01BF0DC
:102410000EEF12F01AC01AF01BC01BF012001DEFD5
:1024200012F00FC0F6FF10C0F7FF000EF86E0800A4
:10243000F550B3EC10F00F4A102A0FC0F6FF10C091
:10244000F7FF000EF86E0800F5500009D8A42BEF36
:1024500012F02DEF12F011EF12F01200AE0EF66E28
:10246000250EF76E000EF86E0900F5CF55F0090045
:10247000F5CF56F000EE60F0340EEE6AE806FDE1AE
:10248000546A536A526A516A506A4F6A5790579217
:1024900000014BEF11F0D00E0A6EFF0E0B6E08C05C
:1024A0000CF009C00DF00A500C260B500D220D50F7
:1024B0000AE10A0E0C5CD8A060EF12F063EF12F094
:1024C000010E64EF12F0000E086E096A120008C0D7
:1024D0000AF009C00BF06FEF12F0084A092A08C091
:1024E000D9FF09C0DAFFDF50D8A479EF12F07BEFF3
:1024F00012F06DEF12F00A50085C086E0B5009588C
:10250000096E1200000E896EF30E926E000E8A6E36
:102510009368000E8B6ED70E946E000E8C6E9568CD
:10252000000E8D6E070E966EF18E1200AC0E00013D
:10253000B06F000EB16F000EA46F000EA56FAAC0A1
:10254000A6F0ABC0A7F0B00EA86F000EA96F80EC8C
:1025500010F0120008500A02F3CF0CF0F4CF0DF087
:1025600008500B02F3500D2609500A02F3500D26B5
:102570000CC008F00DC009F012000C6E8994400EDA
:1025800048EC10F00C5048EC10F00B5048EC10F0F8
:1025900089841200C70ED56EB10ED66E1200770E6A
:1025A000D36E0F0E9B6E1200F28AF28E12000101A2
:0225B000120017
:020000040020DA
:08000000FFFFFFFFFFFFFFFF00
:020000040030CA
:0E000000FF09191EF38381FFFFC0FFE0FF40E0
:00000001FF
