:020000040000FA
:04000000C2EF0BF050
:101000000068656C6C6F20776F726C64007878781C
:101010007800483A00543A0045520000000E146E21
:10102000500E136E95908C90340E106EF20EE82ECA
:10103000FED7102EFCD78C800D0EE82EFED700F0C8
:1010400095803BEF08F01306D8A014061350141037
:10105000D8A42DEF08F02FEF08F03BEF08F0080EB2
:101060000C6E0D0E0D6E100E0E6E010EFAEC0AF0E7
:10107000000EBAEF08F083B040EF08F042EF08F03E
:1010800023EF08F0000E146E500E136E56EF08F0AA
:101090001306D8A0140613501410D8A452EF08F069
:1010A00054EF08F056EF08F038EF08F083A05BEF3C
:1010B00008F05EEF08F0010E5FEF08F0000E106E12
:1010C000116A10B066EF08F068EF08F048EF08F01A
:1010D000000E146E500E136E7CEF08F01306D8A0AD
:1010E000140613501410D8A478EF08F07AEF08F023
:1010F0007CEF08F038EF08F083B081EF08F083EF61
:1011000008F06EEF08F042EC09F0176E42EC09F0BF
:10111000186E42EC09F0196E42EC09F01A6E42ECBE
:1011200009F0126E185017C010F0116A1026000E48
:10113000112219501026000E11221A501026000EEE
:1011400011221228D8A4A7EF08F0AAEF08F0010E88
:10115000ABEF08F0000E1016000E11161050111013
:10116000D8B4B5EF08F0B7EF08F0B9EF08F038EFF2
:1011700008F0010E1200000E0C6E150E0D6E100E12
:101180000E6E010EFAEC0AF0060E0C6E120E0D6ECB
:10119000100E0E6E010EFAEC0AF0350E1D1806E167
:1011A0001E04D8A4D6EF08F0D8EF08F0E3EF08F05B
:1011B000030E0C6E180E0D6E100E0E6E010EFAEC74
:1011C0000AF007EF09F0030E0C6E1DC001F01EC0FF
:1011D00002F0000E046E0A0E036EADEC09F0015031
:1011E000300F0D6E010E70EC0BF0040E0C6E1DC076
:1011F00001F01EC002F0000E046E0A0E036E0FEC2A
:101200000AF00150300F0D6E010E70EC0BF0350E30
:101210001B1806E11C04D8A410EF09F012EF09F026
:101220001DEF09F0080E0C6E180E0D6E100E0E6EEE
:10123000010EFAEC0AF041EF09F0080E0C6E1BC02B
:1012400001F01CC002F0000E046E0A0E036EADEC3D
:1012500009F00150300F0D6E010E70EC0BF0090E0D
:101260000C6E1BC001F01CC002F0000E046E0A0ED2
:10127000036E0FEC0AF00150300F0D6E010E70EC92
:101280000BF01200000E066E55EF09F00406D8A010
:10129000050604500510D8A450EF09F052EF09F0EC
:1012A00055EF09F0000EACEF09F083A05AEF09F0FA
:1012B0005CEF09F046EF09F0140EE82EFED783B07C
:1012C00064EF09F066EF09F078EF09F006500708BF
:1012D000016E010E026E012A70EF09F0D8900236FD
:1012E000012E6EEF09F00250FF0A0316A2EF09F07B
:1012F00006500708016E010E026E012A82EF09F006
:10130000D8900236012E80EF09F002500312000E31
:10131000056E500E046E9BEF09F00406D8A005067A
:1013200004500510D8A497EF09F099EF09F09BEF4E
:1013300009F052EF09F083B0A0EF09F0A2EF09F035
:101340008DEF09F0062A070E0664A9EF09F0ABEF4E
:1013500009F055EF09F003501200000E066E04BEAE
:10136000B6EF09F0B4EF09F0BCEF09F0036C041E0E
:10137000D8B0042A010E066E02BEC3EF09F0C1EF19
:1013800009F0C9EF09F0016C021ED8B0022A010E63
:10139000061A000E086E000E076E03500410D8B433
:1013A000D4EF09F0D6EF09F0FEEF09F0010E056E5B
:1013B000DEEF09F0D89003360436052A04AEE3EFD9
:1013C00009F0E5EF09F0DAEF09F0D89007360836B2
:1013D0000350015C04500258D8A0F1EF09F0F3EF7C
:1013E00009F0F8EF09F00350015E0450025A07803B
:1013F000D89004320332052EE5EF09F00650D8B438
:1014000004EF0AF006EF0AF00AEF0AF0076C081E74
:10141000D8B0082A07C001F008C002F01200000E80
:10142000066E02BE18EF0AF016EF0AF01EEF0AF081
:10143000016C021ED8B0022A010E066E04BE25EF12
:101440000AF023EF0AF029EF0AF0036C041ED8B06B
:10145000042A03500410D8B430EF0AF032EF0AF037
:1014600056EF0AF0010E056E3AEF0AF0D8900336F7
:101470000436052A04AE3FEF0AF041EF0AF036EFDA
:101480000AF00350015C04500258D8A04AEF0AF059
:101490004CEF0AF050EF0AF00350015E0450025A7C
:1014A000D89004320332052E41EF0AF00650D8B42A
:1014B0005CEF0AF05EEF0AF062EF0AF0016C021EC8
:1014C000D8B0022A01C001F002C002F01200700E72
:1014D000D36ECBEC0AF0000E0C6E010E0D6E100EEA
:1014E0000E6E000EFAEC0AF0150E166E4B0E156E0F
:1014F000BE0EE82EFED7152EFCD7162EFAD700D03A
:10150000000E956E1F681FC08CFF8CEC0BF0BBECBF
:1015100008F0660E166E760E156EC10EE82EFED71A
:10152000152EFCD7162EFAD700F083EF0AF000EF45
:1015300000F0016E01C003F0000E026E01AEA3EFD9
:101540000AF0A5EF0AF0A8EF0AF08B8AA9EF0AF0DB
:101550008B9A8BA8AEEF0AF0B0EF0AF0B4EF0AF066
:10156000D8800336B7EF0AF003500324036E8B864E
:1015700000F000F000F000F000F000F08B96D89042
:101580000136022A070E0264C8EF0AF0CAEF0AF019
:101590009EEF0AF01200E9EC0BF0979C8E9C0D0E6A
:1015A000076EFC0EE82EFED7072EFCD78E8C000EA1
:1015B000CFEC0BF0010ECFEC0BF0000E046E120E10
:1015C000DCEC0BF0270E076EF50EE82EFED7072E8B
:1015D000FCD700F0320E53EC0BF03C0E53EC0BF04A
:1015E0000C0E53EC0BF0010E53EC0BF0060E53EC0B
:1015F0000BF012000F6E030E0F6001EF0BF003EF04
:101600000BF018EF0BF00F0E0C6409EF0BF00BEF63
:101610000BF00DEF0BF018EF0BF00CC007F00F50B4
:1016200036EC0BF00DC007F00EC008F0A7EC0BF085
:101630001200066E060EE82EFED700D0800E046E55
:10164000120EDCEC0BF000D006C004F0130EDCEC44
:101650000BF000D0C00E046E120EDCEC0BF000D0CC
:10166000000E046E120EDCEC0BF01200086E085037
:10167000D8B43DEF0BF03FEF0BF047EF0BF0C00E8F
:101680000724096E0A6A000E0A224DEF0BF0800E45
:101690000724096E0A6A000E0A2209C00BF00B50DB
:1016A00053EC0BF01200066E060EE82EFED700D0AB
:1016B000000E046E120EDCEC0BF000D006C004F03D
:1016C000130EDCEC0BF000D0400E046E120EDCECBE
:1016D0000BF000D0000E046E120EDCEC0BF01200CA
:1016E0000E6E030E0E6077EF0BF079EF0BF08BEFC1
:1016F0000BF00F0E0C647FEF0BF081EF0BF083EF1C
:101700000BF08BEF0BF00CC007F00E5036EC0BF02B
:101710000D5019EC0BF012000EEC08F00009D8A4E3
:1017200094EF0BF096EF0BF0A0EF0BF0010E1E6E96
:10173000350E1D6E010E1C6E350E1B6EA6EF0BF0E6
:1017400019C01DF01E6A17C01BF01C6A1200B3EF0F
:101750000BF007C0F6FF08C0F7FF0800F55019ECC2
:101760000BF0074A082A07C0F6FF08C0F7FF080079
:10177000F5500009D8A4BFEF0BF0C1EF0BF0A9EFB3
:101780000BF0120000EE17F0090EEE6AE806FDE11C
:10179000000EF86E100EF76E000167EF0AF0046E8F
:1017A0008994400E99EC0AF0045099EC0AF0000E6E
:1017B00099EC0AF089841200056E8994400E99EC28
:1017C0000AF0055099EC0AF0045099EC0AF089846B
:1017D000120092949488949A949689848B888B9A18
:0417E0008B961200D2
:020000040020DA
:08000000FFFFFFFFFFFFFFFF00
:020000040030CA
:0E000000FF09191EF38381FFFFC0FFE0FF40E0
:00000001FF
