:020000040000FA
:0400000007EF00F016
:1000080045821BED07F0EEEF08F0690E0001C819F4
:10001800C911D8A412EF00F014EF00F07FEF02F03E
:10002800B0EF02F0C8C026F0C9C027F026C001F022
:1000380027C002F0000E046E0F0E036E00EC0AF0EB
:10004800000E0124D96E010E0220DA6EDECF1BF0FD
:10005800DECF1CF0DDCF1DF026C001F027C002F076
:10006800000E046E0F0E036E00EC0AF0050E01245C
:10007800D96E010E0220DA6EDECF1EF0DDCF1FF042
:100088001BC00AF01CC00BF01DC00CF01EC00DF008
:100098001FC00EF0CBEC07F026C001F027C002F01D
:1000A800000E046E0F0E036E00EC0AF0030E01241E
:1000B800D96E010E0220DA6EDECFC8F0DDCFC9F0AE
:1000C80026C001F027C002F0000E046E0F0E036E6A
:1000D80000EC0AF0FC0E0124D96E000E0220DA6E44
:1000E800DE50DE10DE10DE10D8A47DEF00F07FEFCA
:1000F80000F084EF00F02650AFEC04F07FEF02F040
:1001080026C001F027C002F0000E046E0F0E036E29
:1001180000EC0AF0FC0E0124D96E000E0220DA6E03
:1001280026C001F027C002F0000E046E0F0E036E09
:1001380000EC0AF0F80E0124E16E000E0220E26ED7
:10014800DECFE6FFDECFE6FFDECFE6FFDECFE6FF5F
:10015800690E0001C819C911D8B4B5EF00F0B7EF9E
:1001680000F0F0EF00F0690EC819C911D8B4BFEF5C
:1001780000F0C1EF00F00AEF01F0C8C001F0C9C0FB
:1001880002F0000E046E0F0E036E00EC0AF0F80E7B
:100198000124D96E000E0220DA6E26C001F027C0B5
:1001A80002F0000E046E0F0E036E00EC0AF0F80E5B
:1001B8000124E16E000E0220E26EDE50E65CDE50A5
:1001C800E658DE50E658DE50E658D8B0EEEF00F0BC
:1001D800F0EF00F00AEF01F026C001F027C002F0AE
:1001E800000E046E0F0E036E00EC0AF0030E0124DD
:1001F800D96E010E0220DA6EC8C0DEFFC9C0DDFF6D
:1002080026C0C8F027C0C9F021EF02F0C8C001F02D
:10021800C9C002F0000E046E0F0E036E00EC0AF067
:10022800F80E0124D96E000E0220DA6EDECF0FF030
:10023800DECF10F0DECF11F0DECF12F026C001F0D5
:1002480027C002F0000E046E0F0E036E00EC0AF0D9
:10025800F80E0124D96E000E0220DA6EDECF13F0FC
:10026800DECF14F0DECF15F0DECF16F00F50135CA2
:10027800176E10501458186E11501558196E1250E8
:1002880016581A6E26C001F027C002F0000E046E40
:100298000F0E036E00EC0AF0F80E0124D96E000E62
:1002A8000220DA6E17C0DEFF18C0DEFF19C0DEFFBD
:1002B8001AC0DEFFC8C001F0C9C002F0000E046E0B
:1002C8000F0E036E00EC0AF0030E0124D96E010E26
:1002D8000220DA6EDECF24F0DDCF25F0C8C022F090
:1002E800C9C023F0C0EF01F024C001F025C002F01E
:1002F800000E046E0F0E036E00EC0AF0F80E0124D7
:10030800D96E000E0220DA6EDECF0FF0DECF10F0CD
:10031800DECF11F0DECF12F026C001F027C002F0C8
:10032800000E046E0F0E036E00EC0AF0F80E0124A6
:10033800D96E000E0220DA6E0F50DE5E1050DE5AC3
:100348001150DE5A1250DE5A24C022F025C023F084
:1003580024C001F025C002F0000E046E0F0E036EDB
:1003680000EC0AF0030E0124D96E010E0220DA6EA9
:10037800DECF24F0DDCF25F0690E24182510D8B47F
:10038800C8EF01F0CAEF01F0F9EF01F024C001F065
:1003980025C002F0000E046E0F0E036E00EC0AF08A
:1003A800F80E0124D96E000E0220DA6E26C001F084
:1003B80027C002F0000E046E0F0E036E00EC0AF068
:1003C800F80E0124E16E000E0220E26EDE50E65CBB
:1003D800DE50E658DE50E658DE50E658D8B0F7EF63
:1003E80001F0F9EF01F078EF01F022C001F023C02D
:1003F80002F0000E046E0F0E036E00EC0AF0030EFE
:100408000124D96E010E0220DA6E26C0DEFF27C055
:10041800DDFF26C001F027C002F0000E046E0F0EAB
:10042800036E00EC0AF0030E0124D96E010E0220BF
:10043800DA6E24C0DEFF25C0DDFF26C001F027C02C
:1004480002F0000E046E0F0E036E00EC0AF0030EAD
:100458000124D96E010E0220DA6E690EDE18DE1054
:10046800D8B439EF02F03BEF02F07FEF02F026C07C
:1004780001F027C002F0000E046E0F0E036E00ECB0
:100488000AF0030E0124D96E010E0220DA6EDECFC7
:1004980020F0DDCF21F026C001F027C002F0000EC9
:1004A800046E0F0E036E00EC0AF0F80E0124D96EEC
:1004B800000E0220DA6EDECF0FF0DECF10F0DECFB6
:1004C80011F0DECF12F020C001F021C002F0000EC2
:1004D800046E0F0E036E00EC0AF0F80E0124D96EBC
:1004E800000E0220DA6E0F50DE5E1050DE5A1150F8
:1004F800DE5A1250DE5AC8C001F0C9C002F0000E20
:10050800046E0F0E036E00EC0AF0F80E0124D96E8B
:10051800000E0220DA6EDE50DE10DE10DE10D8B4D7
:1005280098EF02F09AEF02F016EF00F0C8C001F061
:10053800C9C002F0000E046E0F0E036E00EC0AF044
:10054800F80E0124D96E000E0220DA6E0A0EDE5E65
:10055800000EDE5ADE5ADE5A12002EEC0AF00009AE
:10056800D8B4B9EF02F0BBEF02F0BEEF02F06D0EA7
:10057800AEEF04F0000E0001EA6FEA510F0D000E15
:10058800F324D96E010EF420DA6EDE50DE10DE1090
:10059800D8A4D1EF02F0D3EF02F0D5EF02F0DEEFEE
:1005A80002F0EA2B130EEA65DCEF02F0DEEF02F050
:1005B800C1EF02F0140EEA19D8A4E5EF02F0E7EF54
:1005C80002F0E9EF02F0BBEF02F0EA510F0DF80E6E
:1005D800F324D96E000EF420DA6ED5C0DEFFD6C043
:1005E800DEFFD7C0DEFFD8C0DEFFEA510F0DFC0EDC
:1005F800F324D96E000EF420DA6ED1C0DEFFD2C02B
:10060800DEFFD3C0DEFFD4C0DEFFEA510F0D000EBF
:10061800F324D96E010EF420DA6ED9C0DEFFDAC0F9
:10062800DEFFDBC0DEFFEA510F0D050EF324D96EA5
:10063800010EF420DA6EDCC0DEFFDDC0DDFFCA2B60
:10064800690EC819C911D8B42CEF03F02EEF03F0C6
:1006580060EF03F0690EC819C911D8B436EF03F07A
:1006680038EF03F071EF03F0C8C0CBF0C9C0CCF08D
:10067800000ECE6F0F0ECD6F66EC09F0F80E00017C
:10068800CB25D96E000ECC21DA6EEA510F0DF80E8B
:10069800F324E16E000EF420E26EDE50E65CDE50DC
:1006A800E658DE50E658DE50E658D8B05EEF03F064
:1006B80060EF03F071EF03F0EA510F0D030EF3241E
:1006C800D96E010EF420DA6EC8C0DEFFC9C0DDFFA6
:1006D800EAC0C8F0C96B4DEF04F0C8C0CBF0C9C080
:1006E800CCF0000ECE6F0F0ECD6F66EC09F0F80E51
:1006F8000001CB25D96E000ECC21DA6EDECFDEF0FC
:10070800DECFDFF0DECFE0F0DECFE1F0DE51D55D09
:10071800D56FDF51D659D66FE051D759D76FE15110
:10072800D859D86FC8C0CBF0C9C0CCF0000ECE6F76
:100738000F0ECD6F66EC09F0030E0001CB25D96EC4
:10074800010ECC21DA6EDECFE8F0DDCFE9F0C8C0CB
:10075800E6F0C9C0E7F0EFEF03F0E8C0CBF0E9C07E
:10076800CCF0000ECE6F0F0ECD6F66EC09F0F80ED0
:100778000001CB25D96E000ECC21DA6EDECFDEF07B
:10078800DECFDFF0DECFE0F0DECFE1F0DE51D55D89
:10079800D56FDF51D659D66FE051D759D76FE15190
:1007A800D859D86FE8C0E6F0E9C0E7F0E8C0CBF068
:1007B800E9C0CCF0000ECE6F0F0ECD6F66EC09F0DD
:1007C800030E0001CB25D96E010ECC21DA6EDECFE7
:1007D800E8F0DDCFE9F0690EE819E911D8B4F7EFD0
:1007E80003F0F9EF03F019EF04F0E8C0CBF0E9C02B
:1007F800CCF0000ECE6F0F0ECD6F66EC09F0F80E40
:100808000001CB25D96E000ECC21DA6EDE50D55D05
:10081800DE50D659DE50D759DE50D859D8B017EF28
:1008280004F019EF04F0B1EF03F0EA51DE6FDF6B6B
:10083800E6C0CBF0E7C0CCF0000ECE6F0F0ECD6F48
:1008480066EC09F0030E0001CB25D96E010ECC2110
:10085800DA6EDEC0DEFFDFC0DDFFEA510F0D030EEA
:10086800F324D96E010EF420DA6EE8C0DEFFE9C089
:10087800DDFFEA510F0DF80EF324D96E000EF420B7
:10088800DA6ED5C0DEFFD6C0DEFFD7C0DEFFD8C027
:10089800DEFFEA510F0D030EF324D96E010EF4208A
:1008A800DA6E690EDE18DE10D8B45DEF04F05FEF83
:1008B80004F0ADEF04F0EA510F0D030EF324D96EE6
:1008C800010EF420DA6EDECFCBF0DDCFCCF0000ED7
:1008D800CE6F0F0ECD6F66EC09F0F80E0001CB2538
:1008E800D96E000ECC21DA6EDECFDEF0DECFDFF07F
:1008F800DECFE0F0DECFE1F0D551DE5DE26FD6511C
:10090800DF59E36FD751E059E46FD851E159E56FEA
:10091800EA510F0D030EF324D96E010EF420DA6E9E
:10092800DECFCBF0DDCFCCF0000ECE6F0F0ECD6F4B
:1009380066EC09F0F80E0001CB25D96E000ECC212B
:10094800DA6EE2C0DEFFE3C0DEFFE4C0DEFFE5C032
:10095800DEFFEA511200066E3BEC0AF00009D8A44B
:10096800B8EF04F0BAEF04F0CCEF04F006500F0D26
:10097800000EF324D96E010EF420DA6EDE50DE107C
:10098800DE10D8A4CAEF04F0CCEF04F0CFEF04F0E7
:10099800000E84EF05F006500F0DF80EF324D96E03
:1009A800000EF420DA6EDE6ADE6ADE6ADD6A065060
:1009B8000F0DFC0EF324D96E000EF420DA6EDE6AF9
:1009C800DE6ADE6ADD6A06500F0D000EF324D96E6A
:1009D800010EF420DA6E000EDE6E000EDE6E000EE2
:1009E800DE6E06500F0D050EF324D96E010EF420AD
:1009F800DA6E000EDE6E000EDD6E0001CA070650CC
:100A0800016E026AC851011807E1C9510218D8A439
:100A180010EF05F012EF05F02CEF05F006500F0D62
:100A2800030EF324D96E010EF420DA6EDECFC8F07F
:100A3800DDCFC9F006500F0D030EF324D96E010E59
:100A4800F420DA6E690EDE6E000EDD6E83EF05F0BF
:100A5800C8C005F03AEF05F005500F0D030EF3245A
:100A6800D96E010EF420DA6EDF50056E05500F0DB9
:100A7800030EF324D96E010EF420DA6E690EDE1827
:100A8800DE10D8B44AEF05F04CEF05F063EF05F03F
:100A980005500F0D030EF324D96E010EF420DA6E03
:100AA8000650036E046ADE50031807E1DE5004188E
:100AB800D8A461EF05F063EF05F030EF05F00650BC
:100AC8000F0D030EF324D96E010EF420DA6E0550D3
:100AD8000F0D030EF324E16E010EF420E26EDECF5B
:100AE800E6FFDDCFE5FF06500F0D030EF324D96EA8
:100AF800010EF420DA6E690EDE6E000EDD6E010E58
:100B0800120021EC0AF0E80E0001EB6F030EEC6F07
:100B1800000EED6F000EEE6F000EEF6F000EF06F1F
:100B2800000EF16F000EF26FB40EF36F130EF46F38
:100B3800000EF56F000EF66F000EF76F19EC09F056
:100B4800E80E0001EB6F030EEC6F000EED6F000E68
:100B5800EE6FC80EEF6F000EF06F000EF16F000E13
:100B6800F26F8E0EF36F130EF46F000EF56F000E1A
:100B7800F66F000EF76F19EC09F0B80E0001EB6F75
:100B88000B0EEC6F000EED6F000EEE6F900EEF6F18
:100B9800010EF06F000EF16F000EF26F680EF36F2A
:100BA800130EF46F000EF56F000EF66F000EF76F60
:100BB80019EC09F0280E0001EB6F230EEC6F000E04
:100BC800ED6F000EEE6F900EEF6F010EF06F000EDE
:100BD800F16F000EF26F420EF36F130EF46F000EFA
:100BE800F56F000EF66F000EF76F19EC09F0980E0E
:100BF8000001EB6F3A0EEC6F000EED6F000EEE6F1A
:100C0800C80EEF6F000EF06F000EF16F000EF26F5E
:100C18001C0EF36F130EF46F000EF56F000EF66FD7
:100C2800000EF76F19EC09F0640E0001EB6F000E6F
:100C3800EC6F000EED6F000EEE6F100EEF6F270ECB
:100C4800F06F000EF16F000EF26FDA0EF36F130EF5
:100C5800F46F000EF56F000EF66F000EF76F19ECCB
:100C680009F058EC0AF035EF06F007EF00F0000E37
:100C78000001D26F000ED16FD1C0CBF0D2C0CCF042
:100C8800000ECE6F0F0ECD6F66EC09F0F80E000166
:100C9800CB25D96E000ECC21DA6EDE6ADE6ADE6AFA
:100CA800DD6AD1C0CBF0D2C0CCF0000ECE6F0F0EF3
:100CB800CD6F66EC09F0FC0E0001CB25D96E000E55
:100CC800CC21DA6EDE6ADE6ADE6ADD6AD1C0CBF07C
:100CD800D2C0CCF0000ECE6F0F0ECD6F66EC09F0CF
:100CE800000E0001CB25D96E010ECC21DA6E000E64
:100CF800DE6E000EDE6E000EDE6ED1C0CBF0D2C00E
:100D0800CCF0000ECE6F0F0ECD6F66EC09F0050E1D
:100D18000001CB25D96E010ECC21DA6E000EDE6EF5
:100D2800000EDD6ED1C0CBF0D2C0CCF0000ECE6F7D
:100D38000F0ECD6F66EC09F0030E0001CB25D96EBE
:100D4800010ECC21DA6E690EDE6E000EDD6ED14B1F
:100D5800D22BD2BFB9EF06F0D25109E1140ED15D02
:100D6800D8A0B9EF06F0BBEF06F040EF06F0000E92
:100D7800CA6F000EC96F690EC86F1200000E00011D
:100D8800D06FCCBFCCEF06F0CAEF06F0D2EF06F07A
:100D9800CB6DCC1FD8B0CC2B010ED06FCEBFD9EF06
:100DA80006F0D7EF06F0DDEF06F0CD6DCE1FD8B018
:100DB800CE2BCD51CE11D8B4E4EF06F0E6EF06F015
:100DC8000AEF07F0010ECF6FEEEF06F0D890CD379F
:100DD800CE37CF2BCEAFF3EF06F0F5EF06F0EAEF04
:100DE80006F0CD51CB5DCE51CC59D8A0FEEF06F020
:100DF80000EF07F004EF07F0CD51CB5FCE51CC5B8D
:100E0800D890CE33CD33CF2FF5EF06F0D051D8B4EC
:100E180010EF07F012EF07F016EF07F0CB6DCC1FBD
:100E2800D8B0CC2BCBC0CBF0CCC0CCF01200060095
:100E3800E1CF28F0E2CF29F0D9CF2AF0DACF2BF092
:100E4800F3CF2CF0F4CF2DF0F2AA2DEF07F02FEF0F
:100E580007F040EF07F0F2A434EF07F036EF07F0A1
:100E680040EF07F0F294830ED66E010E0001C427FE
:100E7800000EC523C623C7239DA045EF07F047EF03
:100E880007F065EF07F09EA04CEF07F04EEF07F074
:100E980065EF07F09E90B10ECF6EE00ECE6E09ECB6
:100EA80000F03E4A3F2A640E3E183F10D8A45FEF78
:100EB80007F061EF07F065EF07F0000E3F6E000ED8
:100EC8003E6E2DC0F4FF2CC0F3FF2BC0DAFF2AC002
:100ED800D9FF29C0E2FF28C0E1FF45921100000EAA
:100EE800066E02BE7CEF07F07AEF07F082EF07F09C
:100EF800016C021ED8B0022A010E066E04BE89EFEC
:100F080007F087EF07F08DEF07F0036C041ED8B0E9
:100F1800042A03500410D8B494EF07F096EF07F0B2
:100F2800BAEF07F0010E056E9EEF07F0D890033672
:100F38000436052A04AEA3EF07F0A5EF07F09AEFF1
:100F480007F00350015C04500258D8A0AEEF07F038
:100F5800B0EF07F0B4EF07F00350015E0450025AF7
:100F6800D89004320332052EA5EF07F00650D8B406
:100F7800C0EF07F0C2EF07F0C6EF07F0016C021EE2
:100F8800D8B0022A01C001F002C002F0120013EC2E
:100F98000AF00009D8B4D3EF07F0D5EF07F0D7EF80
:100FA80007F01FEF08F0432806E14428D8A4DFEF34
:100FB80007F0E1EF07F0E5EF07F0000E446E000ED2
:100FC800436E010E4124016E000E4220026E000E97
:100FD800046E140E036E73EC07F001C041F002C0FA
:100FE80042F041C001F042C002F0000E046E050E4E
:100FF800036E00EC0AF0600E0124D96E000E022088
:10100800DA6E0AC0DEFF0BC0DEFF0CC0DEFF41C097
:1010180001F042C002F0000E046E050E036E00ECF3
:101028000AF0630E0124D96E000E0220DA6E0DC09C
:10103800DEFF0EC0DDFF1200000E0001DA6F000EA9
:10104800DB6F000EDC6F000EDD6F000EDE6F36EC1E
:1010580009F00009D8B433EF08F035EF08F040EF95
:1010680008F020EEDAF000EED3F0040EDBCFEBFF51
:10107800E806FCE270EF08F043C0D8F044C0D9F0AD
:10108800010E43240001CB6F000E4420CC6F000EEC
:10109800CE6F140ECD6FC2EC06F0CBC043F0CCC0BF
:1010A80044F0D8C0CBF0D9C0CCF0000E0001CE6F10
:1010B800050ECD6F66EC09F0600E0001CB25D96EE8
:1010C800000ECC21DA6E10EEDAF0040EDBCFE3FF6F
:1010D800E806FCE235EF08F012000001D56F040EB7
:1010E8000001D5657AEF08F07CEF08F09AEF08F078
:1010F800BBEF08F0F28AF294C30ED56E830ED66E5B
:10110800000EC46F000EC56F000EC66F000EC76FCD
:10111800BBEF08F03BEC06F09D809E90810ECD6EF3
:10112800B10ECF6EE00ECE6EBBEF08F0D551D36F87
:10113800D46BD451000AD8B4A4EF08F0BBEF08F080
:10114800D351000AD8B47EEF08F0010AD8B48EEF64
:1011580008F0030AD8B4BBEF08F0010AD8B4BBEF13
:1011680008F0070AD8B4BBEF08F0BBEF08F012008C
:10117800E3EF08F020EC08F020EEDFF0040EEBCFF0
:10118800DBFFE806FCE20001DF51E011E111D8B411
:10119800D0EF08F0D2EF08F0E3EF08F0E2C0CBF0B0
:1011A800E3C0CCF002D8E3EF08F00500FA6EDF5197
:1011B800FD6EE051FE6EE151FF6EFA50120036EC02
:1011C80009F00009D8B4EBEF08F0EDEF08F0BEEF36
:1011D80008F01200B60EF66E140EF76E000EF86EDA
:1011E80000EE41F010EE04F00900F5CFEEFFE550F7
:1011F800E150FAE100EEF8F011EE2CF0EE6AE5505D
:10120800E150FCE1E250FAE100EE60F06B0EEE6AAC
:10121800E806FDE100EE2EF0130EEE6AE806FDE1A9
:1012280045904592000185EF05F0EBC0D1F0ECC088
:10123800D2F0EDC0D3F0EEC0D4F0EFC0D5F0F0C0DE
:10124800D6F0F1C0D7F0F2C0D8F0F3C0D9F0F4C0AE
:10125800DAF0F5C0DBF0F6C0DCF0F7C0DDF0B1EC99
:1012680002F01200432806E14428D8A43EEF09F012
:1012780040EF09F043EF09F0000E4FEF09F050EC92
:1012880009F00009D8B44BEF09F04EEF09F0010E50
:101298004FEF09F0000E12004350415C0001D16F7E
:1012A80044504258D26F150ED125CB6F000ED22173
:1012B800CC6F000ECE6F140ECD6FC2EC06F000019D
:1012C800CB5112000001CB51CD03F3CFCFF0F4CFB7
:1012D800D0F0CB51CE03F350D027CC51CD03F350EF
:1012E800D027CFC0CBF0D0C0CCF012004350415C27
:1012F800076E44504258086E150E0724016E000E02
:101308000820026E000E046E140E036E73EC07F0D4
:101318000150120036503710D8B495EF09F098EF05
:1013280009F0010E99EF09F0000E366E376A36B0F3
:1013380002D08C9801D08C88120034503510D8B463
:10134800A8EF09F0ABEF09F0010EACEF09F0000EC1
:10135800346E356A34B002D08C9601D08C86120077
:1013680032503310D8B4BBEF09F0BEEF09F0010ECC
:10137800BFEF09F0000E326E336A32B002D08C949F
:1013880001D08C84120030503110D8B4CEEF09F05F
:10139800D1EF09F0010ED2EF09F0000E306E316A7C
:1013A80030B002D08C9201D08C8212002E502F10B7
:1013B800D8B4E1EF09F0E4EF09F0010EE5EF09F028
:1013C800000E2E6E2F6A2EB002D08C9001D08C8029
:1013D800120038503910D8B4F4EF09F0F7EF09F0DB
:1013E800010EF8EF09F0000E386E396A38B002D0F5
:1013F8008C9A01D08C8A120001500302F3CF05F0B9
:10140800F4CF06F001500402F350062602500302FE
:10141800F350062605C001F006C002F012007AEC6F
:1014280009F0096E140E09601CEF0AF01FEF0AF0AC
:10143800010E20EF0AF0000E120052EC0AF047EC01
:101448000AF055EC0AF0000E71EC08F0010E71EC90
:1014580008F01200140E0001CA19D8B436EF0AF0C9
:1014680039EF0AF0010E3AEF0AF0000E12000001FF
:10147800CA51D8B442EF0AF045EF0AF0010E46EF20
:101488000AF0000E1200000E8B6ED70E946E0F0E2F
:10149800C16E000E8C6E000E956E1200700ED36E2B
:1014A8001200F28EF28C1200BCEC08F01200FFFF62
:0214B800FFFF34
:020000040020DA
:08000000FFFFFFFFFFFFFFFF00
:020000040030CA
:0E000000FF09191EF38381FFFFC0FFE0FF40E0
:00000001FF
