:020000040000FA
:0400000007EF00F016
:1000080046825BED07F0ACEF08F0690E00019C1921
:100018009D11D8A412EF00F014EF00F067EF02F082
:1000280098EF02F09CC022F09DC023F022C001F09E
:1000380023C002F0000E046E0F0E036EBEEC09F032
:10004800D30E0124D96E000E0220DA6EDECF19F02D
:10005800DECF1AF0DDCF1BF019C00AF01AC00BF082
:100068001BC00CF03EEC08F022C001F023C002F0E7
:10007800000E046E0F0E036EBEEC09F0D60E0124BE
:10008800D96E000E0220DA6EDECF9CF0DDCF9DF037
:1000980022C001F023C002F0000E046E0F0E036EA2
:1000A800BEEC09F0CF0E0124D96E000E0220DA6EE4
:1000B800DE50DE10DE10DE10D8A465EF00F067EF2A
:1000C80000F06CEF00F0225097EC04F067EF02F0BC
:1000D80022C001F023C002F0000E046E0F0E036E62
:1000E800BEEC09F0CF0E0124D96E000E0220DA6EA4
:1000F80022C001F023C002F0000E046E0F0E036E42
:10010800BEEC09F0CB0E0124E16E000E0220E26E77
:10011800DECFE6FFDECFE6FFDECFE6FFDECFE6FF8F
:10012800690E00019C199D11D8B49DEF00F09FEF56
:1001380000F0D8EF00F0690E9C199D11D8B4A7EF14
:1001480000F0A9EF00F0F2EF00F09CC001F09DC0B4
:1001580002F0000E046E0F0E036EBEEC09F0CB0E1B
:100168000124D96E000E0220DA6E22C001F023C0ED
:1001780002F0000E046E0F0E036EBEEC09F0CB0EFB
:100188000124E16E000E0220E26EDE50E65CDE50D5
:10019800E658DE50E658DE50E658D8B0D6EF00F004
:1001A800D8EF00F0F2EF00F022C001F023C002F017
:1001B800000E046E0F0E036EBEEC09F0D60E01247D
:1001C800D96E000E0220DA6E9CC0DEFF9DC0DDFFF6
:1001D80022C09CF023C09DF009EF02F09CC001F002
:1001E8009DC002F0000E046E0F0E036EBEEC09F007
:1001F800CB0E0124D96E000E0220DA6EDECF0DF090
:10020800DECF0EF0DECF0FF0DECF10F022C001F00F
:1002180023C002F0000E046E0F0E036EBEEC09F050
:10022800CB0E0124D96E000E0220DA6EDECF11F05B
:10023800DECF12F0DECF13F0DECF14F00D50115CDC
:10024800156E0E501258166E0F501358176E105028
:100258001458186E22C001F023C002F0000E046E7C
:100268000F0E036EBEEC09F0CB0E0124D96E000E02
:100278000220DA6E15C0DEFF16C0DEFF17C0DEFFF3
:1002880018C0DEFF9CC001F09DC002F0000E046E95
:100298000F0E036EBEEC09F0D60E0124D96E000EC7
:1002A8000220DA6EDECF20F0DDCF21F09CC01EF0F8
:1002B8009DC01FF0A8EF01F020C001F021C002F09E
:1002C800000E046E0F0E036EBEEC09F0CB0E012477
:1002D800D96E000E0220DA6EDECF0DF0DECF0EF002
:1002E800DECF0FF0DECF10F022C001F023C002F005
:1002F800000E046E0F0E036EBEEC09F0CB0E012447
:10030800D96E000E0220DA6E0D50DE5E0E50DE5AF7
:100318000F50DE5A1050DE5A20C01EF021C01FF0C8
:1003280020C001F021C002F0000E046E0F0E036E13
:10033800BEEC09F0D60E0124D96E000E0220DA6E4A
:10034800DECF20F0DDCF21F0690E20182110D8B4BF
:10035800B0EF01F0B2EF01F0E1EF01F020C001F0E1
:1003680021C002F0000E046E0F0E036EBEEC09F001
:10037800CB0E0124D96E000E0220DA6E22C001F0E5
:1003880023C002F0000E046E0F0E036EBEEC09F0DF
:10039800CB0E0124E16E000E0220E26EDE50E65C18
:1003A800DE50E658DE50E658DE50E658D8B0DFEFAB
:1003B80001F0E1EF01F060EF01F01EC001F01FC095
:1003C80002F0000E046E0F0E036EBEEC09F0D60E9E
:1003D8000124D96E000E0220DA6E22C0DEFF23C08F
:1003E800DDFF22C001F023C002F0000E046E0F0EE4
:1003F800036EBEEC09F0D60E0124D96E000E022061
:10040800DA6E20C0DEFF21C0DDFF22C001F023C06C
:1004180002F0000E046E0F0E036EBEEC09F0D60E4D
:100428000124D96E000E0220DA6E690EDE18DE1085
:10043800D8B421EF02F023EF02F067EF02F022C0F8
:1004480001F023C002F0000E046E0F0E036EBEEC26
:1004580009F0D60E0124D96E000E0220DA6EDECF26
:100468001CF0DDCF1DF022C001F023C002F0000E09
:10047800046E0F0E036EBEEC09F0CB0E0124D96E8C
:10048800000E0220DA6EDECF0DF0DECF0EF0DECFEA
:100498000FF0DECF10F01CC001F01DC002F0000EFE
:1004A800046E0F0E036EBEEC09F0CB0E0124D96E5C
:1004B800000E0220DA6E0D50DE5E0E50DE5A0F502E
:1004C800DE5A1050DE5A9CC001F09DC002F0000EAA
:1004D800046E0F0E036EBEEC09F0CB0E0124D96E2C
:1004E800000E0220DA6EDE50DE10DE10DE10D8B408
:1004F80080EF02F082EF02F016EF00F09CC001F0EE
:100508009DC002F0000E046E0F0E036EBEEC09F0E3
:10051800CB0E0124D96E000E0220DA6E0A0EDE5EC2
:10052800000EDE5ADE5ADE5A1200ECEC09F0000921
:10053800D8B4A1EF02F0A3EF02F0A6EF02F06D0E1F
:1005480096EF04F0000E0001BD6FBD510F0DD30EE4
:10055800F324D96E000EF420DA6EDE50DE10DE10C1
:10056800D8A4B9EF02F0BBEF02F0BDEF02F0C6EF7E
:1005780002F0BD2B130EBD65C4EF02F0C6EF02F00A
:10058800A9EF02F0140EBD19D8A4CDEF02F0CFEFF9
:1005980002F0D1EF02F0A3EF02F0BD510F0DCB0E28
:1005A800F324D96E000EF420DA6EA8C0DEFFA9C0CD
:1005B800DEFFAAC0DEFFABC0DEFFBD510F0DCF0EC0
:1005C800F324D96E000EF420DA6EA4C0DEFFA5C0B5
:1005D800DEFFA6C0DEFFA7C0DEFFBD510F0DD30EA4
:1005E800F324D96E000EF420DA6EACC0DEFFADC085
:1005F800DEFFAEC0DEFFBD510F0DD80EF324D96E5D
:10060800000EF420DA6EAFC0DEFFB0C0DDFF402A76
:10061800690E9C199D11D8B414EF03F016EF03F07E
:1006280048EF03F0690E9C199D11D8B41EEF03F032
:1006380020EF03F059EF03F09CC09EF09DC09FF09F
:10064800000EA16F0F0EA06F24EC09F0CB0E000175
:100658009E25D96E000E9F21DA6EBD510F0DCB0E6F
:10066800F324E16E000EF420E26EDE50E65CDE500C
:10067800E658DE50E658DE50E658D8B046EF03F0AC
:1006880048EF03F059EF03F0BD510F0DD60EF324D8
:10069800D96E000EF420DA6E9CC0DEFF9DC0DDFF2F
:1006A800BDC09CF09D6B35EF04F09CC09EF09DC0D2
:1006B8009FF0000EA16F0F0EA06F24EC09F0CB0E77
:1006C80000019E25D96E000E9F21DA6EDECFB1F0B3
:1006D800DECFB2F0DECFB3F0DECFB4F0B151A85D1B
:1006E800A86FB251A959A96FB351AA59AA6FB451A9
:1006F800AB59AB6F9CC09EF09DC09FF0000EA16FE0
:100708000F0EA06F24EC09F0D60E00019E25D96EBD
:10071800000E9F21DA6EDECFBBF0DDCFBCF09CC0AF
:10072800B9F09DC0BAF0D7EF03F0BBC09EF0BCC0D3
:100738009FF0000EA16F0F0EA06F24EC09F0CB0EF6
:1007480000019E25D96E000E9F21DA6EDECFB1F032
:10075800DECFB2F0DECFB3F0DECFB4F0B151A85D9A
:10076800A86FB251A959A96FB351AA59AA6FB45128
:10077800AB59AB6FBBC0B9F0BCC0BAF0BBC09EF000
:10078800BCC09FF0000EA16F0F0EA06F24EC09F003
:10079800D60E00019E25D96E000E9F21DA6EDECF9F
:1007A800BBF0DDCFBCF0690EBB19BC11D8B4DFEFCC
:1007B80003F0E1EF03F001EF04F0BBC09EF0BCC012
:1007C8009FF0000EA16F0F0EA06F24EC09F0CB0E66
:1007D80000019E25D96E000E9F21DA6EDE50A85DBD
:1007E800DE50A959DE50AA59DE50AB59D8B0FFEFF8
:1007F80003F001EF04F099EF03F0BD51B16FB26B54
:10080800B9C09EF0BAC09FF0000EA16F0F0EA06F86
:1008180024EC09F0D60E00019E25D96E000E9F210A
:10082800DA6EB1C0DEFFB2C0DDFFBD510F0DD60ECE
:10083800F324D96E000EF420DA6EBBC0DEFFBCC014
:10084800DDFFBD510F0DCB0EF324D96E000EF42041
:10085800DA6EA8C0DEFFA9C0DEFFAAC0DEFFABC00B
:10086800DEFFBD510F0DD60EF324D96E000EF42015
:10087800DA6E690EDE18DE10D8B445EF04F047EFE3
:1008880004F095EF04F0BD510F0DD60EF324D96E88
:10089800000EF420DA6EDECF9EF0DDCF9FF0000E62
:1008A800A16F0F0EA06F24EC09F0CB0E00019E255E
:1008B800D96E000E9F21DA6EDECFB1F0DECFB2F036
:1008C800DECFB3F0DECFB4F0A851B15DB56FA9515A
:1008D800B259B66FAA51B359B76FAB51B459B86F83
:1008E800BD510F0DD60EF324D96E000EF420DA6E2A
:1008F800DECF9EF0DDCF9FF0000EA16F0F0EA06F30
:1009080024EC09F0CB0E00019E25D96E000E9F2124
:10091800DA6EB5C0DEFFB6C0DEFFB7C0DEFFB8C016
:10092800DEFFBD511200066E03EC0AF00009D8A4E0
:10093800A0EF04F0A2EF04F0B4EF04F006500F0D9E
:10094800D30EF324D96E000EF420DA6EDE50DE10DA
:10095800DE10D8A4B2EF04F0B4EF04F0B7EF04F05F
:10096800000E6CEF05F006500F0DCB0EF324D96E78
:10097800000EF420DA6EDE6ADE6ADE6ADD6A065090
:100988000F0DCF0EF324D96E000EF420DA6EDE6A56
:10099800DE6ADE6ADD6A06500F0DD30EF324D96EC7
:1009A800000EF420DA6E000EDE6E000EDE6E000E13
:1009B800DE6E06500F0DD80EF324D96E000EF4200B
:1009C800DA6E000EDE6E000EDD6E40060650016E19
:1009D800026A00019C51011807E19D510218D8A430
:1009E800F8EF04F0FAEF04F014EF05F006500F0DDD
:1009F800D60EF324D96E000EF420DA6EDECF9CF00A
:100A0800DDCF9DF006500F0DD60EF324D96E000EE3
:100A1800F420DA6E690EDE6E000EDD6E6BEF05F007
:100A28009CC005F022EF05F005500F0DD60EF324FB
:100A3800D96E000EF420DA6EDF50056E05500F0DEA
:100A4800D60EF324D96E000EF420DA6E690EDE1885
:100A5800DE10D8B432EF05F034EF05F04BEF05F0B7
:100A680005500F0DD60EF324D96E000EF420DA6E61
:100A78000650036E046ADE50031807E1DE500418BE
:100A8800D8A449EF05F04BEF05F018EF05F0065034
:100A98000F0DD60EF324D96E000EF420DA6E055031
:100AA8000F0DD60EF324E16E000EF420E26EDECFB9
:100AB800E6FFDDCFE5FF06500F0DD60EF324D96E05
:100AC800000EF420DA6E690EDE6E000EDD6E010E89
:100AD8001200DFEC09F0E80E0001BE6F030EBF6FD5
:100AE800000EC06F000EC16F000EC26F000EC36F04
:100AF800000EC46F000EC56F300EC66F130EC76FA1
:100B0800000EC86F000EC96F000ECA6FD7EC08F050
:100B1800E80E0001BE6F030EBF6F000EC06F000E1F
:100B2800C16FC80EC26F000EC36F000EC46F000EF7
:100B3800C56F0A0EC66F130EC76F000EC86F000E82
:100B4800C96F000ECA6FD7EC08F0B80E0001BE6F6F
:100B58000B0EBF6F000EC06F000EC16F900EC26FFC
:100B6800010EC36F000EC46F000EC56FE40EC66F92
:100B7800120EC76F000EC86F000EC96F000ECA6F45
:100B8800D7EC08F0280E0001BE6F230EBF6F000ED1
:100B9800C06F000EC16F900EC26F010EC36F000EC2
:100BA800C46F000EC56FBE0EC66F120EC76F000E63
:100BB800C86F000EC96F000ECA6FD7EC08F0980E08
:100BC8000001BE6F3A0EBF6F000EC06F000EC16FFE
:100BD800C80EC26F000EC36F000EC46F000EC56F43
:100BE800980EC66F120EC76F000EC86F000EC96F41
:100BF800000ECA6FD7EC08F0640E0001BE6F000E3D
:100C0800BF6F000EC06F000EC16F100EC26F270EAF
:100C1800C36F000EC46F000EC56F560EC66F130E5D
:100C2800C76F000EC86F000EC96F000ECA6FD7ECF1
:100C380008F014EC0AF01DEF06F007EF00F0000EC4
:100C48000001A56F000EA46FA4C09EF0A5C09FF080
:100C5800000EA16F0F0EA06F24EC09F0CB0E00015F
:100C68009E25D96E000E9F21DA6EDE6ADE6ADE6A84
:100C7800DD6AA4C09EF0A5C09FF0000EA16F0F0E04
:100C8800A06F24EC09F0CF0E00019E25D96E000E4E
:100C98009F21DA6EDE6ADE6ADE6ADD6AA4C09EF033
:100CA800A5C09FF0000EA16F0F0EA06F24EC09F0F5
:100CB800D30E00019E25D96E000E9F21DA6E000E1C
:100CC800DE6E000EDE6E000EDE6EA4C09EF0A5C0C5
:100CD8009FF0000EA16F0F0EA06F24EC09F0D80E44
:100CE80000019E25D96E000E9F21DA6E000EDE6E81
:100CF800000EDD6EA4C09EF0A5C09FF0000EA16F8F
:100D08000F0EA06F24EC09F0D60E00019E25D96EB7
:100D1800000E9F21DA6E690EDE6E000EDD6EA44BAA
:100D2800A52BA5BFA1EF06F0A55109E1140EA45DFE
:100D3800D8A0A1EF06F0A3EF06F028EF06F0000E0A
:100D4800406E000E9D6F690E9C6F1200000E000130
:100D5800A36F9FBFB4EF06F0B2EF06F0BAEF06F04C
:100D68009E6D9F1FD8B09F2B010EA36FA1BFC1EF2F
:100D780006F0BFEF06F0C5EF06F0A06DA11FD8B0D2
:100D8800A12BA051A111D8B4CCEF06F0CEEF06F0FC
:100D9800F2EF06F0010EA26FD6EF06F0D890A0375A
:100DA800A137A22BA1AFDBEF06F0DDEF06F0D2EF03
:100DB80006F0A0519E5DA1519F59D8A0E6EF06F01C
:100DC800E8EF06F0ECEF06F0A0519E5FA1519F5BA3
:100DD800D890A133A033A22FDDEF06F0A351D8B4E9
:100DE800F8EF06F0FAEF06F0FEEF06F09E6D9F1F93
:100DF800D8B09F2B9EC09EF09FC09FF01200000E9F
:100E0800066E02BE0CEF07F00AEF07F012EF07F0CC
:100E1800016C021ED8B0022A010E066E04BE19EF3C
:100E280007F017EF07F01DEF07F0036C041ED8B0AA
:100E3800042A03500410D8B424EF07F026EF07F073
:100E48004AEF07F0010E056E2EEF07F0D890033633
:100E58000436052A04AE33EF07F035EF07F02AEF22
:100E680007F00350015C04500258D8A03EEF07F089
:100E780040EF07F044EF07F00350015E0450025AB8
:100E8800D89004320332052E35EF07F00650D8B457
:100E980050EF07F052EF07F056EF07F0016C021E13
:100EA800D8B0022A01C001F002C002F01200060008
:100EB800E1CF24F0E2CF25F0D9CF26F0DACF27F022
:100EC800F3CF28F0F4CF29F0F2AA6DEF07F06FEF17
:100ED80007F07FEF07F0F2A474EF07F076EF07F062
:100EE8007FEF07F0F294830ED66E010E3A26000EBD
:100EF8003B223C223D229DA084EF07F086EF07F0BD
:100F0800A4EF07F09EA08BEF07F08DEF07F0A4EF9A
:100F180007F09E90B10ECF6EE00ECE6E09EC00F099
:100F28003E4A3F2A640E3E183F10D8A49EEF07F0B1
:100F3800A0EF07F0A4EF07F0000E3F6E000E3E6E24
:100F480029C0F4FF28C0F3FF27C0DAFF26C0D9FF65
:100F580025C0E2FF24C0E1FF469211000001A86FFE
:100F6800040E0001A865BBEF07F0BDEF07F0DBEF4B
:100F780007F0FCEF07F0F28AF294C30ED56E830EE9
:100F8800D66E000E3A6E000E3B6E000E3C6E000EE2
:100F98003D6EFCEF07F023EC06F09D809E90810EDD
:100FA800CD6EB10ECF6EE00ECE6EFCEF07F0A851FD
:100FB800A66FA76BA751000AD8B4E5EF07F0FCEFBE
:100FC80007F0A651000AD8B4BFEF07F0010AD8B459
:100FD800CFEF07F0030AD8B4FCEF07F0010AD8B442
:100FE800FCEF07F0070AD8B4FCEF07F0FCEF07F0B6
:100FF8001200F4EC08F00009D8B405EF08F007EF88
:1010080008F010EF08F0000E0001A66F000EA76FA1
:10101800000EA86F3DEF08F044C0A9F045C0AAF043
:10102800010E442400019E6F000E45209F6F000EA4
:10103800A16F140EA06FAAEC06F09EC044F09FC0EA
:1010480045F0A9C09EF0AAC09FF0000E0001A16F54
:10105800030EA06F24EC09F0600E00019E25D96EE6
:10106800000E9F21DA6EDECFA6F0DECFA7F0DDCF2F
:10107800A8F01200D1EC09F00009D8B446EF08F046
:1010880048EF08F04AEF08F07EEF08F0442806E140
:101098004528D8A452EF08F054EF08F058EF08F0AC
:1010A800000E456E000E446E010E4224016E000EC5
:1010B8004320026E000E046E140E036E03EC07F05C
:1010C80001C042F002C043F042C001F043C002F048
:1010D800000E046E030E036EBEEC09F0600E0124D0
:1010E800D96E000E0220DA6E0AC0DEFF0BC0DEFFEA
:1010F8000CC0DEFF1200A1EF08F0FDEC07F0A6C05F
:10110800ABF0A7C0ACF0A8C0ADF00001AB51AC117A
:10111800AD11D8B492EF08F094EF08F0A1EF08F001
:1011280002D8A1EF08F00500FA6EAB51FD6EAC5184
:10113800FE6EAD51FF6EFA501200F4EC08F0000993
:10114800D8B4A9EF08F0ABEF08F081EF08F012006F
:101158002E0EF66E140EF76E000EF86E00EE42F0CC
:1011680010EE04F00900F5CFEEFFE550E150FAE18A
:1011780000EECBF011EE2CF0EE6AE550E150FCE108
:10118800E250FAE100EE60F03E0EEE6AE806FDE19C
:1011980000EE2AF0180EEE6AE806FDE14690469247
:1011A80000016DEF05F0BEC0A4F0BFC0A5F0C0C03F
:1011B800A6F0C1C0A7F0C2C0A8F0C3C0A9F0C4C0BF
:1011C800AAF0C5C0ABF0C6C0ACF0C7C0ADF0C8C08F
:1011D800AEF0C9C0AFF0CAC0B0F099EC02F012008E
:1011E800442806E14528D8A4FCEF08F0FEEF08F0F3
:1011F80001EF09F0000E0DEF09F00EEC09F00009FF
:10120800D8B409EF09F00CEF09F0010E0DEF09F061
:10121800000E12004450425C0001A46F4550435830
:10122800A56F150EA4259E6F000EA5219F6F000EB9
:10123800A16F140EA06FAAEC06F000019E511200D7
:1012480000019E51A003F3CFA2F0F4CFA3F09E516A
:10125800A103F350A3279F51A003F350A327A2C0D3
:101268009EF0A3C09FF012004450425C076E4550A8
:101278004358086E150E0724016E000E0820026EF2
:10128800000E046E140E036E03EC07F001501200FA
:1012980032503310D8B453EF09F056EF09F0010E6D
:1012A80057EF09F0000E326E336A32B002D08C98D4
:1012B80001D08C88120030503110D8B466EF09F094
:1012C80069EF09F0010E6AEF09F0000E306E316A1D
:1012D80030B002D08C9601D08C8612002E502F1080
:1012E800D8B479EF09F07CEF09F0010E7DEF09F031
:1012F800000E2E6E2F6A2EB002D08C9401D08C84F2
:1013080012002C502D10D8B48CEF09F08FEF09F093
:10131800010E90EF09F0000E2C6E2D6A2CB002D051
:101328008C9201D08C8212002A502B10D8B49FEFD7
:1013380009F0A2EF09F0010EA3EF09F0000E2A6EE2
:101348002B6A2AB002D08C9001D08C8012003450C5
:101358003510D8B4B2EF09F0B5EF09F0010EB6EFC9
:1013680009F0000E346E356A34B002D08C9A01D080
:101378008C8A120001500302F3CF05F0F4CF06F077
:1013880001500402F350062602500302F3500626C9
:1013980005C001F006C002F0120038EC09F0096E31
:1013A800140E0960DAEF09F0DDEF09F0010EDEEF47
:1013B80009F0000E12000EEC0AF0F8EC09F011EC3E
:1013C8000AF0000EB2EC07F0010EB2EC07F01200C2
:1013D800140E4018D8B4F3EF09F0F6EF09F0010E37
:1013E800F7EF09F0000E1200000E8B6ED70E946E08
:1013F8000F0EC16E000E8C6E000E956E12004050DE
:10140800D8B409EF0AF00CEF0AF0010E0DEF0AF05C
:10141800000E1200700ED36E1200F28EF28C1200C3
:0A1428007FEC08F01200FFFFFFFF49
:020000040020DA
:08000000FFFFFFFFFFFFFFFF00
:020000040030CA
:0E000000FF09191EF38381FFFFC0FFE0FF40E0
:00000001FF
