:020000040000FA
:0400000007EF00F016
:10000800588251ED08F066EF0AF0690E0001951963
:100018009611D8A412EF00F014EF00F07FEF02F071
:10002800B0EF02F095C026F096C027F026C001F088
:1000380027C002F0000E046E0F0E036E0CEC0BF0DE
:100048006C0E0124D96E010E0220DA6EDECF1BF091
:10005800DECF1CF0DDCF1DF026C001F027C002F076
:10006800000E046E0F0E036E0CEC0BF0710E0124E3
:10007800D96E010E0220DA6EDECF1EF0DDCF1FF042
:100088001BC00AF01CC00BF01DC00CF01EC00DF008
:100098001FC00EF001EC09F026C001F027C002F0E5
:1000A800000E046E0F0E036E0CEC0BF06F0E0124A5
:1000B800D96E010E0220DA6EDECF95F0DDCF96F014
:1000C80026C001F027C002F0000E046E0F0E036E6A
:1000D8000CEC0BF0680E0124D96E010E0220DA6ECA
:1000E800DE50DE10DE10DE10D8A47DEF00F07FEFCA
:1000F80000F084EF00F0265099EC06F07FEF02F054
:1001080026C001F027C002F0000E046E0F0E036E29
:100118000CEC0BF0680E0124D96E010E0220DA6E89
:1001280026C001F027C002F0000E046E0F0E036E09
:100138000CEC0BF0640E0124E16E010E0220E26E5D
:10014800DECFE6FFDECFE6FFDECFE6FFDECFE6FF5F
:10015800690E000195199611D8B4B5EF00F0B7EF04
:1001680000F0F0EF00F0690E95199611D8B4BFEFC2
:1001780000F0C1EF00F00AEF01F095C001F096C061
:1001880002F0000E046E0F0E036E0CEC0BF0640E02
:100198000124D96E010E0220DA6E26C001F027C0B4
:1001A80002F0000E046E0F0E036E0CEC0BF0640EE2
:1001B8000124E16E010E0220E26EDE50E65CDE50A4
:1001C800E658DE50E658DE50E658D8B0EEEF00F0BC
:1001D800F0EF00F00AEF01F026C001F027C002F0AE
:1001E800000E046E0F0E036E0CEC0BF06F0E012464
:1001F800D96E010E0220DA6E95C0DEFF96C0DDFFD3
:1002080026C095F027C096F021EF02F095C001F0C6
:1002180096C002F0000E046E0F0E036E0CEC0BF08D
:10022800640E0124D96E010E0220DA6EDECF0FF0C3
:10023800DECF10F0DECF11F0DECF12F026C001F0D5
:1002480027C002F0000E046E0F0E036E0CEC0BF0CC
:10025800640E0124D96E010E0220DA6EDECF13F08F
:10026800DECF14F0DECF15F0DECF16F00F50135CA2
:10027800176E10501458186E11501558196E1250E8
:1002880016581A6E26C001F027C002F0000E046E40
:100298000F0E036E0CEC0BF0640E0124D96E010EE8
:1002A8000220DA6E17C0DEFF18C0DEFF19C0DEFFBD
:1002B8001AC0DEFF95C001F096C002F0000E046E71
:1002C8000F0E036E0CEC0BF06F0E0124D96E010EAD
:1002D8000220DA6EDECF24F0DDCF25F095C022F0C3
:1002E80096C023F0C0EF01F024C001F025C002F051
:1002F800000E046E0F0E036E0CEC0BF0640E01245E
:10030800D96E010E0220DA6EDECF0FF0DECF10F0CC
:10031800DECF11F0DECF12F026C001F027C002F0C8
:10032800000E046E0F0E036E0CEC0BF0640E01242D
:10033800D96E010E0220DA6E0F50DE5E1050DE5AC2
:100348001150DE5A1250DE5A24C022F025C023F084
:1003580024C001F025C002F0000E046E0F0E036EDB
:100368000CEC0BF06F0E0124D96E010E0220DA6E30
:10037800DECF24F0DDCF25F0690E24182510D8B47F
:10038800C8EF01F0CAEF01F0F9EF01F024C001F065
:1003980025C002F0000E046E0F0E036E0CEC0BF07D
:1003A800640E0124D96E010E0220DA6E26C001F017
:1003B80027C002F0000E046E0F0E036E0CEC0BF05B
:1003C800640E0124E16E010E0220E26EDE50E65C4E
:1003D800DE50E658DE50E658DE50E658D8B0F7EF63
:1003E80001F0F9EF01F078EF01F022C001F023C02D
:1003F80002F0000E046E0F0E036E0CEC0BF06F0E85
:100408000124D96E010E0220DA6E26C0DEFF27C055
:10041800DDFF26C001F027C002F0000E046E0F0EAB
:10042800036E0CEC0BF06F0E0124D96E010E022046
:10043800DA6E24C0DEFF25C0DDFF26C001F027C02C
:1004480002F0000E046E0F0E036E0CEC0BF06F0E34
:100458000124D96E010E0220DA6E690EDE18DE1054
:10046800D8B439EF02F03BEF02F07FEF02F026C07C
:1004780001F027C002F0000E046E0F0E036E0CECA4
:100488000BF06F0E0124D96E010E0220DA6EDECF5A
:1004980020F0DDCF21F026C001F027C002F0000EC9
:1004A800046E0F0E036E0CEC0BF0640E0124D96E73
:1004B800010E0220DA6EDECF0FF0DECF10F0DECFB5
:1004C80011F0DECF12F020C001F021C002F0000EC2
:1004D800046E0F0E036E0CEC0BF0640E0124D96E43
:1004E800010E0220DA6E0F50DE5E1050DE5A1150F7
:1004F800DE5A1250DE5A95C001F096C002F0000E86
:10050800046E0F0E036E0CEC0BF0640E0124D96E12
:10051800010E0220DA6EDE50DE10DE10DE10D8B4D6
:1005280098EF02F09AEF02F016EF00F095C001F094
:1005380096C002F0000E046E0F0E036E0CEC0BF06A
:10054800640E0124D96E010E0220DA6E0A0EDE5EF8
:10055800000EDE5ADE5ADE5A12004CEC0BF000098F
:10056800D8B4B9EF02F0BBEF02F0BEEF02F06D0EA7
:10057800BEEF04F0000E00017F6F7F510F0D6C0E6F
:10058800F324D96E010EF420DA6EDE50DE10DE1090
:10059800D8A4D1EF02F0D3EF02F0D5EF02F0DEEFEE
:1005A80002F07F2B130E7F65DCEF02F0DEEF02F026
:1005B800C1EF02F07C0E661909E1150E6719681182
:1005C8006911D8A4EAEF02F0ECEF02F0EEEF02F0C6
:1005D800F10E986F140E7F19D8A4F5EF02F0F7EF1B
:1005E80002F0F9EF02F0BBEF02F07F510F0D640E3D
:1005F800F324D96E010EF420DA6E6AC0DEFF6BC0F8
:10060800DEFF6CC0DEFF6DC0DEFF7F510F0D680E90
:10061800F324D96E010EF420DA6E66C0DEFF67C0DF
:10062800DEFF68C0DEFF69C0DEFF7F510F0D6C0E74
:10063800F324D96E010EF420DA6E6EC0DEFF6FC0AF
:10064800DEFF70C0DEFF7F510F0D710EF324D96EEF
:10065800010EF420DA6E71C0DEFF72C0DDFF972B49
:10066800690E95199611D8B43CEF03F03EEF03F0EC
:1006780070EF03F0690E95199611D8B446EF03F0A0
:1006880048EF03F081EF03F095C060F096C061F089
:10069800000E636F0F0E626FE4EC0AF0640E000147
:1006A8006025D96E010E6121DA6E7F510F0D640E3F
:1006B800F324E16E010EF420E26EDE50E65CDE50BB
:1006C800E658DE50E658DE50E658D8B06EEF03F034
:1006D80070EF03F081EF03F07F510F0D6F0EF324DD
:1006E800D96E010EF420DA6E95C0DEFF96C0DDFFEC
:1006F8007FC095F0966B5DEF04F095C060F096C0F2
:1007080061F0000E636F0F0E626FE4EC0AF0640E86
:1007180000016025D96E010E6121DA6EDECF73F01B
:10072800DECF74F0DECF75F0DECF76F073516A5D00
:100738006A6F74516B596B6F75516C596C6F765148
:100748006D596D6F95C060F096C061F0000E636FD3
:100758000F0E626FE4EC0AF06F0E00016025D96E8F
:10076800010E6121DA6EDECF7DF0DDCF7EF095C01F
:100778007BF096C07CF0FFEF03F07DC060F07EC098
:1007880061F0000E636F0F0E626FE4EC0AF0640E06
:1007980000016025D96E010E6121DA6EDECF73F09B
:1007A800DECF74F0DECF75F0DECF76F073516A5D80
:1007B8006A6F74516B596B6F75516C596C6F7651C8
:1007C8006D596D6F7DC07BF07EC07CF07DC060F0A0
:1007D8007EC061F0000E636F0F0E626FE4EC0AF0EA
:1007E8006F0E00016025D96E010E6121DA6EDECF31
:1007F8007DF0DDCF7EF0690E7D197E11D8B407EF4C
:1008080004F009EF04F029EF04F07DC060F07EC029
:1008180061F0000E636F0F0E626FE4EC0AF0640E75
:1008280000016025D96E010E6121DA6EDE506A5D25
:10083800DE506B59DE506C59DE506D59D8B027EF39
:1008480004F029EF04F0C1EF03F07F51736F746B6C
:100858007BC060F07CC061F0000E636F0F0E626FAA
:10086800E4EC0AF06F0E00016025D96E010E6121DB
:10087800DA6E73C0DEFF74C0DDFF7F510F0D6F0E9F
:10088800F324D96E010EF420DA6E7DC0DEFF7EC03F
:10089800DDFF7F510F0D640EF324D96E010EF42095
:1008A800DA6E6AC0DEFF6BC0DEFF6CC0DEFF6DC0B3
:1008B800DEFF7F510F0D6F0EF324D96E010EF42069
:1008C800DA6E690EDE18DE10D8B46DEF04F06FEF43
:1008D80004F0BDEF04F07F510F0D6F0EF324D96EB5
:1008E800010EF420DA6EDECF60F0DDCF61F0000E8D
:1008F800636F0F0E626FE4EC0AF0640E000160256E
:10090800D96E010E6121DA6EDECF73F0DECF74F09E
:10091800DECF75F0DECF76F06A51735D776F6B517D
:100928007459786F6C517559796F6D5176597A6F22
:100938007F510F0D6F0EF324D96E010EF420DA6E7D
:10094800DECF60F0DDCF61F0000E636F0F0E626FD7
:10095800E4EC0AF0640E00016025D96E010E6121F5
:10096800DA6E77C0DEFF78C0DEFF79C0DEFF7AC0BE
:10097800DEFF7F5112003FEC0BF0E80E0001806FA4
:10098800030E816F000E826F000E836F000E846F5E
:10099800000E856F000E866F000E876F5E0E886FE3
:1009A8000B0E896F000E8A6F000E8B6F000E8C6F16
:1009B80097EC0AF0E80E0001806F030E816F000EBD
:1009C800826F000E836FC80E846F000E856F000E55
:1009D800866F000E876F5E0E886F0B0E896F000E94
:1009E8008A6F010E8B6F000E8C6F97EC0AF0B80EB1
:1009F8000001806F0B0E816F000E826F000E836FF7
:100A0800900E846F010E856F000E866F000E876F43
:100A18005E0E886F0B0E896F000E8A6F020E8B6F49
:100A2800000E8C6F97EC0AF0280E0001806F230EE1
:100A3800816F000E826F000E836F900E846F010E1F
:100A4800856F000E866F000E876F5E0E886F0B0E27
:100A5800896F000E8A6F030E8B6F000E8C6F97ECF8
:100A68000AF07C0E0001806F150E816F000E826FF8
:100A7800000E836F900E846F010E856F000E866FD7
:100A8800000E876F5E0E886F0B0E896F000E8A6FDF
:100A9800040E8B6F000E8C6F97EC0AF0B80E0001F5
:100AA800806F0B0E816F000E826F000E836F900EA9
:100AB800846F010E856F000E866F000E876F5E0EC5
:100AC800886F0B0E896F000E8A6F050E8B6F000EF4
:100AD8008C6F97EC0AF0D00E0001806F070E816FC3
:100AE800000E826F000E836F900E846F010E856F6B
:100AF800000E866F000E876F5E0E886F0B0E896F73
:100B0800000E8A6F060E8B6F000E8C6F97EC0AF042
:100B1800D00E0001806F070E816F000E826F000EED
:100B2800836F900E846F010E856F000E866F000E26
:100B3800876F5E0E886F0B0E896F000E8A6F070E27
:100B48008B6F000E8C6F97EC0AF06FEC0BF0A9EF2F
:100B580005F007EF00F060C066F000016651020D75
:100B68002E0EF324D96E000EF420DA6EDE50DE105D
:100B7800D8B4C1EF05F0C4EF05F0010EC5EF05F0DC
:100B8800000E646F656B6651020D2E0EF324D96E4C
:100B9800000EF420DA6E64C0DEFF65C0DDFF6BEF87
:100BA80006F06651020D2E0EF324D96E000EF420C5
:100BB800DA6EDF50626F8C506219FE0B62198C6E10
:100BC80098EF06F06651020D2E0EF324D96E000E32
:100BD800F420DA6EDF50626F62478C506219FD0BA9
:100BE80062198C6E98EF06F06651020D2E0EF324F2
:100BF800D96E000EF420DA6EDF50626F62476247EA
:100C08008C506219FB0B62198C6E98EF06F06651D6
:100C1800020D2E0EF324D96E000EF420DA6EDF508A
:100C2800626F6247624762478C506219F70B62191C
:100C38008C6E98EF06F06651020D2E0EF324D96ED5
:100C4800000EF420DA6EDF50626F623B8C5062193E
:100C5800EF0B62198C6E98EF06F06651020D2E0E9E
:100C6800F324D96E000EF420DA6EDF50626F623B17
:100C780062478C506219DF0B62198C6E98EF06F090
:100C88006651020D2E0EF324D96E000EF420DA6E92
:100C9800DF50626F623B624762478C506219BF0B3C
:100CA80062198C6E98EF06F06651020D2E0EF32431
:100CB800D96E000EF420DA6EDF50626F6233623351
:100CC8008C5062197F0B62198C6E98EF06F0665192
:100CD800626F636B6351000AD8B475EF06F098EF42
:100CE80006F06251000AD8B4D5EF05F0010AD8B46D
:100CF800E6EF05F0030AD8B4F8EF05F0010AD8B416
:100D08000BEF06F0070AD8B41FEF06F0010AD8B4B3
:100D180031EF06F0030AD8B444EF06F0010AD8B45C
:100D280058EF06F098EF06F01200066E59EC0BF03B
:100D38000009D8A4A2EF06F0A4EF06F0B6EF06F07B
:100D480006500F0D6C0EF324D96E010EF420DA6EE6
:100D5800DE50DE10DE10D8A4B4EF06F0B6EF06F0D1
:100D6800B9EF06F0000E6EEF07F006500F0D640E97
:100D7800F324D96E010EF420DA6EDE6ADE6ADE6ACA
:100D8800DD6A06500F0D680EF324D96E010EF420AB
:100D9800DA6EDE6ADE6ADE6ADD6A06500F0D6C0EF8
:100DA800F324D96E010EF420DA6E000EDE6E000E0A
:100DB800DE6E000EDE6E06500F0D710EF324D96E36
:100DC800010EF420DA6E000EDE6E000EDD6E0001FC
:100DD80097070650016E026A9551011807E196516E
:100DE8000218D8A4FAEF06F0FCEF06F016EF07F0A9
:100DF80006500F0D6F0EF324D96E010EF420DA6E33
:100E0800DECF95F0DDCF96F006500F0D6F0EF32470
:100E1800D96E010EF420DA6E690EDE6E000EDD6EFC
:100E28006DEF07F095C005F024EF07F005500F0DA2
:100E38006F0EF324D96E010EF420DA6EDF50056EC2
:100E480005500F0D6F0EF324D96E010EF420DA6EE3
:100E5800690EDE18DE10D8B434EF07F036EF07F06D
:100E68004DEF07F005500F0D6F0EF324D96E010EEC
:100E7800F420DA6E0650036E046ADE50031807E1A8
:100E8800DE500418D8A44BEF07F04DEF07F01AEF27
:100E980007F006500F0D6F0EF324D96E010EF420E3
:100EA800DA6E05500F0D6F0EF324E16E010EF4207B
:100EB800E26EDECFE6FFDDCFE5FF06500F0D6F0EC9
:100EC800F324D96E010EF420DA6E690EDE6E000E80
:100ED800DD6E010E1200F2EC09F0000E0001696FE0
:100EE800000E686F68C060F069C061F0000E636F43
:100EF8000F0E626FE4EC0AF0640E00016025D96EF3
:100F0800010E6121DA6EDE6ADE6ADE6ADD6A68C0B9
:100F180060F069C061F0000E636F0F0E626FE4EC61
:100F28000AF0680E00016025D96E010E6121DA6EA3
:100F3800DE6ADE6ADE6ADD6A68C060F069C061F098
:100F4800000E636F0F0E626FE4EC0AF06C0E000186
:100F58006025D96E010E6121DA6E000EDE6E000E7C
:100F6800DE6E000EDE6E68C060F069C061F0000ED3
:100F7800636F0F0E626FE4EC0AF0710E00016025DA
:100F8800D96E010E6121DA6E000EDE6E000EDD6E86
:100F980068C060F069C061F0000E636F0F0E626F89
:100FA800E4EC0AF06F0E00016025D96E010E612194
:100FB800DA6E690EDE6E000EDD6E684B692B69BF56
:100FC800EFEF07F0695109E1140E685DD8A0EFEF63
:100FD80007F0F1EF07F076EF07F0000E976F000EBD
:100FE800966F690E956F1200000E0001656F61BF64
:100FF80002EF08F000EF08F008EF08F0606D611FDD
:10100800D8B0612B010E656F63BF0FEF08F00DEFCD
:1010180008F013EF08F0626D631FD8B0632B6251BC
:101028006311D8B41AEF08F01CEF08F040EF08F08D
:10103800010E646F24EF08F0D89062376337642B91
:1010480063AF29EF08F02BEF08F020EF08F06251AA
:10105800605D63516159D8A034EF08F036EF08F0AD
:101068003AEF08F06251605F6351615BD890633377
:101078006233642F2BEF08F06551D8B446EF08F0BF
:1010880048EF08F04CEF08F0606D611FD8B0612B95
:1010980060C060F061C061F012000600E1CF28F086
:1010A800E2CF29F0D9CF2AF0DACF2BF0F3CF2CF00A
:1010B800F4CF2DF0F2AA63EF08F065EF08F076EFB1
:1010C80008F0F2A46AEF08F06CEF08F076EF08F089
:1010D800F294830ED66E010E00019127000E922322
:1010E800932394239DA07BEF08F07DEF08F09BEFFE
:1010F80008F09EA082EF08F084EF08F09BEF08F05C
:101108009E90B10ECF6EE00ECE6E09EC00F04A4A0A
:101118004B2A640E4A184B10D8A495EF08F097EFA5
:1011280008F09BEF08F0000E4B6E000E4A6E2DC0C3
:10113800F4FF2CC0F3FF2BC0DAFF2AC0D9FF29C067
:10114800E2FF28C0E1FF58921100000E066E02BEB1
:10115800B2EF08F0B0EF08F0B8EF08F0016C021E2B
:10116800D8B0022A010E066E04BEBFEF08F0BDEF2C
:1011780008F0C3EF08F0036C041ED8B0042A03502B
:101188000410D8B4CAEF08F0CCEF08F0F0EF08F07C
:10119800010E056ED4EF08F0D89003360436052A00
:1011A80004AED9EF08F0DBEF08F0D0EF08F00350F9
:1011B800015C04500258D8A0E4EF08F0E6EF08F00C
:1011C800EAEF08F00350015E0450025AD890043246
:1011D8000332052EDBEF08F00650D8B4F6EF08F01E
:1011E800F8EF08F0FCEF08F0016C021ED8B0022AF4
:1011F80001C001F002C002F0120031EC0BF000094E
:10120800D8B409EF09F00BEF09F00DEF09F055EF2D
:1012180009F0522806E15328D8A415EF09F017EF72
:1012280009F01BEF09F0000E536E000E526E010E0E
:101238005024016E000E5120026E000E046E140E32
:10124800036EA9EC08F001C050F002C051F050C084
:1012580001F051C002F0000E046E050E036E0CEC96
:101268000BF0000E0124D96E010E0220DA6E0AC0BE
:10127800DEFF0BC0DEFF0CC0DEFF50C001F051C026
:1012880002F0000E046E050E036E0CEC0BF0030E5C
:101298000124D96E010E0220DA6E0DC0DEFF0EC0E9
:1012A800DDFF1200000E00016F6F000E706F000E60
:1012B800716F000E726F000E736FB4EC0AF00009C4
:1012C800D8B469EF09F06BEF09F076EF09F020EE7A
:1012D8006FF000EE68F0040EDBCFEBFFE806FCE2EF
:1012E800A6EF09F052C06DF053C06EF0010E522403
:1012F8000001606F000E5320616F000E636F140EC3
:10130800626FF8EC07F060C052F061C053F06DC036
:1013180060F06EC061F0000E0001636F050E626F31
:10132800E4EC0AF0000E00016025D96E010E61217F
:10133800DA6E10EE6FF0040EDBCFE3FFE806FCE296
:101348006BEF09F0120000016C6F040E00016C6570
:10135800B0EF09F0B2EF09F0D0EF09F0F1EF09F0C2
:10136800F28AF294C30ED56E830ED66E000E916F7C
:10137800000E926F000E936F000E946FF1EF09F05C
:101388006FEC07F09D809E90810ECD6EB10ECF6EF2
:10139800E00ECE6EF1EF09F06C516A6F6B6B6B511A
:1013A800000AD8B4DAEF09F0F1EF09F06A51000A3F
:1013B800D8B4B4EF09F0010AD8B4C4EF09F0030AAD
:1013C800D8B4F1EF09F0010AD8B4F1EF09F0070A2F
:1013D800D8B4F1EF09F0F1EF09F01200000E0001A6
:1013E800676F000E666F66C060F067C061F0000E40
:1013F800636F050E626FE4EC0AF0030E00016025CE
:10140800D96E010E6121DA6E000EDE6E000EDD6E01
:1014180066C060F067C061F0000E636F050E626F12
:10142800E4EC0AF0000E00016025D96E010E61217E
:10143800DA6E000EDE6E000EDE6E000EDE6E664B9D
:10144800672B67BF31EF0AF0675109E1140E665D3B
:10145800D8A031EF0AF033EF0AF0F7EF09F01200E5
:101468005BEF0AF056EC09F020EE74F0040EEBCFB7
:10147800DBFFE806FCE20001745175117611D8B45F
:1014880048EF0AF04AEF0AF05BEF0AF077C060F025
:1014980078C061F002D85BEF0AF00500FA6E74516B
:1014A800FD6E7551FE6E7651FF6EFA501200B4EC67
:1014B8000AF00009D8B463EF0AF065EF0AF036EFD6
:1014C8000AF01200CA0EF66E160EF76E000EF86ECF
:1014D80000EE50F010EE08F00900F5CFEEFFE550F1
:1014E800E150FAE101EE64F011EE2CF0EE6AE550FD
:1014F800E150FCE1E250FAE101EE00F0640EEE6A20
:10150800E806FDE100EE8DF00C0EEE6AE806FDE15E
:1015180000EE2EF0220EEE6AE806FDE15890589291
:101528000001BFEF04F080C066F081C067F082C0A0
:1015380068F083C069F084C06AF085C06BF086C02B
:101548006CF087C06DF088C06EF089C06FF08AC0FB
:1015580070F08BC071F08CC072F0B1EC02F0120028
:10156800522806E15328D8A4BCEF0AF0BEEF0AF0CF
:10157800C1EF0AF0000ECDEF0AF0CEEC0AF0000938
:10158800D8B4C9EF0AF0CCEF0AF0010ECDEF0AF09B
:10159800000E12005250505C0001666F53505158B3
:1015A800676F150E6625606F000E6721616F000E6C
:1015B800636F140E626FF8EC07F0000160511200BF
:1015C800000160516203F3CF64F0F4CF65F060511D
:1015D8006303F350652761516203F350652764C0C4
:1015E80060F065C061F012005250505C076E5350B5
:1015F8005158086E150E0724016E000E0820026E61
:10160800000E046E140E036EA9EC08F001501200CF
:1016180001500302F3CF05F0F4CF06F001500402A5
:10162800F350062602500302F350062605C001F0C7
:1016380006C002F01200000E8B6ED70E946E0F0ECD
:10164800C16E000E8C6E000E956E000E896EF30E44
:10165800926E000E8A6E93681200F8EC0AF0096E1A
:10166800140E09603AEF0BF03DEF0BF0010E3EEF60
:101678000BF0000E120069EC0BF01FEC0BF06CEC99
:101688000BF0000EA7EC09F0010EA7EC09F0120010
:10169800140E00019719D8B454EF0BF057EF0BF064
:1016A800010E58EF0BF0000E120000019751D8B44C
:1016B80060EF0BF063EF0BF0010E64EF0BF0000E20
:1016C8001200FFFFFFFF01010101700ED36E12002F
:0C16D800F28EF28C120034EC0AF01200CA
:020000040020DA
:08000000FFFFFFFFFFFFFFFF00
:020000040030CA
:0E000000FF09191EF38381FFFFC0FFE0FF40E0
:00000001FF
