:020000040000FA
:0400000007EF00F016
:1000080048828AED07F0DBEF08F0690E00019C19C1
:100018009D11D8A412EF00F014EF00F0C3EF02F026
:10002800F4EF02F09CC024F09DC025F024C001F03C
:1000380025C002F0000E046E0D0E036EE9EC09F007
:10004800D10E0124D96E000E0220DA6EDECF19F02F
:10005800DECF1AF0DDCF1BF019C00AF01AC00BF082
:100068001BC00CF06DEC08F024C001F025C002F0B4
:10007800000E046E0D0E036EE9EC09F0D40E012497
:10008800D96E000E0220DA6EDECF9CF0DDCF9DF037
:1000980024C001F025C002F0000E046E0D0E036EA0
:1000A800E9EC09F0CD0E0124D96E000E0220DA6EBB
:1000B800DE50DE10DE10DE10D8A465EF00F067EF2A
:1000C80000F06CEF00F02450E7EC04F0C3EF02F00E
:1000D80024C001F025C002F0000E046E0D0E036E60
:1000E800E9EC09F0CD0E0124D96E000E0220DA6E7B
:1000F80024C001F025C002F0000E046E0D0E036E40
:10010800E9EC09F0C90E0124E16E000E0220E26E4E
:10011800DECFE6FFDECFE6FFDECFE6FFDECFE6FF8F
:10012800690E00019C199D11D8B49DEF00F09FEF56
:1001380000F0D8EF00F0690E9C199D11D8B4A7EF14
:1001480000F0A9EF00F0F2EF00F09CC001F09DC0B4
:1001580002F0000E046E0D0E036EE9EC09F0C90EF4
:100168000124D96E000E0220DA6E24C001F025C0E9
:1001780002F0000E046E0D0E036EE9EC09F0C90ED4
:100188000124E16E000E0220E26EDE50E65CDE50D5
:10019800E658DE50E658DE50E658D8B0D6EF00F004
:1001A800D8EF00F0F2EF00F024C001F025C002F013
:1001B800000E046E0D0E036EE9EC09F0D40E012456
:1001C800D96E000E0220DA6E9CC0DEFF9DC0DDFFF6
:1001D80024C09CF025C09DF02DEF02F09CC001F0DA
:1001E8009DC002F0000E046E0D0E036EE9EC09F0DE
:1001F800C90E0124D96E000E0220DA6EDECF0DF092
:10020800DECF0EF0DECF0FF0DECF10F024C001F00D
:1002180025C002F0000E046E0D0E036EE9EC09F025
:10022800C90E0124D96E000E0220DA6EDECF11F05D
:10023800DECF12F0DECF13F0DECF14F00D50115CDC
:10024800156E0E501258166E0F501358176E105028
:100258001458186E24C001F025C002F0000E046E78
:100268000D0E036EE9EC09F0C90E0124D96E000EDB
:100278000220DA6E15C0DEFF16C0DEFF17C0DEFFF3
:1002880018C0DEFF9CC001F09DC002F0000E046E95
:100298000D0E036EE9EC09F0D40E0124D96E000EA0
:1002A8000220DA6EDECF22F0DDCF23F09CC020F0F2
:1002B8009DC021F0CCEF01F022C001F023C002F074
:1002C800000E046E0D0E036EE9EC09F0C90E012450
:1002D800D96E000E0220DA6EDECF0DF0DECF0EF002
:1002E800DECF0FF0DECF10F024C001F025C002F001
:1002F800000E046E0D0E036EE9EC09F0C90E012420
:10030800D96E000E0220DA6EDECF11F0DECF12F0C9
:10031800DECF13F0DECF14F00D50115C156E0E50C9
:100328001258166E0F501358176E10501458186E36
:1003380024C001F025C002F0000E046E0D0E036EFD
:10034800E9EC09F0C90E0124D96E000E0220DA6E1C
:1003580015C0DEFF16C0DEFF17C0DEFF18C0DEFFC7
:1003680022C020F023C021F022C001F023C002F0F7
:10037800000E046E0D0E036EE9EC09F0D40E012494
:10038800D96E000E0220DA6EDECF22F0DDCF23F028
:10039800690E22182310D8B4D4EF01F0D6EF01F07B
:1003A80005EF02F022C001F023C002F0000E046E37
:1003B8000D0E036EE9EC09F0C90E0124D96E000E8A
:1003C8000220DA6E24C001F025C002F0000E046E8F
:1003D8000D0E036EE9EC09F0C90E0124E16E000E62
:1003E8000220E26EDE50E65CDE50E658DE50E6584B
:1003F800DE50E658D8B003EF02F005EF02F060EFE8
:1004080001F020C001F021C002F0000E046E0D0EB4
:10041800036EE9EC09F0D40E0124D96E000E022017
:10042800DA6E24C0DEFF25C0DDFF24C001F025C040
:1004380002F0000E046E0D0E036EE9EC09F0D40E06
:100448000124D96E000E0220DA6E22C0DEFF23C01E
:10045800DDFF24C001F025C002F0000E046E0D0E71
:10046800036EE9EC09F0D40E0124D96E000E0220C7
:10047800DA6E690EDE18DE10D8B445EF02F047EFE9
:1004880002F0C3EF02F024C001F025C002F0000E14
:10049800046E0D0E036EE9EC09F0D40E0124D96E3A
:1004A800000E0220DA6EDECF1CF0DDCF1DF024C076
:1004B80001F025C002F0000E046E0D0E036EE9EC8B
:1004C80009F0D40E0124D96E000E0220DA6EDECFB8
:1004D8001EF0DDCF1FF024C001F025C002F0000E91
:1004E800046E0D0E036EE9EC09F0C90E0124D96EF5
:1004F800000E0220DA6EDECF0DF0DECF0EF0DECF7A
:100508000FF0DECF10F01CC001F01DC002F0000E8D
:10051800046E0D0E036EE9EC09F0C90E0124D96EC4
:10052800000E0220DA6EDECF11F0DECF12F0DECF41
:1005380013F0DECF14F00D50115C156E0E501258EA
:10054800166E0F501358176E10501458186E1EC0A0
:1005580001F01FC002F0000E046E0D0E036EE9ECF0
:1005680009F0C90E0124D96E000E0220DA6E15C0FA
:10057800DEFF16C0DEFF17C0DEFF18C0DEFF9CC01E
:1005880001F09DC002F0000E046E0D0E036EE9EC42
:1005980009F0C90E0124D96E000E0220DA6EDE5071
:1005A800DE10DE10DE10D8B4DCEF02F0DEEF02F071
:1005B80016EF00F09CC001F09DC002F0000E046E22
:1005C8000D0E036EE9EC09F0C90E0124D96E000E78
:1005D8000220DA6E0A0EDE5E000EDE5ADE5ADE5A9F
:1005E800120017EC0AF00009D8B4FDEF02F0FFEF93
:1005F80002F002EF03F06D0EE6EF04F0000E0001CA
:10060800BB6FBB510D0DD10EF324D96E000EF42033
:10061800DA6EDE50DE10DE10D8A415EF03F017EF07
:1006280003F019EF03F022EF03F0BB2B130EBB65A9
:1006380020EF03F022EF03F005EF03F0140EBB19CF
:10064800D8A429EF03F02BEF03F02DEF03F0FFEF11
:1006580002F0BB510D0DC90EF324D96E000EF42023
:10066800DA6EA8C0DEFFA9C0DEFFAAC0DEFFABC0FD
:10067800DEFFBB510D0DCD0EF324D96E000EF42014
:10068800DA6EA4C0DEFFA5C0DEFFA6C0DEFFA7C0ED
:10069800DEFFBB510D0DD10EF324D96E000EF420F0
:1006A800DA6EACC0DEFFADC0DEFFAEC0DEFF422AB0
:1006B800690E9C199D11D8B464EF03F066EF03F03E
:1006C80098EF03F0690E9C199D11D8B46EEF03F0F2
:1006D80070EF03F0A9EF03F09CC09EF09DC09FF05F
:1006E800000EA16F0D0EA06F4FEC09F0C90E0001AE
:1006F8009E25D96E000E9F21DA6EBB510D0DC90ED5
:10070800F324E16E000EF420E26EDE50E65CDE506B
:10071800E658DE50E658DE50E658D8B096EF03F0BB
:1007280098EF03F0A9EF03F0BB510D0DD40EF3249D
:10073800D96E000EF420DA6E9CC0DEFF9DC0DDFF8E
:10074800BBC09CF09D6B85EF04F09CC09EF09DC0E3
:100758009FF0000EA16F0D0EA06F4FEC09F0C90EAF
:1007680000019E25D96E000E9F21DA6EDECFAFF014
:10077800DECFB0F0DECFB1F0DECFB2F0AF51A85D82
:10078800A86FB051A959A96FB151AA59AA6FB2510E
:10079800AB59AB6F9CC09EF09DC09FF0000EA16F3F
:1007A8000D0EA06F4FEC09F0D40E00019E25D96EF6
:1007B800000E9F21DA6EDECFB9F0DDCFBAF09CC013
:1007C800B7F09DC0B8F027EF04F0B9C09EF0BAC0EA
:1007D8009FF0000EA16F0D0EA06F4FEC09F0C90E2F
:1007E80000019E25D96E000E9F21DA6EDECFAFF094
:1007F800DECFB0F0DECFB1F0DECFB2F0AF51A85D02
:10080800A86FB051A959A96FB151AA59AA6FB2518D
:10081800AB59AB6FB9C0B7F0BAC0B8F0B9C09EF069
:10082800BAC09FF0000EA16F0D0EA06F4FEC09F03B
:10083800D40E00019E25D96E000E9F21DA6EDECF00
:10084800B9F0DDCFBAF0690EB919BA11D8B42FEFE3
:1008580004F031EF04F051EF04F0B9C09EF0BAC0D3
:100868009FF0000EA16F0D0EA06F4FEC09F0C90E9E
:1008780000019E25D96E000E9F21DA6EDE50A85D1C
:10088800DE50A959DE50AA59DE50AB59D8B04FEF07
:1008980004F051EF04F0E9EF03F0BB51AF6FB06B18
:1008A800B7C09EF0B8C09FF0000EA16F0D0EA06FEC
:1008B8004FEC09F0D40E00019E25D96E000E9F2141
:1008C800DA6EAFC0DEFFB0C0DDFFBB510D0DD40E38
:1008D800F324D96E000EF420DA6EB9C0DEFFBAC078
:1008E800DDFFBB510D0DC90EF324D96E000EF420A7
:1008F800DA6EA8C0DEFFA9C0DEFFAAC0DEFFABC06B
:10090800DEFFBB510D0DD40EF324D96E000EF4207A
:10091800DA6E690EDE18DE10D8B495EF04F097EFA2
:1009280004F0E5EF04F0BB510D0DD40EF324D96E9D
:10093800000EF420DA6EDECF9EF0DDCF9FF0000EC1
:10094800A16F0D0EA06F4FEC09F0C90E00019E2596
:10095800D96E000E9F21DA6EDECFAFF0DECFB0F099
:10096800DECFB1F0DECFB2F0A851AF5DB36FA951C1
:10097800B059B46FAA51B159B56FAB51B259B66FEE
:10098800BB510D0DD40EF324D96E000EF420DA6E8F
:10099800DECF9EF0DDCF9FF0000EA16F0D0EA06F91
:1009A8004FEC09F0C90E00019E25D96E000E9F215B
:1009B800DA6EB3C0DEFFB4C0DEFFB5C0DEFFB6C07E
:1009C800DEFFBB511200066E2EEC0AF00009D8A417
:1009D800F0EF04F0F2EF04F004EF05F006500D0D0F
:1009E800D10EF324D96E000EF420DA6EDE50DE103C
:1009F800DE10D8A402EF05F004EF05F007EF05F0CC
:100A0800000EB0EF05F006500D0DC90EF324D96E97
:100A1800000EF420DA6EDE6ADE6ADE6ADD6A0650EF
:100A28000D0DCD0EF324D96E000EF420DA6EDE6AB9
:100A3800DE6ADE6ADD6A06500D0DD10EF324D96E2A
:100A4800000EF420DA6E000EDE6E000EDE6E000E72
:100A5800DE6E42060650016E026A00019C510118C2
:100A680007E19D510218D8A43CEF05F03EEF05F0D0
:100A780058EF05F006500D0DD40EF324D96E000E74
:100A8800F420DA6EDECF9CF0DDCF9DF006500D0D20
:100A9800D40EF324D96E000EF420DA6EFF0EDE6E4B
:100AA800FF0EDD6EAFEF05F09CC005F066EF05F0B8
:100AB80005500D0DD40EF324D96E000EF420DA6E15
:100AC800DF50056E05500D0DD40EF324D96E000EBF
:100AD800F420DA6E690EDE18DE10D8B476EF05F071
:100AE80078EF05F08FEF05F005500D0DD40EF324C7
:100AF800D96E000EF420DA6E0650036E046ADE50DA
:100B0800031807E1DE500418D8A48DEF05F08FEF25
:100B180005F05CEF05F006500D0DD40EF324D96EE8
:100B2800000EF420DA6E05500D0DD40EF324E16E9C
:100B3800000EF420E26EDECFE6FFDDCFE5FF0650C3
:100B48000D0DD40EF324D96E000EF420DA6EFF0ECC
:100B5800DE6EFF0EDD6E010E12000AEC0AF0E80EE2
:100B68000001BC6F030EBD6F000EBE6F000EBF6F9D
:100B7800000EC06F000EC16F000EC26F000EC36F73
:100B8800860EC46F130EC56F000EC66F000EC76FBA
:100B9800000EC86F20EC09F0E80E0001BC6F030ED0
:100BA800BD6F000EBE6F000EBF6FC80EC06F000E87
:100BB800C16F000EC26F000EC36F600EC46F130EBC
:100BC800C56F000EC66F000EC76F000EC86F20EC11
:100BD80009F0B80E0001BC6F0B0EBD6F000EBE6FA2
:100BE800000EBF6F900EC06F010EC16F000EC26F76
:100BF800000EC36F3A0EC46F130EC56F000EC66F9A
:100C0800000EC76F000EC86F20EC09F0280E000117
:100C1800BC6F230EBD6F000EBE6F000EBF6F900E2F
:100C2800C06F010EC16F000EC26F000EC36F140EAD
:100C3800C46F130EC56F000EC66F000EC76F000E8F
:100C4800C86F20EC09F0980E0001BC6F3A0EBD6F1A
:100C5800000EBE6F000EBF6FC80EC06F000EC16FD2
:100C6800000EC26F000EC36FEE0EC46F120EC56F7A
:100C7800000EC66F000EC76F000EC86F20EC09F09B
:100C8800640E0001BC6F000EBD6F000EBE6F000E3B
:100C9800BF6F100EC06F270EC16F000EC26F000E1F
:100CA800C36FAC0EC46F130EC56F000EC66F000E77
:100CB800C76F000EC86F20EC09F03FEC0AF061EF37
:100CC80006F007EF00F0000E0001A56F000EA46FFC
:100CD800A4C09EF0A5C09FF0000EA16F0D0EA06FDE
:100CE8004FEC09F0C90E00019E25D96E000E9F2118
:100CF800DA6EDE6ADE6ADE6ADD6AA4C09EF0A5C02E
:100D08009FF0000EA16F0D0EA06F4FEC09F0CD0EF5
:100D180000019E25D96E000E9F21DA6EDE6ADE6A1A
:100D2800DE6ADD6AA4C09EF0A5C09FF0000EA16F28
:100D38000D0EA06F4FEC09F0D10E00019E25D96E63
:100D4800000E9F21DA6E000EDE6E000EDE6E000EC3
:100D5800DE6EA4C09EF0A5C09FF0000EA16F0D0E20
:100D6800A06F4FEC09F0D40E00019E25D96E000E3D
:100D78009F21DA6E690EDE6E000EDD6EA44BA52B88
:100D8800A5BFD0EF06F0A55109E1140EA45DD8A0C7
:100D9800D0EF06F0D2EF06F06CEF06F0000E426ED0
:100DA800000E9D6F690E9C6F1200000E0001A36F6C
:100DB8009FBFE3EF06F0E1EF06F0E9EF06F09E6D66
:100DC8009F1FD8B09F2B010EA36FA1BFF0EF06F0B5
:100DD800EEEF06F0F4EF06F0A06DA11FD8B0A12B3E
:100DE800A051A111D8B4FBEF06F0FDEF06F021EFFA
:100DF80007F0010EA26F05EF07F0D890A037A137D2
:100E0800A22BA1AF0AEF07F00CEF07F001EF07F0F4
:100E1800A0519E5DA1519F59D8A015EF07F017EF7B
:100E280007F01BEF07F0A0519E5FA1519F5BD89080
:100E3800A133A033A22F0CEF07F0A351D8B427EFAA
:100E480007F029EF07F02DEF07F09E6D9F1FD8B030
:100E58009F2B9EC09EF09FC09FF01200000E066E52
:100E680002BE3BEF07F039EF07F041EF07F0016CE6
:100E7800021ED8B0022A010E066E04BE48EF07F023
:100E880046EF07F04CEF07F0036C041ED8B0042AB5
:100E980003500410D8B453EF07F055EF07F079EF7B
:100EA80007F0010E056E5DEF07F0D89003360436A3
:100EB800052A04AE62EF07F064EF07F059EF07F078
:100EC8000350015C04500258D8A06DEF07F06FEF93
:100ED80007F073EF07F00350015E0450025AD890F0
:100EE80004320332052E64EF07F00650D8B47FEFC2
:100EF80007F081EF07F085EF07F0016C021ED8B00C
:100F0800022A01C001F002C002F012000600E1CF7F
:100F180026F0E2CF27F0D9CF28F0DACF29F0F3CFA7
:100F28002AF0F4CF2BF0F2AA9CEF07F09EEF07F01F
:100F3800AEEF07F0F2A4A3EF07F0A5EF07F0AEEFCE
:100F480007F0F294830ED66E010E3C26000E3D2269
:100F58003E223F229DA0B3EF07F0B5EF07F0D3EF95
:100F680007F09EA0BAEF07F0BCEF07F0D3EF07F049
:100F78009E90B10ECF6EE00ECE6E09EC00F0404AA6
:100F8800412A640E40184110D8A4CDEF07F0CFEFE6
:100F980007F0D3EF07F0000E416E000E406E2BC035
:100FA800F4FF2AC0F3FF29C0DAFF28C0D9FF27C001
:100FB800E2FF26C0E1FF489211000001A86F040E6D
:100FC8000001A865EAEF07F0ECEF07F00AEF08F078
:100FD8002BEF08F0F28AF294C30ED56E830ED66E0C
:100FE800000E3C6E000E3D6E000E3E6E000E3F6E13
:100FF8002BEF08F067EC06F09D809E90810ECD6E79
:10100800B10ECF6EE00ECE6E2BEF08F0A851A66F92
:10101800A76BA751000AD8B414EF08F02BEF08F01B
:10102800A651000AD8B4EEEF07F0010AD8B4FEEFD3
:1010380007F0030AD8B42BEF08F0010AD8B42BEF55
:1010480008F0070AD8B42BEF08F02BEF08F01200CD
:1010580006EC09F00009D8B434EF08F036EF08F0D0
:101068003FEF08F0000E0001A66F000EA76F000EFC
:10107800A86F6CEF08F046C0A9F047C0AAF0010EAF
:10108800462400019E6F000E47209F6F000EA16F3F
:10109800140EA06FD9EC06F09EC046F09FC047F032
:1010A800A9C09EF0AAC09FF0000E0001A16F030E18
:1010B800A06F4FEC09F0600E00019E25D96E000E5E
:1010C8009F21DA6EDECFA6F0DECFA7F0DDCFA8F045
:1010D8001200FCEC09F00009D8B475EF08F077EFBE
:1010E80008F079EF08F0ADEF08F0462806E1472848
:1010F800D8A481EF08F083EF08F087EF08F0000E1E
:10110800476E000E466E010E4424016E000E452007
:10111800026E000E046E140E036E32EC07F001C06E
:1011280044F002C045F044C001F045C002F0000E92
:10113800046E030E036EE9EC09F0600E0124D96E0B
:10114800000E0220DA6E0AC0DEFF0BC0DEFF0CC004
:10115800DEFF1200D0EF08F02CEC08F0A6C0ABF0D0
:10116800A7C0ACF0A8C0ADF00001AB51AC11AD11F7
:10117800D8B4C1EF08F0C3EF08F0D0EF08F002D8F8
:10118800D0EF08F00500FA6EAB51FD6EAC51FE6E63
:10119800AD51FF6EFA50120006EC09F00009D8B400
:1011A800D8EF08F0DAEF08F0B0EF08F01200840E7C
:1011B800F66E140EF76E000EF86E00EE44F010EEA8
:1011C80004F00900F5CFEEFFE550E150FAE100EE3A
:1011D800C9F011EE04F0EE6AE550E150FCE1E2508E
:1011E800FAE100EE60F03E0EEE6AE806FDE100EE80
:1011F8002CF0180EEE6AE806FDE1489048920001CE
:10120800B1EF05F0462806E14728D8A40EEF09F00B
:1012180010EF09F013EF09F0000E1FEF09F039EC99
:1012280009F00009D8B41BEF09F01EEF09F0010E10
:101238001FEF09F0000E1200BCC0A4F0BDC0A5F05D
:10124800BEC0A6F0BFC0A7F0C0C0A8F0C1C0A9F03A
:10125800C2C0AAF0C3C0ABF0C4C0ACF0C5C0ADF00A
:10126800C6C0AEF0F5EC02F012004650445C000136
:10127800A46F47504558A56F150EA4259E6F000E04
:10128800A5219F6F000EA16F140EA06FD9EC06F078
:1012980000019E51120000019E51A003F3CFA2F05D
:1012A800F4CFA3F09E51A103F350A3279F51A003AD
:1012B800F350A327A2C09EF0A3C09FF0120046508F
:1012C800445C076E47504558086E150E0724016E9A
:1012D800000E0820026E000E046E140E036E32EC2F
:1012E80007F00150120034503510D8B47EEF09F0E1
:1012F80081EF09F0010E82EF09F0000E346E356AB5
:1013080034B002D08C9801D08C881200325033103F
:10131800D8B491EF09F094EF09F0010E95EF09F0B8
:10132800000E326E336A32B002D08C9601D08C86B1
:10133800120030503110D8B4A4EF09F0A7EF09F02B
:10134800010EA8EF09F0000E306E316A30B002D0FD
:101358008C9401D08C8412002E502F10D8B4B7EF83
:1013680009F0BAEF09F0010EBBEF09F0000E2E6E7E
:101378002F6A2EB002D08C9201D08C8212002C5091
:101388002D10D8B4CAEF09F0CDEF09F0010ECEEF59
:1013980009F0000E2C6E2D6A2CB002D08C9001D072
:1013A8008C80120036503710D8B4DDEF09F0E0EF2A
:1013B80009F0010EE1EF09F0000E366E376A36B01B
:1013C80002D08C9A01D08C8A120001500302F3CF0C
:1013D80005F0F4CF06F001500402F350062602503F
:1013E8000302F350062605C001F006C002F0120001
:1013F80063EC09F0096E140E096005EF0AF008EFB6
:101408000AF0010E09EF0AF0000E120039EC0AF09A
:1014180023EC0AF03CEC0AF0000EE1EC07F0010EB8
:10142800E1EC07F01200140E4218D8B41EEF0AF0CF
:1014380021EF0AF0010E22EF0AF0000E1200000E52
:101448008B6ED70E946E0F0EC16E000E8C6E000E52
:10145800956E12004250D8B434EF0AF037EF0AF014
:10146800010E38EF0AF0000E1200700ED36E120053
:10147800F28EF28C1200AEEC08F01200FFFFFFFFB4
:020000040020DA
:08000000FFFFFFFFFFFFFFFF00
:020000040030CA
:0E000000FF09191EF38381FFFFC0FFE0FF40E0
:00000001FF
