:020000040000FA
:0400000007EF00F016
:0A0008004D820BED1AF073EF1BF0B0
:101000000054696D6500483A00543A006D73000061
:1010100000018A51800B936F8A518A25956F89AFA1
:1010200014EF08F016EF08F017EF08F095819551CE
:10103000D8B41DEF08F01FEF08F034EF08F0952941
:10104000D8A425EF08F027EF08F02FEF08F0000EE6
:10105000876F000E886F000E896F000E8A6F898F70
:10106000000E8A6F3CEF08F0000E876F000E886F4D
:10107000000E896F000E8A6F8E51800B946F935112
:101080009419D8B446EF08F048EF08F049EF08F09B
:10109000938D8E518E25946F8DAF51EF08F053EFE5
:1010A00008F054EF08F094819451D8B45AEF08F046
:1010B0005CEF08F071EF08F09429D8A462EF08F013
:1010C00064EF08F06CEF08F0000E8B6F000E8C6F71
:1010D000000E8D6F000E8E6F8D8F000E8E6F79EF6C
:1010E00008F0000E8B6F000E8C6F000E8D6F000EDF
:1010F0008E6F9551945DD8B080EF08F082EF08F0C4
:10110000A9EF08F093AD87EF08F089EF08F08BEFB7
:1011100008F0800E931B95C096F094C095F096C091
:1011200094F087C096F08BC087F096C08BF088C093
:1011300096F08CC088F096C08CF089C096F08DC077
:1011400089F096C08DF08AC096F08EC08AF096C065
:101150008EF0000E966F955194C08FF0906B8F5F5C
:10116000000E905B90BFBEEF08F0905109E11A0E9F
:101170008F5DD8A0BEEF08F0C0EF08F0F7EF08F0E1
:101180008751881189118A11D8A4C9EF08F0CCEFD2
:1011900008F0010ECDEF08F0000E966F000E876F7D
:1011A000000E886F000E896F000E8A6F94C095F054
:1011B00000EF09F096A1DFEF08F0E1EF08F0E7EFAC
:1011C00008F0D89096310109966FE9EF08F0D890B1
:1011D000963387A1EEEF08F0F0EF08F0F1EF08F09A
:1011E000968F8A358A33893388338733952B945188
:1011F000955DD8A0FEEF08F000EF09F0DAEF08F0F7
:1012000093BD05EF09F007EF09F047EF09F095519D
:10121000D8A40DEF09F00FEF09F019EF09F0000E57
:10122000876F000E886F000E896F000E8A6F68EF5F
:101230000AF08B5187278C5188238D5189238E5139
:101240008A238AA126EF09F028EF09F0D4EF09F0EC
:1012500096A12DEF09F02FEF09F035EF09F0D890A6
:1012600096310109966F37EF09F0D890963387A130
:101270003CEF09F03EEF09F03FEF09F0968F8A3519
:101280008A33893388338733952BD4EF09F08B5118
:10129000875D8C5188598D5189598A51800A8F6F89
:1012A0008E51800A8F59D8B058EF09F05AEF09F0E3
:1012B00085EF09F087518B5D8F6F88518C59906F46
:1012C00089518D59916F8A518E59926FFF0E8F25DA
:1012D000876FFF0E9021886FFF0E9121896FFF0E9F
:1012E00092218A6F800E931B966D9651D8A47BEF46
:1012F00009F07DEF09F08DEF09F0010E8727000E50
:10130000882389238A238DEF09F08B51875F8C51C5
:10131000885B8D51895B8E518A5B87518811891159
:101320008A11D8A496EF09F098EF09F0CDEF09F0F3
:101330009651D8A49EEF09F0A0EF09F0CDEF09F087
:10134000000E876F000E886F000E896F000E8A6F87
:1013500068EF0AF0D8908737883789378A3796AF91
:10136000B4EF09F0B6EF09F0B7EF09F0878196A165
:10137000BCEF09F0BEEF09F0C2EF09F0D880963754
:10138000C4EF09F0D89096379551D8B4CAEF09F058
:10139000CCEF09F0CDEF09F0950789AFD2EF09F056
:1013A000D4EF09F0AAEF09F0000E946F96AFDBEFCF
:1013B00009F0DDEF09F0F5EF09F096C08FF07F0E30
:1013C0008F17D8B4E6EF09F0E8EF09F0ECEF09F079
:1013D000010E946FF5EF09F087A1F1EF09F0F3EF3B
:1013E00009F0F5EF09F0E8EF09F09451D8B4FBEFFC
:1013F00009F0FDEF09F028EF0AF0010E8727000E33
:10140000882389238A238AA108EF0AF00AEF0AF0C9
:1014100028EF0AF087C08FF088C090F089C091F063
:101420008AC092F092359233913390338F338FC0CC
:1014300087F090C088F091C089F092C08AF0952919
:10144000D8B425EF0AF027EF0AF028EF0AF0952B21
:101450009529D8B42EEF0AF030EF0AF038EF0AF0F1
:101460009551D8A436EF0AF038EF0AF04AEF0AF0A7
:10147000000E876F000E886F000E896F000E8A6F56
:101480009551D8A446EF0AF048EF0AF04AEF0AF067
:10149000000E936F95A14FEF0AF051EF0AF054EF51
:1014A0000AF0898F55EF0AF0899FD89095318A6F9D
:1014B00093AF5DEF0AF05FEF0AF060EF0AF08A8FFA
:1014C00087C087F088C088F089C089F08AC08AF018
:1014D0001200690E0001C319D8A471EF0AF073EF6E
:1014E0000AF09FEF0CF0C1EF0CF0C3C02CF02D6A96
:1014F0002CC001F02DC002F0000E046E0F0E036E22
:1015000052EC1DF06C0E0124D96E010E0220DA6E31
:10151000DECF1FF0DECF20F0DDCF21F02CC001F0B8
:101520002DC002F0000E046E0F0E036E52EC1DF083
:10153000710E0124D96E010E0220DA6EDECF22F088
:10154000DDCF23F01FC00AF020C00BF021C00CF04B
:1015500022C00DF023C00EF071EC18F02CC001F089
:101560002DC002F0000E046E0F0E036E52EC1DF043
:101570006F0E0124D96E010E0220DA6EDF500001D9
:10158000C36F2CC001F02DC002F0000E046E0F0ED0
:10159000036E52EC1DF0680E0124D96E010E02207C
:1015A000DA6EDE50DE10DE10DE10D8A4DAEF0AF0BC
:1015B000DCEF0AF0E1EF0AF02C50C3EC12F09FEFE1
:1015C0000CF02CC001F02DC002F0000E046E0F0EC6
:1015D000036E52EC1DF0680E0124D96E010E02203C
:1015E000DA6E2CC001F02DC002F0000E046E0F0E5A
:1015F000036E52EC1DF0640E0124E16E010E022018
:10160000E26EDECFE6FFDECFE6FFDECFE6FFDECF27
:10161000E6FF0001C3510F0D640EF324D96E010ED5
:10162000F420DA6EDECF28F0DDCF29F0690EC31981
:10163000D8B41DEF0BF01FEF0BF050EF0BF0690E5D
:10164000C319D8B426EF0BF028EF0BF06CEF0BF0BA
:1016500028C00FF029C010F0000E10BEFF0E116E52
:10166000126E2CC001F02DC002F0000E046E0F0EA1
:10167000036E52EC1DF0640E0124D96E010E02209F
:10168000DA6E0F50DE5C1050DE581150DE581250EA
:10169000DE58D8B04EEF0BF050EF0BF06CEF0BF0C4
:1016A0000001C3510F6E106A2CC001F02DC002F072
:1016B000000E046E0F0E036E52EC1DF06F0E01242F
:1016C000D96E010E0220DA6E0FC0DEFF10C0DDFF02
:1016D0002CC0C3F041EF0CF00001C3510F0D6F0E91
:1016E000F324D96E010EF420DA6EDECF2AF0DDCFBE
:1016F0002BF0C3C026F0276AAAEF0BF02AC001F036
:101700002BC002F0000E046E0F0E036E52EC1DF0A3
:10171000640E0124D96E010E0220DA6EDE502826F6
:10172000DD5029222AC026F02BC027F02AC001F064
:101730002BC002F0000E046E0F0E036E52EC1DF073
:101740006F0E0124D96E010E0220DA6EDECF2AF070
:10175000DDCF2BF0690E2A182B10D8B4B2EF0BF0A6
:10176000B4EF0BF000EF0CF02AC001F02BC002F038
:10177000000E046E0F0E036E52EC1DF0640E012479
:10178000D96E010E0220DA6EDECF0FF0DECF10F040
:10179000DECF11F0DECF12F028C013F029C014F014
:1017A000000E14BEFF0E156E166E0F501324176E2A
:1017B00010501420186E11501520196E125016205A
:1017C0001A6E2CC001F02DC002F0000E046E0F0E38
:1017D000036E52EC1DF0640E0124D96E010E02203E
:1017E000DA6E1750DE5C1850DE581950DE581A5069
:1017F000DE58D8B0FEEF0BF000EF0CF07EEF0BF0F0
:1018000026C001F027C002F0000E046E0F0E036E1A
:1018100052EC1DF06F0E0124D96E010E0220DA6E1B
:101820002CC0DEFF2DC0DDFF2CC001F02DC002F06A
:10183000000E046E0F0E036E52EC1DF06F0E0124AD
:10184000D96E010E0220DA6E2AC0DEFF2BC0DDFF4A
:101850002CC001F02DC002F0000E046E0F0E036EBE
:1018600052EC1DF0640E0124D96E010E0220DA6ED6
:101870002850DE5E2950DE5A000E29BEFF0EDE5AC9
:10188000DE5A2CC001F02DC002F0000E046E0F0EC7
:10189000036E52EC1DF06F0E0124D96E010E022072
:1018A000DA6E690EDE18DE10D8B459EF0CF05BEF7B
:1018B0000CF09FEF0CF02CC001F02DC002F0000ED8
:1018C000046E0F0E036E52EC1DF06F0E0124D96EE4
:1018D000010E0220DA6EDECF24F0DDCF25F02CC021
:1018E00001F02DC002F0000E046E0F0E036E52ECDC
:1018F0001DF0640E0124D96E010E0220DA6EDECFD7
:101900000FF0DECF10F0DECF11F0DECF12F024C0EA
:1019100001F025C002F0000E046E0F0E036E52ECB3
:101920001DF0640E0124D96E010E0220DA6E0F50F4
:10193000DE5E1050DE5A1150DE5A1250DE5A00019F
:10194000C3510F0D640EF324D96E010EF420DA6E2C
:10195000DE50DE10DE10DE10D8B4B1EF0CF0B3EFC5
:101960000CF075EF0AF0C3510F0D640EF324D96E1D
:10197000010EF420DA6E0A0EDE5E000EDE5ADE5A2A
:10198000DE5A120000017151800B7A6F715171257E
:10199000806F70AFCEEF0CF0D0EF0CF0D1EF0CF009
:1019A00080818051D8B4D7EF0CF0D9EF0CF0ECEF78
:1019B0000CF08029D8A4DFEF0CF0E1EF0CF0E9EF98
:1019C0000CF0000E6E6F000E6F6F000E706F000E49
:1019D000716F708FF4EF0CF0000E6E6F000E6F6F72
:1019E000000E706F000E716F7551800B7A1B755170
:1019F00075257F6F74AFFFEF0CF001EF0DF002EF74
:101A00000DF07F817F51D8B408EF0DF00AEF0DF093
:101A10001DEF0DF07F29D8A410EF0DF012EF0DF09F
:101A20001AEF0DF0000E726F000E736F000E746FE0
:101A3000000E756F748F25EF0DF0000E726F000EA3
:101A4000736F000E746F000E756F7F51D8B42BEF5B
:101A50000DF02DEF0DF035EF0DF08051D8A433EFE0
:101A60000DF035EF0DF03FEF0DF0000E6E6F000E34
:101A70006F6F000E706F000E716FD7EF0EF0745124
:101A80006E03F3CF85F0F4CF86F085517B6F7C6BCE
:101A90007D6B7E6B8651816F826B836B846B735120
:101AA0006F03F3CF85F0F4CF86F085517B27000ECE
:101AB0007C237D237E2386518127000E822383236E
:101AC000842372517003F3CF85F0F4CF86F08551F3
:101AD0007B27000E7C237D237E2386518127000EE9
:101AE0008223832384237DC07EF07CC07DF07BC075
:101AF0007CF07B6B72516F03F3CF85F0F4CF86F0EF
:101B000085517B2786517C23000E7D23000E7E238A
:101B100073516E03F3CF85F0F4CF86F085517B27A8
:101B200086517C23000E7D23000E7E237DC07EF037
:101B30007CC07DF07BC07CF07B6B72516E03F3CF79
:101B400085F0F4CF86F085517B2786517C23000EEB
:101B50007D23000E7E2374516F03F3CF85F0F4CF05
:101B600086F08551812786518223000E8323000E43
:101B7000842373517003F3CF85F0F4CF86F0855141
:101B8000812786518223000E8323000E8423745103
:101B90007003F3CF85F0F4CF86F08551766F8651D0
:101BA000776F786B796B78C079F077C078F076C012
:101BB00077F0766B76518127775182237851832392
:101BC000795184237BC076F07CC077F07DC078F0BB
:101BD0007EC079F0190EF2EF0DF0D890793378339A
:101BE00077337633E82EEDEF0DF07651812777517C
:101BF000822378518323795184237DC07EF07CC079
:101C00007DF07BC07CF07B6B7F5180C076F0776B82
:101C10007627000E7723820E7625856FFF0E7721BB
:101C2000866F28EF0EF0D89081378237833784375C
:101C30007EAF1DEF0EF01FEF0EF020EF0EF0818152
:101C4000D8907B377C377D377E378507D8A08607CD
:101C500083AF2DEF0EF02FEF0EF013EF0EF0000E0E
:101C60007F6F7EAF36EF0EF038EF0EF05CEF0EF0C8
:101C7000FF0E7B15766FFF0E7C15776FFF0E7D15BF
:101C8000786F7F0E7E15796F765177117811791103
:101C9000D8B44DEF0EF04FEF0EF053EF0EF0010EF3
:101CA0007F6F5CEF0EF081A158EF0EF05AEF0EF04F
:101CB0005CEF0EF04FEF0EF07F51D8B462EF0EF0F4
:101CC00064EF0EF088EF0EF0010E8127000E8223E4
:101CD0008323842384A16FEF0EF071EF0EF088EF61
:101CE0000EF081C076F082C077F083C078F084C0B7
:101CF00079F07935793378337733763376C081F07C
:101D000077C082F078C083F079C084F0854B862B51
:101D100086BF93EF0EF0865108E18529D8A093EF96
:101D20000EF095EF0EF09FEF0EF0000E816F000E9B
:101D3000826F800E836F7F0E846FCDEF0EF086BFB3
:101D4000ACEF0EF0865106E18505D8B0AAEF0EF093
:101D5000ACEF0EF0B8EF0EF0000E816F000E826F48
:101D6000000E836F000E846F000E7A6FCDEF0EF0C1
:101D700085C080F0FF0E8117FF0E82177F0E83173C
:101D8000000E841780A1C7EF0EF0C9EF0EF0CAEF66
:101D90000EF0838FD8908031846F7A51841381C084
:101DA0006EF082C06FF083C070F084C071F01200DA
:101DB000B3EC1DF00009D8B4E0EF0EF0E2EF0EF046
:101DC000E5EF0EF06D0EA7EF10F0000E0001856F2D
:101DD00085510F0D6C0EF324D96E010EF420DA6ECE
:101DE000DE50DE10DE10D8A4F8EF0EF0FAEF0EF0A1
:101DF000FCEF0EF005EF0FF0852B130E856503EF5A
:101E00000FF005EF0FF0E8EF0EF0140E8519D8A4CF
:101E10000CEF0FF00EEF0FF010EF0FF0E2EF0EF0FF
:101E200085510F0D640EF324D96E010EF420DA6E85
:101E30006AC0DEFF6BC0DEFF6CC0DEFF6DC0DEFF80
:101E400085510F0D680EF324D96E010EF420DA6E61
:101E500066C0DEFF67C0DEFF68C0DEFF69C0DEFF70
:101E600085510F0D6C0EF324D96E010EF420DA6E3D
:101E70006EC0DEFF6FC0DEFF70C0DEFF85510F0D4C
:101E8000710EF324D96E010EF420DA6E71C0DEFFFC
:101E900072C0DDFFC42BC3510F0D640EF324D96E45
:101EA000010EF420DA6EDECF81F0DDCF82F0690E14
:101EB000C319D8B45EEF0FF060EF0FF081EF0FF0B1
:101EC000690EC319D8B467EF0FF069EF0FF094EF04
:101ED0000FF081C073F082C074F0000E74BFFF0E6B
:101EE000756F766F73516A5D74516B5975516C598A
:101EF00076516D59D8B07FEF0FF081EF0FF094EF6E
:101F00000FF0C351736F746B85510F0D6F0EF32477
:101F1000D96E010EF420DA6E73C0DEFF74C0DDFFEF
:101F200085C0C3F063EF10F0C3510F0D6F0EF324A3
:101F3000D96E010EF420DA6EDECF83F0DDCF84F0AF
:101F4000C3C07FF0806BD3EF0FF083C060F084C01C
:101F500061F0000E636F0F0E626F3EEC1DF0640EB9
:101F600000016025D96E010E6121DA6EDE508127F5
:101F7000DD50822383C07FF084C080F083C060F096
:101F800084C061F0000E636F0F0E626F3EEC1DF0B7
:101F90006F0E00016025D96E010E6121DA6EDECF71
:101FA00083F0DDCF84F0690E83198411D8B4DBEFA0
:101FB0000FF0DDEF0FF01AEF10F083C060F084C077
:101FC00061F0000E636F0F0E626F3EEC1DF0640E49
:101FD00000016025D96E010E6121DA6EDECF73F04B
:101FE000DECF74F0DECF75F0DECF76F081C077F013
:101FF00082C078F0000E78BFFF0E796F7A6F735150
:1020000077257B6F745178217C6F755179217D6FB5
:1020100076517A217E6F7B516A5D7C516B597D517F
:102020006C597E516D59D8B018EF10F01AEF10F0BE
:10203000A5EF0FF08551736F746B7FC060F080C0A7
:1020400061F0000E636F0F0E626F3EEC1DF06F0EBD
:1020500000016025D96E010E6121DA6E73C0DEFFCA
:1020600074C0DDFF85510F0D6F0EF324D96E010E84
:10207000F420DA6E83C0DEFF84C0DDFF81C073F020
:1020800082C074F0000E74BFFF0E756F766F7351CF
:102090006A5D776F74516B59786F75516C59796FB0
:1020A00076516D597A6F85510F0D640EF324D96EF8
:1020B000010EF420DA6E77C0DEFF78C0DEFF79C053
:1020C000DEFF7AC0DEFF85510F0D6F0EF324D96E4F
:1020D000010EF420DA6E690EDE18DE10D8B473EF4C
:1020E00010F075EF10F0A6EF10F085510F0D640E93
:1020F000F324D96E010EF420DA6EDECF73F0DECF5A
:1021000074F0DECF75F0DECF76F085510F0D6F0ED7
:10211000F324D96E010EF420DA6EDECF60F0DDCF4D
:1021200061F0000E636F0F0E626F3EEC1DF0640EE7
:1021300000016025D96E010E6121DA6E7351DE5EF9
:102140007451DE5A7551DE5A7651DE5A85511200AD
:10215000000E00016B6F090E6C6F100E6D6F010E9B
:102160001AEC1CF0080E00016B6F060E6C6F100E5F
:102170006D6F010E1AEC1CF0CBC060F0CCC061F0AA
:10218000CDC062F0CEC063F0000E0001646F000E9F
:10219000656F510E666F430E676F1BEC18F0000100
:1021A000D8B0D5EF10F0D7EF10F0F3EF10F0CBC0B0
:1021B0006EF0CCC06FF0CDC070F0CEC071F0000EEC
:1021C000726F000E736FDC0E746F420E756FC2EC8F
:1021D0000CF06EC087F06FC088F070C089F071C0DD
:1021E0008AF0FBEF10F0000E876F000E886F000E74
:1021F000896F000E8A6F87C060F088C061F089C067
:1022000062F08AC063F047EC15F060C08FF061C0E7
:1022100090F0C7C060F0C8C061F0C9C062F0CAC029
:1022200063F0000E0001646F000E656F510E666F63
:10223000430E676F1BEC18F00001D8B022EF11F0CD
:1022400024EF11F040EF11F0C7C06EF0C8C06FF07E
:10225000C9C070F0CAC071F0000E726F000E736FCB
:10226000200E746F410E756FC2EC0CF06EC08BF0D7
:102270006FC08CF070C08DF071C08EF048EF11F01F
:10228000000E8B6F000E8C6F000E8D6F000E8E6F28
:102290008BC060F08CC061F08DC062F08EC063F0C6
:1022A00047EC15F060C091F061C092F0020E0001A1
:1022B0006B6F8FC060F090C061F0000E636F640EB2
:1022C000626FA9EC16F0000160516C6F010E9DEC7D
:1022D0001CF08FC060F090C061F0000E0001636FD1
:1022E0000A0E626FA9EC16F060C08FF061C090F02A
:1022F000030E00016B6F8FC060F090C061F0000EA4
:10230000636F0A0E626FA9EC16F0000160516C6FEA
:10231000010E9DEC1CF0040E00016B6F8FC060F08D
:1023200090C061F0000E636F0A0E626F6AEC17F0E6
:10233000000160516C6F010E9DEC1CF0020E00015B
:102340006B6F91C060F092C061F0000E636F640E1D
:10235000626FA9EC16F0000160516C6F010E9DECEC
:102360001CF091C060F092C061F0000E0001636F3C
:102370000A0E626FA9EC16F060C091F061C092F095
:10238000030E00016B6F91C060F092C061F0000E0F
:10239000636F0A0E626FA9EC16F0000160516C6F5A
:1023A000010E9DEC1CF0040E00016B6F91C060F0FB
:1023B00092C061F0000E636F0A0E626F6AEC17F054
:1023C000000160516C6F010E9DEC1CF012000001C9
:1023D000686F00016851D8B4F0EF11F0F2EF11F01E
:1023E00014EF12F063BFF9EF11F0F7EF11F014EFF3
:1023F00012F060C064F061C065F062C066F063C056
:1024000067F0641F651F661F671F642B000E65233E
:102410006623672364C06AF065C06BF066C06CF029
:1024200067C06DF01CEF12F060C06AF061C06BF025
:1024300062C06CF063C06DF0605161116211631194
:10244000D8A425EF12F027EF12F031EF12F0000EB2
:10245000606F000E616F000E626F000E636FC2EF5F
:1024600012F0960E696F3BEF12F0692BD8906D3326
:102470006C336B336A33000E6A15646F000E6B1594
:10248000656F000E6C15666FFE0E6D15676F6451FB
:10249000651166116711D8A450EF12F052EF12F0D7
:1024A00035EF12F060EF12F0692B010E6A27000E73
:1024B0006B236C236D23D8906D336C336B336A338D
:1024C000000E6A15646F000E6B15656F000E6C15BB
:1024D000666FFF0E6D15676F6451651166116711A8
:1024E000D8A475EF12F077EF12F054EF12F07FEFEF
:1024F00012F06907D8906A376B376C376D376CBF4D
:1025000084EF12F086EF12F08EEF12F0020E696186
:102510008CEF12F08EEF12F079EF12F069B193EFB9
:1025200012F095EF12F096EF12F06C9FD89069338D
:1025300069C064F0656B666B676B64C067F0666B5F
:10254000656B646B64516A1365516B1366516C1350
:1025500067516D136851D8B4B0EF12F0B2EF12F0BA
:10256000BAEF12F063BFB9EF12F0B7EF12F0BAEFA3
:1025700012F06D8F6AC060F06BC061F06CC062F0E9
:102580006DC063F01200066EC0EC1DF00009D8A407
:10259000CCEF12F0CEEF12F0E0EF12F006500F0D7C
:1025A0006C0EF324D96E010EF420DA6EDE50DE10CC
:1025B000DE10D8A4DEEF12F0E0EF12F0E3EF12F03D
:1025C000000E90EF13F006500F0D640EF324D96E39
:1025D000010EF420DA6EDE6ADE6ADE6ADD6A06501B
:1025E0000F0D680EF324D96E010EF420DA6EDE6A48
:1025F000DE6ADE6ADD6A06500F0D6C0EF324D96EBA
:10260000010EF420DA6E000EDE6E000EDE6E000E9D
:10261000DE6E06500F0D710EF324D96E010EF420FC
:10262000DA6E000EDE6E000EDD6E0001C407C351CF
:102630000618D8A41EEF13F020EF13F038EF13F0B4
:1026400006500F0D6F0EF324D96E010EF420DA6ED2
:10265000DF50C36F06500F0D6F0EF324D96E010EBD
:10266000F420DA6E690EDE6E000EDD6E8FEF13F071
:10267000C3C005F046EF13F005500F0D6F0EF324A5
:10268000D96E010EF420DA6EDF50056E05500F0D85
:102690006F0EF324D96E010EF420DA6E690EDE1887
:1026A000DE10D8B456EF13F058EF13F06FEF13F0BD
:1026B00005500F0D6F0EF324D96E010EF420DA6E63
:1026C0000650036E046ADE50031807E1DE5004185A
:1026D000D8A46DEF13F06FEF13F03CEF13F006503A
:1026E0000F0D6F0EF324D96E010EF420DA6E055033
:1026F0000F0D6F0EF324E16E010EF420E26EDECFBB
:10270000E6FFDDCFE5FF06500F0D6F0EF324D96E07
:10271000010EF420DA6E690EDE6E000EDD6E010E23
:1027200012003FEC16F00009D8A499EF13F09BEFCC
:1027300013F0AEEF13F0000E0001CB6F000ECC6F64
:10274000510ECD6F430ECE6F000EC76F000EC86FD7
:10275000510EC96F430ECA6F2BEF14F00001BF5129
:10276000606F616B626B636B000EE7EC11F060C031
:10277000CBF061C0CCF062C0CDF063C0CEF0000100
:10278000BFAFC5EF13F0C7EF13F0E1EF13F0000E8A
:10279000976F000E986F800E996FBF0E9A6FCBC027
:1027A0009BF0CCC09CF0CDC09DF0CEC09EF0F6EC6E
:1027B0001BF097C0CBF098C0CCF099C0CDF09AC078
:1027C000CEF0CBC087F0CCC088F0CDC089F0CEC0B1
:1027D0008AF0CD0E0001726FCC0E736FCC0E746F49
:1027E0003D0E756FC0C09FF00F0E9F179F51606F19
:1027F000616B626B636B010EE7EC11F060C06EF011
:1028000061C06FF062C070F063C071F0C2EC0CF098
:102810006EC08BF06FC08CF070C08DF071C08EF008
:1028200008EC08F087C0CBF088C0CCF089C0CDF0B0
:102830008AC0CEF00001BD51606F616B626B636B4B
:10284000000EE7EC11F060C0C7F061C0C8F062C0D4
:10285000C9F063C0CAF0120087EC1DF0320E00010F
:10286000866F000E876F000E886F000E896F000E56
:102870008A6F000E8B6F000E8C6F000E8D6F180E1E
:102880008E6F2E0E8F6F000E906F000E916F000EE8
:10289000926FDBEC1CF00001A56F140E866F000E2A
:1028A000876F000E886F000E896F460E8A6F000ECC
:1028B0008B6F000E8C6F000E8D6F960E8E6F2B0E31
:1028C0008F6F000E906F000E916F000E926FDBEC19
:1028D0001CF00001A66FD00E866F070E876F000EEA
:1028E000886F000E896F230E8A6F000E8B6F000EAB
:1028F0008C6F000E8D6F220E8E6F270E8F6F000E65
:10290000906F000E916F000E926FDBEC1CF00001D7
:10291000A76FD00E866F070E876F000E886F000EB0
:10292000896F170E8A6F000E8B6F000E8C6F000E72
:102930008D6F500E8E6F210E8F6F000E906F000EF8
:10294000916F000E926FDBEC1CF00001A86F000E7F
:102950006B6F010E6C6F100E6D6F000E1AEC1CF099
:102960000E0E00016B6F0C0E6C6F100E6D6F000E73
:102970001AEC1CF0E8EC1DF0BAEF14F007EF00F0D1
:1029800098EC1AF0000E0001696F000E686F68C0C5
:1029900060F069C061F0000E636F0F0E626F3EEC75
:1029A0001DF0640E00016025D96E010E6121DA6E02
:1029B000DE6ADE6ADE6ADD6A68C060F069C061F006
:1029C000000E636F0F0E626F3EEC1DF0680E00018B
:1029D0006025D96E010E6121DA6EDE6ADE6ADE6A7A
:1029E000DD6A68C060F069C061F0000E636F0F0EB1
:1029F000626F3EEC1DF06C0E00016025D96E010E79
:102A00006121DA6E000EDE6E000EDE6E000EDE6EEE
:102A100068C060F069C061F0000E636F0F0E626FF6
:102A20003EEC1DF0710E00016025D96E010E612192
:102A3000DA6E000EDE6E000EDD6E68C060F069C0FA
:102A400061F0000E636F0F0E626F3EEC1DF06F0EB3
:102A500000016025D96E010E6121DA6E690EDE6E0D
:102A6000000EDD6E684B692B69BF40EF15F06951B0
:102A700009E1140E685DD8A040EF15F042EF15F0A3
:102A8000C7EF14F0000EC46F690EC36F120000018F
:102A900062356335696F6951D8A451EF15F053EF72
:102AA00015F05DEF15F0000E606F000E616F000E07
:102AB000626F000E636FCAEF15F060C064F061C012
:102AC00065F062C066F063C067F0200E6DEF15F030
:102AD000D8906733663365336433E82E68EF15F0BA
:102AE0006451686F628FFF0E6017FF0E6117FF0E53
:102AF0006217000E6317960E695F69BF84EF15F0C9
:102B000082EF15F09AEF15F06951800A970FD8B04F
:102B10008CEF15F08EEF15F090EF15F053EF15F0E8
:102B2000D8906333623361336033693F90EF15F0BF
:102B3000B2EF15F01F0E6965A0EF15F0A2EF15F0CA
:102B4000AAEF15F053EF15F0D89060376137623770
:102B5000633769076951D8A4B0EF15F0B2EF15F0EB
:102B6000A4EF15F06851D8B4B8EF15F0BAEF15F02E
:102B7000C2EF15F0631F621F611F606D000E6123BD
:102B80006223632360C060F061C061F062C062F0E4
:102B900063C063F01200CDEC1BF060C072F061C046
:102BA00073F0A4EC1BF060C074F061C075F0F6EF38
:102BB00015F0020E72197311D8A4E1EF15F0E3EFCE
:102BC00015F029EF16F0010EC26F010EC66F29EF46
:102BD00016F072057311D8A4F0EF15F0F2EF15F0AE
:102BE00029EF16F0000EC26F29EF16F00001C25156
:102BF000706F716B7151000AD8B401EF16F029EFB4
:102C000016F07051000AD8B4D9EF15F0010AD8B403
:102C1000E9EF15F029EF16F0020E74197511D8A41A
:102C200014EF16F016EF16F03EEF16F0010EC16F1E
:102C3000010EC56F3EEF16F074057511D8A423EF91
:102C400016F025EF16F03EEF16F0000EC16F3EEFC6
:102C500016F0C151706F716B7151000AD8B433EF27
:102C600016F03EEF16F07051000AD8B40CEF16F0D3
:102C7000010AD8B41CEF16F03EEF16F01200000166
:102C80006669676994968B86340E0001646FF10E55
:102C9000E82EFED7642FFCD700D08B96280EE82EA6
:102CA000FED7948664EF16F000016607D8A0670788
:102CB00066516711D8A45FEF16F061EF16F064EF6C
:102CC00016F0000EA8EF16F082A669EF16F06BEF73
:102CD00016F054EF16F00001666967697EEF16F092
:102CE0006607D8A0670766516711D8A47AEF16F077
:102CF0007CEF16F07EEF16F061EF16F082B683EFF0
:102D000016F085EF16F070EF16F0C7EC18F0000122
:102D1000BD6FC7EC18F00001BE6FC7EC18F00001E2
:102D2000BF6FC7EC18F00001C06FC7EC18F00001CE
:102D3000656FBE51C025BD25BF256519D8B4A3EF69
:102D400016F0A5EF16F0A7EF16F061EF16F0010EE2
:102D50001200000E0001656F63BFB3EF16F0B1EF14
:102D600016F0B9EF16F0626D631FD8B0632B010E39
:102D7000656F61BFC0EF16F0BEEF16F0C6EF16F03C
:102D8000606D611FD8B0612B010E651B000E676F6F
:102D9000000E666F62516311D8B4D1EF16F0D3EF15
:102DA00016F0FBEF16F0010E646FDBEF16F0D89013
:102DB00062376337642B63AFE0EF16F0E2EF16F093
:102DC000D7EF16F0D890663767376251605D635170
:102DD0006159D8A0EEEF16F0F0EF16F0F5EF16F00F
:102DE0006251605F6351615B6681D8906333623387
:102DF000642FE2EF16F06551D8B401EF17F003EF3E
:102E000017F007EF17F0666D671FD8B0672B66C025
:102E100060F067C061F01200D5EC1DF060C072F088
:102E200061C073F062C074F063C075F0020E0001FF
:102E3000716F56EF17F072C060F073C061F074C02C
:102E400062F075C063F00A0E646F000E656F000ECD
:102E5000666F000E676F53EC1AF000016051300F7F
:102E6000706F71510F086B6F70C06CF0000E9DECAD
:102E70001CF072C060F073C061F074C062F075C085
:102E800063F00A0E0001646F000E656F000E666F3E
:102E9000000E676F1CEC19F060C072F061C073F037
:102EA00062C074F063C075F00001712B7251731130
:102EB00074117511D8B45FEF17F061EF17F069EF77
:102EC00017F0090E716567EF17F069EF17F01BEF48
:102ED00017F01200000E0001656F61BF74EF17F06C
:102EE00072EF17F07AEF17F0606D611FD8B0612BA9
:102EF000010E656F63BF81EF17F07FEF17F085EF6D
:102F000017F0626D631FD8B0632B62516311D8B4A0
:102F10008CEF17F08EEF17F0B2EF17F0010E646F21
:102F200096EF17F0D89062376337642B63AF9BEF4F
:102F300017F09DEF17F092EF17F06251605D63514B
:102F40006159D8A0A6EF17F0A8EF17F0ACEF17F073
:102F50006251605F6351615BD89063336233642F69
:102F60009DEF17F06551D8B4B8EF17F0BAEF17F02E
:102F7000BEEF17F0606D611FD8B0612B60C060F0CC
:102F800061C061F01200000E066E02BECCEF17F0B9
:102F9000CAEF17F0D2EF17F0016C021ED8B0022A68
:102FA000010E066E04BED9EF17F0D7EF17F0DDEF74
:102FB00017F0036C041ED8B0042A03500410D8B4D0
:102FC000E4EF17F0E6EF17F00AEF18F0010E056EC8
:102FD000EEEF17F0D89003360436052A04AEF3EF6F
:102FE00017F0F5EF17F0EAEF17F00350015C04500B
:102FF0000258D8A0FEEF17F000EF18F004EF18F019
:103000000350015E0450025AD89004320332052E58
:10301000F5EF17F00650D8B410EF18F012EF18F0D3
:1030200016EF18F0016C021ED8B0022A01C001F0A0
:1030300002C002F01200000E00016015686F000E61
:103040006115696F800E62156A6F7F0E63156B6F75
:10305000685169116A116B11D8A431EF18F033EF80
:1030600018F03BEF18F0000E606F000E616F000E5D
:10307000626F000E636F000E6415686F000E6515B9
:10308000696F800E66156A6F7F0E67156B6F6851EA
:1030900069116A116B11D8A450EF18F052EF18F0B3
:1030A0005AEF18F0000E646F000E656F000E666F29
:1030B000000E676F645160190FE1655161190CE1F1
:1030C0006651621909E167516319D8B46AEF18F0C3
:1030D0006CEF18F06FEF18F0D89070EF18F0D88000
:1030E0001200A5EC1DF00009D8B479EF18F07BEFC1
:1030F00018F07DEF18F0C6EF18F00001D12906E1B5
:10310000D229D8A486EF18F088EF18F08CEF18F0C9
:10311000000ED26F000ED16F010ECF25016E000E92
:10312000D021026E000E046E140E036EC3EC17F075
:1031300001C0CFF002C0D0F0CFC001F0D0C002F08B
:10314000000E046E050E036E52EC1DF0000E0124FD
:10315000D96E010E0220DA6E0AC0DEFF0BC0DEFF60
:103160000CC0DEFFCFC001F0D0C002F0000E046E34
:10317000050E036E52EC1DF0030E0124D96E010EF4
:103180000220DA6E0DC0DEFF0EC0DDFF1200000E61
:103190000001606F400E636F61696269DFEF18F0D4
:1031A0006107D8A0620761516211D8A4DAEF18F064
:1031B000DCEF18F0DFEF18F0000E1BEF19F082A61D
:1031C000E4EF18F0E6EF18F0D0EF18F01A0EE82E42
:1031D000FED700D082A6EFEF18F0F1EF18F00EEF57
:1031E00019F0000160516311606F6169626907EF56
:1031F00019F06107D8A0620761516211D8A403EFEA
:1032000019F005EF19F007EF19F0DCEF18F082B6AE
:103210000CEF19F00EEF19F0F9EF18F00001D8904B
:103220006331636F6351D8A418EF19F01AEF19F0E6
:10323000CCEF18F060511200000E0001686F000E14
:10324000696F000E6A6F000E6B6F64516511661135
:103250006711D8B42EEF19F030EF19F066EF19F0BE
:10326000010E6C6F3AEF19F0D89064376537663706
:1032700067376C2B67AF3FEF19F041EF19F034EF70
:1032800019F0D890683769376A376B376451605DD9
:10329000655161596651625967516359D8A053EF1E
:1032A00019F055EF19F05EEF19F06451605F655148
:1032B000615B6651625B6751635B6881D89067337D
:1032C0006633653364336C2F41EF19F068C060F0EA
:1032D00069C061F06AC062F06BC063F01200000E5A
:1032E00000016F6F000E706F000E716F000E726F35
:1032F000000E736FF8EC1CF00009D8B482EF19F0DF
:1033000084EF19F08FEF19F020EE6FF000EE68F007
:10331000040EDBCFEBFFE806FCE2BFEF19F0D1C0F3
:103320006DF0D2C06EF0010E0001D125606F000E6D
:10333000D221616F000E636F140E626F6AEC17F09A
:1033400060C0D1F061C0D2F06DC060F06EC061F0BD
:10335000000E0001636F050E626F3EEC1DF0000E63
:1033600000016025D96E010E6121DA6E10EE6FF05A
:10337000040EDBCFE3FFE806FCE284EF19F0120055
:1033800000016C6F040E00016C65C9EF19F0CBEF02
:1033900019F0E9EF19F00AEF1AF0F28AF294C30E6D
:1033A000D56E830ED66E000EB96F000EBA6F000E8A
:1033B000BB6F000EBC6F0AEF1AF0C0EC14F09D80DA
:1033C0009E90810ECD6EB10ECF6EE00ECE6E0AEFE6
:1033D0001AF06C516A6F6B6B6B51000AD8B4F3EF43
:1033E00019F00AEF1AF06A51000AD8B4CDEF19F0BB
:1033F000010AD8B4DDEF19F0030AD8B40AEF1AF0C5
:10340000010AD8B40AEF1AF0070AD8B40AEF1AF082
:103410000AEF1AF012000600E1CF2EF0E2CF2FF0F3
:10342000D9CF30F0DACF31F0F3CF32F0F4CF33F040
:10343000F2AA1DEF1AF01FEF1AF030EF1AF0F2A403
:1034400024EF1AF026EF1AF030EF1AF0F294830E00
:10345000D66E010E0001B927000EBA23BB23BC2390
:103460009DA035EF1AF037EF1AF045EF1AF09EA045
:103470003CEF1AF03EEF1AF045EF1AF09E90B10EB5
:10348000CF6EE00ECE6E69EC0AF033C0F4FF32C0AE
:10349000F3FF31C0DAFF30C0D9FF2FC0E2FF2EC0EA
:1034A000E1FF4D9211000001645165116611671131
:1034B000D8B45DEF1AF05FEF1AF08FEF1AF0010E3B
:1034C000686F69EF1AF0D8906437653766376737E9
:1034D000682B67AF6EEF1AF070EF1AF063EF1AF017
:1034E0006451605D65516159665162596751635914
:1034F000D8A07DEF1AF07FEF1AF087EF1AF0645131
:10350000605F6551615B6651625B6751635BD89038
:103510006733663365336433682F70EF1AF060C029
:1035200060F061C061F062C062F063C063F01200DD
:10353000000E0001676F000E666F66C060F067C026
:1035400061F0000E636F050E626F3EEC1DF0030E1E
:1035500000016025D96E010E6121DA6E000EDE6E6B
:10356000000EDD6E66C060F067C061F0000E636F34
:10357000050E626F3EEC1DF0000E00016025D96E55
:10358000010E6121DA6E000EDE6E000EDE6E000EA0
:10359000DE6E664B672B67BFD7EF1AF0675109E104
:1035A000140E665DD8A0D7EF1AF0D9EF1AF09DEF90
:1035B0001AF012000001606F60C062F0000E00019E
:1035C000616F60AFE6EF1AF0E8EF1AF0EBEF1AF078
:1035D0008B8AECEF1AF08B9A8BA8F1EF1AF0F3EFCD
:1035E0001AF0F7EF1AF0D8806237FAEF1AF062514A
:1035F0006225626F8B8600F000F000F000F000F0B2
:1036000000F08B960001D8906037612B070E616542
:103610000CEF1BF00EEF1BF0E1EF1AF01200CCECF8
:103620001DF0979C8E9C0D0E0001666FFB0EE82E20
:10363000FED7662FFCD700D08E8C000E96EC1DF0C6
:10364000010E96EC1DF0000E0001636F120E77EC78
:103650001DF0270E0001666FF50EE82EFED7662FCF
:10366000FCD7320E5CEC1CF03C0E5CEC1CF00C0E3B
:103670005CEC1CF0010E5CEC1CF0060E5CEC1CF02B
:10368000120068EF1BF06FEC19F020EEA0F0040EB2
:10369000EBCFDBFFE806FCE20001A051A111A21173
:1036A000D8B455EF1BF057EF1BF068EF1BF0A3C029
:1036B0006EF0A4C06FF002D868EF1BF00500FA6E40
:1036C000A051FD6EA151FE6EA251FF6EFA50120084
:1036D000F8EC1CF00009D8B470EF1BF072EF1BF08F
:1036E00043EF1BF01200BC0EF66E3B0EF76E000EA1
:1036F000F86E00EECFF010EE08F00900F5CFEEFF07
:10370000E550E150FAE101EE64F011EE2CF0EE6AC2
:10371000E550E150FCE1E250FAE101EE00F0640E08
:10372000EE6AE806FDE100EEA5F02A0EEE6AE80674
:10373000FDE100EE34F0190EEE6AE806FDE14D9071
:103740004D9200012CEF14F0D3C0D4F0000E81B0E4
:10375000010E0001D36FD451D319D8A4B2EF1BF0DE
:10376000B4EF1BF0C8EF1BF0D351D8B4BAEF1BF085
:10377000BCEF1BF0C2EF1BF0000E616F010E606F1B
:10378000CCEF1BF0000E616F020E606FCCEF1BF0F0
:10379000000E616F000E606F1200D5C0D6F0000EF3
:1037A00080BA010E0001D56FD651D519D8A4DBEF30
:1037B0001BF0DDEF1BF0F1EF1BF0D551D8B4E3EFB8
:1037C0001BF0E5EF1BF0EBEF1BF0000E616F010E3D
:1037D000606FF5EF1BF0000E616F020E606FF5EF8A
:1037E0001BF0000E616F000E606F1200000E0001F2
:1037F0009B1B000E9C1B000E9D1B800E9E1B97C0EA
:1038000087F098C088F099C089F09AC08AF09BC070
:103810008BF09CC08CF09DC08DF09EC08EF008ECAB
:1038200008F087C097F088C098F089C099F08AC0E6
:103830009AF0120000016E6F030E00016E6123EF1B
:103840001CF025EF1CF03AEF1CF00F0E6B652BEF10
:103850001CF02DEF1CF02FEF1CF03AEF1CF06BC0AA
:1038600066F06E51BCEC1CF06CC066F06DC067F089
:103870007DEC1CF012000001656F060EE82EFED7ED
:1038800000D0800E0001636F120E77EC1DF000D0A7
:1038900065C063F0130E77EC1DF000D0C00E000180
:1038A000636F120E77EC1DF000D0000E0001636F05
:1038B000120E77EC1DF012000001656F060EE82E67
:1038C000FED700D0000E0001636F120E77EC1DF0E2
:1038D00000D065C063F0130E77EC1DF000D0400EF1
:1038E0000001636F120E77EC1DF000D0000E000196
:1038F000636F120E77EC1DF012008CEF1CF066C0A7
:10390000F6FF67C0F7FF000EF86E0800F5503BECBD
:103910001CF00001664B672B66C0F6FF67C0F7FF1F
:10392000000EF86E0800F5500009D8A49AEF1CF0BC
:103930009CEF1CF07FEF1CF0120000016D6F030E76
:1039400000016D61A6EF1CF0A8EF1CF0BBEF1CF0AE
:103950000F0E6B65AEEF1CF0B0EF1CF0B2EF1CF079
:10396000BBEF1CF06BC066F06D51BCEC1CF00001AD
:103970006C513BEC1CF012000001676F00016751B5
:10398000D8B4C5EF1CF0C7EF1CF0CFEF1CF0C00E91
:103990006625686F696B000E6923D5EF1CF0800EF9
:1039A0006625686F696B000E692368C06AF06A510A
:1039B0005CEC1CF0120086C066F087C067F088C01F
:1039C00068F089C069F08AC06AF08BC06BF08CC067
:1039D0006CF08DC06DF08EC06EF08FC06FF090C037
:1039E00070F091C071F092C072F0D8EC0EF012003D
:1039F0000001D12906E1D229D8A401EF1DF003EF7F
:103A00001DF006EF1DF0000E12EF1DF013EC1DF07F
:103A10000009D8B40EEF1DF011EF1DF0010E12EFEA
:103A20001DF0000E12000001D151CF5D666FD25122
:103A3000D059676F150E6625606F000E6721616FA4
:103A4000000E636F140E626F6AEC17F00001605194
:103A500012000001D151CF5D076ED251D059086ECE
:103A6000150E0724016E000E0820026E000E046E73
:103A7000140E036EC3EC17F00150120000016051E8
:103A80006203F3CF64F0F4CF65F060516303F35049
:103A9000652761516203F350652764C060F065C01B
:103AA00061F0120001500302F3CF05F0F4CF06F0ED
:103AB00001500402F350062602500302F35006267A
:103AC00005C001F006C002F01200000E8B6ED70E8A
:103AD000946E0F0EC16E000E8C6E000E956E000E71
:103AE000896EF30E926E000E8A6E936812000001CA
:103AF000646F8994400EDAEC1AF000016451DAEC3C
:103B00001AF000016351DAEC1AF089841200E2EC39
:103B10001DF065EC1DF0E5EC1DF00FEC1BF0000E48
:103B2000C0EC19F0010EC0EC19F012000001636F37
:103B30008994400EDAEC1AF000016351DAEC1AF0C5
:103B4000000EDAEC1AF08984120029EC1DF0096EDF
:103B5000140E0960AEEF1DF0B1EF1DF0010EB2EFD3
:103B60001DF0000E1200140E0001C419D8B4BBEFF2
:103B70001DF0BEEF1DF0010EBFEF1DF0000E120094
:103B80000001C451D8B4C7EF1DF0CAEF1DF0010EFB
:103B9000CBEF1DF0000E120092949488949A9496A4
:103BA00089848B888B9A8B961200B9C060F0BAC05A
:103BB00061F0BBC062F0BCC063F01200FFFFFFFF0A
:103BC00001010101700ED36E1200F28EF28C120010
:063BD00041EC1BF01200A5
:020000040020DA
:08000000FFFFFFFFFFFFFFFF00
:020000040030CA
:0E000000FF09191EF38381FFFFC0FFE0FF40E0
:00000001FF
