:020000040000FA
:0400000007EF00F016
:0A0008004B828DED13F0F5EF14F0BC
:10100000004C6162203420202020313731303336CB
:0B101000340054696D65006D73000032
:10101C00690E0001BF19D8A416EF08F018EF08F0FC
:10102C0044EF0AF066EF0AF0BFC02CF02D6A2CC01A
:10103C0001F02DC002F0000E046E0F0E036EB0EC2A
:10104C0016F06C0E0124D96E010E0220DA6EDECF82
:10105C001FF0DECF20F0DDCF21F02CC001F02DC031
:10106C0002F0000E046E0F0E036EB0EC16F0710E53
:10107C000124D96E010E0220DA6EDECF22F0DDCF14
:10108C0023F01FC00AF020C00BF021C00CF022C0CE
:10109C000DF023C00EF048EC12F02CC001F02DC066
:1010AC0002F0000E046E0F0E036EB0EC16F06F0E15
:1010BC000124D96E010E0220DA6EDF500001BF6FE1
:1010CC002CC001F02DC002F0000E046E0F0E036E4A
:1010DC00B0EC16F0680E0124D96E010E0220DA6E07
:1010EC00DE50DE10DE10DE10D8A47FEF08F081EFAA
:1010FC0008F086EF08F02C5072EC0FF044EF0AF079
:10110C002CC001F02DC002F0000E046E0F0E036E09
:10111C00B0EC16F0680E0124D96E010E0220DA6EC6
:10112C002CC001F02DC002F0000E046E0F0E036EE9
:10113C00B0EC16F0640E0124E16E010E0220E26E9A
:10114C00DECFE6FFDECFE6FFDECFE6FFDECFE6FF4B
:10115C000001BF510F0D640EF324D96E010EF42063
:10116C00DA6EDECF28F0DDCF29F0690EBF19D8B4C6
:10117C00C2EF08F0C4EF08F0F5EF08F0690EBF19E4
:10118C00D8B4CBEF08F0CDEF08F011EF09F028C080
:10119C000FF029C010F0000E10BEFF0E116E126E73
:1011AC002CC001F02DC002F0000E046E0F0E036E69
:1011BC00B0EC16F0640E0124D96E010E0220DA6E2A
:1011CC000F50DE5C1050DE581150DE581250DE58B5
:1011DC00D8B0F3EF08F0F5EF08F011EF09F00001CB
:1011EC00BF510F6E106A2CC001F02DC002F0000E22
:1011FC00046E0F0E036EB0EC16F06F0E0124D96E58
:10120C00010E0220DA6E0FC0DEFF10C0DDFF2CC015
:10121C00BFF0E6EF09F00001BF510F0D6F0EF32484
:10122C00D96E010EF420DA6EDECF2AF0DDCF2BF072
:10123C00BFC026F0276A4FEF09F02AC001F02BC07F
:10124C0002F0000E046E0F0E036EB0EC16F0640E7E
:10125C000124D96E010E0220DA6EDE502826DD50F4
:10126C0029222AC026F02BC027F02AC001F02BC05F
:10127C0002F0000E046E0F0E036EB0EC16F06F0E43
:10128C000124D96E010E0220DA6EDECF2AF0DDCFFA
:10129C002BF0690E2A182B10D8B457EF09F059EF20
:1012AC0009F0A5EF09F02AC001F02BC002F0000EE6
:1012BC00046E0F0E036EB0EC16F0640E0124D96EA2
:1012CC00010E0220DA6EDECF0FF0DECF10F0DECF93
:1012DC0011F0DECF12F028C013F029C014F0000E6C
:1012EC0014BEFF0E156E166E0F501324176E105091
:1012FC001420186E11501520196E125016201A6EEB
:10130C002CC001F02DC002F0000E046E0F0E036E07
:10131C00B0EC16F0640E0124D96E010E0220DA6EC8
:10132C001750DE5C1850DE581950DE581A50DE5833
:10133C00D8B0A3EF09F0A5EF09F023EF09F026C010
:10134C0001F027C002F0000E046E0F0E036EB0EC1D
:10135C0016F06F0E0124D96E010E0220DA6E2CC02D
:10136C00DEFF2DC0DDFF2CC001F02DC002F0000E01
:10137C00046E0F0E036EB0EC16F06F0E0124D96ED6
:10138C00010E0220DA6E2AC0DEFF2BC0DDFF2CC05E
:10139C0001F02DC002F0000E046E0F0E036EB0ECC7
:1013AC0016F0640E0124D96E010E0220DA6E28505C
:1013BC00DE5E2950DE5A000E29BEFF0EDE5ADE5AC2
:1013CC002CC001F02DC002F0000E046E0F0E036E47
:1013DC00B0EC16F06F0E0124D96E010E0220DA6EFD
:1013EC00690EDE18DE10D8B4FEEF09F000EF0AF03B
:1013FC0044EF0AF02CC001F02DC002F0000E046E78
:10140C000F0E036EB0EC16F06F0E0124D96E010EA8
:10141C000220DA6EDECF24F0DDCF25F02CC001F0F7
:10142C002DC002F0000E046E0F0E036EB0EC16F021
:10143C00640E0124D96E010E0220DA6EDECF0FF09D
:10144C00DECF10F0DECF11F0DECF12F024C001F0B1
:10145C0025C002F0000E046E0F0E036EB0EC16F0F9
:10146C00640E0124D96E010E0220DA6E0F50DE5E7E
:10147C001050DE5A1150DE5A1250DE5A0001BF5184
:10148C000F0D640EF324D96E010EF420DA6EDE50CB
:10149C00DE10DE10DE10D8B456EF0AF058EF0AF06A
:1014AC001AEF08F0BF510F0D640EF324D96E010E24
:1014BC00F420DA6E0A0EDE5E000EDE5ADE5ADE5ABA
:1014CC00120011EC17F00009D8B46FEF0AF071EFAD
:1014DC000AF074EF0AF06D0E36EF0CF0000E0001FE
:1014EC00856F85510F0D6C0EF324D96E010EF4200F
:1014FC00DA6EDE50DE10DE10D8A487EF0AF089EF2A
:10150C000AF08BEF0AF094EF0AF0852B130E856529
:10151C0092EF0AF094EF0AF077EF0AF0140E8519A7
:10152C00D8A49BEF0AF09DEF0AF09FEF0AF071EF41
:10153C000AF085510F0D640EF324D96E010EF420C0
:10154C00DA6E6AC0DEFF6BC0DEFF6CC0DEFF6DC002
:10155C00DEFF85510F0D680EF324D96E010EF420B9
:10156C00DA6E66C0DEFF67C0DEFF68C0DEFF69C0F2
:10157C00DEFF85510F0D6C0EF324D96E010EF42095
:10158C00DA6E6EC0DEFF6FC0DEFF70C0DEFF85510D
:10159C000F0D710EF324D96E010EF420DA6E71C0AA
:1015AC00DEFF72C0DDFFC02BBF510F0D640EF324A4
:1015BC00D96E010EF420DA6EDECF81F0DDCF82F031
:1015CC00690EBF19D8B4EDEF0AF0EFEF0AF010EF87
:1015DC000BF0690EBF19D8B4F6EF0AF0F8EF0AF069
:1015EC0023EF0BF081C073F082C074F0000E74BF57
:1015FC00FF0E756F766F73516A5D74516B5975512F
:10160C006C5976516D59D8B00EEF0BF010EF0BF002
:10161C0023EF0BF0BF51736F746B85510F0D6F0E71
:10162C00F324D96E010EF420DA6E73C0DEFF74C0A1
:10163C00DDFF85C0BFF0F2EF0BF0BF510F0D6F0E49
:10164C00F324D96E010EF420DA6EDECF83F0DDCFF9
:10165C0084F0BFC07FF0806B62EF0BF083C060F052
:10166C0084C061F0000E636F0F0E626F9CEC16F07D
:10167C00640E00016025D96E010E6121DA6EDE5018
:10168C008127DD50822383C07FF084C080F083C02B
:10169C0060F084C061F0000E636F0F0E626F9CEC03
:1016AC0016F06F0E00016025D96E010E6121DA6E05
:1016BC00DECF83F0DDCF84F0690E83198411D8B4AA
:1016CC006AEF0BF06CEF0BF0A9EF0BF083C060F03E
:1016DC0084C061F0000E636F0F0E626F9CEC16F00D
:1016EC00640E00016025D96E010E6121DA6EDECF29
:1016FC0073F0DECF74F0DECF75F0DECF76F081C004
:10170C0077F082C078F0000E78BFFF0E796F7A6F99
:10171C00735177257B6F745178217C6F75517921CA
:10172C007D6F76517A217E6F7B516A5D7C516B594E
:10173C007D516C597E516D59D8B0A7EF0BF0A9EFC4
:10174C000BF034EF0BF08551736F746B7FC060F04E
:10175C0080C061F0000E636F0F0E626F9CEC16F090
:10176C006F0E00016025D96E010E6121DA6E73C017
:10177C00DEFF74C0DDFF85510F0D6F0EF324D96EA3
:10178C00010EF420DA6E83C0DEFF84C0DDFF81C061
:10179C0073F082C074F0000E74BFFF0E756F766F1D
:1017AC0073516A5D776F74516B59786F75516C59C1
:1017BC00796F76516D597A6F85510F0D640EF32444
:1017CC00D96E010EF420DA6E77C0DEFF78C0DEFF32
:1017DC0079C0DEFF7AC0DEFF85510F0D6F0EF3244A
:1017EC00D96E010EF420DA6E690EDE18DE10D8B454
:1017FC0002EF0CF004EF0CF035EF0CF085510F0DEF
:10180C00640EF324D96E010EF420DA6EDECF73F081
:10181C00DECF74F0DECF75F0DECF76F085510F0D94
:10182C006F0EF324D96E010EF420DA6EDECF60F069
:10183C00DDCF61F0000E636F0F0E626F9CEC16F043
:10184C00640E00016025D96E010E6121DA6E7351B0
:10185C00DE5E7451DE5A7551DE5A7651DE5A855170
:10186C001200E5EC16F0F40E0001866F010E876F86
:10187C00000E886F000E896F000E8A6F000E8B6F42
:10188C00000E8C6F000E8D6F720E8E6F1B0E8F6F95
:10189C00000E906F000E916F000E926F39EC16F0E7
:1018AC000001936FE80E866F030E876F000E886F32
:1018BC00000E896FC80E8A6F000E8B6F000E8C6F36
:1018CC00000E8D6F720E8E6F1B0E8F6F000E906F51
:1018DC00010E916F000E926F39EC16F00001946FAF
:1018EC00B80E866F0B0E876F000E886F000E896F17
:1018FC00A00E8A6F0F0E8B6F000E8C6F000E8D6F0B
:10190C00720E8E6F1B0E8F6F000E906F020E916F0A
:10191C00000E926F39EC16F00001956F280E866F51
:10192C00230E876F000E886F000E896F3C0E8A6F36
:10193C00000E8B6F000E8C6F000E8D6F720E8E6F03
:10194C001B0E8F6F000E906F030E916F000E926F37
:10195C0039EC16F00001966F7C0E866F150E876FB2
:10196C00000E886F000E896F640E8A6F000E8B6FED
:10197C00000E8C6F000E8D6F720E8E6F1B0E8F6FA4
:10198C00000E906F040E916F000E926F39EC16F0F2
:10199C000001976FB80E866F0B0E876F000E886F65
:1019AC00000E896F400E8A6F1F0E8B6F000E8C6FAE
:1019BC00000E8D6F720E8E6F1B0E8F6F000E906F60
:1019CC00050E916F000E926F39EC16F00001986FB6
:1019DC00640E866F000E876F000E886F000E896F85
:1019EC00900E8A6F010E8B6F000E8C6F000E8D6F38
:1019FC00720E8E6F1B0E8F6F000E906F060E916F16
:101A0C00000E926F39EC16F00001996F640E866F20
:101A1C00000E876F000E886F000E896F900E8A6F14
:101A2C00010E8B6F000E8C6F000E8D6F720E8E6F11
:101A3C001B0E8F6F000E906F070E916F000E926F42
:101A4C0039EC16F000019A6F320E866F000E876F1C
:101A5C00000E886F000E896F000E8A6F000E8B6F60
:101A6C00000E8C6F000E8D6F720E8E6F220E8F6FAC
:101A7C00000E906F000E916F000E926F39EC16F005
:101A8C0000019B6F0A0E866F000E876F000E886F29
:101A9C00000E896F460E8A6F000E8B6F000E8C6FD6
:101AAC00000E8D6F8A0E8E6F210E8F6F000E906F51
:101ABC00000E916F000E926F39EC16F000019C6FC6
:101ACC00000E6B6F010E6C6F100E6D6F000E78ECCC
:101ADC0015F0000E00016B6F120E6C6F100E6D6F17
:101AEC00010E78EC15F00E0E00016B6F170E6C6F7B
:101AFC00100E6D6F010E78EC15F059EC17F000011B
:101B0C00C205D8A48CEF0DF08EEF0DF096EF0DF012
:101B1C00000EC26F000E6E6F000E6F6F39EC11F07D
:101B2C000001C105D8A49DEF0DF09FEF0DF083EFE0
:101B3C000DF0000EC16FBB5148EC17F0010E000107
:101B4C00BB25606F000EBC21616F000E636F140E1D
:101B5C00626F97EC11F060C0BBF061C0BCF083EF1A
:101B6C000DF007EF00F06EC074F000017451020D1F
:101B7C00A70EF324D96E000EF420DA6EDE50DE10C0
:101B8C00D8B4CBEF0DF0CEEF0DF0010ECFEF0DF082
:101B9C00000E726F736B7451020DA70EF324D96E85
:101BAC00000EF420DA6E72C0DEFF73C0DDFF75EF3D
:101BBC000EF07451020DA70EF324D96E000EF42012
:101BCC00DA6EDF50706F8C507019FE0B70198C6EC2
:101BDC00A2EF0EF07451020DA70EF324D96E000E75
:101BEC00F420DA6EDF50706F70478C507019FD0B5B
:101BFC0070198C6EA2EF0EF07451020DA70EF32427
:101C0C00D96E000EF420DA6EDF50706F704770479B
:101C1C008C507019FB0B70198C6EA2EF0EF0745176
:101C2C00020DA70EF324D96E000EF420DA6EDF50ED
:101C3C00706F7047704770478C507019F70B7019A4
:101C4C008C6EA2EF0EF07451020DA70EF324D96E18
:101C5C00000EF420DA6EDF50706F703B8C507019F0
:101C6C00EF0B70198C6EA2EF0EF07451020DA70ED3
:101C7C00F324D96E000EF420DA6EDF50706F703BD7
:101C8C0070478C507019DF0B70198C6EA2EF0EF030
:101C9C007451020DA70EF324D96E000EF420DA6EE7
:101CAC00DF50706F703B704770478C507019BF0BD2
:101CBC0070198C6EA2EF0EF07451020DA70EF32466
:101CCC00D96E000EF420DA6EDF50706F7033703303
:101CDC008C5070197F0B70198C6EA2EF0EF0745132
:101CEC00706F716B7151000AD8B47FEF0EF0A2EFD8
:101CFC000EF07051000AD8B4DFEF0DF0010AD8B421
:101D0C00F0EF0DF0030AD8B402EF0EF0010AD8B4CC
:101D1C0015EF0EF0070AD8B429EF0EF0010AD8B46B
:101D2C003BEF0EF0030AD8B44EEF0EF0010AD8B414
:101D3C0062EF0EF0A2EF0EF012000001656F1EECC8
:101D4C0017F00009D8A4ADEF0EF0AFEF0EF0C2EF14
:101D5C000EF0000165510F0D6C0EF324D96E010EBF
:101D6C00F420DA6EDE50DE10DE10D8A4C0EF0EF0D8
:101D7C00C2EF0EF0C5EF0EF0000E71EF0FF06551D3
:101D8C000F0D640EF324D96E010EF420DA6EDE6AA8
:101D9C00DE6ADE6ADD6A65510F0D680EF324D96EBA
:101DAC00010EF420DA6EDE6ADE6ADE6ADD6A6551E7
:101DBC000F0D6C0EF324D96E010EF420DA6E000EAA
:101DCC00DE6E000EDE6E000EDE6E65510F0D710EB6
:101DDC00F324D96E010EF420DA6E000EDE6E000EC6
:101DEC00DD6EC007BF516519D8A4FFEF0EF001EFEF
:101DFC000FF019EF0FF065510F0D6F0EF324D96E24
:101E0C00010EF420DA6EDF50BF6F65510F0D6F0EAF
:101E1C00F324D96E010EF420DA6E690EDE6E000E1C
:101E2C00DD6E70EF0FF0BFC064F027EF0FF0645160
:101E3C000F0D6F0EF324D96E010EF420DA6EDF5005
:101E4C00646F64510F0D6F0EF324D96E010EF420E4
:101E5C00DA6E690EDE18DE10D8B437EF0FF039EFFA
:101E6C000FF050EF0FF064510F0D6F0EF324D96E7D
:101E7C00010EF420DA6E6551626F636BDE506219ED
:101E8C0007E1DE506319D8A44EEF0FF050EF0FF0BE
:101E9C001DEF0FF065510F0D6F0EF324D96E010E6F
:101EAC00F420DA6E64510F0D6F0EF324E16E010E07
:101EBC00F420E26EDECFE6FFDDCFE5FF65510F0DBE
:101ECC006F0EF324D96E010EF420DA6E690EDE6EFD
:101EDC00000EDD6E010E1200066E2AEC17F00009E2
:101EEC00D8A47BEF0FF07DEF0FF03DEF10F0065014
:101EFC000F0D6C0EF324D96E010EF420DA6EDE5049
:101F0C00DE10DE10D8A48DEF0FF08FEF0FF091EFF5
:101F1C000FF03DEF10F006500F0D640EF324D96E48
:101F2C00010EF420DA6EDE6ADE6ADE6ADD6A0650C5
:101F3C000F0D680EF324D96E010EF420DA6EDE6AF2
:101F4C00DE6ADE6ADD6A06500F0D6C0EF324D96E64
:101F5C00010EF420DA6E000EDE6E000EDE6E000E48
:101F6C00DE6E06500F0D710EF324D96E010EF420A7
:101F7C00DA6E000EDE6E000EDD6E0001C007BF5182
:101F8C000618D8A4CCEF0FF0CEEF0FF0E6EF0FF061
:101F9C0006500F0D6F0EF324D96E010EF420DA6E7D
:101FAC00DF50BF6F06500F0D6F0EF324D96E010E6C
:101FBC00F420DA6E690EDE6E000EDD6E3DEF10F071
:101FCC00BFC005F0F4EF0FF005500F0D6F0EF324AA
:101FDC00D96E010EF420DA6EDF50056E05500F0D30
:101FEC006F0EF324D96E010EF420DA6E690EDE1832
:101FFC00DE10D8B404EF10F006EF10F01DEF10F067
:10200C0005500F0D6F0EF324D96E010EF420DA6E0D
:10201C000650036E046ADE50031807E1DE50041804
:10202C00D8A41BEF10F01DEF10F0EAEF0FF00650E4
:10203C000F0D6F0EF324D96E010EF420DA6E0550DD
:10204C000F0D6F0EF324E16E010EF420E26EDECF65
:10205C00E6FFDDCFE5FF06500F0D6F0EF324D96EB2
:10206C00010EF420DA6E690EDE6E000EDD6E1200CB
:10207C001AEC14F0000E0001696F000E686F68C056
:10208C0060F069C061F0000E636F0F0E626F9CEC24
:10209C0016F0640E00016025D96E010E6121DA6E16
:1020AC00DE6ADE6ADE6ADD6A68C060F069C061F013
:1020BC00000E636F0F0E626F9CEC16F0680E000141
:1020CC006025D96E010E6121DA6EDE6ADE6ADE6A87
:1020DC00DD6A68C060F069C061F0000E636F0F0EBE
:1020EC00626F9CEC16F06C0E00016025D96E010E2F
:1020FC006121DA6E000EDE6E000EDE6E000EDE6EFC
:10210C0068C060F069C061F0000E636F0F0E626F03
:10211C009CEC16F0710E00016025D96E010E612148
:10212C00DA6E000EDE6E000EDD6E68C060F069C007
:10213C0061F0000E636F0F0E626F9CEC16F06F0E69
:10214C0000016025D96E010E6121DA6E690EDE6E1A
:10215C00000EDD6E684B692B69BFBEEF10F0695144
:10216C0009E1140E685DD8A0BEEF10F0C0EF10F0BE
:10217C0045EF10F0000EC06F690EBF6F12004FECF0
:10218C0015F060C072F061C073F026EC15F060C001
:10219C0074F061C075F0F0EF10F0020E721973114B
:1021AC00D8A4DBEF10F0DDEF10F023EF11F0010EEF
:1021BC00BE6F010EC26F23EF11F072057311D8A41C
:1021CC00EAEF10F0ECEF10F023EF11F0000EBE6F01
:1021DC0023EF11F00001BE51706F716B7151000A49
:1021EC00D8B4FBEF10F023EF11F07051000AD8B403
:1021FC00D3EF10F0010AD8B4E3EF10F023EF11F095
:10220C00020E74197511D8A40EEF11F010EF11F025
:10221C0038EF11F0010EBD6F010EC16F38EF11F0E8
:10222C0074057511D8A41DEF11F01FEF11F038EFE4
:10223C0011F0000EBD6F38EF11F0BD51706F716B66
:10224C007151000AD8B42DEF11F038EF11F0705124
:10225C00000AD8B406EF11F0010AD8B416EF11F049
:10226C0038EF11F012003FEC17F060C072F061C053
:10227C0073F062C074F063C075F0020E0001716FF0
:10228C0083EF11F072C060F073C061F074C062F043
:10229C0075C063F00A0E646F000E656F000E666FFA
:1022AC00000E676FD5EC13F000016051300F706FAA
:1022BC0071510F086B6F70C06CF0010EFBEC15F0D8
:1022CC0072C060F073C061F074C062F075C063F0EE
:1022DC000A0E0001646F000E656F000E666F000E33
:1022EC00676F9EEC12F060C072F061C073F062C058
:1022FC0074F063C075F00001712B7251731174117D
:10230C007511D8B48CEF11F08EEF11F096EF11F02F
:10231C00090E716594EF11F096EF11F048EF11F082
:10232C001200000E0001656F61BFA1EF11F09FEF6D
:10233C0011F0A7EF11F0606D611FD8B0612B010E89
:10234C00656F63BFAEEF11F0ACEF11F0B2EF11F0AF
:10235C00626D631FD8B0632B62516311D8B4B9EFAF
:10236C0011F0BBEF11F0DFEF11F0010E646FC3EF52
:10237C0011F0D89062376337642B63AFC8EF11F05C
:10238C00CAEF11F0BFEF11F06251605D63516159FA
:10239C00D8A0D3EF11F0D5EF11F0D9EF11F06251B5
:1023AC00605F6351615BD89063336233642FCAEF13
:1023BC0011F06551D8B4E5EF11F0E7EF11F0EBEF48
:1023CC0011F0606D611FD8B0612B60C060F061C00E
:1023DC0061F01200000E066E02BEF9EF11F0F7EF7D
:1023EC0011F0FFEF11F0016C021ED8B0022A010EA1
:1023FC00066E04BE06EF12F004EF12F00AEF12F0B4
:10240C00036C041ED8B0042A03500410D8B411EF86
:10241C0012F013EF12F037EF12F0010E056E1BEFF6
:10242C0012F0D89003360436052A04AE20EF12F0D1
:10243C0022EF12F017EF12F00350015C0450025817
:10244C00D8A02BEF12F02DEF12F031EF12F0035059
:10245C00015E0450025AD89004320332052E22EF4A
:10246C0012F00650D8B43DEF12F03FEF12F043EFEC
:10247C0012F0016C021ED8B0022A01C001F002C099
:10248C0002F0120003EC17F00009D8B450EF12F070
:10249C0052EF12F054EF12F09DEF12F00001C5292B
:1024AC0006E1C629D8A45DEF12F05FEF12F063EFDE
:1024BC0012F0000EC66F000EC56F010EC325016E23
:1024CC00000EC421026E000E046E140E036EF0ECAE
:1024DC0011F001C0C3F002C0C4F0C3C001F0C4C00D
:1024EC0002F0000E046E050E036EB0EC16F0000E3A
:1024FC000124D96E010E0220DA6E0AC0DEFF0BC079
:10250C00DEFF0CC0DEFFC3C001F0C4C002F0000E41
:10251C00046E050E036EB0EC16F0030E0124D96E9A
:10252C00010E0220DA6E0DC0DEFF0EC0DDFF1200C0
:10253C00000E0001686F000E696F000E6A6F000ECE
:10254C006B6F6451651166116711D8B4B0EF12F05E
:10255C00B2EF12F0E8EF12F0010E6C6FBCEF12F05C
:10256C00D89064376537663767376C2B67AFC1EF28
:10257C0012F0C3EF12F0B6EF12F0D890683769374B
:10258C006A376B376451605D6551615966516259A8
:10259C0067516359D8A0D5EF12F0D7EF12F0E0EFE6
:1025AC0012F06451605F6551615B6651625B67510B
:1025BC00635B6881D89067336633653364336C2F03
:1025CC00C3EF12F068C060F069C061F06AC062F0DD
:1025DC006BC063F01200000E00016F6F000E706F85
:1025EC00000E716F000E726F000E736F56EC16F0CA
:1025FC000009D8B404EF13F006EF13F011EF13F049
:10260C0020EE6FF000EE68F0040EDBCFEBFFE80677
:10261C00FCE241EF13F0C5C06DF0C6C06EF0010EC8
:10262C000001C525606F000EC621616F000E636F3F
:10263C00140E626F97EC11F060C0C5F061C0C6F06B
:10264C006DC060F06EC061F0000E0001636F050E8E
:10265C00626F9CEC16F0000E00016025D96E010E25
:10266C006121DA6E10EE6FF0040EDBCFE3FFE806AB
:10267C00FCE206EF13F0120000016C6F040E000177
:10268C006C654BEF13F04DEF13F06BEF13F08CEF19
:10269C0013F0F28AF294C30ED56E830ED66E000E32
:1026AC00B76F000EB86F000EB96F000EBA6F8CEFDB
:1026BC0013F03EEC10F09D809E90810ECD6EB10E0D
:1026CC00CF6EE00ECE6E8CEF13F06C516A6F6B6BAD
:1026DC006B51000AD8B475EF13F08CEF13F06A51FC
:1026EC00000AD8B44FEF13F0010AD8B45FEF13F01F
:1026FC00030AD8B48CEF13F0010AD8B48CEF13F0A2
:10270C00070AD8B48CEF13F08CEF13F0120006000C
:10271C00E1CF2EF0E2CF2FF0D9CF30F0DACF31F07D
:10272C00F3CF32F0F4CF33F0F2AA9FEF13F0A1EF16
:10273C0013F0B2EF13F0F2A4A6EF13F0A8EF13F01E
:10274C00B2EF13F0F294830ED66E010E0001B72790
:10275C00000EB823B923BA239DA0B7EF13F0B9EF3D
:10276C0013F0C7EF13F09EA0BEEF13F0C0EF13F001
:10277C00C7EF13F09E90B10ECF6EE00ECE6E0EEC46
:10278C0008F033C0F4FF32C0F3FF31C0DAFF30C0C1
:10279C00D9FF2FC0E2FF2EC0E1FF4B9211000001C8
:1027AC006451651166116711D8B4DFEF13F0E1EFD6
:1027BC0013F011EF14F0010E686FEBEF13F0D890DB
:1027CC006437653766376737682B67AFF0EF13F000
:1027DC00F2EF13F0E5EF13F06451605D6551615950
:1027EC006651625967516359D8A0FFEF13F001EF9E
:1027FC0014F009EF14F06451605F6551615B665130
:10280C00625B6751635BD8906733663365336433BF
:10281C00682FF2EF13F060C060F061C061F062C02D
:10282C0062F063C063F01200000E0001676F000ECF
:10283C00666F66C060F067C061F0000E636F050ED6
:10284C00626F9CEC16F0030E00016025D96E010E30
:10285C006121DA6E000EDE6E000EDD6E66C060F079
:10286C0067C061F0000E636F050E626F9CEC16F092
:10287C00000E00016025D96E010E6121DA6E000E8A
:10288C00DE6E000EDE6E000EDE6E664B672B67BFD3
:10289C0059EF14F0675109E1140E665DD8A059EF99
:1028AC0014F05BEF14F01FEF14F012000001606FD6
:1028BC0060C062F0000E0001616F60AF68EF14F051
:1028CC006AEF14F06DEF14F08B8A6EEF14F08B9AA4
:1028DC008BA873EF14F075EF14F079EF14F0D88027
:1028EC0062377CEF14F062516225626F8B8600F0C8
:1028FC0000F000F000F000F000F08B960001D89092
:10290C006037612B070E61658EEF14F090EF14F0B9
:10291C0063EF14F0120036EC17F0979C8E9C0D0EA2
:10292C000001666FFB0EE82EFED7662FFCD700D099
:10293C008E8C000EF4EC16F0010EF4EC16F0000E7A
:10294C000001636F120ED5EC16F0270E0001666FB6
:10295C00F50EE82EFED7662FFCD7320EBAEC15F02A
:10296C003C0EBAEC15F00C0EBAEC15F0010EBAECEC
:10297C0015F0060EBAEC15F01200EAEF14F0F1ECBB
:10298C0012F020EE76F0040EEBCFDBFFE806FCE253
:10299C000001765177117811D8B4D7EF14F0D9EF34
:1029AC0014F0EAEF14F079C06EF07AC06FF002D830
:1029BC00EAEF14F00500FA6E7651FD6E7751FE6E5B
:1029CC007851FF6EFA50120056EC16F00009D8B48C
:1029DC00F2EF14F0F4EF14F0C5EF14F012009E0EA9
:1029EC00F66E2E0EF76E000EF86E00EEC3F010EEC3
:1029FC0008F00900F5CFEEFFE550E150FAE101EEE9
:102A0C0064F011EE2CF0EE6AE550E150FCE1E2507E
:102A1C00FAE101EE00F0640EEE6AE806FDE100EE6C
:102A2C0093F0300EEE6AE806FDE100EE34F0170E7E
:102A3C00EE6AE806FDE14B904B92000137EF0CF08B
:102A4C00C7C0C8F0000E81B0010E0001C76FC8519D
:102A5C00C719D8A434EF15F036EF15F04AEF15F07E
:102A6C00C751D8B43CEF15F03EEF15F044EF15F01C
:102A7C00000E616F010E606F4EEF15F0000E616F6E
:102A8C00020E606F4EEF15F0000E616F000E606F5E
:102A9C001200C9C0CAF0000E80BA010E0001C96F45
:102AAC00CA51C919D8A45DEF15F05FEF15F073EF9B
:102ABC0015F0C951D8B465EF15F067EF15F06DEF4F
:102ACC0015F0000E616F010E606F77EF15F0000EC0
:102ADC00616F020E606F77EF15F0000E616F000EE4
:102AEC00606F120000016E6F030E00016E6181EFCA
:102AFC0015F083EF15F098EF15F00F0E6B6589EF5D
:102B0C0015F08BEF15F08DEF15F098EF15F06BC0FD
:102B1C0066F06E511AEC16F06CC066F06DC067F082
:102B2C00DBEC15F012000001656F060EE82EFED7E7
:102B3C0000D0800E0001636F120ED5EC16F000D0A1
:102B4C0065C063F0130ED5EC16F000D0C00E00017A
:102B5C00636F120ED5EC16F000D0000E0001636FFF
:102B6C00120ED5EC16F012000001656F060EE82E61
:102B7C00FED700D0000E0001636F120ED5EC16F0DC
:102B8C0000D065C063F0130ED5EC16F000D0400EEB
:102B9C000001636F120ED5EC16F000D0000E000190
:102BAC00636F120ED5EC16F01200EAEF15F066C04A
:102BBC00F6FF67C0F7FF000EF86E0800F55099ECB1
:102BCC0015F00001664B672B66C0F6FF67C0F7FF78
:102BDC00000EF86E0800F5500009D8A4F8EF15F0B7
:102BEC00FAEF15F0DDEF15F0120000016D6F030E1A
:102BFC0000016D6104EF16F006EF16F019EF16F0F8
:102C0C000F0E6B650CEF16F00EEF16F010EF16F0C2
:102C1C0019EF16F06BC066F06D511AEC16F000014E
:102C2C006C5199EC15F012000001676F00016751AF
:102C3C00D8B423EF16F025EF16F02DEF16F0C00EDA
:102C4C006625686F696B000E692333EF16F0800EF2
:102C5C006625686F696B000E692368C06AF06A515B
:102C6C00BAEC15F0120086C066F087C067F088C019
:102C7C0068F089C069F08AC06AF08BC06BF08CC0B8
:102C8C006CF08DC06DF08EC06EF08FC06FF090C088
:102C9C0070F091C071F092C072F067EC0AF0120003
:102CAC000001C52906E1C629D8A45FEF16F061EF33
:102CBC0016F064EF16F0000E70EF16F071EC16F0D3
:102CCC000009D8B46CEF16F06FEF16F0010E70EF30
:102CDC0016F0000E12000001C551C35D666FC6519F
:102CEC00C459676F150E6625606F000E6721616F02
:102CFC00000E636F140E626F97EC11F000016051BF
:102D0C0012000001C551C35D076EC651C459086E4F
:102D1C00150E0724016E000E0820026E000E046EC4
:102D2C00140E036EF0EC11F0015012000001605112
:102D3C006203F3CF64F0F4CF65F060516303F3509A
:102D4C00652761516203F350652764C060F065C06C
:102D5C0061F0120001500302F3CF05F0F4CF06F03E
:102D6C0001500402F350062602500302F3500626CB
:102D7C0005C001F006C002F01200000E8B6ED70EDB
:102D8C00946E0F0EC16E000E8C6E000E956E000EC2
:102D9C00896EF30E926E000E8A6E9368120000011B
:102DAC00646F8994400E5CEC14F0000164515CEC8F
:102DBC0014F0000163515CEC14F08984120053ECA4
:102DCC0017F0C3EC16F056EC17F091EC14F0000E63
:102DDC0042EC13F0010E42EC13F012000001636F91
:102DEC008994400E5CEC14F0000163515CEC14F01F
:102DFC00000E5CEC14F08984120087EC16F0096E5E
:102E0C00140E09600CEF17F00FEF17F0010E10EF16
:102E1C0017F0000E1200140E0001C019D8B419EFEF
:102E2C0017F01CEF17F0010E1DEF17F0000E12003B
:102E3C000001C051D8B425EF17F028EF17F0010EA0
:102E4C0029EF17F0000E12000001C051D8B431EF79
:102E5C0017F034EF17F0010E35EF17F0000E1200DB
:102E6C0092949488949A949689848B888B9A8B9656
:102E7C001200B7C060F0B8C061F0B9C062F0BAC05F
:102E8C0063F012000001666F00016651A3EC0EF0B6
:102E9C001200FFFFFFFF01010101700ED36E120043
:0C2EAC00F28EF28C1200C3EC14F0120045
:020000040020DA
:08000000FFFFFFFFFFFFFFFF00
:020000040030CA
:0E000000FF09191EF38381FFFFC0FFE0FF40E0
:00000001FF
