:020000040000FA
:0400000007EF00F016
:0A0008004C8294ED1AF0B7EF1BF0E4
:101000000049443A20313731303336342020202013
:1010100020004C544420636F6E74726F6C6C657268
:10102000202000486561742050756D70005368750C
:1010300074646F776E004865617465720046616E16
:10104000333A00483A00543A002C002E00000001C8
:101050008A51800B936F8A518A25956F89AF33EF40
:1010600008F035EF08F036EF08F095819551D8B4C7
:101070003CEF08F03EEF08F053EF08F09529D8A4B4
:1010800044EF08F046EF08F04EEF08F0000E876FCF
:10109000000E886F000E896F000E8A6F898F000E18
:1010A0008A6F5BEF08F0000E876F000E886F000EEE
:1010B000896F000E8A6F8E51800B946F9351941933
:1010C000D8B465EF08F067EF08F068EF08F0938D8B
:1010D0008E518E25946F8DAF70EF08F072EF08F08F
:1010E00073EF08F094819451D8B479EF08F07BEF56
:1010F00008F090EF08F09429D8A481EF08F083EF6E
:1011000008F08BEF08F0000E8B6F000E8C6F000E56
:101110008D6F000E8E6F8D8F000E8E6F98EF08F022
:10112000000E8B6F000E8C6F000E8D6F000E8E6F99
:101130009551945DD8B09FEF08F0A1EF08F0C8EF8B
:1011400008F093ADA6EF08F0A8EF08F0AAEF08F0BA
:10115000800E931B95C096F094C095F096C094F0C5
:1011600087C096F08BC087F096C08BF088C096F051
:101170008CC088F096C08CF089C096F08DC089F044
:1011800096C08DF08AC096F08EC08AF096C08EF020
:10119000000E966F955194C08FF0906B8F5F000E8C
:1011A000905B90BFDDEF08F0905109E11A0E8F5D62
:1011B000D8A0DDEF08F0DFEF08F016EF09F0875157
:1011C000881189118A11D8A4E8EF08F0EBEF08F034
:1011D000010EECEF08F0000E966F000E876F000E08
:1011E000886F000E896F000E8A6F94C095F01FEF14
:1011F00009F096A1FEEF08F000EF09F006EF09F004
:10120000D89096310109966F08EF09F0D89096337F
:1012100087A10DEF09F00FEF09F010EF09F0968F9D
:101220008A358A33893388338733952B9451955D7A
:10123000D8A01DEF09F01FEF09F0F9EF08F093BDFA
:1012400024EF09F026EF09F066EF09F09551D8A4D4
:101250002CEF09F02EEF09F038EF09F0000E876F40
:10126000000E886F000E896F000E8A6F87EF0AF0FC
:101270008B5187278C5188238D5189238E518A2346
:101280008AA145EF09F047EF09F0F3EF09F096A1C5
:101290004CEF09F04EEF09F054EF09F0D890963179
:1012A0000109966F56EF09F0D890963387A15BEF4E
:1012B00009F05DEF09F05EEF09F0968F8A358A3309
:1012C000893388338733952BF3EF09F08B51875D92
:1012D0008C5188598D5189598A51800A8F6F8E514E
:1012E000800A8F59D8B077EF09F079EF09F0A4EFB1
:1012F00009F087518B5D8F6F88518C59906F8951A0
:101300008D59916F8A518E59926FFF0E8F25876F7D
:10131000FF0E9021886FFF0E9121896FFF0E9221A1
:101320008A6F800E931B966D9651D8A49AEF09F0A0
:101330009CEF09F0ACEF09F0010E8727000E88231F
:1013400089238A23ACEF09F08B51875F8C51885B2E
:101350008D51895B8E518A5B8751881189118A1161
:10136000D8A4B5EF09F0B7EF09F0ECEF09F096510A
:10137000D8A4BDEF09F0BFEF09F0ECEF09F0000EC3
:10138000876F000E886F000E896F000E8A6F87EFDF
:101390000AF0D8908737883789378A3796AFD3EFE6
:1013A00009F0D5EF09F0D6EF09F0878196A1DBEFC0
:1013B00009F0DDEF09F0E1EF09F0D8809637E3EFAF
:1013C00009F0D89096379551D8B4E9EF09F0EBEFD2
:1013D00009F0ECEF09F0950789AFF1EF09F0F3EFB1
:1013E00009F0C9EF09F0000E946F96AFFAEF09F01B
:1013F000FCEF09F014EF0AF096C08FF07F0E8F1704
:10140000D8B405EF0AF007EF0AF00BEF0AF0010E6F
:10141000946F14EF0AF087A110EF0AF012EF0AF0B0
:1014200014EF0AF007EF0AF09451D8B41AEF0AF05B
:101430001CEF0AF047EF0AF0010E8727000E882301
:1014400089238A238AA127EF0AF029EF0AF047EFC0
:101450000AF087C08FF088C090F089C091F08AC0F0
:1014600092F092359233913390338F338FC087F05F
:1014700090C088F091C089F092C08AF09529D8B4C4
:1014800044EF0AF046EF0AF047EF0AF0952B952952
:10149000D8B44DEF0AF04FEF0AF057EF0AF095512C
:1014A000D8A455EF0AF057EF0AF069EF0AF0000EE2
:1014B000876F000E886F000E896F000E8A6F95513E
:1014C000D8A465EF0AF067EF0AF069EF0AF0000EA2
:1014D000936F95A16EEF0AF070EF0AF073EF0AF0C8
:1014E000898F74EF0AF0899FD89095318A6F93AFF6
:1014F0007CEF0AF07EEF0AF07FEF0AF08A8F87C058
:1015000087F088C088F089C089F08AC08AF012000C
:10151000690E0001C819D8A490EF0AF092EF0AF002
:10152000BEEF0CF0E0EF0CF0C8C02CF02D6A2CC020
:1015300001F02DC002F0000E046E0F0E036EEDECF4
:101540001DF06C0E0124D96E010E0220DA6EDECF82
:101550001FF0DECF20F0DDCF21F02CC001F02DC038
:1015600002F0000E046E0F0E036EEDEC1DF0710E16
:101570000124D96E010E0220DA6EDECF22F0DDCF1B
:1015800023F01FC00AF020C00BF021C00CF022C0D5
:101590000DF023C00EF04DEC19F02CC001F02DC061
:1015A00002F0000E046E0F0E036EEDEC1DF06F0ED8
:1015B0000124D96E010E0220DA6EDF500001C86FDF
:1015C0002CC001F02DC002F0000E046E0F0E036E51
:1015D000EDEC1DF0680E0124D96E010E0220DA6ECA
:1015E000DE50DE10DE10DE10D8A4F9EF0AF0FBEFBB
:1015F0000AF000EF0BF02C50F8EC12F0BEEF0CF0FC
:101600002CC001F02DC002F0000E046E0F0E036E10
:10161000EDEC1DF0680E0124D96E010E0220DA6E89
:101620002CC001F02DC002F0000E046E0F0E036EF0
:10163000EDEC1DF0640E0124E16E010E0220E26E5D
:10164000DECFE6FFDECFE6FFDECFE6FFDECFE6FF52
:101650000001C8510F0D640EF324D96E010EF42061
:10166000DA6EDECF28F0DDCF29F0690EC819D8B4C4
:101670003CEF0BF03EEF0BF06FEF0BF0690EC8196B
:10168000D8B445EF0BF047EF0BF08BEF0BF028C011
:101690000FF029C010F0000E10BEFF0E116E126E7A
:1016A0002CC001F02DC002F0000E046E0F0E036E70
:1016B000EDEC1DF0640E0124D96E010E0220DA6EED
:1016C0000F50DE5C1050DE581150DE581250DE58BC
:1016D000D8B06DEF0BF06FEF0BF08BEF0BF000015C
:1016E000C8510F6E106A2CC001F02DC002F0000E20
:1016F000046E0F0E036EEDEC1DF06F0E0124D96E1B
:10170000010E0220DA6E0FC0DEFF10C0DDFF2CC01C
:10171000C8F060EF0CF00001C8510F0D6F0EF324FC
:10172000D96E010EF420DA6EDECF2AF0DDCF2BF079
:10173000C8C026F0276AC9EF0BF02AC001F02BC001
:1017400002F0000E046E0F0E036EEDEC1DF0640E41
:101750000124D96E010E0220DA6EDE502826DD50FB
:1017600029222AC026F02BC027F02AC001F02BC066
:1017700002F0000E046E0F0E036EEDEC1DF06F0E06
:101780000124D96E010E0220DA6EDECF2AF0DDCF01
:101790002BF0690E2A182B10D8B4D1EF0BF0D3EF31
:1017A0000BF01FEF0CF02AC001F02BC002F0000E6E
:1017B000046E0F0E036EEDEC1DF0640E0124D96E65
:1017C000010E0220DA6EDECF0FF0DECF10F0DECF9A
:1017D00011F0DECF12F028C013F029C014F0000E73
:1017E00014BEFF0E156E166E0F501324176E105098
:1017F0001420186E11501520196E125016201A6EF2
:101800002CC001F02DC002F0000E046E0F0E036E0E
:10181000EDEC1DF0640E0124D96E010E0220DA6E8B
:101820001750DE5C1850DE581950DE581A50DE583A
:10183000D8B01DEF0CF01FEF0CF09DEF0BF026C0A1
:1018400001F027C002F0000E046E0F0E036EEDECE7
:101850001DF06F0E0124D96E010E0220DA6E2CC02D
:10186000DEFF2DC0DDFF2CC001F02DC002F0000E08
:10187000046E0F0E036EEDEC1DF06F0E0124D96E99
:10188000010E0220DA6E2AC0DEFF2BC0DDFF2CC065
:1018900001F02DC002F0000E046E0F0E036EEDEC91
:1018A0001DF0640E0124D96E010E0220DA6E28505C
:1018B000DE5E2950DE5A000E29BEFF0EDE5ADE5AC9
:1018C0002CC001F02DC002F0000E046E0F0E036E4E
:1018D000EDEC1DF06F0E0124D96E010E0220DA6EC0
:1018E000690EDE18DE10D8B478EF0CF07AEF0CF049
:1018F000BEEF0CF02CC001F02DC002F0000E046E03
:101900000F0E036EEDEC1DF06F0E0124D96E010E6B
:101910000220DA6EDECF24F0DDCF25F02CC001F0FE
:101920002DC002F0000E046E0F0E036EEDEC1DF0E4
:10193000640E0124D96E010E0220DA6EDECF0FF0A4
:10194000DECF10F0DECF11F0DECF12F024C001F0B8
:1019500025C002F0000E046E0F0E036EEDEC1DF0BC
:10196000640E0124D96E010E0220DA6E0F50DE5E85
:101970001050DE5A1150DE5A1250DE5A0001C85182
:101980000F0D640EF324D96E010EF420DA6EDE50D2
:10199000DE10DE10DE10D8B4D0EF0CF0D2EF0CF079
:1019A00094EF0AF0C8510F0D640EF324D96E010EA6
:1019B000F420DA6E0A0EDE5E000EDE5ADE5ADE5AC1
:1019C000120000017151800B7A6F71517125806F87
:1019D00070AFEDEF0CF0EFEF0CF0F0EF0CF080815A
:1019E0008051D8B4F6EF0CF0F8EF0CF00BEF0DF0DF
:1019F0008029D8A4FEEF0CF000EF0DF008EF0DF0F9
:101A0000000E6E6F000E6F6F000E706F000E716F24
:101A1000708F13EF0DF0000E6E6F000E6F6F000EE3
:101A2000706F000E716F7551800B7A1B75517525A3
:101A30007F6F74AF1EEF0DF020EF0DF021EF0DF072
:101A40007F817F51D8B427EF0DF029EF0DF03CEFE7
:101A50000DF07F29D8A42FEF0DF031EF0DF039EF05
:101A60000DF0000E726F000E736F000E746F000E9B
:101A7000756F748F44EF0DF0000E726F000E736F70
:101A8000000E746F000E756F7F51D8B44AEF0DF0E1
:101A90004CEF0DF054EF0DF08051D8A452EF0DF043
:101AA00054EF0DF05EEF0DF0000E6E6F000E6F6FD5
:101AB000000E706F000E716FF6EF0EF074516E0332
:101AC000F3CF85F0F4CF86F085517B6F7C6B7D6B17
:101AD0007E6B8651816F826B836B846B73516F0356
:101AE000F3CF85F0F4CF86F085517B27000E7C2361
:101AF0007D237E2386518127000E82238323842326
:101B000072517003F3CF85F0F4CF86F085517B27B7
:101B1000000E7C237D237E2386518127000E8223A5
:101B2000832384237DC07EF07CC07DF07BC07CF06D
:101B30007B6B72516F03F3CF85F0F4CF86F0855144
:101B40007B2786517C23000E7D23000E7E2373515C
:101B50006E03F3CF85F0F4CF86F085517B27865155
:101B60007C23000E7D23000E7E237DC07EF07CC092
:101B70007DF07BC07CF07B6B72516E03F3CF85F000
:101B8000F4CF86F085517B2786517C23000E7D2380
:101B9000000E7E2374516F03F3CF85F0F4CF86F0EF
:101BA0008551812786518223000E8323000E8423D2
:101BB00073517003F3CF85F0F4CF86F08551812700
:101BC00086518223000E8323000E842374517003F8
:101BD000F3CF85F0F4CF86F08551766F8651776F1D
:101BE000786B796B78C079F077C078F076C077F051
:101BF000766B7651812777518223785183237951EF
:101C000084237BC076F07CC077F07DC078F07EC006
:101C100079F0190E11EF0EF0D890793378337733CD
:101C20007633E82E0CEF0EF0765181277751822320
:101C300078518323795184237DC07EF07CC07DF070
:101C40007BC07CF07B6B7F5180C076F0776B762712
:101C5000000E7723820E7625856FFF0E7721866F23
:101C600047EF0EF0D89081378237833784377EAFC5
:101C70003CEF0EF03EEF0EF03FEF0EF08181D8907A
:101C80007B377C377D377E378507D8A0860783AFC3
:101C90004CEF0EF04EEF0EF032EF0EF0000E7F6FB5
:101CA0007EAF55EF0EF057EF0EF07BEF0EF0FF0E0C
:101CB0007B15766FFF0E7C15776FFF0E7D15786FA5
:101CC0007F0E7E15796F7651771178117911D8B41E
:101CD0006CEF0EF06EEF0EF072EF0EF0010E7F6FF4
:101CE0007BEF0EF081A177EF0EF079EF0EF07BEF36
:101CF0000EF06EEF0EF07F51D8B481EF0EF083EF4F
:101D00000EF0A7EF0EF0010E8127000E8223832331
:101D1000842384A18EEF0EF090EF0EF0A7EF0EF06B
:101D200081C076F082C077F083C078F084C079F00B
:101D30007935793378337733763376C081F077C06D
:101D400082F078C083F079C084F0854B862B86BF03
:101D5000B2EF0EF0865108E18529D8A0B2EF0EF05F
:101D6000B4EF0EF0BEEF0EF0000E816F000E826F2A
:101D7000800E836F7F0E846FECEF0EF086BFCBEF8B
:101D80000EF0865106E18505D8B0C9EF0EF0CBEF15
:101D90000EF0D7EF0EF0000E816F000E826F000E76
:101DA000836F000E846F000E7A6FECEF0EF085C02B
:101DB00080F0FF0E8117FF0E82177F0E8317000E33
:101DC000841780A1E6EF0EF0E8EF0EF0E9EF0EF0D9
:101DD000838FD8908031846F7A51841381C06EF0E4
:101DE00082C06FF083C070F084C071F0120050ECBC
:101DF0001EF00009D8B4FFEF0EF001EF0FF004EF72
:101E00000FF06D0EC6EF10F0000E0001856F8551CA
:101E10000F0D6C0EF324D96E010EF420DA6EDE5035
:101E2000DE10DE10D8A417EF0FF019EF0FF01BEF44
:101E30000FF024EF0FF0852B130E856522EF0FF0C6
:101E400024EF0FF007EF0FF0140E8519D8A42BEF35
:101E50000FF02DEF0FF02FEF0FF001EF0FF0855186
:101E60000F0D640EF324D96E010EF420DA6E6AC0F1
:101E7000DEFF6BC0DEFF6CC0DEFF6DC0DEFF855194
:101E80000F0D680EF324D96E010EF420DA6E66C0D1
:101E9000DEFF67C0DEFF68C0DEFF69C0DEFF855180
:101EA0000F0D6C0EF324D96E010EF420DA6E6EC0A5
:101EB000DEFF6FC0DEFF70C0DEFF85510F0D710EBB
:101EC000F324D96E010EF420DA6E71C0DEFF72C009
:101ED000DDFFC92BC8510F0D640EF324D96E010E1E
:101EE000F420DA6EDECF81F0DDCF82F0690EC81902
:101EF000D8B47DEF0FF07FEF0FF0A0EF0FF0690E79
:101F0000C819D8B486EF0FF088EF0FF0B3EF0FF0D9
:101F100081C073F082C074F0000E74BFFF0E756F45
:101F2000766F73516A5D74516B5975516C59765166
:101F30006D59D8B09EEF0FF0A0EF0FF0B3EF0FF098
:101F4000C851736F746B85510F0D6F0EF324D96EEA
:101F5000010EF420DA6E73C0DEFF74C0DDFF85C0B1
:101F6000C8F082EF10F0C8510F0D6F0EF324D96E38
:101F7000010EF420DA6EDECF83F0DDCF84F0C8C02E
:101F80007FF0806BF2EF0FF083C060F084C061F0EF
:101F9000000E636F0F0E626FD9EC1DF0640E00012E
:101FA0006025D96E010E6121DA6EDE508127DD5089
:101FB000822383C07FF084C080F083C060F084C03F
:101FC00061F0000E636F0F0E626FD9EC1DF06F0EA3
:101FD00000016025D96E010E6121DA6EDECF83F03B
:101FE000DDCF84F0690E83198411D8B4FAEF0FF0B5
:101FF000FCEF0FF039EF10F083C060F084C061F0A7
:10200000000E636F0F0E626FD9EC1DF0640E0001BD
:102010006025D96E010E6121DA6EDECF73F0DECF5E
:1020200074F0DECF75F0DECF76F081C077F082C03D
:1020300078F0000E78BFFF0E796F7A6F73517725B5
:102040007B6F745178217C6F755179217D6F76514A
:102050007A217E6F7B516A5D7C516B597D516C5941
:102060007E516D59D8B037EF10F039EF10F0C4EF52
:102070000FF08551736F746B7FC060F080C061F0AA
:10208000000E636F0F0E626FD9EC1DF06F0E000132
:102090006025D96E010E6121DA6E73C0DEFF74C057
:1020A000DDFF85510F0D6F0EF324D96E010EF42064
:1020B000DA6E83C0DEFF84C0DDFF81C073F082C0B2
:1020C00074F0000E74BFFF0E756F766F73516A5D0A
:1020D000776F74516B59786F75516C59796F765170
:1020E0006D597A6F85510F0D640EF324D96E010E70
:1020F000F420DA6E77C0DEFF78C0DEFF79C0DEFF45
:102100007AC0DEFF85510F0D6F0EF324D96E010EDC
:10211000F420DA6E690EDE18DE10D8B492EF10F0FB
:1021200094EF10F0C5EF10F085510F0D640EF324FD
:10213000D96E010EF420DA6EDECF73F0DECF74F0CC
:10214000DECF75F0DECF76F085510F0D6F0EF324E4
:10215000D96E010EF420DA6EDECF60F0DDCF61F0D3
:10216000000E636F0F0E626FD9EC1DF0640E00015C
:102170006025D96E010E6121DA6E7351DE5E7451F5
:10218000DE5A7551DE5A7651DE5A85511200000E24
:1021900000016B6F460E6C6F100E6D6F010E5EECE2
:1021A0001CF0080E00016B6F430E6C6F100E6D6F0C
:1021B000010E5EEC1CF0CDC060F0CEC061F0CFC06F
:1021C00062F0D0C063F0000E0001646F800E656F96
:1021D000C70E666F430E676FF7EC18F00001D8B0BA
:1021E000F4EF10F0F6EF10F012EF11F0CDC06EF03A
:1021F000CEC06FF0CFC070F0D0C071F0000E726F23
:10220000000E736F200E746F410E756FE1EC0CF0D1
:102210006EC087F06FC088F070C089F071C08AF01E
:102220001AEF11F0000E876F000E886F000E896F95
:10223000000E8A6F87C060F088C061F089C062F0CC
:102240008AC063F02AEC16F060C08FF061C090F095
:10225000D1C060F0D2C061F0D3C062F0D4C063F0EE
:10226000000E0001646F800E656FC70E666F430E2F
:10227000676FF7EC18F00001D8B041EF11F043EFB1
:1022800011F05FEF11F0D1C06EF0D2C06FF0D3C08B
:1022900070F0D4C071F0000E726F000E736F200EDC
:1022A000746F410E756FE1EC0CF06EC08BF06FC077
:1022B0008CF070C08DF071C08EF067EF11F0000EE1
:1022C0008B6F000E8C6F000E8D6F000E8E6F8BC0AB
:1022D00060F08CC061F08DC062F08EC063F02AECBB
:1022E00016F060C091F061C092F0020E00016B6FB9
:1022F0008FC060F090C061F0000E636F640E626F7B
:102300008CEC17F000016051300F6C6F010E21EC66
:102310001DF08FC060F090C061F0000E0001636F8F
:102320000A0E626F8CEC17F060C08FF061C090F005
:10233000030E00016B6F490E6C6F010E21EC1DF056
:10234000040E00016B6F8FC060F090C061F0000E52
:10235000636F0A0E626F8CEC17F000016051300F52
:102360006C6F010E21EC1DF0050E00016B6F8FC02C
:1023700060F090C061F0000E636F0A0E626FEFECC8
:1023800017F000016051300F6C6F010E21EC1DF051
:10239000020E00016B6F91C060F092C061F0000E00
:1023A000636F640E626F8CEC17F000016051300FA8
:1023B0006C6F010E21EC1DF091C060F092C061F0D5
:1023C000000E0001636F0A0E626F8CEC17F060C0A4
:1023D00091F061C092F0030E00016B6F4B0E6C6FB9
:1023E000010E21EC1DF0040E00016B6F91C060F036
:1023F00092C061F0000E636F0A0E626F8CEC17F0F2
:1024000000016051300F6C6F010E21EC1DF0050EC4
:1024100000016B6F91C060F092C061F0000E636FBD
:102420000A0E626FEFEC17F000016051300F6C6F15
:10243000010E21EC1DF012000001686F00016851CF
:10244000D8B425EF12F027EF12F049EF12F063BF76
:102450002EEF12F02CEF12F049EF12F060C064F092
:1024600061C065F062C066F063C067F0641F651FFD
:10247000661F671F642B000E65236623672364C0F5
:102480006AF065C06BF066C06CF067C06DF051EF2C
:1024900012F060C06AF061C06BF062C06CF063C0A3
:1024A0006DF06051611162116311D8A45AEF12F0FE
:1024B0005CEF12F066EF12F0000E606F000E616FBD
:1024C000000E626F000E636FF7EF12F0960E696FE9
:1024D00070EF12F0692BD8906D336C336B336A3325
:1024E000000E6A15646F000E6B15656F000E6C159B
:1024F000666FFE0E6D15676F645165116611671189
:10250000D8A485EF12F087EF12F06AEF12F095EF82
:1025100012F0692B010E6A27000E6B236C236D23CA
:10252000D8906D336C336B336A33000E6A15646F69
:10253000000E6B15656F000E6C15666FFF0E6D1546
:10254000676F6451651166116711D8A4AAEF12F084
:10255000ACEF12F089EF12F0B4EF12F06907D890E7
:102560006A376B376C376D376CBFB9EF12F0BBEF62
:1025700012F0C3EF12F0020E6961C1EF12F0C3EF67
:1025800012F0AEEF12F069B1C8EF12F0CAEF12F01C
:10259000CBEF12F06C9FD890693369C064F0656B23
:1025A000666B676B64C067F0666B656B646B6451E8
:1025B0006A1365516B1366516C1367516D13685143
:1025C000D8B4E5EF12F0E7EF12F0EFEF12F063BFCF
:1025D000EEEF12F0ECEF12F0EFEF12F06D8F6AC039
:1025E00060F06BC061F06CC062F06DC063F012000F
:1025F000066E5DEC1EF00009D8A401EF13F003EFA6
:1026000013F015EF13F006500F0D6C0EF324D96E76
:10261000010EF420DA6EDE50DE10DE10D8A413EFC7
:1026200013F015EF13F018EF13F0000EC5EF13F0D1
:1026300006500F0D640EF324D96E010EF420DA6EED
:10264000DE6ADE6ADE6ADD6A06500F0D680EF3246C
:10265000D96E010EF420DA6EDE6ADE6ADE6ADD6AA9
:1026600006500F0D6C0EF324D96E010EF420DA6EB5
:10267000000EDE6E000EDE6E000EDE6E06500F0DDA
:10268000710EF324D96E010EF420DA6E000EDE6EA8
:10269000000EDD6E0001C907C8510618D8A453EF1B
:1026A00013F055EF13F06DEF13F006500F0D6F0E92
:1026B000F324D96E010EF420DA6EDF50C86F065095
:1026C0000F0D6F0EF324D96E010EF420DA6E690E31
:1026D000DE6E000EDD6EC4EF13F0C8C005F07BEFB8
:1026E00013F005500F0D6F0EF324D96E010EF42078
:1026F000DA6EDF50056E05500F0D6F0EF324D96EA4
:10270000010EF420DA6E690EDE18DE10D8B48BEFFD
:1027100013F08DEF13F0A4EF13F005500F0D6F0EB3
:10272000F324D96E010EF420DA6E0650036E046AAB
:10273000DE50031807E1DE500418D8A4A2EF13F00E
:10274000A4EF13F071EF13F006500F0D6F0EF3248A
:10275000D96E010EF420DA6E05500F0D6F0EF324C2
:10276000E16E010EF420E26EDECFE6FFDDCFE5FF85
:1027700006500F0D6F0EF324D96E010EF420DA6EA1
:10278000690EDE6E000EDD6E010E120051EF14F0C8
:10279000CC51D8B4CEEF13F0D0EF13F06FEF14F0AC
:1027A000000ECC6F010ECA6F94EC1EF0000E0001FB
:1027B000616F010E606FE1EC1CF0000E00016B6FA9
:1027C000360E6C6F100E6D6F000E5EEC1CF072EC2E
:1027D0001EF060C0B9F061C0BAF062C0BBF063C067
:1027E000BCF06FEF14F0C751D8B4F9EF13F0FBEF62
:1027F00013F06FEF14F0000EC76F000E6B6F230E17
:102800006C6F100E6D6F000E5EEC1CF0020E00017E
:10281000CA6F72EC1EF060C0B9F061C0BAF062C05D
:10282000BBF063C0BCF098EC1EF096EC1EF0000EFE
:102830000001616F020E606FE1EC1CF06FEF14F0AD
:10284000C751D8B426EF14F028EF14F06FEF14F04E
:10285000000EC76F000E6B6F360E6C6F100E6D6F33
:10286000000E5EEC1CF072EC1EF060C0B9F061C0AE
:10287000BAF062C0BBF063C0BCF0010E0001CA6FC9
:102880009AEC1EF094EC1EF0000E0001616F010E38
:10289000606FE1EC1CF06FEF14F09CEC1EF06FEF3A
:1028A00014F00001CA516F6F706B7051000AD8B4F8
:1028B0005CEF14F06FEF14F06F51000AD8B4C8EF5A
:1028C00013F0010AD8B4F3EF13F0030AD8B420EFE1
:1028D00014F0010AD8B44DEF14F06FEF14F01200A9
:1028E00022EC17F00009D8A478EF14F07AEF14F076
:1028F0008DEF14F0000E0001CD6F800ECE6FC70E6D
:10290000CF6F430ED06F000ED16F800ED26FC70E07
:10291000D36F430ED46F0AEF15F00001C351606FFF
:10292000616B626B636B000E1CEC12F060C0CDF04B
:1029300061C0CEF062C0CFF063C0D0F00001C4AF80
:10294000A4EF14F0A6EF14F0C0EF14F0000E976F90
:10295000000E986F800E996FBF0E9A6FCDC09BF0DE
:10296000CEC09CF0CFC09DF0D0C09EF03AEC1CF0E1
:1029700097C0CDF098C0CEF099C0CFF09AC0D0F0FB
:10298000CDC087F0CEC088F0CFC089F0D0C08AF02B
:10299000CD0E0001726FCC0E736FCC0E746F3D0EB6
:1029A000756FC6C09FF00F0E9F179F51606F616BD0
:1029B000626B636B010E1CEC12F060C06EF061C0C4
:1029C0006FF062C070F063C071F0E1EC0CF06EC0AB
:1029D0008BF06FC08CF070C08DF071C08EF027EC62
:1029E00008F087C0CDF088C0CEF089C0CFF08AC093
:1029F000D0F00001C151606F616B626B636B000EC0
:102A00001CEC12F060C0D1F061C0D2F062C0D3F013
:102A100063C0D4F01200640E0001866F000E876F51
:102A2000000E886F000E896FE80E8A6F030E8B6FA1
:102A3000000E8C6F000E8D6F5C0E8E6F2D0E8F6FE3
:102A4000000E906F000E916F000E926F5FEC1DF004
:102A50000001A56F880E866F130E876F000E886FBA
:102A6000000E896FE80E8A6F030E8B6F000E8C6F5D
:102A7000000E8D6FE00E8E6F280E8F6F000E906F20
:102A8000000E916F000E926F5FEC1DF00001A66FBB
:102A9000880E866F130E876F000E886F000E896F89
:102AA000000E8A6F000E8B6F000E8C6F000E8D6F04
:102AB000400E8E6F310E8F6F000E906F000E916F73
:102AC000000E926F5FEC1DF00001A76F100E866F75
:102AD000270E876F000E886F000E896F100E8A6FA9
:102AE000270E8B6F000E8C6F000E8D6F2E0E8E6F6B
:102AF0003B0E8F6F000E906F000E916F000E926F65
:102B00005FEC1DF00001A86F100E866F270E876F17
:102B1000000E886F000E896FB80E8A6F0B0E8B6FD8
:102B2000000E8C6F000E8D6F8E0E8E6F210E8F6FCC
:102B3000000E906F000E916F000E926F5FEC1DF013
:102B40000001A96F1200DCEC1AF0000E0001696FA1
:102B5000000E686F68C060F069C061F0000E636FBE
:102B60000F0E626FD9EC1DF0640E00016025D96E66
:102B7000010E6121DA6EDE6ADE6ADE6ADD6A68C035
:102B800060F069C061F0000E636F0F0E626FD9ECE8
:102B90001DF0680E00016025D96E010E6121DA6E0C
:102BA000DE6ADE6ADE6ADD6A68C060F069C061F014
:102BB000000E636F0F0E626FD9EC1DF06C0E0001FA
:102BC0006025D96E010E6121DA6E000EDE6E000EF8
:102BD000DE6E000EDE6E68C060F069C061F0000E4F
:102BE000636F0F0E626FD9EC1DF0710E000160254E
:102BF000D96E010E6121DA6E000EDE6E000EDD6E02
:102C000068C060F069C061F0000E636F0F0E626F04
:102C1000D9EC1DF06F0E00016025D96E010E612107
:102C2000DA6E690EDE6E000EDD6E684B692B69BFD1
:102C300023EF16F0695109E1140E685DD8A023EF67
:102C400016F025EF16F0AAEF15F0000EC96F690E09
:102C5000C86F1200000162356335696F6951D8A4ED
:102C600034EF16F036EF16F040EF16F0000E606FFE
:102C7000000E616F000E626F000E636FADEF16F015
:102C800060C064F061C065F062C066F063C067F068
:102C9000200E50EF16F0D8906733663365336433F7
:102CA000E82E4BEF16F06451686F628FFF0E6017CD
:102CB000FF0E6117FF0E6217000E6317960E695F15
:102CC00069BF67EF16F065EF16F07DEF16F06951FA
:102CD000800A970FD8B06FEF16F071EF16F073EF10
:102CE00016F036EF16F0D8906333623361336033F9
:102CF000693F73EF16F095EF16F01F0E696583EFCD
:102D000016F085EF16F08DEF16F036EF16F0D8902E
:102D1000603761376237633769076951D8A493EF29
:102D200016F095EF16F087EF16F06851D8B49BEFC8
:102D300016F09DEF16F0A5EF16F0631F621F611FDE
:102D4000606D000E61236223632360C060F061C088
:102D500061F062C062F063C063F0120011EC1CF01D
:102D600060C066F061C067F0E8EC1BF060C068F01E
:102D700061C069F0D9EF16F0020E66196711D8A488
:102D8000C4EF16F0C6EF16F00CEF17F0010EC66F89
:102D9000010ECC6F0CEF17F066056711D8A4D3EFC6
:102DA00016F0D5EF16F00CEF17F0000EC66F0CEF13
:102DB00017F00001C651646F656B6551000AD8B405
:102DC000E4EF16F00CEF17F06451000AD8B4BCEF32
:102DD00016F0010AD8B4CCEF16F00CEF17F0020E83
:102DE00068196911D8A4F7EF16F0F9EF16F021EF82
:102DF00017F0010EC56F010ECB6F21EF17F06805BC
:102E00006911D8A406EF17F008EF17F021EF17F0BB
:102E1000000EC56F21EF17F0C551646F656B6551EA
:102E2000000AD8B416EF17F021EF17F06451000A2A
:102E3000D8B4EFEF16F0010AD8B4FFEF16F021EF87
:102E400017F0120000016669676994968B86340E4C
:102E50000001646FF10EE82EFED7642FFCD700D07E
:102E60008B96280EE82EFED7948647EF17F00001C8
:102E70006607D8A0670766516711D8A442EF17F01C
:102E800044EF17F047EF17F0000E8BEF17F082A614
:102E90004CEF17F04EEF17F037EF17F000016669AF
:102EA000676961EF17F06607D8A067076651671179
:102EB000D8A45DEF17F05FEF17F061EF17F044EF64
:102EC00017F082B666EF17F068EF17F053EF17F0C0
:102ED000A3EC19F00001C16FA3EC19F00001C26F5F
:102EE000A3EC19F00001C36FA3EC19F00001C46F4B
:102EF000A3EC19F00001656FC251C425C125C3259B
:102F00006519D8B486EF17F088EF17F08AEF17F03D
:102F100044EF17F0010E1200000E0001656F63BF51
:102F200096EF17F094EF17F09CEF17F0626D631FA8
:102F3000D8B0632B010E656F61BFA3EF17F0A1EF4F
:102F400017F0A9EF17F0606D611FD8B0612B010E6B
:102F5000651B000E676F000E666F62516311D8B477
:102F6000B4EF17F0B6EF17F0DEEF17F0010E646F55
:102F7000BEEF17F0D89062376337642B63AFC3EFAF
:102F800017F0C5EF17F0BAEF17F0D890663767372C
:102F90006251605D63516159D8A0D1EF17F0D3EF52
:102FA00017F0D8EF17F06251605F6351615B668183
:102FB000D89063336233642FC5EF17F06551D8B4EE
:102FC000E4EF17F0E6EF17F0EAEF17F0666D671F12
:102FD000D8B0672B66C060F067C061F01200000EC9
:102FE0000001656F61BFF9EF17F0F7EF17F0FFEF22
:102FF00017F0606D611FD8B0612B010E656F63BF64
:1030000006EF18F004EF18F00AEF18F0626D631F76
:10301000D8B0632B62516311D8B411EF18F013EFDD
:1030200018F037EF18F0010E646F1BEF18F0D8900E
:1030300062376337642B63AF20EF18F022EF18F08C
:1030400017EF18F06251605D63516159D8A02BEF02
:1030500018F02DEF18F031EF18F06251605F6351F6
:10306000615BD89063336233642F22EF18F06551AF
:10307000D8B43DEF18F03FEF18F043EF18F0606D53
:10308000611FD8B0612B60C060F061C061F01200B8
:10309000000E066E02BE51EF18F04FEF18F057EF1A
:1030A00018F0016C021ED8B0022A010E066E04BE92
:1030B0005EEF18F05CEF18F062EF18F0036C041E7E
:1030C000D8B0042A03500410D8B469EF18F06BEF9D
:1030D00018F08FEF18F0010E056E73EF18F0D8900E
:1030E00003360436052A04AE78EF18F07AEF18F0AC
:1030F0006FEF18F00350015C04500258D8A083EF22
:1031000018F085EF18F089EF18F00350015E0450B5
:10311000025AD89004320332052E7AEF18F0065086
:10312000D8B495EF18F097EF18F09BEF18F0016CFA
:10313000021ED8B0022A01C001F002C002F0120043
:103140000001CA05D8B4A7EF18F0A9EF18F0B2EF44
:1031500018F0020ECA19D8A4B0EF18F0B2EF18F0A8
:10316000F6EF18F0D1C060F0D2C061F0D3C062F0C9
:10317000D4C063F02AEC16F060C06FF061C070F04C
:103180006FC060F070C061F07BEC1EF0080E0001B3
:103190006B6F3D0E6C6F100E6D6F000E5EEC1CF0D1
:1031A0000D0E00016B6F6FC060F070C061F0000E1B
:1031B000636F0A0E626F8CEC17F0000160516C6F48
:1031C000000E21EC1DF00E0E00016B6F6FC060F061
:1031D00070C061F0000E636F0A0E626FEFEC17F0C3
:1031E000000160516C6F000E21EC1DF01200000E0A
:1031F00000016015686F000E6115696F800E621521
:103200006A6F7F0E63156B6F685169116A116B11DC
:10321000D8A40DEF19F00FEF19F017EF19F0000E09
:10322000606F000E616F000E626F000E636F000E24
:103230006415686F000E6515696F800E66156A6FFC
:103240007F0E67156B6F685169116A116B11D8A4F5
:103250002CEF19F02EEF19F036EF19F0000E646F15
:10326000000E656F000E666F000E676F6451601987
:103270000FE1655161190CE16651621909E167516D
:103280006319D8B446EF19F048EF19F04BEF19F075
:10329000D8904CEF19F0D880120042EC1EF00009D3
:1032A000D8B455EF19F057EF19F059EF19F0A2EF14
:1032B00019F00001D72906E1D829D8A462EF19F046
:1032C00064EF19F068EF19F0000ED86F000ED76F99
:1032D000010ED525016E000ED621026E000E046E81
:1032E000140E036E48EC18F001C0D5F002C0D6F001
:1032F000D5C001F0D6C002F0000E046E050E036EBC
:10330000EDEC1DF0000E0124D96E010E0220DA6EE4
:103310000AC0DEFF0BC0DEFF0CC0DEFFD5C001F02F
:10332000D6C002F0000E046E050E036EEDEC1DF02B
:10333000030E0124D96E010E0220DA6E0DC0DEFFED
:103340000EC0DDFF1200000E0001606F400E636FC3
:1033500061696269BBEF19F06107D8A0620761512A
:103360006211D8A4B6EF19F0B8EF19F0BBEF19F05D
:10337000000EF7EF19F082A6C0EF19F0C2EF19F0B6
:10338000ACEF19F01A0EE82EFED700D082A6CBEFD4
:1033900019F0CDEF19F0EAEF19F000016051631157
:1033A000606F61696269E3EF19F06107D8A0620795
:1033B00061516211D8A4DFEF19F0E1EF19F0E3EFEA
:1033C00019F0B8EF19F082B6E8EF19F0EAEF19F04A
:1033D000D5EF19F00001D8906331636F6351D8A421
:1033E000F4EF19F0F6EF19F0A8EF19F060511200A0
:1033F000000E00016F6F000E706F000E716F000EF7
:10340000726F000E736F7CEC1DF00009D8B40BEFE7
:103410001AF00DEF1AF018EF1AF020EE6FF000EE30
:1034200068F0040EDBCFEBFFE806FCE248EF1AF091
:10343000D7C06DF0D8C06EF0010E0001D725606FC7
:10344000000ED821616F000E636F140E626FEFECF7
:1034500017F060C0D7F061C0D8F06DC060F06EC0EA
:1034600061F0000E0001636F050E626FD9EC1DF074
:10347000000E00016025D96E010E6121DA6E10EE9A
:103480006FF0040EDBCFE3FFE806FCE20DEF1AF06D
:10349000120000016C6F040E00016C6552EF1AF00F
:1034A00054EF1AF072EF1AF093EF1AF0F28AF294D6
:1034B000C30ED56E830ED66E000EBD6F000EBE6FAE
:1034C000000EBF6F000EC06F93EF1AF0A3EC15F063
:1034D0009D809E90810ECD6EB10ECF6EE00ECE6EB1
:1034E00093EF1AF06C516A6F6B6B6B51000AD8B492
:1034F0007CEF1AF093EF1AF06A51000AD8B456EF35
:103500001AF0010AD8B466EF1AF0030AD8B493EFA0
:103510001AF0010AD8B493EF1AF0070AD8B493EF5F
:103520001AF093EF1AF012000600E1CF2EF0E2CF6E
:103530002FF0D9CF30F0DACF31F0F3CF32F0F4CF33
:1035400033F0F2AAA6EF1AF0A8EF1AF0B9EF1AF0CA
:10355000F2A4ADEF1AF0AFEF1AF0B9EF1AF0F2944F
:10356000830ED66E010E0001BD27000EBE23BF23C1
:10357000C0239DA0BEEF1AF0C0EF1AF0CEEF1AF0F4
:103580009EA0C5EF1AF0C7EF1AF0CEEF1AF09E908A
:10359000B10ECF6EE00ECE6E88EC0AF033C0F4FFB1
:1035A00032C0F3FF31C0DAFF30C0D9FF2FC0E2FFD5
:1035B0002EC0E1FF4C921100000E0001676F000E5B
:1035C000666F66C060F067C061F0000E636F050E45
:1035D000626FD9EC1DF0030E00016025D96E010E5B
:1035E0006121DA6E000EDE6E000EDD6E66C060F0E8
:1035F00067C061F0000E636F050E626FD9EC1DF0BD
:10360000000E00016025D96E010E6121DA6E000EF8
:10361000DE6E000EDE6E000EDE6E664B672B67BF41
:103620001BEF1BF0675109E1140E665DD8A01BEF7C
:103630001BF01DEF1BF0E1EF1AF012000001606FAC
:1036400060C062F0000E0001616F60AF2AEF1BF0F6
:103650002CEF1BF02FEF1BF08B8A30EF1BF08B9AB7
:103660008BA835EF1BF037EF1BF03BEF1BF0D8803A
:1036700062373EEF1BF062516225626F8B8600F06D
:1036800000F000F000F000F000F08B960001D89000
:103690006037612B070E616550EF1BF052EF1BF096
:1036A00025EF1BF0120069EC1EF0979C8E9C0D0E0E
:1036B0000001666FFB0EE82EFED7662FFCD700D008
:1036C0008E8C000E33EC1EF0010E33EC1EF0000E5B
:1036D0000001636F120E23EC1EF0270E0001666FCF
:1036E000F50EE82EFED7662FFCD7320EA0EC1CF0AC
:1036F0003C0EA0EC1CF00C0EA0EC1CF0010EA0EC9B
:103700001CF0060EA0EC1CF01200ACEF1BF0F8EC65
:1037100019F020EEA0F0040EEBCFDBFFE806FCE290
:103720000001A051A111A211D8B499EF1BF09BEF99
:103730001BF0ACEF1BF0A3C062F0A4C063F002D892
:10374000ACEF1BF00500FA6EA051FD6EA151FE6EAC
:10375000A251FF6EFA5012007CEC1DF00009D8B4A3
:10376000B4EF1BF0B6EF1BF087EF1BF01200020E58
:10377000F66E3D0EF76E000EF86E00EED5F010EE10
:103780000AF00900F5CFEEFFE550E150FAE101EE55
:1037900064F011EE2CF0EE6AE550E150FCE1E250ED
:1037A000FAE101EE00F0640EEE6AE806FDE100EEDB
:1037B000A5F0300EEE6AE806FDE100EE34F0180EDA
:1037C000EE6AE806FDE14C904C920001C1EF1CF05E
:1037D000DBC0DCF0000E81B0010E0001DB6FDC51BC
:1037E000DB19D8A4F6EF1BF0F8EF1BF00CEF1CF080
:1037F000DB51D8B4FEEF1BF000EF1CF006EF1CF01D
:10380000000E616F010E606F10EF1CF0000E616F13
:10381000020E606F10EF1CF0000E616F000E606F03
:103820001200DDC0DEF0000E80BA010E0001DD6F77
:10383000DE51DD19D8A41FEF1CF021EF1CF035EF8D
:103840001CF0DD51D8B427EF1CF029EF1CF02FEF4E
:103850001CF0000E616F010E606F39EF1CF0000E5E
:10386000616F020E606F39EF1CF0000E616F000E89
:10387000606F1200000E00019B1B000E9C1B000ECF
:103880009D1B800E9E1B97C087F098C088F099C042
:1038900089F09AC08AF09BC08BF09CC08CF09DC0D0
:1038A0008DF09EC08EF027EC08F087C097F088C09E
:1038B00098F089C099F08AC09AF0120000016E6FEA
:1038C000030E00016E6167EF1CF069EF1CF07EEFE4
:1038D0001CF00F0E6B656FEF1CF071EF1CF073EFB7
:1038E0001CF07EEF1CF06BC066F06E5140EC1DF0DA
:1038F0006CC066F06DC067F001EC1DF012000001B5
:10390000656F060EE82EFED700D0800E0001636FB3
:10391000120E23EC1EF000D065C063F0130E23ECF2
:103920001EF000D0C00E0001636F120E23EC1EF0DB
:1039300000D0000E0001636F120E23EC1EF0120087
:103940000001656F060EE82EFED700D0000E0001C4
:10395000636F120E23EC1EF000D065C063F0130EEF
:1039600023EC1EF000D0400E0001636F120E23EC1A
:103970001EF000D0000E0001636F120E23EC1EF04B
:10398000120012EC1EF00BEC15F0000E00016B6F34
:10399000120E6C6F100E6D6F000E5EEC1CF0000EC0
:1039A00000016B6F010E6C6F100E6D6F010E5EECFF
:1039B0001CF091EC1EF0C6EC13F0D9EF1CF007EFF1
:1039C00000F0E9EF1CF08C8E00EF1DF08C8C00EF06
:1039D0001DF060C062F061C063F000016351000A35
:1039E000D8B4F5EF1CF000EF1DF06251010AD8B415
:1039F000E3EF1CF0030AD8B4E6EF1CF000EF1DF073
:103A0000120010EF1DF066C0F6FF67C0F7FF000E52
:103A1000F86E0800F5507FEC1CF00001664B672B38
:103A200066C0F6FF67C0F7FF000EF86E0800F5509D
:103A30000009D8A41EEF1DF020EF1DF003EF1DF0CC
:103A4000120000016D6F030E00016D612AEF1DF081
:103A50002CEF1DF03FEF1DF00F0E6B6532EF1DF0E8
:103A600034EF1DF036EF1DF03FEF1DF06BC066F038
:103A70006D5140EC1DF000016C517FEC1CF0120008
:103A80000001676F00016751D8B449EF1DF04BEF9B
:103A90001DF053EF1DF0C00E6625686F696B000EB8
:103AA000692359EF1DF0800E6625686F696B000E63
:103AB000692368C06AF06A51A0EC1CF0120086C04D
:103AC00066F087C067F088C068F089C069F08AC076
:103AD0006AF08BC06BF08CC06CF08DC06DF08EC046
:103AE0006EF08FC06FF090C070F091C071F092C016
:103AF00072F0F7EC0EF012000001D72906E1D82988
:103B0000D8A485EF1DF087EF1DF08AEF1DF0000EA1
:103B100096EF1DF0AEEC1DF00009D8B492EF1DF049
:103B200095EF1DF0010E96EF1DF0000E1200000142
:103B3000CA05D8A49EEF1DF0A0EF1DF0ADEF1DF05B
:103B4000020ECA19D8B4A7EF1DF0A9EF1DF0ABEF14
:103B50001DF0ADEF1DF0010EC76F12000001D7512F
:103B6000D55D666FD851D659676F150E6625606FA3
:103B7000000E6721616F000E636F140E626FEFEC31
:103B800017F00001605112000001D751D55D076E9A
:103B9000D851D659086E150E0724016E000E082064
:103BA000026E000E046E140E036E48EC18F0015005
:103BB0001200000160516203F3CF64F0F4CF65F0AE
:103BC00060516303F350652761516203F350652729
:103BD00064C060F065C061F0120001500302F3CFD1
:103BE00005F0F4CF06F001500402F350062602500F
:103BF0000302F350062605C001F006C002F01200D1
:103C0000000E8B6ED70E946E0F0EC16E000E896E75
:103C1000F30E926E000E8A6E9368000E8C6E000E8C
:103C2000956E12008BEC1EF000EC1EF08EEC1EF078
:103C300086EC1EF053EC1BF0000E49EC1AF0010E5E
:103C400049EC1AF012000001646F8994400E1EECDA
:103C50001BF0000164511EEC1BF0000163511EECCF
:103C60001BF0898412000001636F8994400E1EECE2
:103C70001BF0000163511EEC1BF0000E1EEC1BF04C
:103C800089841200C4EC1DF0096E140E09604BEF1C
:103C90001EF04EEF1EF0010E4FEF1EF0000E120050
:103CA000140E0001C919D8B458EF1EF05BEF1EF0D6
:103CB000010E5CEF1EF0000E12000001C951D8B4D5
:103CC00064EF1EF067EF1EF0010E68EF1EF0000EAD
:103CD000120092949488949A949689848B888B9AF3
:103CE0008B961200BDC060F0BEC061F0BFC062F034
:103CF000C0C063F0120000016051180DF3CF74FFD3
:103D00001200FFFFFFFF102701010101000E8C6E62
:103D1000000E956E1200700ED36E1200F28EF28CB1
:103D2000120085EC1BF012008C8012008C821200B5
:0A3D30008C9012008C921200120019
:020000040020DA
:08000000FFFFFFFFFFFFFFFF00
:020000040030CA
:0E000000FF09191EF38381FFFFC0FFE0FF40E0
:00000001FF
