:020000040000FA
:0400000007EF00F016
:0A000800578259ED2FF08BEF31F015
:101000000000000000DCCFD1350000000000C0155A
:101010003F6042A20D70A5EC363BAAB83F4F387630
:101020003F3CAA38338CBEBF350072313F18723155
:101030003F4CBB31330EEADDB555B38A38610B3610
:10104000BBABAA2A3E42F1533E55326C3E05A38B00
:101050003EABAAAA3EB76DDB3E9A99193F6042A209
:101060000DCAF249710000804B0000803F0000C0B3
:101070003F00AAB83FC623F6B80040763F536574D8
:10108000207365632020205241353D2D3E0053657D
:1010900074206D696E2020205241353D2D3E005355
:1010A000657420686F757220205241353D2D3E00D9
:1010B00053746F702057202020205241353D2D3E23
:1010C00000436C6F636B20202020205241353D2D62
:1010D0003E002020202020202020000088C0B8F1E1
:1010E00089C0B9F18AC0BAF18BC0BBF1B8C160F157
:1010F000B9C161F1BAC162F1BBC163F18CC0B8F191
:101100008DC0B9F18EC0BAF18FC0BBF1B8C17CF10E
:10111000B9C17DF1BAC17EF1BBC17FF1FF0E010102
:101120006015A86FFF0E6115A96FFF0E6215AA6FFB
:101130007F0E6315AB6FFF0E7C15906FFF0E7D1554
:10114000916FFF0E7E15926F7F0E7F15936F9051FA
:10115000911192119311D8A4B0EF08F0B2EF08F0FA
:10116000BDEF08F0000E0001886F000E896F800E41
:101170008A6F3F0E8B6F86EF1DF0800E621909E1BA
:101180003F0E631960116111D8A4C9EF08F0CBEFCD
:1011900008F0D6EF08F0000E0001886F000E896F8E
:1011A000800E8A6F3F0E8B6F86EF1DF0ABBFE7EFAF
:1011B00008F0A805000EA959800EAA597F0EAB5958
:1011C000D8B0E5EF08F0E7EF08F0F8EF08F093BFCC
:1011D000F6EF08F09005000E9159800E92597F0E9F
:1011E0009359D8A0F6EF08F0F8EF08F014EF09F0E3
:1011F00088C009F089C00AF08AC00BF08BC00CF0DF
:101200008CC00DF08DC00EF08EC00FF08FC010F0AE
:10121000E7EC1FF009C088F00AC089F00BC08AF023
:101220000CC08BF086EF1DF0000E506F000E516F5A
:10123000000E526F000E536F63BF23EF09F021EFD2
:1012400009F0EFEF09F093BF2FEF09F0800E925DE8
:101250004B0E9359D8A02FEF09F031EF09F03BEF77
:1012600009F0020E506F000E516F000E526F000E0B
:10127000536FEFEF09F093BF47EF09F0800E925DD7
:101280003F0E9359D8A047EF09F049EF09F0EFEF6F
:1012900009F0170E0001906F90C191F091C192F08A
:1012A00092C193F093C194F0906759EF09F061EF08
:1012B00009F094359433933392339133902F54EF54
:1012C00009F0810E000191250101A06FFF0E0001C0
:1012D00092210101A16FFF0E000193210101A26F74
:1012E000FF0E000194210101A36FA0511708000116
:1012F000906F90C191F091C192F092C193F093C11F
:1013000094F0906786EF09F08EEF09F094359433EE
:10131000933392339133902F81EF09F091C0ACF168
:1013200092C0ADF193C0AEF194C0AFF10101A051F4
:1013300017080001906FACC191F0ADC192F0AEC141
:1013400093F0AFC194F0902BABEF09F0D8909137A8
:10135000923793379437902FA6EF09F001019051FF
:101360000001911913E101019151000192190EE15F
:10137000010192510001931909E10101935100010A
:101380009419D8A4C6EF09F0C8EF09F0EFEF09F0FF
:10139000010E0101AC150001906F000E0101AD15A9
:1013A0000001916F000E0101AE150001926F000E59
:1013B0000101AF150001936F905102080101506FB8
:1013C000000E000191550101516F000E0001925570
:1013D0000101526F000E000193550101536F800E01
:1013E0000101921909E17F0E931990119111D8A46E
:1013F000FCEF09F0FEEF09F06AEF0AF0800EAA197F
:1014000009E13F0EAB19A811A911D8A40AEF0AF0FF
:101410000CEF0AF017EF0AF0000E0001886F000EC3
:10142000896F800E8A6F3F0E8B6F86EF1DF0ABBF0A
:1014300026EF0AF0A805000EA959800EAA593F0E02
:10144000AB59D8A026EF0AF028EF0AF044EF0AF0D3
:101450007FBF2FEF0AF02DEF0AF03AEF0AF0000EEF
:101460000001886F000E896F000E8A6F000E8B6F6F
:1014700086EF1DF08CC088F08DC089F08EC08AF098
:101480008FC08BF086EF1DF07FBF4BEF0AF049EF66
:101490000AF05FEF0AF08CC009F08DC00AF08EC030
:1014A0000BF08FC00CF007EC32F009C088F00AC0D6
:1014B00089F00BC08AF00CC08BF086EF1DF0000E97
:1014C0000001886F000E896F000E8A6F000E8B6F0F
:1014D00086EF1DF0800E921909E13F0E93199011CD
:1014E0009111D8A476EF0AF078EF0AF0A5EF0AF090
:1014F0007FBF7FEF0AF07DEF0AF09BEF0AF0000E4E
:101500003A6E000E3B6E800E3C6E3F0E3D6E88C004
:101510003EF089C03FF08AC040F08BC041F05CECE7
:1015200024F03AC088F03BC089F03CC08AF03DC04E
:101530008BF086EF1DF088C088F089C089F08AC0E2
:101540008AF08BC08BF086EF1DF0400E7F197C1166
:101550007D117E11D8A4AFEF0AF0B1EF0AF0CDEF04
:101560000AF088C019F089C01AF08AC01BF08BC03D
:101570001CF088C01DF089C01EF08AC01FF08BC00F
:1015800020F047EC22F019C088F01AC089F01BC087
:101590008AF01CC08BF086EF1DF03F0E7F197C1186
:1015A0007D117E11D8A4D7EF0AF0D9EF0AF0F4EF3D
:1015B0000AF063BFDEEF0AF0E0EF0AF0F4EF0AF0A2
:1015C00088C046F089C047F08AC048F08BC049F017
:1015D00087EC1DF046C088F047C089F048C08AF00B
:1015E00049C08BF086EF1DF088C009F089C00AF071
:1015F0008AC00BF08BC00CF023EC32F009C070F104
:101600000AC071F10BC072F10CC073F1800E0101C0
:10161000AA190BE17F0EAB19A811A911D8B413EFC9
:101620000BF015EF0BF02EEF0BF0A851A911AA113A
:10163000AB11D8B41EEF0BF020EF0BF02EEF0BF038
:10164000800EAA1909E13F0EAB19A811A911D8A45F
:101650002CEF0BF02EEF0BF0F9EF0BF070C1B4F1A3
:1016600071C1B5F172C1B6F173C1B7F17FBF3DEF82
:101670000BF03BEF0BF057EF0BF0000E3A6E000E45
:101680003B6E800E3C6E3F0E3D6EB4C13EF0B5C168
:101690003FF0B6C140F0B7C141F05CEC24F03AC075
:1016A000B4F13BC0B5F13CC0B6F13DC0B7F10101AA
:1016B00063BF5FEF0BF05DEF0BF0EFEF0BF0000E91
:1016C000A8250001906F000E0101A9210001916F72
:1016D000800E0101AA210001926FC00E0101AB2111
:1016E0000001936F0101505100019011946F0101AD
:1016F000515100019111956F010152510001921158
:10170000966F0101535100019311976F94519511F8
:1017100096119711D8A48FEF0BF091EF0BF0D1EF4A
:101720000BF0B4C136F0B5C137F0B6C138F0B7C16F
:1017300039F0B4C132F0B5C133F0B6C134F0B7C13D
:1017400035F068EC31F032C03AF033C03BF034C0D1
:101750003CF035C03DF0B4C136F0B5C137F0B6C18C
:1017600038F0B7C139F0B4C132F0B5C133F0B6C109
:1017700034F0B7C135F068EC31F032C03EF033C020
:101780003FF034C040F035C041F05CEC24F03AC08A
:10179000B4F13BC0B5F13CC0B6F13DC0B7F1EFEFDD
:1017A0000BF001015005511152115311D8A4DBEF78
:1017B0000BF0DDEF0BF0EFEF0BF0B4C109F0B5C1AA
:1017C0000AF0B6C10BF0B7C10CF007EC32F009C05B
:1017D000B4F10AC0B5F10BC0B6F10CC0B7F1B4C199
:1017E00088F0B5C189F0B6C18AF0B7C18BF086EF39
:1017F0001DF0000E886F000E896F800E8A6F3F0EFD
:101800008B6F63BF08EF0CF006EF0CF066EF0CF087
:101810005051511152115311D8A411EF0CF013EF84
:101820000CF053EF0CF088C036F089C037F08AC056
:1018300038F08BC039F088C032F089C033F08AC0EC
:1018400034F08BC035F068EC31F032C03AF033C080
:101850003BF034C03CF035C03DF088C036F089C064
:1018600037F08AC038F08BC039F088C032F089C0B8
:1018700033F08AC034F08BC035F068EC31F032C000
:101880003EF033C03FF034C040F035C041F05CEC76
:1018900024F03AC088F03BC089F03CC08AF03DC0DB
:1018A0008BF086EF1DF05005511152115311D8A441
:1018B0005CEF0CF05EEF0CF066EF0CF0000E886F42
:1018C000000E896F800E8A6FBF0E8B6F93BF75EF0E
:1018D0000CF09005000E9159000E92594D0E93593F
:1018E000D8A075EF0CF077EF0CF0FCEF0EF0ABBF6B
:1018F00089EF0CF0F80EA85DFF0EA9597F0EAA59CA
:101900003F0EAB59D8B087EF0CF089EF0CF0FCEF2D
:101910000CF07FBF8EEF0CF090EF0CF0C6EF0CF0E8
:10192000600E1D6E420E1E6EA20E1F6E0D0E206EFC
:1019300088C119F089C11AF08AC11BF08BC11CF053
:1019400047EC22F019C0A4F11AC0A5F11BC0A6F102
:101950001CC0A7F1A4C119F0A5C11AF0A6C11BF0C3
:10196000A7C11CF0600E1D6E420E1E6EA20E1F6EF1
:101970000D0E206E47EC22F019C088F01AC089F0D5
:101980001BC08AF01CC08BF086EF1DF0CA0E1D6EC6
:10199000F20E1E6E490E1F6E710E206E88C119F078
:1019A00089C11AF08AC11BF08BC11CF047EC22F0F0
:1019B00019C0A4F11AC0A5F11BC0A6F11CC0A7F163
:1019C000A4C119F0A5C11AF0A6C11BF0A7C11CF053
:1019D000CA0E1D6EF20E1E6E490E1F6E710E206E27
:1019E00047EC22F019C088F01AC089F01BC08AF0B9
:1019F0001CC08BF086EF1DF0ABBF0CEF0DF0080E96
:101A0000A85D000EA959800EAA593F0EAB59D8A067
:101A10000CEF0DF00EEF0DF089EF0DF07FBF1DEF15
:101A20000DF07F517E117D1106E17C05D8B01BEFD2
:101A30000DF01DEF0DF053EF0DF0600E1D6E420E18
:101A40001E6EA20E1F6E0D0E206E88C119F089C188
:101A50001AF08AC11BF08BC11CF047EC22F019C0B0
:101A6000A4F11AC0A5F11BC0A6F11CC0A7F1A4C126
:101A700019F0A5C11AF0A6C11BF0A7C11CF0600E99
:101A80001D6E420E1E6EA20E1F6E0D0E206E47ECD6
:101A900022F019C088F01AC089F01BC08AF01CC05F
:101AA0008BF086EF1DF0CA0E1D6EF20E1E6E490EF3
:101AB0001F6E710E206E88C119F089C11AF08AC19B
:101AC0001BF08BC11CF047EC22F019C0A4F11AC026
:101AD000A5F11BC0A6F11CC0A7F1A4C119F0A5C1B6
:101AE0001AF0A6C11BF0A7C11CF0CA0E1D6EF20EA3
:101AF0001E6E490E1F6E710E206E47EC22F019C04B
:101B000088F01AC089F01BC08AF01CC08BF086EFE9
:101B10001DF070C109F071C10AF072C10BF073C100
:101B20000CF0000E0D6E000E0E6E800E0F6EBF0ECE
:101B3000106EE7EC1FF009C0B0F10AC0B1F10BC0A4
:101B4000B2F10CC0B3F1000E1D6E000E1E6E800EC1
:101B50001F6E3E0E206EB0C119F0B1C11AF0B2C1B5
:101B60001BF0B3C11CF047EC22F019C036F01AC0CC
:101B700037F01BC038F01CC039F0AB0E326EAA0E25
:101B8000336EAA0E346E3E0E356E68EC31F032C004
:101B9000A4F133C0A5F134C0A6F135C0A7F1B0C19E
:101BA0001DF0B1C11EF0B2C11FF0B3C120F0B0C131
:101BB00019F0B1C11AF0B2C11BF0B3C11CF047EC6F
:101BC00022F019C054F11AC055F11BC056F11CC0C7
:101BD00057F1B0C11DF0B1C11EF0B2C11FF0B3C1C9
:101BE00020F0A4C119F0A5C11AF0A6C11BF0A7C12D
:101BF0001CF047EC22F019C036F01AC037F01BC0B9
:101C000038F01CC039F0000E326E000E336E000E3C
:101C1000346E3F0E356E68EC31F032C048F133C09F
:101C200049F134C04AF135C04BF154C119F055C1E6
:101C30001AF056C11BF057C11CF048C11DF049C134
:101C40001EF04AC11FF04BC120F047EC22F019C032
:101C500044F11AC045F11BC046F11CC047F1B0C1A8
:101C600019F0B1C11AF0B2C11BF0B3C11CF0000EE3
:101C70001D6EAA0E1E6EB80E1F6E3F0E206E47EC34
:101C800022F019C074F11AC075F11BC076F11CC0A6
:101C900077F1700E1D6EA50E1E6EEC0E1F6E360EC9
:101CA000206EB0C119F0B1C11AF0B2C11BF0B3C1BE
:101CB0001CF047EC22F019C032F01AC033F01BC000
:101CC00034F01CC035F03B0E1D6EAA0E1E6EB80E11
:101CD0001F6E3F0E206E44C119F045C11AF046C177
:101CE0001BF047C11CF047EC22F019C036F01AC0B7
:101CF00037F01BC038F01CC039F068EC31F032C04E
:101D000078F133C079F134C07AF135C07BF174C118
:101D100009F075C10AF076C10BF077C10CF078C1FB
:101D20000DF079C10EF07AC10FF07BC110F0E7EC35
:101D30001FF009C084F10AC085F10BC086F10CC008
:101D400087F184C1B8F185C1B9F186C1BAF187C103
:101D5000BBF1B8C194F1B9C195F1BAC196F1BBC15B
:101D600097F1000E01019415B86FF00E9515B96F3B
:101D7000FF0E9615BA6FFF0E9715BB6FB8C184F1B1
:101D8000B9C185F1BAC186F1BBC187F174C136F022
:101D900075C137F076C138F077C139F084C132F0BF
:101DA00085C133F086C134F087C135F068EC31F07D
:101DB00032C098F133C099F134C09AF135C09BF12B
:101DC00078C132F079C133F07AC134F07BC135F09B
:101DD00098C136F099C137F09AC138F09BC139F0FB
:101DE00068EC31F032C01CF133C01DF134C01EF17B
:101DF00035C01FF17CEF16F0000E806F000E816F72
:101E0000000E826F000E836FABBF12EF0FF0AB516D
:101E100007E1800EAA5DD8B010EF0FF012EF0FF0BF
:101E200045EF0FF070C119F071C11AF072C11BF0CB
:101E300073C11CF0000E1D6E000E1E6E800E1F6E14
:101E40004B0E206E47EC22F019C070F11AC071F1F0
:101E50001BC072F11CC073F1E80E01018027FF0E58
:101E60008123FF0E8223FF0E832370C1B8F171C15D
:101E7000B9F172C1BAF173C1BBF1B8C1A8F1B9C16E
:101E8000A9F1BAC1AAF1BBC1ABF1170E0001906F65
:101E9000A8C191F0A9C192F0AAC193F0ABC194F08E
:101EA000906755EF0FF05DEF0FF094359433933357
:101EB00092339133902F50EF0FF0810E0001912556
:101EC000956FFF0E9221966FFF0E9321976FFF0E75
:101ED0009421986F955101018027000196510101CD
:101EE00081230001975101018223000198510101D2
:101EF0008323FF0EA815AC6FFF0EA915AD6F7F0EE3
:101F0000AA15AE6F000EAB15AF6F000EAC11A86F27
:101F1000000EAD11A96F800EAE11AA6F3F0EAF116A
:101F2000AB6FAFBFA3EF0FF0AF510BE1720EAC5D23
:101F3000C40EAD591C0EAE59D8B0A1EF0FF0A3EFEF
:101F40000FF0ADEF0FF0000EA06F000EA16F000EAE
:101F5000A26F000EA36FDFEF0FF0AFBFBFEF0FF068
:101F6000AF510BE1D70EAC5DB30EAD595D0EAE595E
:101F7000D8B0BDEF0FF0BFEF0FF0C9EF0FF0010EBB
:101F8000A06F000EA16F000EA26F000EA36FDFEF17
:101F90000FF0000EA06F000EA16F000EA26F000EDA
:101FA000A36F010E8027000E812382238323000E5E
:101FB000A827000EA923800EAA23FF0EAB23A8C1D9
:101FC000B8F1A9C1B9F1AAC1BAF1ABC1BBF1B8C1AD
:101FD00070F1B9C171F1BAC172F1BBC173F170C1D5
:101FE00032F071C133F072C134F073C135F0A0C169
:101FF00090F0A1C191F00001D89090379137D8901E
:1020000090379137690E9025F66E100E9121F76E7C
:10201000F86A000EF8220900F5CF36F00900F5CF76
:1020200037F00900F5CF38F00A00F5CF39F068EC49
:1020300031F032C074F133C075F134C076F135C07F
:1020400077F1000E3A6E000E3B6E800E3C6E3F0E36
:102050003D6E70C10DF071C10EF072C10FF073C111
:1020600010F0A0C190F0A1C191F00001D89090377C
:102070009137D89090379137690E9025F66E100EF3
:102080009121F76EF86A000EF8220900F5CF09F0E9
:102090000900F5CF0AF00900F5CF0BF00A00F5CFE3
:1020A0000CF0E7EC1FF009C03EF00AC03FF00BC097
:1020B00040F00CC041F05CEC24F03AC078F13BC039
:1020C00079F13CC07AF13DC07BF174C119F075C162
:1020D0001AF076C11BF077C11CF078C11DF079C1F0
:1020E0001EF07AC11FF07BC120F047EC22F019C02E
:1020F0005CF11AC05DF11BC05EF11CC05FF15CC1F8
:102100006CF15DC16DF15EC16EF15FC16FF16CC1CB
:10211000B8F16DC1B9F16EC1BAF16FC1BBF1B8C10F
:1021200094F1B9C195F1BAC196F1BBC197F1000E16
:1021300001019415B86FF00E9515B96FFF0E961545
:10214000BA6FFF0E9715BB6FB8C16CF1B9C16DF1D5
:10215000BAC16EF1BBC16FF1A8C190F0A9C191F0F5
:10216000AAC192F0ABC193F000019335933392333F
:1021700091339033000E9015946FF00E9115956F7A
:10218000FF0E9215966FFF0E9315976F000E941128
:102190000101946F000E000195110101956F000E71
:1021A000000196110101966F200E000197110101A7
:1021B000976FA0C190F0A1C191F0A2C192F0A3C10C
:1021C00093F0150ED89000019037913792379337DE
:1021D000E82EE2EF10F00101945100019025946F78
:1021E0000101955100019121956F01019651000166
:1021F0009221966F0101975100019321976F000E74
:1022000094250101B86F000E000195210101B96FFD
:10221000400E000196210101BA6F000E00019721C6
:102220000101BB6FB8C168F1B9C169F1BAC16AF106
:10223000BBC16BF1A0C190F0A1C191F00001D89099
:1022400090379137D89090379137690E9025F66E78
:10225000100E9121F76EF86A000EF8220900F5CFF2
:1022600036F00900F5CF37F00900F5CF38F00A0055
:10227000F5CF39F068C132F069C133F06AC134F08A
:102280006BC135F068EC31F032C098F133C099F190
:1022900034C09AF135C09BF170C132F071C133F096
:1022A00072C134F073C135F098C136F099C137F07E
:1022B0009AC138F09BC139F068EC31F032C034F18A
:1022C00033C035F134C036F135C037F168C11DF087
:1022D00069C11EF06AC11FF06BC120F06CC119F01A
:1022E0006DC11AF06EC11BF06FC11CF047EC22F0FB
:1022F00019C036F01AC037F01BC038F01CC039F0D6
:1023000074C132F075C133F076C134F077C135F065
:1023100068EC31F032C098F133C099F134C09AF1D1
:1023200035C09BF134C11DF035C11EF036C11FF020
:1023300037C120F06CC119F06DC11AF06EC11BF0ED
:102340006FC11CF047EC22F019C036F01AC037F00C
:102350001BC038F01CC039F098C132F099C133F07D
:102360009AC134F09BC135F068EC31F032C054F1C1
:1023700033C055F134C056F135C057F154C119F08E
:1023800055C11AF056C11BF057C11CF078C11DF0A1
:1023900079C11EF07AC11FF07BC120F047EC22F01A
:1023A00019C030F11AC031F11BC032F11CC033F139
:1023B0005CC119F05DC11AF05EC11BF05FC11CF079
:1023C0005CC11DF05DC11EF05EC11FF05FC120F059
:1023D00047EC22F019C08CF11AC08DF11BC08EF1B0
:1023E0001CC08FF1550E0D6E320E0E6E6C0E0F6E00
:1023F0003E0E106E420E1D6EF10E1E6E530E1F6EBF
:102400003E0E206E8CC119F08DC11AF08EC11BF0EA
:102410008FC11CF047EC22F019C009F01AC00AF075
:102420001BC00BF01CC00CF0E7EC1FF009C0A4F1BE
:102430000AC0A5F10BC0A6F10CC0A7F1050E0D6EE8
:10244000A30E0E6E8B0E0F6E3E0E106E8CC11DF025
:102450008DC11EF08EC11FF08FC120F0A4C119F0F4
:10246000A5C11AF0A6C11BF0A7C11CF047EC22F0D1
:1024700019C009F01AC00AF01BC00BF01CC00CF008
:10248000E7EC1FF009C054F10AC055F10BC056F13A
:102490000CC057F1AB0E0D6EAA0E0E6EAA0E0F6E8B
:1024A0003E0E106E8CC11DF08DC11EF08EC11FF04E
:1024B0008FC120F054C119F055C11AF056C11BF05C
:1024C00057C11CF047EC22F019C009F01AC00AF0FD
:1024D0001BC00BF01CC00CF0E7EC1FF009C048F16A
:1024E0000AC049F10BC04AF10CC04BF1B70E0D6E9A
:1024F0006D0E0E6EDB0E0F6E3E0E106E8CC11DF05B
:102500008DC11EF08EC11FF08FC120F048C119F09F
:1025100049C11AF04AC11BF04BC11CF047EC22F034
:1025200019C009F01AC00AF01BC00BF01CC00CF057
:10253000E7EC1FF009C038F10AC039F10BC03AF1DD
:102540000CC03BF19A0E0D6E990E0E6E190E0F6EA9
:102550003F0E106E8CC11DF08DC11EF08EC11FF09C
:102560008FC120F038C119F039C11AF03AC11BF0FF
:102570003BC11CF047EC22F019C009F01AC00AF068
:102580001BC00BF01CC00CF0E7EC1FF009C000F101
:102590000AC001F10BC002F10CC003F18CC11DF0A7
:1025A0008DC11EF08EC11FF08FC120F08CC119F0BB
:1025B0008DC11AF08EC11BF08FC11CF047EC22F0C8
:1025C00019C004F11AC005F11BC006F11CC007F1C7
:1025D00000C119F001C11AF002C11BF003C11CF0C7
:1025E00004C11DF005C11EF006C11FF007C120F097
:1025F00047EC22F019C04CF11AC04DF11BC04EF14E
:102600001CC04FF130C11DF031C11EF032C11FF0AE
:1026100033C120F05CC10DF05DC10EF05EC10FF062
:102620005FC110F06CC109F06DC10AF06EC10BF012
:102630006FC10CF0E7EC1FF009C019F00AC01AF0E6
:102640000BC01BF00CC01CF047EC22F019C058F175
:102650001AC059F11BC05AF11CC05BF14CC109F002
:102660004DC10AF04EC10BF04FC10CF058C10DF036
:1026700059C10EF05AC10FF05BC110F0E7EC1FF02A
:1026800009C04CF10AC04DF10BC04EF10CC04FF126
:102690006CC119F06DC11AF06EC11BF06FC11CF056
:1026A0006CC11DF06DC11EF06EC11FF06FC120F036
:1026B00047EC22F019C08CF11AC08DF11BC08EF1CD
:1026C0001CC08FF1000E0D6E000E0E6E400E0F6ED0
:1026D000400E106E8CC109F08DC10AF08EC10BF056
:1026E0008FC10CF0E7EC1FF009C058F10AC059F196
:1026F0000BC05AF10CC05BF158C109F059C10AF086
:102700005AC10BF05BC10CF04CC10DF04DC10EF085
:102710004EC10FF04FC110F0E7EC1FF009C068F197
:102720000AC069F10BC06AF10CC06BF168C1B8F165
:1027300069C1B9F16AC1BAF16BC1BBF1B8C194F119
:10274000B9C195F1BAC196F1BBC197F1000E010173
:102750009415B86FF00E9515B96FFF0E9615BA6FF8
:10276000FF0E9715BB6FB8C168F1B9C169F1BAC165
:102770006AF1BBC16BF1000E0D6E000E0E6E400EC5
:102780000F6EC00E106E68C109F069C10AF06AC10F
:102790000BF06BC10CF0E7EC1FF009C03CF10AC074
:1027A0003DF10BC03EF10CC03FF18CC136F08DC144
:1027B00037F08EC138F08FC139F03CC132F03DC1E5
:1027C00033F03EC134F03FC135F068EC31F032C037
:1027D00040F133C041F134C042F135C043F14CC146
:1027E00032F04DC133F04EC134F04FC135F040C12D
:1027F00036F041C137F042C138F043C139F068ECDE
:1028000031F032C034F133C035F134C036F135C067
:1028100037F16CC119F06DC11AF06EC11BF06FC1B8
:102820001CF068C11DF069C11EF06AC11FF06BC1C8
:1028300020F047EC22F019C074F11AC075F11BC0EA
:1028400076F11CC077F168C11DF069C11EF06AC144
:102850001FF06BC120F030C119F031C11AF032C144
:102860001BF033C11CF047EC22F019C009F01AC06C
:102870000AF01BC00BF01CC00CF05CC11DF05DC168
:102880001EF05EC11FF05FC120F034C119F035C1E8
:102890001AF036C11BF037C11CF047EC22F019C00A
:1028A0000DF01AC00EF01BC00FF01CC010F0E7ECCA
:1028B0001FF009C078F10AC079F10BC07AF10CC0A1
:1028C0007BF174C109F075C10AF076C10BF077C1D4
:1028D0000CF078C10DF079C10EF07AC10FF07BC118
:1028E00010F0E7EC1FF009C09CF10AC09DF10BC08D
:1028F0009EF10CC09FF19CC1B8F19DC1B9F19EC180
:10290000BAF19FC1BBF1B8C194F1B9C195F1BAC197
:1029100096F1BBC197F1000E01019415B86FF00E4E
:102920009515B96FFF0E9615BA6FFF0E9715BB6F11
:10293000B8C19CF1B9C19DF1BAC19EF1BBC19FF173
:1029400074C136F075C137F076C138F077C139F00F
:102950009CC132F09DC133F09EC134F09FC135F06F
:1029600068EC31F032C098F133C099F134C09AF17B
:1029700035C09BF178C132F079C133F07AC134F0BF
:102980007BC135F098C136F099C137F09AC138F063
:102990009BC139F068EC31F032C064F133C065F1AD
:1029A00034C066F135C067F19CC119F09DC11AF0C1
:1029B0009EC11BF09FC11CF0000E1D6E400E1E6ECE
:1029C000760E1F6E3F0E206E47EC22F019C020F1EC
:1029D0001AC021F11BC022F11CC023F14F0E1D6E45
:1029E000380E1E6E760E1F6E3F0E206E64C119F0FB
:1029F00065C11AF066C11BF067C11CF047EC22F0FC
:102A000019C00DF01AC00EF01BC00FF01CC010F062
:102A1000C60E1D6E230E1E6EF60E1F6EB80E206EB5
:102A20009CC119F09DC11AF09EC11BF09FC11CF002
:102A300047EC22F019C009F01AC00AF01BC00BF0D5
:102A40001CC00CF0E7EC1FF009C058F10AC059F1A6
:102A50000BC05AF10CC05BF158C109F059C10AF022
:102A60005AC10BF05BC10CF0A0C190F0A1C191F074
:102A70000001D89090379137D89090379137010E58
:102A80009025F66E100E9121F76EF86A000EF8226E
:102A90000900F5CF0DF00900F5CF0EF00900F5CFD4
:102AA0000FF00A00F5CF10F0E7EC1FF009C024F199
:102AB0000AC025F10BC026F10CC027F180C109F036
:102AC00081C10AF082C10BF083C10CF0010E86ECCB
:102AD00028F009C0B0F10AC0B1F10BC0B2F10CC0CE
:102AE000B3F124C10DF025C10EF026C10FF027C1AE
:102AF00010F020C109F021C10AF022C10BF023C15E
:102B00000CF0E7EC1FF009C058F10AC059F10BC0F6
:102B10005AF10CC05BF1A0C190F0A1C191F000018D
:102B2000D89090379137D89090379137090E9025EB
:102B3000F66E100E9121F76EF86A000EF822090069
:102B4000F5CF0DF00900F5CF0EF00900F5CF0FF02D
:102B50000A00F5CF10F058C109F059C10AF05AC166
:102B60000BF05BC10CF0E7EC1FF009C008F10AC0E4
:102B700009F10BC00AF10CC00BF108C109F009C141
:102B80000AF00AC10BF00BC10CF0B0C10DF0B1C1DD
:102B90000EF0B2C10FF0B3C110F0E7EC1FF009C0A6
:102BA00084F10AC085F10BC086F10CC087F184C1A5
:102BB000B8F185C1B9F186C1BAF187C1BBF1B8C11D
:102BC00094F1B9C195F1BAC196F1BBC197F1000E6C
:102BD00001019415B86FF00E9515B96FFF0E96159B
:102BE000BA6FFF0E9715BB6FB8C184F1B9C185F1FB
:102BF000BAC186F1BBC187F1B0C136F0B1C137F0BF
:102C0000B2C138F0B3C139F084C132F085C133F0BC
:102C100086C134F087C135F068EC31F032C098F1EC
:102C200033C099F134C09AF135C09BF1A0C190F046
:102C3000A1C191F00001D89090379137D89090378A
:102C40009137090E9025F66E100E9121F76EF86AF5
:102C5000000EF8220900F5CF36F00900F5CF37F065
:102C60000900F5CF38F00A00F5CF39F098C132F0FD
:102C700099C133F09AC134F09BC135F068EC31F062
:102C800032C040F133C041F134C042F135C043F1AC
:102C900020C136F021C137F022C138F023C139F00C
:102CA00040C132F041C133F042C134F043C135F08C
:102CB00068EC31F032C00CF133C00DF134C00EF1CC
:102CC00035C00FF124C132F025C133F026C134F0F4
:102CD00027C135F00CC136F00DC137F00EC138F008
:102CE0000FC139F068EC31F032C01CF133C01DF176
:102CF00034C01EF135C01FF18CC0B8F18DC0B9F1E0
:102D00008EC0BAF18FC0BBF1B8C194F1B9C195F1D1
:102D1000BAC196F1BBC197F1000E01019415B86FCD
:102D2000F00E9515B96FFF0E9615BA6FFF0E971539
:102D3000BB6FB8C128F1B9C129F1BAC12AF1BBC131
:102D40002BF184C11DF085C11EF086C11FF087C123
:102D500020F028C136F029C137F02AC138F02BC144
:102D600039F08CC032F08DC033F08EC034F08FC09B
:102D700035F068EC31F032C019F033C01AF034C0CD
:102D80001BF035C01CF047EC22F019C010F11AC03E
:102D900011F11BC012F11CC013F110C109F011C1D7
:102DA0000AF012C10BF013C10CF01CC11DF01DC1C3
:102DB0001EF01EC11FF01FC120F08CC019F08DC085
:102DC0001AF08EC01BF08FC01CF047EC22F019C027
:102DD0000DF01AC00EF01BC00FF01CC010F0E7EC95
:102DE0001FF009C064F10AC065F10BC066F10CC0A8
:102DF00067F128C119F029C11AF02AC11BF02BC1B3
:102E00001CF084C11DF085C11EF086C11FF087C172
:102E100020F047EC22F019C09CF11AC09DF11BC0B4
:102E20009EF11CC09FF164C109F065C10AF066C142
:102E30000BF067C10CF09CC10DF09DC10EF09EC15E
:102E40000FF09FC110F0E7EC1FF009C0B4F10AC009
:102E5000B5F10BC0B6F10CC0B7F1B4C1B8F1B5C152
:102E6000B9F1B6C1BAF1B7C1BBF1B8C1ACF1B9C1E2
:102E7000ADF1BAC1AEF1BBC1AFF10101AFBF4DEFD2
:102E800017F0AC05000EAD59000EAE59430EAF5908
:102E9000D8A04DEF17F04FEF17F085EF17F0CA0EDF
:102EA0001D6EF20E1E6E490E1F6E710E206E88C1D1
:102EB00019F089C11AF08AC11BF08BC11CF047ECD4
:102EC00022F019C0A4F11AC0A5F11BC0A6F11CC0C4
:102ED000A7F1A4C119F0A5C11AF0A6C11BF0A7C1A2
:102EE0001CF0CA0E1D6EF20E1E6E490E1F6E710E84
:102EF000206E47EC22F019C088F01AC089F01BC080
:102F00008AF01CC08BF086EF1DF0430EAF19AC1198
:102F1000AD11AE11D8A48FEF17F091EF17F004EFB9
:102F200018F09CC136F09DC137F09EC138F09FC1AA
:102F300039F0B4C132F0B5C133F0B6C134F0B7C125
:102F400035F068EC31F032C03AF033C03BF034C0B9
:102F50003CF035C03DF03C0E0D6EAA0E0E6E380EE4
:102F60000F6E330E106E64C109F065C10AF066C1C0
:102F70000BF067C10CF0E7EC1FF009C03EF00AC08F
:102F80003FF00BC040F00CC041F07BEC2AF0D8B011
:102F9000CCEF17F0CEEF17F0CEEF18F0CA0E1D6E83
:102FA000F20E1E6E490E1F6E710E206E88C119F052
:102FB00089C11AF08AC11BF08BC11CF047EC22F0CA
:102FC00019C0A4F11AC0A5F11BC0A6F11CC0A7F13D
:102FD000A4C119F0A5C11AF0A6C11BF0A7C11CF02D
:102FE000CA0E1D6EF20E1E6E490E1F6E710E206E01
:102FF00047EC22F019C088F01AC089F01BC08AF093
:103000001CC08BF086EF1DF0FF0EAC150001906F19
:10301000FF0E0101AD150001916FFF0E0101AE150C
:103020000001926F7F0E0101AF150001936F93BFF6
:1030300026EF18F09005000E9159160E9259430E86
:103040009359D8A026EF18F028EF18F05EEF18F08B
:10305000600E1D6E420E1E6EA20E1F6E0D0E206EB5
:1030600088C119F089C11AF08AC11BF08BC11CF00C
:1030700047EC22F019C0A4F11AC0A5F11BC0A6F1BB
:103080001CC0A7F1A4C119F0A5C11AF0A6C11BF07C
:10309000A7C11CF0600E1D6E420E1E6EA20E1F6EAA
:1030A0000D0E206E47EC22F019C088F01AC089F08E
:1030B0001BC08AF01CC08BF086EF1DF0160E0101BC
:1030C000AE1909E1C30EAF19AC11AD11D8A46BEF65
:1030D00018F06DEF18F0CEEF18F09CC136F09DC1DE
:1030E00037F09EC138F09FC139F0B4C132F0B5C19C
:1030F00033F0B6C134F0B7C135F068EC31F032C00E
:103100003AF033C03BF034C03CF035C03DF064C110
:103110003EF065C13FF066C140F067C141F07BEC15
:103120002AF0D8A096EF18F098EF18F0CEEF18F02C
:10313000600E1D6E420E1E6EA20E1F6E0D0E206ED4
:1031400088C119F089C11AF08AC11BF08BC11CF02B
:1031500047EC22F019C0A4F11AC0A5F11BC0A6F1DA
:103160001CC0A7F1A4C119F0A5C11AF0A6C11BF09B
:10317000A7C11CF0600E1D6E420E1E6EA20E1F6EC9
:103180000D0E206E47EC22F019C088F01AC089F0AD
:103190001BC08AF01CC08BF086EF1DF0FF0E0101F2
:1031A000AC152C6FFF0EAD152D6FFF0EAE152E6FEB
:1031B0007F0EAF152F6F170E0001906F2CC191F08D
:1031C0002DC192F02EC193F02FC194F09067EBEFD8
:1031D00018F0F3EF18F0943594339333923391331E
:1031E000902FE6EF18F0810E000191250101A06FEC
:1031F000FF0E000192210101A16FFF0E000193213A
:103200000101A26FFF0E000194210101A36F000EC6
:10321000806F000E816F000E826F000E836F2FBFD4
:103220001EEF19F02C05000E2D59000E2E593F0EE1
:103230002F59D8A01EEF19F020EF19F024EF1AF043
:10324000A0C190F0010E00019027000E916F000EBA
:10325000926F800E936F000E946F906732EF19F0AB
:103260003AEF19F094359433933392339133902F8E
:103270002DEF19F00101AC51000191250101806F82
:10328000AD51000192210101816FAE5100019321E6
:103290000101826FAF51000194210101836F810E02
:1032A0000001906FFF0E916FFF0E926FFF0E936FF4
:1032B000170E946F80C195F081C196F082C197F08E
:1032C00083C198F0946767EF19F06FEF19F09835A4
:1032D0009833973396339533942F62EF19F00001AA
:1032E000955190250101A06F000E0001912101016F
:1032F000A16F000E000192210101A26F000E0001DA
:1033000093210101A36FA0C190F0FF0E0001916F06
:10331000FF0E926F7F0E936F000E946F906793EF86
:1033200019F09BEF19F09435943393339233913322
:10333000902F8EEF19F00001911D956F921D966FE1
:10334000931D976F941D986F010180510001951591
:103350000101B86F8151000196150101B96F8251C9
:10336000000197150101BA6F835100019815010101
:10337000BB6FB8C1B0F1B9C1B1F1BAC1B2F1BBC153
:10338000B3F1A05117080001906FFF0E01018015E5
:103390000001916FFF0E010181150001926F7F0EF8
:1033A000010182150001936F000E010183150001D8
:1033B000946F000E9111956F000E9211966F800E12
:1033C0009311976F000E9411986F9067EAEF19F0C0
:1033D000F2EF19F098359833973396339533902F51
:1033E000E5EF19F095C080F196C081F197C082F1A8
:1033F00098C083F10101AFBF02EF1AF000EF1AF09D
:103400000AEF1AF0831F821F811F806D000E812337
:10341000822383239CC132F09DC133F09EC134F0DE
:103420009FC135F0B0C136F0B1C137F0B2C138F04C
:10343000B3C139F068EC31F032C09CF133C09DF17A
:1034400034C09EF135C09FF164C109F065C10AF036
:1034500066C10BF067C10CF09CC10DF09DC10EF070
:103460009EC10FF09FC110F0E7EC1FF009C0B0F152
:103470000AC0B1F10BC0B2F10CC0B3F1B0C1B8F1E8
:10348000B1C1B9F1B2C1BAF1B3C1BBF1B8C194F1E4
:10349000B9C195F1BAC196F1BBC197F1000E010116
:1034A0009415B86F800E9515B96FFF0E9615BA6F0B
:1034B000FF0E9715BB6FB8C1B0F1B9C1B1F1BAC178
:1034C000B2F1BBC1B3F1B0C119F0B1C11AF0B2C1D0
:1034D0001BF0B3C11CF0000E1D6E720E1E6E310E7D
:1034E0001F6E3F0E206E47EC22F019C074F11AC017
:1034F00075F11BC076F11CC077F19CC136F09DC1FF
:1035000037F09EC138F09FC139F0B0C132F0B1C17F
:1035100033F0B2C134F0B3C135F068EC31F032C0F1
:1035200098F133C099F134C09AF135C09BF1180E6F
:103530001D6E720E1E6E310E1F6E3F0E206E98C1F4
:1035400036F099C137F09AC138F09BC139F064C1A7
:1035500032F065C133F066C134F067C135F068EC14
:1035600031F032C019F033C01AF034C01BF035C04E
:103570001CF047EC22F019C014F11AC015F11BC061
:1035800016F11CC017F114C109F015C10AF016C1DB
:103590000BF017C10CF08C0E1D6EBE0E1E6EBF0E12
:1035A0001F6E350E206EB0C119F0B1C11AF0B2C154
:1035B0001BF0B3C11CF047EC22F019C00DF01AC08B
:1035C0000EF01BC00FF01CC010F0E7EC1FF009C09C
:1035D00078F10AC079F10BC07AF10CC07BF174C1AB
:1035E00009F075C10AF076C10BF077C10CF078C113
:1035F0000DF079C10EF07AC10FF07BC110F0E7EC4D
:103600001FF009C0B4F10AC0B5F10BC0B6F10CC08F
:10361000B7F174C136F075C137F076C138F077C1B3
:1036200039F0B4C132F0B5C133F0B6C134F0B7C12E
:1036300035F068EC31F032C098F133C099F134C004
:103640009AF135C09BF178C132F079C133F07AC17B
:1036500034F07BC135F098C136F099C137F09AC18A
:1036600038F09BC139F068EC31F032C044F133C01E
:1036700045F134C046F135C047F1B4C119F0B5C1C8
:103680001AF0B6C11BF0B7C11CF0B4C11DF0B5C132
:103690001EF0B6C11FF0B7C120F047EC22F019C0F0
:1036A000B0F11AC0B1F11BC0B2F11CC0B3F10E0EE3
:1036B0000D6EEA0E0E6EDD0E0F6EB50E106E4C0E18
:1036C0001D6EBB0E1E6E310E1F6E330E206EB0C10E
:1036D00019F0B1C11AF0B2C11BF0B3C11CF047EC34
:1036E00022F019C009F01AC00AF01BC00BF01CC070
:1036F0000CF0E7EC1FF009C0A4F10AC0A5F10BC063
:10370000A6F10CC0A7F1550E0D6EB30E0E6E8A0E0B
:103710000F6E380E106EB0C11DF0B1C11EF0B2C1F7
:103720001FF0B3C120F0A4C119F0A5C11AF0A6C1C1
:103730001BF0A7C11CF047EC22F019C009F01AC019
:103740000AF01BC00BF01CC00CF0E7EC1FF009C026
:1037500054F10AC055F10BC056F10CC057F1610E7F
:103760000D6E0B0E0E6E360E0F6EBB0E106EB0C1D0
:103770001DF0B1C11EF0B2C11FF0B3C120F054C1A1
:1037800019F055C11AF056C11BF057C11CF047EC97
:1037900022F019C009F01AC00AF01BC00BF01CC0BF
:1037A0000CF0E7EC1FF009C048F10AC049F10BC06A
:1037B0004AF10CC04BF1AB0E0D6EAA0E0E6E2A0E26
:1037C0000F6E3E0E106EB0C11DF0B1C11EF0B2C141
:1037D0001FF0B3C120F048C119F049C11AF04AC125
:1037E0001BF04BC11CF047EC22F019C009F01AC0C5
:1037F0000AF01BC00BF01CC00CF0E7EC1FF009C076
:1038000038F10AC039F10BC03AF10CC03BF1B4C138
:1038100032F0B5C133F0B6C134F0B7C135F0B0C144
:103820001DF0B1C11EF0B2C11FF0B3C120F038C10C
:1038300019F039C11AF03AC11BF03BC11CF047EC3A
:1038400022F019C036F01AC037F01BC038F01CC087
:1038500039F068EC31F032C084F133C085F134C006
:1038600086F135C087F1000E0D6E000E0E6E000E53
:103870000F6EC00E106E84C109F085C10AF086C1BA
:103880000BF087C10CF0E7EC1FF009C03EF00AC056
:103890003FF00BC040F00CC041F084C11DF085C169
:1038A0001EF086C11FF087C120F0B4C119F0B5C168
:1038B0001AF0B6C11BF0B7C11CF047EC22F019C0DA
:1038C0003AF01AC03BF01BC03CF01CC03DF05CEC71
:1038D00024F03AC03CF13BC03DF13CC03EF13DC05C
:1038E0003FF144C10DF045C10EF046C10FF047C194
:1038F00010F044C11DF045C11EF046C11FF047C184
:1039000020F0B4C119F0B5C11AF0B6C11BF0B7C1AF
:103910001CF047EC22F019C009F01AC00AF01BC0D5
:103920000BF01CC00CF0E7EC1FF009C018F10AC046
:1039300019F10BC01AF10CC01BF13CC132F03DC1B2
:1039400033F03EC134F03FC135F018C136F019C133
:1039500037F01AC138F01BC139F068EC31F032C0D1
:103960004CF133C04DF134C04EF135C04FF1B4C10C
:1039700036F0B5C137F0B6C138F0B7C139F04CC137
:1039800032F04DC133F04EC134F04FC135F068EC28
:1039900031F032C098F133C099F134C09AF135C09A
:1039A0009BF1000E326E000E336E800E346E3F0EB1
:1039B000356E98C136F099C137F09AC138F09BC185
:1039C00039F068EC31F032C0B4F133C0B5F134C035
:1039D000B6F135C0B7F1B4C1B8F1B5C1B9F1B6C1EE
:1039E000BAF1B7C1BBF1B8C1ACF1B9C1ADF1BAC15F
:1039F000AEF1BBC1AFF180C190F081C191F082C145
:103A000092F083C193F0170ED89000019037913750
:103A100092379337E82E04EF1DF090510101AC2747
:103A2000000191510101AD23000192510101AE232A
:103A3000000193510101AF23170E0001906FACC13B
:103A400091F0ADC192F0AEC193F0AFC194F0906728
:103A50002CEF1DF034EF1DF09435943393339233F3
:103A60009133902F27EF1DF0000194BF44EF1DF01C
:103A700094519311921106E19105D8B042EF1DF0D7
:103A800044EF1DF05CEF1DF0B4C132F0B5C133F06E
:103A9000B6C134F0B7C135F080C136F081C137F01E
:103AA0006CEC27F032C0B4F133C0B5F134C0B6F1DC
:103AB00035C0B7F16CEF1DF0ACC1B8F1ADC1B9F1D3
:103AC000AEC1BAF1AFC1BBF1B8C1B4F1B9C1B5F182
:103AD000BAC1B6F1BBC1B7F188C119F089C11AF0FA
:103AE0008AC11BF08BC11CF0B4C11DF0B5C11EF022
:103AF000B6C11FF0B7C120F047EC22F019C088F022
:103B00001AC089F01BC08AF01CC08BF0120046C09E
:103B10006CF047C06DF048C06EF049C06FF06CC0EB
:103B200084F06DC085F06EC086F06FC087F0000E27
:103B3000000184154A6E000E85154B6E800E8615A9
:103B40004C6E7F0E87154D6E800E4C1809E17F0E6E
:103B50004D184A104B10D8A4B0EF1DF0B2EF1DF075
:103B6000E0EF1DF046C01DF047C01EF048C01FF03A
:103B700049C020F046C019F047C01AF048C01BF0F9
:103B800049C01CF047EC22F019C009F01AC00AF035
:103B90001BC00BF01CC00CF046C00DF047C00EF06F
:103BA00048C00FF049C010F0E7EC1FF009C046F024
:103BB0000AC047F00BC048F00CC049F0E6EF1FF018
:103BC00087BFEFEF1DF087518611851106E184054F
:103BD000D8B0EDEF1DF0EFEF1DF02BEF1EF0FF0E54
:103BE00084154A6EFF0E85154B6EFF0E86154C6EC2
:103BF0007F0E87154D6E4A504B104C104D10D8A4B7
:103C000004EF1EF006EF1EF010EF1EF046C046F067
:103C100047C047F048C048F049C049F0E6EF1FF000
:103C200087BF17EF1EF015EF1EF02BEF1EF0000EF2
:103C3000B46F210EB36FDA0E096E100E0A6E4FECE0
:103C400032F009C046F00AC047F00BC048F00CC083
:103C500049F0E6EF1FF0170E4A6E84C04BF085C0A6
:103C60004CF086C04DF087C04EF04A663AEF1EF029
:103C700042EF1EF04E344E324D324C324B324A2E11
:103C800035EF1EF04BC07CF04CC07DF04DC07EF097
:103C90004EC07FF000017C517D117E117F11D8A4B0
:103CA00054EF1EF056EF1EF086EF1EF0000E686F08
:103CB000000E696F000E6A6F000E6B6F6BEF1EF0E7
:103CC000D8908437853786378737010E6827000EEE
:103CD00069236A236B2386AF70EF1EF072EF1EF02C
:103CE00060EF1EF0FF0E68254A6EFF0E69214B6ED5
:103CF000FF0E6A214C6EFF0E6B214D6E4A507C5FA9
:103D00004B507D5B4C507E5B4D507F5B810E7C2722
:103D1000FF0E7D23FF0E7E23FF0E7F23FF0E8415F3
:103D20004A6EFF0E85154B6E7F0E86154C6E000E8B
:103D300087154D6E000E4A10846F000E4B10856F74
:103D4000800E4C10866F000E4D10876F7CA1ABEF7C
:103D50001EF0ADEF1EF0B5EF1EF0845184278551A3
:103D6000852386518623875187237F357F337E3392
:103D70007D337C3384518427855185238651862366
:103D800087518723000E646F000E656F000E666F0B
:103D9000000E676F64C070F065C071F066C072F0AD
:103DA00067C073F0000E806F000E816F000E826F8F
:103DB000010E836F24EF1FF080516425746F8151D1
:103DC0006521756F82516621766F83516721776F08
:103DD0007451845D75518559765186598751800A91
:103DE0004A6E7751800A4A58D8A0F9EF1EF0FBEFCF
:103DF0001EF017EF1FF080517425646F81517521FB
:103E0000656F82517621666F83517721676F745198
:103E1000845F7551855B7651865B7751875B8051F6
:103E200070278151712382517223835173238451EE
:103E30008427855185238651862387518723D890EF
:103E40008333823381338033805181118211831116
:103E5000D8A42DEF1FF02FEF1FF0DCEF1EF08451E0
:103E6000851186118711D8B438EF1FF03AEF1FF093
:103E70009BEF1FF0000E786F000E796F800E7A6F47
:103E80003F0E7B6F78C03AF079C03BF07AC03CF0CF
:103E90007BC03DF0000E3E6E000E3F6E800E406E09
:103EA0003F0E416E7BEC2AF0D8A059EF1FF05BEF7C
:103EB0001FF09BEF1FF0000E0001786F000E796F6E
:103EC000800E7A6F3F0E7B6F000E3A6E000E3B6ED7
:103ED000800E3C6E3F0E3D6E78C03EF079C03FF0E4
:103EE0007AC040F07BC041F07BEC2AF0D8B07BEF89
:103EF0001FF07DEF1FF086EF1FF0020E000170270C
:103F0000000E7123722373239BEF1FF0010E00013B
:103F100070154A6E000E71154B6E000E72154C6EC8
:103F2000000E73154D6E4A5070274B5071234C5044
:103F300072234D50732370C04AF071C04BF072C0B1
:103F40004CF073C04DF04D344D324C324B324A324E
:103F5000000E4A240001846F000E4B20856F000E76
:103F60004C20866F3F0E4D20876F7CC04AF07DC08D
:103F70004BF07EC04CF07FC04DF0170ED8904A3603
:103F80004B364C364D36E82EBEEF1FF04A50842794
:103F90004B5085234C5086234D50872384C06CF0B2
:103FA00085C06DF086C06EF087C06FF06CC078F091
:103FB0006DC079F06EC07AF06FC07BF078C046F0CB
:103FC00079C047F07AC048F07BC049F012000C502D
:103FD000800B156E0C500C24176E0BAEF2EF1FF019
:103FE000F4EF1FF0F5EF1FF017801750D8B4FBEF78
:103FF0001FF0FDEF1FF012EF20F01728D8A403EFF9
:1040000020F005EF20F00DEF20F0000E096E000EFD
:104010000A6E000E0B6E000E0C6E0B8E000E0C6EF8
:104020001AEF20F0000E096E000E0A6E000E0B6EE5
:10403000000E0C6E1050800B166E15501618D8B46A
:1040400024EF20F026EF20F027EF20F0158C105001
:104050001024166E0FAE2FEF20F031EF20F032EF6C
:1040600020F016801650D8B438EF20F03AEF20F048
:104070004FEF20F01628D8A440EF20F042EF20F0B8
:104080004AEF20F0000E0D6E000E0E6E000E0F6E49
:10409000000E106E0F8E000E106E57EF20F0000E07
:1040A0000D6E000E0E6E000E0F6E000E106E17508D
:1040B000165CD8B05EEF20F060EF20F087EF20F0C4
:1040C00015AC65EF20F067EF20F069EF20F0800E6F
:1040D000151A17C018F016C017F018C016F009C04E
:1040E00018F00DC009F018C00DF00AC018F00EC08D
:1040F0000AF018C00EF00BC018F00FC00BF018C07B
:104100000FF00CC018F010C00CF018C010F0000E2A
:10411000186E175016C011F0126A115E000E125A76
:1041200012BE9CEF20F0125009E11A0E115CD8A0CB
:104130009CEF20F09EEF20F0D5EF20F009500A1000
:104140000B100C10D8A4A7EF20F0AAEF20F0010E5E
:10415000ABEF20F0000E186E000E096E000E0A6E16
:10416000000E0B6E000E0C6E16C017F0DEEF20F086
:1041700018A0BDEF20F0BFEF20F0C5EF20F0D890E1
:1041800018300109186EC7EF20F0D890183209A036
:10419000CCEF20F0CEEF20F0CFEF20F0188E0C34D3
:1041A0000C320B320A320932172A1650175CD8A08B
:1041B000DCEF20F0DEEF20F0B8EF20F015BCE3EFED
:1041C00020F0E5EF20F025EF21F01750D8A4EBEF19
:1041D00020F0EDEF20F0F7EF20F0000E096E000E5A
:1041E0000A6E000E0B6E000E0C6E46EF22F00D50A4
:1041F00009260E500A220F500B2210500C220CA040
:1042000004EF21F006EF21F0B2EF21F018A00BEF40
:1042100021F00DEF21F013EF21F0D89018300109B3
:10422000186E15EF21F0D890183209A01AEF21F07E
:104230001CEF21F01DEF21F0188E0C340C320B32E4
:104240000A320932172AB2EF21F00D50095C0E50E4
:104250000A580F500B580C50800A116E1050800AEB
:104260001158D8B036EF21F038EF21F063EF21F08C
:1042700009500D5C116E0A500E58126E0B500F58FB
:10428000136E0C501058146EFF0E1124096EFF0EA1
:1042900012200A6EFF0E13200B6EFF0E14200C6E00
:1042A000800E151A186C1850D8A459EF21F05BEF46
:1042B00021F06BEF21F0010E0926000E0A220B22DD
:1042C0000C226BEF21F00D50095E0E500A5A0F5070
:1042D0000B5A10500C5A09500A100B100C10D8A48D
:1042E00074EF21F076EF21F0ABEF21F01850D8A455
:1042F0007CEF21F07EEF21F0ABEF21F0000E096E94
:10430000000E0A6E000E0B6E000E0C6E46EF22F0D1
:10431000D89009360A360B360C3618AE92EF21F0DB
:1043200094EF21F095EF21F0098018A09AEF21F089
:104330009CEF21F0A0EF21F0D8801836A2EF21F0F9
:10434000D89018361750D8B4A8EF21F0AAEF21F072
:10435000ABEF21F017060BAEB0EF21F0B2EF21F07A
:1043600088EF21F0000E166E18AEB9EF21F0BBEF0A
:1043700021F0D3EF21F018C011F07F0E1116D8B440
:10438000C4EF21F0C6EF21F0CAEF21F0010E166E46
:10439000D3EF21F009A0CFEF21F0D1EF21F0D3EF3F
:1043A00021F0C6EF21F01650D8B4D9EF21F0DBEFA1
:1043B00021F006EF22F0010E0926000E0A220B2240
:1043C0000C220CA0E6EF21F0E8EF21F006EF22F03E
:1043D00009C011F00AC012F00BC013F00CC014F0A9
:1043E0001434143213321232113211C009F012C0D7
:1043F0000AF013C00BF014C00CF01728D8B403EF68
:1044000022F005EF22F006EF22F0172A1728D8B481
:104410000CEF22F00EEF22F016EF22F01750D8A486
:1044200014EF22F016EF22F028EF22F0000E096EB2
:10443000000E0A6E000E0B6E000E0C6E1750D8A404
:1044400024EF22F026EF22F028EF22F0000E156E66
:1044500017A02DEF22F02FEF22F032EF22F00B8E7B
:1044600033EF22F00B9ED89017300C6E15AE3BEF59
:1044700022F03DEF22F03EEF22F00C8E09C009F051
:104480000AC00AF00BC00BF00CC00CF012001C505C
:10449000800B256E1C501C242B6E1BAE52EF22F09D
:1044A00054EF22F055EF22F02B802B50D8B45BEF65
:1044B00022F05DEF22F070EF22F02B28D8A463EFFA
:1044C00022F065EF22F06DEF22F0000E196E000E63
:1044D0001A6E000E1B6E000E1C6E1B8E78EF22F003
:1044E000000E196E000E1A6E000E1B6E000E1C6E72
:1044F0002050800B251A205020242A6E1FAE83EFF7
:1045000022F085EF22F086EF22F02A802A50D8B4DC
:104510008CEF22F08EEF22F0A1EF22F02A28D8A40F
:1045200094EF22F096EF22F09EEF22F0000E1D6E27
:10453000000E1E6E000E1F6E000E206E1F8EA9EF65
:1045400022F0000E1D6E000E1E6E000E1F6E000E7D
:10455000206E2A50D8B4AFEF22F0B1EF22F0B9EFBD
:1045600022F02B50D8A4B7EF22F0B9EF22F0C3EF1E
:1045700022F0000E196E000E1A6E000E1B6E000E59
:104580001C6E5BEF24F01F501902F3CF30F0F4CF14
:1045900031F03050266E276A286A296A31502C6E15
:1045A0002D6A2E6A2F6A1E501A02F3CF30F0F4CF14
:1045B00031F030502626000E2722282229223150A1
:1045C0002C26000E2D222E222F221D501B02F3CF4F
:1045D00030F0F4CF31F030502626000E272228226A
:1045E000292231502C26000E2D222E222F2228C0C7
:1045F00029F027C028F026C027F0266A1D501A028D
:10460000F3CF30F0F4CF31F030502626315027224E
:10461000000E2822000E29221E501902F3CF30F07E
:10462000F4CF31F03050262631502722000E2822B8
:10463000000E292228C029F027C028F026C027F024
:10464000266A1D501902F3CF30F0F4CF31F030500C
:10465000262631502722000E2822000E29221F5024
:104660001A02F3CF30F0F4CF31F030502C26315015
:104670002D22000E2E22000E2F221E501B02F3CFE1
:1046800030F0F4CF31F030502C2631502D22000E76
:104690002E22000E2F221F501B02F3CF30F0F4CF3A
:1046A00031F03050216E3150226E236A246A23C0CB
:1046B00024F022C023F021C022F0216A21502C26B0
:1046C00022502D2223502E2224502F2226C021F0AA
:1046D00027C022F028C023F029C024F0190E76EF5D
:1046E00023F0D8902432233222322132E82E71EF87
:1046F00023F021502C2622502D2223502E222450EC
:104700002F2228C029F027C028F026C027F0266ACB
:104710002A502BC021F0226A2126000E2222820E6E
:104720002124306EFF0E2220316EACEF23F0D890A2
:104730002C362D362E362F3629AEA1EF23F0A3EFDF
:1047400023F0A4EF23F02C80D89026362736283685
:1047500029363006D8A031062EAEB1EF23F0B3EFE4
:1047600023F097EF23F0000E2A6E29AEBAEF23F064
:10477000BCEF23F0E0EF23F0FF0E2614216EFF0EB6
:104780002714226EFF0E2814236E7F0E2914246E28
:104790002150221023102410D8B4D1EF23F0D3EFEE
:1047A00023F0D7EF23F0010E2A6EE0EF23F02CA0C8
:1047B000DCEF23F0DEEF23F0E0EF23F0D3EF23F084
:1047C0002A50D8B4E6EF23F0E8EF23F00CEF24F002
:1047D000010E2C26000E2D222E222F222FA0F3EFC9
:1047E00023F0F5EF23F00CEF24F02CC021F02DC0C6
:1047F00022F02EC023F02FC024F0243424322332A0
:104800002232213221C02CF022C02DF023C02EF004
:1048100024C02FF0304A312A31BE17EF24F0315036
:1048200008E13028D8A017EF24F019EF24F023EF87
:1048300024F0000E2C6E000E2D6E800E2E6E7F0E5C
:104840002F6E51EF24F031BE30EF24F0315006E1ED
:104850003004D8B02EEF24F030EF24F03CEF24F0F9
:10486000000E2C6E000E2D6E000E2E6E000E2F6EA2
:10487000000E256E51EF24F030C02BF0FF0E2C16E9
:10488000FF0E2D167F0E2E16000E2F162BA04BEFAF
:1048900024F04DEF24F04EEF24F02E8ED8902B30E4
:1048A0002F6E25502F122CC019F02DC01AF02EC0DB
:1048B0001BF02FC01CF012003D50800B0001646FF4
:1048C0003D503D246B6F3CAE68EF24F06AEF24F05E
:1048D0006BEF24F06B816B51D8B471EF24F073EF60
:1048E00024F088EF24F06B29D8A479EF24F07BEF33
:1048F00024F083EF24F0000E3A6E000E3B6E000EA3
:104900003C6E000E3D6E3C8E000E3D6E90EF24F02E
:10491000000E3A6E000E3B6E000E3C6E000E3D6EB9
:104920004150800B641B415041246C6F40AE9BEFA3
:1049300024F09DEF24F09EEF24F06C816C51D8B4EC
:10494000A4EF24F0A6EF24F0BBEF24F06C29D8A448
:10495000ACEF24F0AEEF24F0B6EF24F0000E3E6E84
:10496000000E3F6E000E406E000E416E408E000E37
:10497000416EC3EF24F0000E3E6E000E3F6E000E3F
:10498000406E000E416E3E503F1040104110D8A4C2
:10499000CCEF24F0CEEF24F0E6EF24F0000E3A6ED8
:1049A000000E3B6E000E3C6E000E3D6E800E3C1203
:1049B0007F0E3D1264513D123AC03AF03BC03BF0CD
:1049C0003CC03CF03DC03DF029EF26F06B51D8A42F
:1049D000ECEF24F0EEEF24F0F8EF24F0000E3A6E46
:1049E000000E3B6E000E3C6E000E3D6E29EF26F071
:1049F0006C516BC042F0436A425E000E435A7F0E18
:104A00004224656F000E4320666F3AC060F03BC0E1
:104A100061F03CC062F03DC063F0000E3A6E000EE3
:104A20003B6E000E3C6E000E3D6E000E676F000E7A
:104A3000686F000E696F000E6A6F000E6C6F59EFA1
:104A400025F06C51D8B427EF25F029EF25F040EF81
:104A500025F0D8906037613762376337D8903A369F
:104A60003B363C363D366AAF38EF25F03AEF25F05D
:104A70003BEF25F03A80D8906737683769376A3757
:104A80003E50605D3F5061594050625941506359FA
:104A9000D8A04DEF25F04FEF25F058EF25F06A8DA7
:104AA0003E50605F3F50615B4050625B4150635BD2
:104AB0006C2B190E6C655FEF25F061EF25F021EF8F
:104AC00025F06051611162116311D8B46AEF25F0CD
:104AD0006CEF25F084EF25F0678184EF25F0D89006
:104AE0003A363B363C363D366AAF79EF25F07BEF00
:104AF00025F07CEF25F03A80D89067376837693722
:104B00006A376507D8A066073CAE89EF25F08BEFC2
:104B100025F06FEF25F0000E6C6F6AAF92EF25F075
:104B200094EF25F0B8EF25F0FF0E6715426EFF0EEB
:104B30006815436EFF0E6915446E7F0E6A15456E4B
:104B40004250431044104510D8B4A9EF25F0ABEF04
:104B500025F0AFEF25F0010E6C6FB8EF25F03AA00D
:104B6000B4EF25F0B6EF25F0B8EF25F0ABEF25F068
:104B70006C51D8B4BEEF25F0C0EF25F0E4EF25F07E
:104B8000010E3A26000E3B223C223D223DA0CBEFF7
:104B900025F0CDEF25F0E4EF25F03AC042F03BC020
:104BA00043F03CC044F03DC045F04534453244320A
:104BB0004332423242C03AF043C03BF044C03CF082
:104BC00045C03DF0654B662B66BFEFEF25F06651A3
:104BD00008E16529D8A0EFEF25F0F1EF25F0FCEF13
:104BE00025F0000E666F6569000E3A6E000E3B6E92
:104BF000000E3C6E000E3D6E66BF09EF26F066515A
:104C000006E16505D8B007EF26F009EF26F017EFAB
:104C100026F0000E666F000E656F000E3A6E000EF5
:104C20003B6E000E3C6E000E3D6E000E646F65C064
:104C30006BF06BA11EEF26F020EF26F023EF26F09D
:104C40003C8E24EF26F03C9ED8906B313D6EDAEF1F
:104C500024F01200A3EC30F001C005F002C006F011
:104C60007AEC30F001C007F002C008F0020E05181F
:104C70000610D8A43EEF26F040EF26F0BDEF26F058
:104C8000000E0001C56F000EB86F000EB76F000E6A
:104C9000B66F000EB56FA0EF26F0010ED26F010EB9
:104CA000C66F6BEF27F0BB4BBC2BBC5109E1640E08
:104CB000BB5DD8A05EEF26F060EF26F06BEF27F02B
:104CC000010ED26F020EC66F6BEF27F0BB4BBC2BF1
:104CD000B94BBA2B320EB919BA11D8A472EF26F01B
:104CE00074EF26F07AEF26F0010ED26F000EBA6F45
:104CF000000EB96F2C0EBB5D010EBC59D8A083EF1E
:104D000026F085EF26F06BEF27F0010ED26F030E31
:104D1000C66F6BEF27F0BB4BBC2BBC5109E10A0EF1
:104D2000BB5DD8A096EF26F098EF26F06BEF27F04A
:104D3000010ED26F000EBC6F000EBB6F6BEF27F041
:104D4000C651036E046A0450000AD8B4AAEF26F0D4
:104D50006BEF27F00350000AD8B44DEF26F0010A9C
:104D6000D8B453EF26F0030AD8B466EF26F0010A50
:104D7000D8B48BEF26F06BEF27F0020E071808105F
:104D8000D8A4C5EF26F0C7EF26F044EF27F0000EB9
:104D90000001C66F000EBC6F000EBB6F000EBA6F35
:104DA000000EB96F27EF27F0010ED16F010EC56F0E
:104DB0006BEF27F0B74BB82BB85109E1640EB75D24
:104DC000D8A0E5EF26F0E7EF26F06BEF27F0010E15
:104DD000D16F020EC56F6BEF27F0B74BB82BB54BF9
:104DE000B62B320EB519B611D8A4F9EF26F0FBEFA9
:104DF00026F001EF27F0010ED16F000EB66F000E06
:104E0000B56F2C0EB75D010EB859D8A00AEF27F088
:104E10000CEF27F06BEF27F0010ED16F030EC56F7B
:104E20006BEF27F0B74BB82BB85109E10A0EB75D0D
:104E3000D8A01DEF27F01FEF27F06BEF27F0010E32
:104E4000D16F000EB86F000EB76F6BEF27F0C55132
:104E5000036E046A0450000AD8B431EF27F06BEFF8
:104E600027F00350000AD8B4D4EF26F0010AD8B4D2
:104E7000DAEF26F0030AD8B4EDEF26F0010AD8B431
:104E800012EF27F06BEF27F007040810D8B44BEFB0
:104E900027F04DEF27F056EF27F005040610D8A4B1
:104EA00054EF27F056EF27F06BEF27F0000E0001CC
:104EB000BC6F000EBB6F000EBA6F000EB96F000E14
:104EC000B86F000EB76F000EB66F000EB56F000E14
:104ED000C66F000EC56F120032C040F033C041F003
:104EE00034C042F035C043F037BE80EF27F0375072
:104EF00009E1800E365CD8A080EF27F082EF27F022
:104F0000E0EF27F040C019F041C01AF042C01BF09A
:104F100043C01CF0000E1D6E000E1E6E000E1F6EB4
:104F20007F0E206E47EC22F019C040F01AC041F00D
:104F30001BC042F01CC043F0810E3626FF0E372204
:104F400037BEACEF27F0375009E1800E365CD8A0B1
:104F5000ACEF27F0AEEF27F04AEF28F040C019F091
:104F600041C01AF042C01BF043C01CF0000E1D6E81
:104F7000000E1E6E000E1F6E7F0E206E47EC22F09C
:104F800019C040F01AC041F01BC042F01CC043F0F1
:104F9000810E3626FF0E372237BED8EF27F0375066
:104FA00009E1800E365CD8A0D8EF27F0DAEF27F0C1
:104FB0004AEF28F0000E376E7F0E366E4AEF28F06B
:104FC00037AEECEF27F0820E365CFF0E3758D8B0C4
:104FD000ECEF27F0EEEF27F04AEF28F040C019F091
:104FE00041C01AF042C01BF043C01CF0000E1D6E01
:104FF000000E1E6E800E1F6E0C0E206E47EC22F00F
:1050000019C040F01AC041F01BC042F01CC043F070
:10501000660E3626000E372237AE18EF28F0820EC5
:10502000365CFF0E3758D8B018EF28F01AEF28F08A
:105030004AEF28F040C019F041C01AF042C01BF0FE
:1050400043C01CF0000E1D6E000E1E6E800E1F6E03
:105050000C0E206E47EC22F019C040F01AC041F04F
:105060001BC042F01CC043F0660E3626000E3722ED
:1050700037AE44EF28F0820E365CFF0E3758D8B0BA
:1050800044EF28F046EF28F04AEF28F0FF0E376E85
:10509000820E366E7F0E3624386E000E3720396E43
:1050A0003A6A3B6A170ED890383639363A363B366C
:1050B000E82E53EF28F038C03CF039C03DF03AC03C
:1050C0003EF03BC03FF03CC019F03DC01AF03EC07E
:1050D0001BF03FC01CF040C01DF041C01EF042C09C
:1050E0001FF043C020F047EC22F019C032F01AC084
:1050F00033F01BC034F01CC035F032C032F033C086
:1051000033F034C034F035C035F01200116E115058
:10511000D8B48DEF28F08FEF28F0B1EF28F00CBE57
:1051200096EF28F094EF28F0B1EF28F009C00DF0C9
:105130000AC00EF00BC00FF00CC010F00D1E0E1EBA
:105140000F1E101E0D2A000E0E220F2210220DC05F
:1051500013F00EC014F00FC015F010C016F0B9EF28
:1051600028F009C013F00AC014F00BC015F00CC0F1
:1051700016F009500A100B100C10D8A4C2EF28F03A
:10518000C4EF28F0CEEF28F0000E096E000E0A6E74
:10519000000E0B6E000E0C6E5FEF29F0960E126E75
:1051A000D8EF28F0122AD890163215321432133262
:1051B000000E13140D6E000E14140E6E000E151456
:1051C0000F6EFE0E1614106E0D500E100F101010F4
:1051D000D8A4EDEF28F0EFEF28F0D2EF28F0FDEFA4
:1051E00028F0122A010E1326000E14221522162270
:1051F000D8901632153214321332000E13140D6E7D
:10520000000E14140E6E000E15140F6EFF0E161401
:10521000106E0D500E100F101010D8A412EF29F0C0
:1052200014EF29F0F1EF28F01CEF29F01206D890C6
:10523000133614361536163615BE21EF29F023EF36
:1052400029F02BEF29F0020E126029EF29F02BEF45
:1052500029F016EF29F012B030EF29F032EF29F0E3
:1052600033EF29F0159ED890123212C00DF00E6A5D
:105270000F6A106A0DC010F00F6A0E6A0D6A0D50A9
:1052800013120E5014120F50151210501612115006
:10529000D8B44DEF29F04FEF29F057EF29F00CBEAD
:1052A00056EF29F054EF29F057EF29F0168E13C06E
:1052B00009F014C00AF015C00BF016C00CF0120073
:1052C000800E42EC31F0B00E0F6E100E106ECBEC73
:1052D00031F060EC2EF0D20E0F6E100E106ECBEC93
:1052E00031F0EDEF29F055C08CFF0001D251D8B458
:1052F0007CEF29F07EEF29F08AEF29F0000E566E40
:10530000000ED26F000ECA6F000E516E000E506E6E
:10531000000E4F6ED005D8A490EF29F092EF29F03F
:10532000D7EF29F0000ED06F522AF4EC30F0555030
:10533000D8B49DEF29F09FEF29F0A5EF29F0000EDA
:10534000176E000E166EA8EF29F0000E176E166885
:1053500016C055F0D7EF29F0D151D8B4B2EF29F0EB
:10536000B4EF29F0EDEF29F0000ED16F010ECA6FF6
:10537000EDEF29F0D151D8B4C0EF29F0C2EF29F0F8
:10538000C6EF29F0000ED16F000ECA6FCE51D8B40F
:10539000CCEF29F0CEEF29F0EDEF29F0000ECE6F23
:1053A0004F2ACCEC30F0FDEC2AF0EDEF29F00001B3
:1053B000CA51146E156A1550000AD8B4E2EF29F0EC
:1053C000EDEF29F01450000AD8B4ACEF29F0010A2F
:1053D000D8B4BAEF29F0EDEF29F0040E5618D8B47E
:1053E000F4EF29F0F6EF29F073EF29F01200000135
:1053F0009B359C35A26FA251D8A401EF2AF003EF90
:105400002AF00DEF2AF0000E996F000E9A6F000E31
:105410009B6F000E9C6F7AEF2AF099C09DF09AC0A6
:105420009EF09BC09FF09CC0A0F0200E1DEF2AF0C4
:10543000D890A0339F339E339D33E82E18EF2AF087
:105440009D51A16F9B8FFF0E9917FF0E9A17FF0EAC
:105450009B17000E9C17960EA25FA2BF34EF2AF096
:1054600032EF2AF04AEF2AF0A251800A970FD8B003
:105470003CEF2AF03EEF2AF040EF2AF003EF2AF04B
:10548000D8909C339B339A339933A23F40EF2AF054
:1054900062EF2AF01F0EA26550EF2AF052EF2AF0B9
:1054A0005AEF2AF003EF2AF0D89099379A379B37B2
:1054B0009C37A207A251D8A460EF2AF062EF2AF02D
:1054C00054EF2AF0A151D8B468EF2AF06AEF2AF01D
:1054D00072EF2AF09C1F9B1F9A1F996D000E9A2352
:1054E0009B239C2399C099F09AC09AF09BC09BF093
:1054F0009CC09CF01200000E3A14426E000E3B1449
:10550000436E800E3C14446E7F0E3D14456E425037
:10551000431044104510D8A490EF2AF092EF2AF0DF
:105520009AEF2AF0000E3A6E000E3B6E000E3C6EB3
:10553000000E3D6E000E3E14426E000E3F14436E90
:10554000800E4014446E7F0E4114456E425043104D
:1055500044104510D8A4AFEF2AF0B1EF2AF0B9EF0C
:105560002AF0000E3E6E000E3F6E000E406E000EE2
:10557000416E3DAEBEEF2AF0C0EF2AF0C9EF2AF02F
:105580003A6C3B1ED8B03B2A3C1ED8B03C2A800E59
:105590003D5641AECEEF2AF0D0EF2AF0D9EF2AF0F7
:1055A0003E6C3F1ED8B03F2A401ED8B0402A800E25
:1055B0004156000E3A1A000E3B1A000E3C1A800E9D
:1055C0003D1A000E3E1A000E3F1A000E401A800EC1
:1055D000411A3E503A5C3F503B5840503C58415075
:1055E0003D58D8B0F6EF2AF0F8EF2AF0FBEF2AF09A
:1055F000D890FCEF2AF0D88012000001C951D8B42D
:1056000004EF2BF006EF2BF027EF2BF0000EC96F05
:10561000060E0F6E010EEAEC31F04FC009F00A6A77
:10562000000E0C6E0A0E0B6EA0EC2DF00950300F20
:105630001CEC31F04FC009F00A6A000E0C6E0A0E25
:105640000B6EB8EC2EF00950300F1CEC31F000015D
:10565000C851D8B42EEF2BF030EF2BF051EF2BF0D8
:10566000000ECD6F030E0F6E010EEAEC31F050C04C
:1056700009F00A6A000E0C6E0A0E0B6EA0EC2DF0FB
:105680000950300F1CEC31F050C009F00A6A000ECE
:105690000C6E0A0E0B6EB8EC2EF00950300F1CEC9D
:1056A00031F00001C751D8B458EF2BF05AEF2BF06E
:1056B0007BEF2BF0000ECC6F000E0F6E010EEAECAC
:1056C00031F051C009F00A6A000E0C6E0A0E0B6E22
:1056D000A0EC2DF00950300F1CEC31F051C009F056
:1056E0000A6A000E0C6E0A0E0B6EB8EC2EF0095012
:1056F000300F1CEC31F012000001CD51D8B483EF13
:105700002BF085EF2BF0A6EF2BF0000ECD6F060EE1
:105710000F6E010EEAEC31F052C009F00A6A000E79
:105720000C6E0A0E0B6EA0EC2DF00950300F1CEC25
:1057300031F052C009F00A6A000E0C6E0A0E0B6EB0
:10574000B8EC2EF00950300F1CEC31F00001CC51B8
:10575000D8B4ADEF2BF0AFEF2BF0D0EF2BF0000E65
:10576000CC6F030E0F6E010EEAEC31F053C009F05E
:105770000A6A000E0C6E0A0E0B6EA0EC2DF009509A
:10578000300F1CEC31F053C009F00A6A000E0C6EA9
:105790000A0E0B6EB8EC2EF00950300F1CEC31F0F5
:1057A0000001CB51D8B4D7EF2BF0D9EF2BF0FAEFA3
:1057B0002BF0000ECB6F000E0F6E010EEAEC31F0F5
:1057C00054C009F00A6A000E0C6E0A0E0B6EA0ECB3
:1057D0002DF00950300F1CEC31F054C009F00A6A6A
:1057E000000E0C6E0A0E0B6EB8EC2EF00950300F46
:1057F0001CEC31F01200C40ED56E000E00018C6F4F
:10580000000E8D6F400E8E6F400E8F6F000E886FF2
:10581000000E896F200E8A6F410E8B6F6EEC08F0C0
:1058200088C0A3F089C0A4F08AC0A5F08BC0A6F000
:10583000000E1D6E000E1E6EA00E1F6E410E206E1D
:10584000A3C019F0A4C01AF0A5C01BF0A6C01CF09C
:1058500047EC22F019C099F01AC09AF01BC09BF0D7
:105860001CC09CF0F7EC29F099C0A7F09AC0A8F0F2
:10587000A7C009F0A8C00AF0000E0C6E200E0B6E37
:10588000A0EC2DF009C0ABF00AC0ACF00001ACBF39
:1058900052EF2CF0AC05D8B050EF2CF052EF2CF0BA
:1058A0005CEF2CF0AB51FF08C36FAC51D8A0E82AD5
:1058B0000008C46F68EF2CF0D59CAB1DA96FAC1D20
:1058C000AA6FA9C0C3F0AAC0C4F0AA51C16FC26B2D
:1058D0001200800E42EC31F09F0E0F6E100E106E13
:1058E000CBEC31F002EC2EF0CBEF2CF055C08CFF5E
:1058F0000001D251D8B47FEF2CF081EF2CF087EF6C
:105900002CF0020E566E000ED26FD3EF2CF0D05159
:10591000D8B48DEF2CF08FEF2CF0ABEF2CF0000E05
:10592000D06F522A010ECB6FF4EC30F07CEC2BF0F0
:105930005550D8B49EEF2CF0A0EF2CF0A6EF2CF031
:10594000000E1C6E000E1B6EA9EF2CF0000E1C6EDC
:105950001B681BC055F00001D151D8B4B2EF2CF038
:10596000B4EF2CF0BDEF2CF0000ED16F542A010ED5
:10597000CB6FF4EC30F07CEC2BF00001CF51D8B4BD
:10598000C4EF2CF0C6EF2CF0CBEF2CF0000ECF6F55
:105990005650A1EC2FF05604D8B4D1EF2CF0D3EF31
:1059A0002CF076EF2CF01200800E42EC31F08E0ECF
:1059B0000F6E100E106ECBEC31F002EC2EF032EFC9
:1059C0002DF00001D251D8B4E8EF2CF0EAEF2CF022
:1059D000EEEF2CF0030E566E000ED26FD051D8B4FD
:1059E000F4EF2CF0F6EF2CF012EF2DF0000ED06F4C
:1059F000522A010ECC6FF4EC30F07CEC2BF05550B9
:105A0000D8B405EF2DF007EF2DF00DEF2DF0000EBF
:105A10001C6E000E1B6E10EF2DF0000E1C6E1B682E
:105A20001BC055F00001D151D8B419EF2DF01BEF78
:105A30002DF024EF2DF0000ED16F532A010ECC6F04
:105A4000F4EC30F07CEC2BF00001CF51D8B42BEF0C
:105A50002DF02DEF2DF032EF2DF0000ECF6F5650C0
:105A6000A1EC2FF0020E5618D8B439EF2DF03BEF11
:105A70002DF0E1EF2CF01200800E42EC31F07D0EA3
:105A80000F6E100E106ECBEC31F002EC2EF096EF94
:105A90002DF00001D251D8B450EF2DF052EF2DF07F
:105AA00056EF2DF0040E566E000ED26FD051D8B4C2
:105AB0005CEF2DF05EEF2DF078EF2DF0000ED06F43
:105AC000522AF4EC30F07CEC2BF05550D8B46BEF4C
:105AD0002DF06DEF2DF073EF2DF0000E1C6E000E0B
:105AE0001B6E76EF2DF0000E1C6E1B681BC055F070
:105AF0000001D151D8B47FEF2DF081EF2DF088EF68
:105B00002DF0000ED16F522AF4EC30F07CEC2BF02B
:105B10000001CF51D8B48FEF2DF091EF2DF096EF1B
:105B20002DF0000ECF6F5650A1EC2FF0030E56183B
:105B3000D8B49DEF2DF09FEF2DF049EF2DF012001E
:105B4000000E0E6E0CBEA9EF2DF0A7EF2DF0AFEFFB
:105B50002DF00B6C0C1ED8B00C2A010E0E6E0ABE76
:105B6000B6EF2DF0B4EF2DF0BCEF2DF0096C0A1E4E
:105B7000D8B00A2A010E0E1A000E106E000E0F6E1B
:105B80000B500C10D8B4C7EF2DF0C9EF2DF0F1EF8A
:105B90002DF0010E0D6ED1EF2DF0D8900B360C3696
:105BA0000D2A0CAED6EF2DF0D8EF2DF0CDEF2DF065
:105BB000D8900F3610360B50095C0C500A58D8A0FC
:105BC000E4EF2DF0E6EF2DF0EBEF2DF00B50095E3A
:105BD0000C500A5A0F80D8900C320B320D2ED8EF91
:105BE0002DF00E50D8B4F7EF2DF0F9EF2DF0FDEFBA
:105BF0002DF00F6C101ED8B0102A0FC009F010C085
:105C00000AF01200C00E42EC31F054C009F00A6AEA
:105C1000000E0C6E0A0E0B6EA0EC2DF00950300F2A
:105C20001CEC31F054C009F00A6A000E0C6E0A0E2A
:105C30000B6EB8EC2EF00950300F1CEC31F03A0E20
:105C40001CEC31F053C009F00A6A000E0C6E0A0E0B
:105C50000B6EA0EC2DF00950300F1CEC31F053C04E
:105C600009F00A6A000E0C6E0A0E0B6EB8EC2EF0EC
:105C70000950300F1CEC31F03A0E1CEC31F052C0E0
:105C800009F00A6A000E0C6E0A0E0B6EA0EC2DF0E5
:105C90000950300F1CEC31F052C009F00A6A000EB6
:105CA0000C6E0A0E0B6EB8EC2EF00950300F1CEC87
:105CB00031F0D30E0F6E100E106ECBEC31F01200DF
:105CC000C00E42EC31F051C009F00A6A000E0C6EB1
:105CD0000A0E0B6EA0EC2DF00950300F1CEC31F0C9
:105CE00051C009F00A6A000E0C6E0A0E0B6EB8EC79
:105CF0002EF00950300F1CEC31F03A0E1CEC31F054
:105D000050C009F00A6A000E0C6E0A0E0B6EA0EC71
:105D10002DF00950300F1CEC31F050C009F00A6A28
:105D2000000E0C6E0A0E0B6EB8EC2EF00950300F00
:105D30001CEC31F03A0E1CEC31F04FC009F00A6A4D
:105D4000000E0C6E0A0E0B6EA0EC2DF00950300FF9
:105D50001CEC31F04FC009F00A6A000E0C6E0A0EFE
:105D60000B6EB8EC2EF00950300F1CEC31F0120025
:105D7000000E0E6E0ABEC1EF2EF0BFEF2EF0C7EF81
:105D80002EF0096C0A1ED8B00A2A010E0E6E0CBE47
:105D9000CEEF2EF0CCEF2EF0D2EF2EF00B6C0C1ECF
:105DA000D8B00C2A0B500C10D8B4D9EF2EF0DBEF82
:105DB0002EF0FFEF2EF0010E0D6EE3EF2EF0D890D7
:105DC0000B360C360D2A0CAEE8EF2EF0EAEF2EF073
:105DD000DFEF2EF00B50095C0C500A58D8A0F3EFFF
:105DE0002EF0F5EF2EF0F9EF2EF00B50095E0C506F
:105DF0000A5AD8900C320B320D2EEAEF2EF00E50CC
:105E0000D8B405EF2FF007EF2FF00BEF2FF0096C50
:105E10000A1ED8B00A2A09C009F00AC00AF0120006
:105E2000800E42EC31F0C10E0F6E100E106ECBECF6
:105E300031F002EC2EF050EF2FF055C08CFF000136
:105E4000D251D8B426EF2FF028EF2FF02EEF2FF0FD
:105E5000000ED26F010E566E58EF2FF0D005D8A469
:105E600034EF2FF036EF2FF050EF2FF0000ED06F01
:105E7000522AF4EC30F07CEC2BF05550D8B443EFC0
:105E80002FF045EF2FF04BEF2FF0000E156E000EA8
:105E9000146E4EEF2FF0000E156E146814C055F0FE
:105EA0005650D8B456EF2FF058EF2FF01DEF2FF0CB
:105EB00012000600F2AA5FEF2FF061EF2FF09FEFC4
:105EC0002FF0F2A466EF2FF068EF2FF09FEF2FF086
:105ED000F294C3C0D6FFC1C0D7FF2AEC26F0000160
:105EE000BF4BC02BBD4BBE2BBD05BE11D8A47BEF55
:105EF0002FF07DEF2FF083EF2FF0010ECE6F000E0D
:105F0000BE6F000EBD6F500EBF19C011D8A48BEF2D
:105F10002FF08DEF2FF08FEF2FF0010ECF6F640E6B
:105F2000BF19C011D8A497EF2FF099EF2FF09FEF72
:105F30002FF0000EC06F000EBF6F010ED06F579292
:105F400011001A6EC5EF2FF0000E146ED80E156EEC
:105F5000100E166E010EACEC31F0DEEF2FF0030EDA
:105F6000146ED80E156E100E166E010EACEC31F0DC
:105F7000DEEF2FF0060E146ED80E156E100E166E94
:105F8000010EACEC31F0DEEF2FF01A50186E196AEA
:105F90001950000AD8B4CFEF2FF0DEEF2FF01850D1
:105FA000010AD8B4A4EF2FF0030AD8B4AFEF2FF052
:105FB000010AD8B4BAEF2FF0DEEF2FF012007AEC1E
:105FC00032F0F5EF2FF010EC2FF0F5EF2FF069EC39
:105FD0002CF0F5EF2FF0D4EC2CF0F5EF2FF03CEC9B
:105FE0002DF0F5EF2FF060EC29F056500001AD6F69
:105FF000AE6BAE51000AD8B400EF30F0E3EF2FF0F3
:10600000AD51000AD8B4E3EF2FF0010AD8B4E7EF9E
:106010002FF0030AD8B4EBEF2FF0010AD8B4EFEF5A
:106020002FF0070AD8B4F3EF2FF0E3EF2FF007EFCC
:1060300000F0096E09C00BF0000E0A6E09AE23EFE6
:1060400030F025EF30F028EF30F08B8A29EF30F078
:106050008B9A8BA82EEF30F030EF30F034EF30F029
:10606000D8800B3637EF30F00B500B240B6E8B863D
:1060700000F000F000F000F000F000F08B96D890F7
:1060800009360A2A070E0A6448EF30F04AEF30F06A
:106090001EEF30F0120085EC32F0979C8E9C0D0EB6
:1060A0000F6EFC0EE82EFED70F2EFCD78E8C000E46
:1060B00060EC32F0010E60EC32F0000E0C6E120E4D
:1060C0006DEC32F0270E0F6EF50EE82EFED70F2E78
:1060D000FCD700F0320E42EC31F03C0E42EC31F0D5
:1060E0000C0E42EC31F0010E42EC31F0060E42ECA7
:1060F00031F01200D3C0D4F0000E81B0010E0001C7
:10610000D36FD451D319D8A488EF30F08AEF30F090
:106110009EEF30F0D351D8B490EF30F092EF30F0E2
:1061200098EF30F0000E026E010E016EA2EF30F01B
:10613000000E026E020E016EA2EF30F0000E026E33
:10614000000E016E1200D5C0D6F0000E80BA010E0E
:106150000001D56FD651D519D8A4B1EF30F0B3EF07
:1061600030F0C7EF30F0D551D8B4B9EF30F0BBEF15
:1061700030F0C1EF30F0000E026E010E016ECBEF79
:1061800030F0000E026E020E016ECBEF30F0000E0A
:10619000026E000E016E1200010E0001C96F630E47
:1061A0004F64D5EF30F0D7EF30F0DCEF30F0000E79
:1061B0004F6E502A010EC86F3B0E5064E2EF30F074
:1061C000E4EF30F0E9EF30F0000E506E512A010E8E
:1061D000C76F3B0E5164EFEF30F0F1EF30F0F3EFAB
:1061E00030F0000E516E1200010E0001CD6F3B0E1B
:1061F0005264FDEF30F0FFEF30F004EF31F0000EAD
:10620000526E532A010ECC6F3B0E53640AEF31F0ED
:106210000CEF31F011EF31F0000E536E542A010EE5
:10622000CB6F170E546417EF31F019EF31F01BEFFD
:1062300031F0000E546E12000E6E420EE82EFED7A4
:1062400000D0800E0C6E120E6DEC32F0060EE82EB1
:10625000FED700D00EC00CF0130E6DEC32F0060E1F
:10626000E82EFED700D0C00E0C6E120E6DEC32F090
:10627000060EE82EFED700D0000E0C6E120E6DEC4E
:1062800032F012000E6E420EE82EFED700D0000E45
:106290000C6E120E6DEC32F0060EE82EFED700D01A
:1062A0000EC00CF0130E6DEC32F0060EE82EFED789
:1062B00000D0400E0C6E120E6DEC32F0060EE82E81
:1062C000FED700D0000E0C6E120E6DEC32F01200F4
:1062D000000E361A000E371A000E381A800E391AC0
:1062E00032C009F033C00AF034C00BF035C00CF0F6
:1062F00036C00DF037C00EF038C00FF039C010F0C6
:10630000E7EC1FF009C032F00AC033F00BC034F0E4
:106310000CC035F012003A0EF66E650EF76E000EE8
:10632000F86E00EED3F010EE04F00900F5CFEEFFAA
:10633000E550E150FAE100EEAFF0240EEE6AE80617
:10634000FDE100EE4FF0080EEE6AE806FDE1579021
:1063500057920001DFEF2FF0176E030E1760B3EFB7
:1063600031F0B5EF31F0CAEF31F00F0E1464BBEF2E
:1063700031F0BDEF31F0BFEF31F0CAEF31F014C0B2
:106380000FF01750EAEC31F015C00FF016C010F006
:10639000CBEC31F01200D9EF31F00FC0F6FF10C096
:1063A000F7FF000EF86E0800F5501CEC31F00F4AB4
:1063B000102A0FC0F6FF10C0F7FF000EF86E08009D
:1063C000F5500009D8A4E7EF31F0E9EF31F0CDEF57
:1063D00031F01200106E1050D8B4F1EF31F0F3EF3D
:1063E00031F0FBEF31F0C00E0F24116E126A000E77
:1063F000122201EF32F0800E0F24116E126A000E8D
:10640000122211C013F0135042EC31F01200095067
:106410000A100B100C10D8B410EF32F012EF32F05B
:106420001AEF32F0000E091A000E0A1A000E0B1AAB
:10643000800E0C1A09C009F00AC00AF00BC00BF05C
:106440000CC00CF01200AFC00DF0B0C00EF0B1C027
:106450000FF0B2C010F009C00DF00AC00EF00BC072
:106460000FF00CC010F0109E0DC009F00EC00AF025
:106470000FC00BF010C00CF01200000E956E000E55
:106480008C6E000E896EF30E926E000E8A6E93680B
:10649000000E8B6ED70E946E0F0EC16E1200FF0EA3
:1064A0000D6EFF0E0E6EFF0E0F6E7F0E106E0DC086
:1064B00009F00EC00AF00FC00BF010C00CF0120073
:1064C0000C6E8994400E19EC30F00C5019EC30F041
:1064D000000E19EC30F0898412000D6E8994400E84
:1064E00019EC30F00D5019EC30F00C5019EC30F084
:1064F000898412009AEC32F03DEC32F095EC32F0E7
:106500008EEC32F04BEC30F0120092949488949A16
:10651000949689848B888B9A8B961200FBEC2BF0D7
:10652000C3C0D6FFC1C0D7FF1200F28EF28CF28A30
:0E653000F2941200700ED36E120001010101F0
:020000040020DA
:08000000FFFFFFFFFFFFFFFF00
:020000040030CA
:0E000000FF09191EF38381FFFFC0FFE0FF40E0
:00000001FF
