:020000040000FA
:0400000007EF00F016
:0A0008005682B0ED2CF0D6EF2BF07D
:101000000000000000DCCFD1350000000000C0155A
:101010003F6042A20D70A5EC363BAAB83F4F387630
:101020003F3CAA38338CBEBF350072313F18723155
:101030003F4CBB31330EEADDB555B38A38610B3610
:10104000BBABAA2A3E42F1533E55326C3E05A38B00
:101050003EABAAAA3EB76DDB3E9A99193F6042A209
:101060000DCAF249710000804B0000803F0000C0B3
:0F1070003F00AAB83FC623F6B80040763F000005
:101080008DC0B8F18EC0B9F18FC0BAF190C0BBF17C
:10109000B8C160F1B9C161F1BAC162F1BBC163F11C
:1010A00091C0B8F192C0B9F193C0BAF194C0BBF14C
:1010B000B8C17CF1B9C17DF1BAC17EF1BBC17FF18C
:1010C000FF0E01016015A86FFF0E6115A96FFF0EDD
:1010D0006215AA6F7F0E6315AB6FFF0E7C15906FC4
:1010E000FF0E7D15916FFF0E7E15926F7F0E7F159F
:1010F000936F9051911192119311D8A482EF08F03F
:1011000084EF08F08FEF08F0000E00018D6F000EE5
:101110008E6F800E8F6F3F0E906F58EF1DF0800E18
:10112000621909E13F0E631960116111D8A49BEFA8
:1011300008F09DEF08F0A8EF08F0000E00018D6F99
:10114000000E8E6F800E8F6F3F0E906F58EF1DF068
:10115000ABBFB9EF08F0A805000EA959800EAA5937
:101160007F0EAB59D8B0B7EF08F0B9EF08F0CAEF6F
:1011700008F093BFC8EF08F09005000E9159800E5B
:1011800092597F0E9359D8A0C8EF08F0CAEF08F023
:10119000E6EF08F08DC00AF08EC00BF08FC00CF0A7
:1011A00090C00DF091C00EF092C00FF093C010F0FF
:1011B00094C011F0B9EC1FF00AC08DF00BC08EF096
:1011C0000CC08FF00DC090F058EF1DF0000E506F66
:1011D000000E516F000E526F000E536F63BFF5EF9C
:1011E00008F0F3EF08F0C1EF09F093BF01EF09F049
:1011F000800E925D4B0E9359D8A001EF09F003EFDA
:1012000009F00DEF09F0020E506F000E516F000E45
:10121000526F000E536FC1EF09F093BF19EF09F041
:10122000800E925D3F0E9359D8A019EF09F01BEF85
:1012300009F0C1EF09F0170E0001956F90C196F00B
:1012400091C197F092C198F093C199F095672BEFF7
:1012500009F033EF09F09935993398339733963382
:10126000952F26EF09F0810E000196250101A06F50
:10127000FF0E000197210101A16FFF0E00019821CF
:101280000101A26FFF0E000199210101A36FA0517E
:1012900017080001956F90C196F091C197F092C127
:1012A00098F093C199F0956758EF09F060EF09F055
:1012B00099359933983397339633952F53EF09F037
:1012C00096C0ACF197C0ADF198C0AEF199C0AFF146
:1012D0000101A05117080001956FACC196F0ADC196
:1012E00097F0AEC198F0AFC199F0952B7DEF09F062
:1012F000D8909637973798379937952F78EF09F028
:10130000010190510001961913E101019151000171
:1013100097190EE1010192510001981909E10101AB
:10132000935100019919D8A498EF09F09AEF09F0A8
:10133000C1EF09F0010E0101AC150001956F000E1F
:101340000101AD150001966F000E0101AE150001FF
:10135000976F000E0101AF150001986F95510208BB
:101360000101506F000E000196550101516F000EF2
:10137000000197550101526F000E000198550101BF
:10138000536F800E0101921909E17F0E931990119C
:101390009111D8A4CEEF09F0D0EF09F03CEF0AF09C
:1013A000800EAA1909E13F0EAB19A811A911D8A402
:1013B000DCEF09F0DEEF09F0E9EF09F0000E0001C3
:1013C0008D6F000E8E6F800E8F6F3F0E906F58EFF7
:1013D0001DF0ABBFF8EF09F0A805000EA959800E6B
:1013E000AA593F0EAB59D8A0F8EF09F0FAEF09F06F
:1013F00016EF0AF07FBF01EF0AF0FFEF09F00CEFE4
:101400000AF0000E00018D6F000E8E6F000E8F6FC0
:10141000000E906F58EF1DF091C08DF092C08EF0CD
:1014200093C08FF094C090F058EF1DF07FBF1DEF78
:101430000AF01BEF0AF031EF0AF091C00AF092C0F7
:101440000BF093C00CF094C00DF07AEC2CF00AC0B5
:101450008DF00BC08EF00CC08FF00DC090F058EFE7
:101460001DF0000E00018D6F000E8E6F000E8F6F4D
:10147000000E906F58EF1DF0800E921909E13F0E9B
:10148000931990119111D8A448EF0AF04AEF0AF08D
:1014900077EF0AF07FBF51EF0AF04FEF0AF06DEFE0
:1014A0000AF0000E3B6E000E3C6E800E3D6E3F0E4D
:1014B0003E6E8DC03FF08EC040F08FC041F090C0B6
:1014C00042F02EEC24F03BC08DF03CC08EF03DC0CD
:1014D0008FF03EC090F058EF1DF08DC08DF08EC0A3
:1014E0008EF08FC08FF090C090F058EF1DF0400E3E
:1014F0007F197C117D117E11D8A481EF0AF083EF52
:101500000AF09FEF0AF08DC01AF08EC01BF08FC05A
:101510001CF090C01DF08DC01EF08EC01FF08FC05B
:1015200020F090C021F019EC22F01AC08DF01BC001
:101530008EF01CC08FF01DC090F058EF1DF03F0ED4
:101540007F197C117D117E11D8A4A9EF0AF0ABEFB1
:101550000AF0C6EF0AF063BFB0EF0AF0B2EF0AF08C
:10156000C6EF0AF08DC047F08EC048F08FC049F03A
:1015700090C04AF059EC1DF047C08DF048C08EF085
:1015800049C08FF04AC090F058EF1DF08DC00AF0AE
:101590008EC00BF08FC00CF090C00DF096EC2CF0CC
:1015A0000AC070F10BC071F10CC072F10DC073F183
:1015B000800E0101AA190BE17F0EAB19A811A91128
:1015C000D8B4E5EF0AF0E7EF0AF000EF0BF0A8510E
:1015D000A911AA11AB11D8B4F0EF0AF0F2EF0AF09A
:1015E00000EF0BF0800EAA1909E13F0EAB19A8110C
:1015F000A911D8A4FEEF0AF000EF0BF0CBEF0BF02F
:1016000070C1B4F171C1B5F172C1B6F173C1B7F176
:101610007FBF0FEF0BF00DEF0BF029EF0BF0000E7B
:101620003B6E000E3C6E800E3D6E3F0E3E6EB4C1B2
:101630003FF0B5C140F0B6C141F0B7C142F02EEC69
:1016400024F03BC0B4F13CC0B5F13DC0B6F13EC0A2
:10165000B7F1010163BF31EF0BF02FEF0BF0C1EFDA
:101660000BF0000EA8250001956F000E0101A921C5
:101670000001966F800E0101AA210001976FC00E34
:101680000101AB210001986F01015051000195113A
:10169000996F01015151000196119A6F0101525148
:1016A000000197119B6F01015351000198119C6F2C
:1016B00099519A119B119C11D8A461EF0BF063EF23
:1016C0000BF0A3EF0BF0B4C137F0B5C138F0B6C1E1
:1016D00039F0B7C13AF0B4C133F0B5C134F0B6C196
:1016E00035F0B7C136F057EC2CF033C03BF034C0C6
:1016F0003CF035C03DF036C03EF0B4C137F0B5C166
:1017000038F0B6C139F0B7C13AF0B4C133F0B5C161
:1017100034F0B6C135F0B7C136F057EC2CF033C019
:101720003FF034C040F035C041F036C042F02EECFE
:1017300024F03BC0B4F13CC0B5F13DC0B6F13EC0B1
:10174000B7F1C1EF0BF001015005511152115311C6
:10175000D8A4ADEF0BF0AFEF0BF0C1EF0BF0B4C1BD
:101760000AF0B5C10BF0B6C10CF0B7C10DF07AECC0
:101770002CF00AC0B4F10BC0B5F10CC0B6F10DC02D
:10178000B7F1B4C18DF0B5C18EF0B6C18FF0B7C15D
:1017900090F058EF1DF0000E886F000E896F800EDC
:1017A0008A6F3F0E8B6F63BFDAEF0BF0D8EF0BF051
:1017B00038EF0CF05051511152115311D8A4E3EFEE
:1017C0000BF0E5EF0BF025EF0CF08DC037F08EC07D
:1017D00038F08FC039F090C03AF08DC033F08EC031
:1017E00034F08FC035F090C036F057EC2CF033C099
:1017F0003BF034C03CF035C03DF036C03EF08DC00B
:1018000037F08EC038F08FC039F090C03AF08DC0FC
:1018100033F08EC034F08FC035F090C036F057EC06
:101820002CF033C03FF034C040F035C041F036C03A
:1018300042F02EEC24F03BC08DF03CC08EF03DC059
:101840008FF03EC090F058EF1DF05005511152112D
:101850005311D8A42EEF0CF030EF0CF038EF0CF051
:10186000000E886F000E896F800E8A6FBF0E8B6F1F
:1018700093BF47EF0CF09005000E9159000E92595E
:101880004D0E9359D8A047EF0CF049EF0CF0CEEF76
:101890000EF0ABBF5BEF0CF0F80EA85DFF0EA95980
:1018A0007F0EAA593F0EAB59D8B059EF0CF05BEF41
:1018B0000CF0CEEF0CF07FBF60EF0CF062EF0CF09D
:1018C00098EF0CF0600E1E6E420E1F6EA20E206E80
:1018D0000D0E216E88C11AF089C11BF08AC11CF05F
:1018E0008BC11DF019EC22F01AC0A4F11BC0A5F1A8
:1018F0001CC0A6F11DC0A7F1A4C11AF0A5C11BF020
:10190000A6C11CF0A7C11DF0600E1E6E420E1F6E18
:10191000A20E206E0D0E216E19EC22F01AC08DF071
:101920001BC08EF01CC08FF01DC090F058EF1DF052
:10193000CA0E1E6EF20E1F6E490E206E710E216EC3
:1019400088C11AF089C11BF08AC11CF08BC11DF03F
:1019500019EC22F01AC0A4F11BC0A5F11CC0A6F11D
:101960001DC0A7F1A4C11AF0A5C11BF0A6C11CF0AF
:10197000A7C11DF0CA0E1E6EF20E1F6E490E206E1C
:10198000710E216E19EC22F01AC08DF01BC08EF082
:101990001CC08FF01DC090F058EF1DF0ABBFDEEF04
:1019A0000CF0080EA85D000EA959800EAA593F0E32
:1019B000AB59D8A0DEEF0CF0E0EF0CF05BEF0DF0D0
:1019C0007FBFEFEF0CF07F517E117D1106E17C05AA
:1019D000D8B0EDEF0CF0EFEF0CF025EF0DF0600E4E
:1019E0001E6E420E1F6EA20E206E0D0E216E88C15D
:1019F0001AF089C11BF08AC11CF08BC11DF019ECD3
:101A000022F01AC0A4F11BC0A5F11CC0A6F11DC094
:101A1000A7F1A4C11AF0A5C11BF0A6C11CF0A7C173
:101A20001DF0600E1E6E420E1F6EA20E206E0D0E79
:101A3000216E19EC22F01AC08DF01BC08EF01CC074
:101A40008FF01DC090F058EF1DF0CA0E1E6EF20E02
:101A50001F6E490E206E710E216E88C11AF089C169
:101A60001BF08AC11CF08BC11DF019EC22F01AC0CA
:101A7000A4F11BC0A5F11CC0A6F11DC0A7F1A4C113
:101A80001AF0A5C11BF0A6C11CF0A7C11DF0CA0E1B
:101A90001E6EF20E1F6E490E206E710E216E19EC35
:101AA00022F01AC08DF01BC08EF01CC08FF01DC03C
:101AB00090F058EF1DF070C10AF071C10BF072C1C7
:101AC0000CF073C10DF0000E0E6E000E0F6E800E46
:101AD000106EBF0E116EB9EC1FF00AC0B0F10BC052
:101AE000B1F10CC0B2F10DC0B3F1000E1E6E000ECC
:101AF0001F6E800E206E3E0E216EB0C11AF0B1C175
:101B00001BF0B2C11CF0B3C11DF019EC22F01AC0D9
:101B100037F01BC038F01CC039F01DC03AF0AB0ED6
:101B2000336EAA0E346EAA0E356E3E0E366E57EC2C
:101B30002CF033C0A4F134C0A5F135C0A6F136C0F5
:101B4000A7F1B0C11EF0B1C11FF0B2C120F0B3C106
:101B500021F0B0C11AF0B1C11BF0B2C11CF0B3C189
:101B60001DF019EC22F01AC054F11BC055F11CC035
:101B700056F11DC057F1B0C11EF0B1C11FF0B2C186
:101B800020F0B3C121F0A4C11AF0A5C11BF0A6C179
:101B90001CF0A7C11DF019EC22F01AC037F01BC0D1
:101BA00038F01CC039F01DC03AF0000E336E000E44
:101BB000346E000E356E3F0E366E57EC2CF033C08F
:101BC00048F134C049F135C04AF136C04BF154C137
:101BD0001AF055C11BF056C11CF057C11DF048C189
:101BE0001EF049C11FF04AC120F04BC121F019EC91
:101BF00022F01AC044F11BC045F11CC046F11DC0C3
:101C000047F1B0C11AF0B1C11BF0B2C11CF0B3C1B1
:101C10001DF0000E1E6EAA0E1F6EB80E206E3F0E37
:101C2000216E19EC22F01AC074F11BC075F11CC0B2
:101C300076F11DC077F1700E1E6EA50E1F6EEC0EB4
:101C4000206E360E216EB0C11AF0B1C11BF0B2C1C8
:101C50001CF0B3C11DF019EC22F01AC033F01BC008
:101C600034F01CC035F01DC036F03B0E1E6EAA0EBF
:101C70001F6EB80E206E3F0E216E44C11AF045C192
:101C80001BF046C11CF047C11DF019EC22F01AC030
:101C900037F01BC038F01CC039F01DC03AF057ECCB
:101CA0002CF033C078F134C079F135C07AF136C008
:101CB0007BF174C10AF075C10BF076C10CF077C1ED
:101CC0000DF078C10EF079C10FF07AC110F07BC130
:101CD00011F0B9EC1FF00AC084F10BC085F10CC003
:101CE00086F10DC087F184C1B8F185C1B9F186C113
:101CF000BAF187C1BBF1B8C194F1B9C195F1BAC1CC
:101D000096F1BBC197F1000E01019415B86FF00E6A
:101D10009515B96FFF0E9615BA6FFF0E9715BB6F2D
:101D2000B8C184F1B9C185F1BAC186F1BBC187F1EF
:101D300074C137F075C138F076C139F077C13AF027
:101D400084C133F085C134F086C135F087C136F0E7
:101D500057EC2CF033C098F134C099F135C09AF1AA
:101D600036C09BF178C133F079C134F07AC135F0D7
:101D70007BC136F098C137F099C138F09AC139F07B
:101D80009BC13AF057EC2CF033C01CF134C01DF16C
:101D900035C01EF136C01FF14EEF16F0000E806FF9
:101DA000000E816F000E826F000E836FABBFE4EFF9
:101DB0000EF0AB5107E1800EAA5DD8B0E2EF0EF055
:101DC000E4EF0EF017EF0FF070C11AF071C11BF0C5
:101DD00072C11CF073C11DF0000E1E6E000E1F6E4E
:101DE000800E206E4B0E216E19EC22F01AC070F19D
:101DF0001BC071F11CC072F11DC073F1E80E01012E
:101E00008027FF0E8123FF0E8223FF0E832370C1E4
:101E1000B8F171C1B9F172C1BAF173C1BBF1B8C106
:101E2000A8F1B9C1A9F1BAC1AAF1BBC1ABF1170EB2
:101E30000001956FA8C196F0A9C197F0AAC198F0CA
:101E4000ABC199F0956727EF0FF02FEF0FF09935A1
:101E50009933983397339633952F22EF0FF0810EF5
:101E6000000196259A6FFF0E97219B6FFF0E982118
:101E70009C6FFF0E99219D6F9A51010180270001EF
:101E80009B510101812300019C510101822300012A
:101E90009D5101018323FF0EA815AC6FFF0EA915FC
:101EA000AD6F7F0EAA15AE6F000EAB15AF6F000EB3
:101EB000AC11A86F000EAD11A96F800EAE11AA6F04
:101EC0003F0EAF11AB6FAFBF75EF0FF0AF510BE12E
:101ED000720EAC5DC40EAD591C0EAE59D8B073EF86
:101EE0000FF075EF0FF07FEF0FF0000EA06F000EF8
:101EF000A16F000EA26F000EA36FB1EF0FF0AFBF86
:101F000091EF0FF0AF510BE1D70EAC5DB30EAD59B1
:101F10005D0EAE59D8B08FEF0FF091EF0FF09BEF41
:101F20000FF0010EA06F000EA16F000EA26F000E49
:101F3000A36FB1EF0FF0000EA06F000EA16F000EA7
:101F4000A26F000EA36F010E8027000E8123822353
:101F50008323000EA827000EA923800EAA23FF0EBC
:101F6000AB23A8C1B8F1A9C1B9F1AAC1BAF1ABC1FB
:101F7000BBF1B8C170F1B9C171F1BAC172F1BBC1A5
:101F800073F170C133F071C134F072C135F073C1B7
:101F900036F0A0C195F0A1C196F00001D890953718
:101FA0009637D89095379637690E9525F66E100EB0
:101FB0009621F76EF86A000EF8220900F5CF37F087
:101FC0000900F5CF38F00900F5CF39F00A00F5CF58
:101FD0003AF057EC2CF033C074F134C075F135C0D1
:101FE00076F136C077F1000E3B6E000E3C6E800E2F
:101FF0003D6E3F0E3E6E70C10EF071C10FF072C1AA
:1020000010F073C111F0A0C195F0A1C196F00001CC
:10201000D89095379637D89095379637690E95258D
:10202000F66E100E9621F76EF86A000EF82209007F
:10203000F5CF0AF00900F5CF0BF00900F5CF0CF051
:102040000A00F5CF0DF0B9EC1FF00AC03FF00BC04D
:1020500040F00CC041F00DC042F02EEC24F03BC02B
:1020600078F13CC079F13DC07AF13EC07BF174C19A
:102070001AF075C11BF076C11CF077C11DF078C154
:102080001EF079C11FF07AC120F07BC121F019EC5C
:1020900022F01AC05CF11BC05DF11CC05EF11DC0D6
:1020A0005FF15CC16CF15DC16DF15EC16EF15FC14C
:1020B0006FF16CC1B8F16DC1B9F16EC1BAF16FC108
:1020C000BBF1B8C194F1B9C195F1BAC196F1BBC1E8
:1020D00097F1000E01019415B86FF00E9515B96FC8
:1020E000FF0E9615BA6FFF0E9715BB6FB8C16CF156
:1020F000B9C16DF1BAC16EF1BBC16FF1A8C195F064
:10210000A9C196F0AAC197F0ABC198F0000198352B
:102110009833973396339533000E9515996FF00EDB
:1021200096159A6FFF0E97159B6FFF0E98159C6F73
:10213000000E99110101946F000E00019A11010126
:10214000956F000E00019B110101966F200E00019A
:102150009C110101976FA0C195F0A1C196F0A2C199
:1021600097F0A3C198F0150ED890000195379637D7
:1021700097379837E82EB4EF10F001019451000121
:102180009525996F01019551000196219A6F0101E2
:102190009651000197219B6F0101975100019821F1
:1021A0009C6F000E99250101B86F000E00019A2165
:1021B0000101B96F400E00019B210101BA6F000EB1
:1021C00000019C210101BB6FB8C168F1B9C169F17F
:1021D000BAC16AF1BBC16BF1A0C195F0A1C196F083
:1021E0000001D89095379637D89095379637690E75
:1021F0009525F66E100E9621F76EF86A000EF822FD
:102200000900F5CF37F00900F5CF38F00900F5CF18
:1022100039F00A00F5CF3AF068C133F069C134F003
:102220006AC135F06BC136F057EC2CF033C098F131
:1022300034C099F135C09AF136C09BF170C133F0CA
:1022400071C134F072C135F073C136F098C137F006
:1022500099C138F09AC139F09BC13AF057EC2CF093
:1022600033C034F134C035F135C036F136C037F102
:1022700068C11EF069C11FF06AC120F06BC121F076
:102280006CC11AF06DC11BF06EC11CF06FC11DF066
:1022900019EC22F01AC037F01BC038F01CC039F01E
:1022A0001DC03AF074C133F075C134F076C135F019
:1022B00077C136F057EC2CF033C098F134C099F167
:1022C00035C09AF136C09BF134C11EF035C11FF004
:1022D00036C120F037C121F06CC11AF06DC11BF07E
:1022E0006EC11CF06FC11DF019EC22F01AC037F05E
:1022F0001BC038F01CC039F01DC03AF098C133F053
:1023000099C134F09AC135F09BC136F057EC2CF0EE
:1023100033C054F134C055F135C056F136C057F1D1
:1023200054C11AF055C11BF056C11CF057C11DF025
:1023300078C11EF079C11FF07AC120F07BC121F075
:1023400019EC22F01AC030F11BC031F11CC032F17F
:102350001DC033F15CC11AF05DC11BF05EC11CF001
:102360005FC11DF05CC11EF05DC11FF05EC120F0B9
:102370005FC121F019EC22F01AC08CF11BC08DF165
:102380001CC08EF11DC08FF1550E0E6E320E0F6EF9
:102390006C0E106E3E0E116E420E1E6EF10E1F6E12
:1023A000530E206E3E0E216E8CC11AF08DC11BF0B3
:1023B0008EC11CF08FC11DF019EC22F01AC00AF07A
:1023C0001BC00BF01CC00CF01DC00DF0B9EC1FF0D1
:1023D0000AC0A4F10BC0A5F10CC0A6F10DC0A7F175
:1023E000050E0E6EA30E0F6E8B0E106E3E0E116E4E
:1023F0008CC11EF08DC11FF08EC120F08FC121F065
:10240000A4C11AF0A5C11BF0A6C11CF0A7C11DF004
:1024100019EC22F01AC00AF01BC00BF01CC00CF023
:102420001DC00DF0B9EC1FF00AC054F10BC055F1FE
:102430000CC056F10DC057F1AB0E0E6EAA0E0F6E0A
:10244000AA0E106E3E0E116E8CC11EF08DC11FF0D3
:102450008EC120F08FC121F054C11AF055C11BF07C
:1024600056C11CF057C11DF019EC22F01AC00AF039
:102470001BC00BF01CC00CF01DC00DF0B9EC1FF020
:102480000AC048F10BC049F10CC04AF10DC04BF134
:10249000B70E0E6E6D0E0F6EDB0E106E3E0E116ED1
:1024A0008CC11EF08DC11FF08EC120F08FC121F0B4
:1024B00048C11AF049C11BF04AC11CF04BC11DF0C4
:1024C00019EC22F01AC00AF01BC00BF01CC00CF073
:1024D0001DC00DF0B9EC1FF00AC038F10BC039F186
:1024E0000CC03AF10DC03BF19A0E0E6E990E0F6EB4
:1024F000190E106E3F0E116E8CC11EF08DC11FF0B3
:102500008EC120F08FC121F038C11AF039C11BF003
:102510003AC11CF03BC11DF019EC22F01AC00AF0C0
:102520001BC00BF01CC00CF01DC00DF0B9EC1FF06F
:102530000AC000F10BC001F10CC002F10DC003F1A3
:102540008CC11EF08DC11FF08EC120F08FC121F013
:102550008CC11AF08DC11BF08EC11CF08FC11DF013
:1025600019EC22F01AC004F11BC005F11CC006F1E1
:102570001DC007F100C11AF001C11BF002C11CF01F
:1025800003C11DF004C11EF005C11FF006C120F0FB
:1025900007C121F019EC22F01AC04CF11BC04DF11B
:1025A0001CC04EF11DC04FF130C11EF031C11FF0F3
:1025B00032C120F033C121F05CC10EF05DC10FF0DB
:1025C0005EC110F05FC111F06CC10AF06DC10BF07B
:1025D0006EC10CF06FC10DF0B9EC1FF00AC01AF01B
:1025E0000BC01BF00CC01CF00DC01DF019EC22F04C
:1025F0001AC058F11BC059F11CC05AF11DC05BF143
:102600004CC10AF04DC10BF04EC10CF04FC10DF0A2
:1026100058C10EF059C10FF05AC110F05BC111F052
:10262000B9EC1FF00AC04CF10BC04DF10CC04EF1DB
:102630000DC04FF16CC11AF06DC11BF06EC11CF0E2
:102640006FC11DF06CC11EF06DC11FF06EC120F096
:102650006FC121F019EC22F01AC08CF11BC08DF172
:102660001CC08EF11DC08FF1000E0E6E000E0F6E9D
:10267000400E106E400E116E8CC10AF08DC10BF031
:102680008EC10CF08FC10DF0B9EC1FF00AC058F1EB
:102690000BC059F10CC05AF10DC05BF158C10AF0E2
:1026A00059C10BF05AC10CF05BC10DF04CC10EF0DA
:1026B0004DC10FF04EC110F04FC111F0B9EC1FF039
:1026C0000AC068F10BC069F10CC06AF10DC06BF172
:1026D00068C1B8F169C1B9F16AC1BAF16BC1BBF1A6
:1026E000B8C194F1B9C195F1BAC196F1BBC197F1E6
:1026F000000E01019415B86FF00E9515B96FFF0E1D
:102700009615BA6FFF0E9715BB6FB8C168F1B9C1C6
:1027100069F1BAC16AF1BBC16BF1000E0E6E000E19
:102720000F6E400E106EC00E116E68C10AF069C1C6
:102730000BF06AC10CF06BC10DF0B9EC1FF00AC0D0
:102740003CF10BC03DF10CC03EF10DC03FF18CC11E
:1027500037F08DC138F08EC139F08FC13AF03CC1ED
:1027600033F03DC134F03EC135F03FC136F057EC97
:102770002CF033C040F134C041F135C042F136C0D5
:1027800043F14CC133F04DC134F04EC135F04FC16F
:1027900036F040C137F041C138F042C139F043C191
:1027A0003AF057EC2CF033C034F134C035F135C079
:1027B00036F136C037F16CC11AF06DC11BF06EC135
:1027C0001CF06FC11DF068C11EF069C11FF06AC125
:1027D00020F06BC121F019EC22F01AC074F11BC07B
:1027E00075F11CC076F11DC077F168C11EF069C19A
:1027F0001FF06AC120F06BC121F030C11AF031C165
:102800001BF032C11CF033C11DF019EC22F01AC0CC
:102810000AF01BC00BF01CC00CF01DC00DF05CC119
:102820001EF05DC11FF05EC120F05FC121F034C118
:102830001AF035C11BF036C11CF037C11DF019EC80
:1028400022F01AC00EF01BC00FF01CC010F01DC00B
:1028500011F0B9EC1FF00AC078F10BC079F10CC08F
:102860007AF10DC07BF174C10AF075C10BF076C12D
:102870000CF077C10DF078C10EF079C10FF07AC17C
:1028800010F07BC111F0B9EC1FF00AC09CF10BC035
:102890009DF10CC09EF10DC09FF19CC1B8F19DC18E
:1028A000B9F19EC1BAF19FC1BBF1B8C194F1B9C1F0
:1028B00095F1BAC196F1BBC197F1000E01019415D3
:1028C000B86FF00E9515B96FFF0E9615BA6FFF0E23
:1028D0009715BB6FB8C19CF1B9C19DF1BAC19EF10A
:1028E000BBC19FF174C137F075C138F076C139F0C2
:1028F00077C13AF09CC133F09DC134F09EC135F0F0
:102900009FC136F057EC2CF033C098F134C099F1E8
:1029100035C09AF136C09BF178C133F079C134F0FB
:102920007AC135F07BC136F098C137F099C138F0E3
:102930009AC139F09BC13AF057EC2CF033C064F1E6
:1029400034C065F135C066F136C067F19CC11AF03C
:102950009DC11BF09EC11CF09FC11DF0000E1E6E9C
:10296000400E1F6E760E206E3F0E216E19EC22F087
:102970001AC020F11BC021F11CC022F11DC023F19F
:102980004F0E1E6E380E1F6E760E206E3F0E216E9D
:1029900064C11AF065C11BF066C11CF067C11DF06F
:1029A00019EC22F01AC00EF01BC00FF01CC010F082
:1029B0001DC011F0C60E1E6E230E1F6EF60E206E89
:1029C000B80E216E9CC11AF09DC11BF09EC11CF077
:1029D0009FC11DF019EC22F01AC00AF01BC00BF0C9
:1029E0001CC00CF01DC00DF0B9EC1FF00AC058F16E
:1029F0000BC059F10CC05AF10DC05BF158C10AF07F
:102A000059C10BF05AC10CF05BC10DF0A0C195F09B
:102A1000A1C196F00001D89095379637D890953798
:102A20009637010E9525F66E100E9621F76EF86A10
:102A3000000EF8220900F5CF0EF00900F5CF0FF0D7
:102A40000900F5CF10F00A00F5CF11F0B9EC1FF036
:102A50000AC024F10BC025F10CC026F10DC027F1EE
:102A600080C10AF081C10BF082C10CF083C10DF06E
:102A7000010E48EC28F00AC0B0F10BC0B1F10CC057
:102A8000B2F10DC0B3F124C10EF025C10FF026C183
:102A900010F027C111F020C10AF021C10BF022C1B2
:102AA0000CF023C10DF0B9EC1FF00AC058F10BC0B7
:102AB00059F10CC05AF10DC05BF1A0C195F0A1C154
:102AC00096F00001D89095379637D890953796377D
:102AD000090E9525F66E100E9621F76EF86A000E17
:102AE000F8220900F5CF0EF00900F5CF0FF009002C
:102AF000F5CF10F00A00F5CF11F058C10AF059C116
:102B00000BF05AC10CF05BC10DF0B9EC1FF00AC01C
:102B100008F10BC009F10CC00AF10DC00BF108C19E
:102B20000AF009C10BF00AC10CF00BC10DF0B0C1E5
:102B30000EF0B1C10FF0B2C110F0B3C111F0B9EC99
:102B40001FF00AC084F10BC085F10CC086F10DC0E6
:102B500087F184C1B8F185C1B9F186C1BAF187C1E5
:102B6000BBF1B8C194F1B9C195F1BAC196F1BBC13D
:102B700097F1000E01019415B86FF00E9515B96F1D
:102B8000FF0E9615BA6FFF0E9715BB6FB8C184F193
:102B9000B9C185F1BAC186F1BBC187F1B0C137F0C7
:102BA000B1C138F0B2C139F0B3C13AF084C133F0E9
:102BB00085C134F086C135F087C136F057EC2CF072
:102BC00033C098F134C099F135C09AF136C09BF109
:102BD000A0C195F0A1C196F00001D8909537963725
:102BE000D89095379637090E9525F66E100E9621DA
:102BF000F76EF86A000EF8220900F5CF37F00900E9
:102C0000F5CF38F00900F5CF39F00A00F5CF3AF0EA
:102C100098C133F099C134F09AC135F09BC136F0B8
:102C200057EC2CF033C040F134C041F135C042F1D3
:102C300036C043F120C137F021C138F022C139F04C
:102C400023C13AF040C133F041C134F042C135F004
:102C500043C136F057EC2CF033C00CF134C00DF109
:102C600035C00EF136C00FF124C133F025C134F068
:102C700026C135F027C136F00CC137F00DC138F050
:102C80000EC139F00FC13AF057EC2CF033C01CF1F3
:102C900034C01DF135C01EF136C01FF191C0B8F12E
:102CA00092C0B9F193C0BAF194C0BBF1B8C194F12C
:102CB000B9C195F1BAC196F1BBC197F1000E0101FE
:102CC0009415B86FF00E9515B96FFF0E9615BA6F83
:102CD000FF0E9715BB6FB8C128F1B9C129F1BAC170
:102CE0002AF1BBC12BF184C11EF085C11FF086C142
:102CF00020F087C121F028C137F029C138F02AC15E
:102D000039F02BC13AF091C033F092C034F093C047
:102D100035F094C036F057EC2CF033C01AF034C0C4
:102D20001BF035C01CF036C01DF019EC22F01AC0A3
:102D300010F11BC011F11CC012F11DC013F110C124
:102D40000AF011C10BF012C10CF013C10DF01CC13F
:102D50001EF01DC11FF01EC120F01FC121F091C047
:102D60001AF092C01BF093C01CF094C01DF019EC37
:102D700022F01AC00EF01BC00FF01CC010F01DC0D6
:102D800011F0B9EC1FF00AC064F10BC065F10CC082
:102D900066F10DC067F128C11AF029C11BF02AC1E4
:102DA0001CF02BC11DF084C11EF085C11FF086C12F
:102DB00020F087C121F019EC22F01AC09CF11BC051
:102DC0009DF11CC09EF11DC09FF164C10AF065C158
:102DD0000BF066C10CF067C10DF09CC10EF09DC1F7
:102DE0000FF09EC110F09FC111F0B9EC1FF00AC0A6
:102DF000B4F10BC0B5F10CC0B6F10DC0B7F1B4C160
:102E0000B8F1B5C1B9F1B6C1BAF1B7C1BBF1B8C13A
:102E1000ACF1B9C1ADF1BAC1AEF1BBC1AFF10101C5
:102E2000AFBF1FEF17F0AC05000EAD59000EAE5945
:102E3000430EAF59D8A01FEF17F021EF17F057EF4F
:102E400017F0CA0E1E6EF20E1F6E490E206E710E26
:102E5000216E88C11AF089C11BF08AC11CF08BC198
:102E60001DF019EC22F01AC0A4F11BC0A5F11CC082
:102E7000A6F11DC0A7F1A4C11AF0A5C11BF0A6C1FF
:102E80001CF0A7C11DF0CA0E1E6EF20E1F6E490E79
:102E9000206E710E216E19EC22F01AC08DF01BC04D
:102EA0008EF01CC08FF01DC090F058EF1DF0430E47
:102EB000AF19AC11AD11AE11D8A461EF17F063EFEB
:102EC00017F0D6EF17F09CC137F09DC138F09EC1C6
:102ED00039F09FC13AF0B4C133F0B5C134F0B6C196
:102EE00035F0B7C136F057EC2CF033C03BF034C0AE
:102EF0003CF035C03DF036C03EF03C0E0E6EAA0EE2
:102F00000F6E380E106E330E116E64C10AF065C17B
:102F10000BF066C10CF067C10DF0B9EC1FF00AC0F0
:102F20003FF00BC040F00CC041F00DC042F049EC46
:102F30002AF0D8B09EEF17F0A0EF17F0A0EF18F02E
:102F4000CA0E1E6EF20E1F6E490E206E710E216E9D
:102F500088C11AF089C11BF08AC11CF08BC11DF019
:102F600019EC22F01AC0A4F11BC0A5F11CC0A6F1F7
:102F70001DC0A7F1A4C11AF0A5C11BF0A6C11CF089
:102F8000A7C11DF0CA0E1E6EF20E1F6E490E206EF6
:102F9000710E216E19EC22F01AC08DF01BC08EF05C
:102FA0001CC08FF01DC090F058EF1DF0FF0EAC1547
:102FB0000001956FFF0E0101AD150001966FFF0E28
:102FC0000101AE150001976F7F0E0101AF150001E1
:102FD000986F98BFF8EF17F09505000E9659160EEA
:102FE0009759430E9859D8A0F8EF17F0FAEF17F059
:102FF00030EF18F0600E1E6E420E1F6EA20E206E95
:103000000D0E216E88C11AF089C11BF08AC11CF017
:103010008BC11DF019EC22F01AC0A4F11BC0A5F160
:103020001CC0A6F11DC0A7F1A4C11AF0A5C11BF0D8
:10303000A6C11CF0A7C11DF0600E1E6E420E1F6ED1
:10304000A20E206E0D0E216E19EC22F01AC08DF02A
:103050001BC08EF01CC08FF01DC090F058EF1DF00B
:10306000160E0101AE1909E1C30EAF19AC11AD1175
:10307000D8A43DEF18F03FEF18F0A0EF18F09CC176
:1030800037F09DC138F09EC139F09FC13AF0B4C10C
:1030900033F0B5C134F0B6C135F0B7C136F057ECF6
:1030A0002CF033C03BF034C03CF035C03DF036C0AE
:1030B0003EF064C13FF065C140F066C141F067C1B8
:1030C00042F049EC2AF0D8A068EF18F06AEF18F047
:1030D000A0EF18F0600E1E6E420E1F6EA20E206E44
:1030E0000D0E216E88C11AF089C11BF08AC11CF037
:1030F0008BC11DF019EC22F01AC0A4F11BC0A5F180
:103100001CC0A6F11DC0A7F1A4C11AF0A5C11BF0F7
:10311000A6C11CF0A7C11DF0600E1E6E420E1F6EF0
:10312000A20E206E0D0E216E19EC22F01AC08DF049
:103130001BC08EF01CC08FF01DC090F058EF1DF02A
:10314000FF0E0101AC152C6FFF0EAD152D6FFF0E9C
:10315000AE152E6F7F0EAF152F6F170E0001956FF6
:103160002CC196F02DC197F02EC198F02FC199F087
:103170009567BDEF18F0C5EF18F09935993398337E
:1031800097339633952FB8EF18F0810E00019625EE
:103190000101A06FFF0E000197210101A16FFF0E39
:1031A000000198210101A26FFF0E00019921010188
:1031B000A36F000E806F000E816F000E826F000EF5
:1031C000836F2FBFF0EF18F02C05000E2D59000E65
:1031D0002E593F0E2F59D8A0F0EF18F0F2EF18F04B
:1031E000F6EF19F0A0C195F0010E00019527000E31
:1031F000966F000E976F800E986F000E996F95670F
:1032000004EF19F00CEF19F099359933983397338F
:103210009633952FFFEF18F00101AC510001962570
:103220000101806FAD51000197210101816FAE5105
:10323000000198210101826FAF5100019921010124
:10324000836F810E0001956FFF0E966FFF0E976FD3
:10325000FF0E986F170E996F80C19AF081C19BF095
:1032600082C19CF083C19DF0996739EF19F041EF5D
:1032700019F09D359D339C339B339A33992F34EF4E
:1032800019F000019A5195250101A06F000E00016F
:1032900096210101A16F000E000197210101A26F8B
:1032A000000E000198210101A36FA0C195F0FF0E4F
:1032B0000001966FFF0E976F7F0E986F000E996F4B
:1032C000956765EF19F06DEF19F0993599339833DB
:1032D00097339633952F60EF19F00001961D9A6F82
:1032E000971D9B6F981D9C6F991D9D6F01018051CB
:1032F00000019A150101B86F815100019B15010170
:10330000B96F825100019C150101BA6F8351000110
:103310009D150101BB6FB8C1B0F1B9C1B1F1BAC11E
:10332000B2F1BBC1B3F1A05117080001956FFF0EB8
:10333000010180150001966FFF0E0101811500014A
:10334000976F7F0E010182150001986F000E010139
:1033500083150001996F000E96119A6F000E971158
:103360009B6F800E98119C6F000E99119D6F956751
:10337000BCEF19F0C4EF19F09D359D339C339B339E
:103380009A33952FB7EF19F09AC080F19BC081F165
:103390009CC082F19DC083F10101AFBFD4EF19F051
:1033A000D2EF19F0DCEF19F0831F821F811F806DAF
:1033B000000E8123822383239CC133F09DC134F00E
:1033C0009EC135F09FC136F0B0C137F0B1C138F0C1
:1033D000B2C139F0B3C13AF057EC2CF033C09CF1D4
:1033E00034C09DF135C09EF136C09FF164C10AF032
:1033F00065C10BF066C10CF067C10DF09CC10EF009
:103400009DC10FF09EC110F09FC111F0B9EC1FF0EB
:103410000AC0B0F10BC0B1F10CC0B2F10DC0B3F1F4
:10342000B0C1B8F1B1C1B9F1B2C1BAF1B3C1BBF128
:10343000B8C194F1B9C195F1BAC196F1BBC197F188
:10344000000E01019415B86F800E9515B96FFF0E2F
:103450009615BA6FFF0E9715BB6FB8C1B0F1B9C121
:10346000B1F1BAC1B2F1BBC1B3F1B0C11AF0B1C18F
:103470001BF0B2C11CF0B3C11DF0000E1E6E720E27
:103480001F6E310E206E3F0E216E19EC22F01AC015
:1034900074F11BC075F11CC076F11DC077F19CC1A1
:1034A00037F09DC138F09EC139F09FC13AF0B0C1EC
:1034B00033F0B1C134F0B2C135F0B3C136F057ECDE
:1034C0002CF033C098F134C099F135C09AF136C070
:1034D0009BF1180E1E6E720E1F6E310E206E3F0E87
:1034E000216E98C137F099C138F09AC139F09BC16B
:1034F0003AF064C133F065C134F066C135F067C19C
:1035000036F057EC2CF033C01AF034C01BF035C045
:103510001CF036C01DF019EC22F01AC014F11BC0CB
:1035200015F11CC016F11DC017F114C10AF015C128
:103530000BF016C10CF017C10DF08C0E1E6EBE0EF6
:103540001F6EBF0E206E350E216EB0C11AF0B1C1D4
:103550001BF0B2C11CF0B3C11DF019EC22F01AC06F
:103560000EF01BC00FF01CC010F01DC011F0B9EC24
:103570001FF00AC078F10BC079F10CC07AF10DC0D0
:103580007BF174C10AF075C10BF076C10CF077C104
:103590000DF078C10EF079C10FF07AC110F07BC147
:1035A00011F0B9EC1FF00AC0B4F10BC0B5F10CC0BA
:1035B000B6F10DC0B7F174C137F075C138F076C1FE
:1035C00039F077C13AF0B4C133F0B5C134F0B6C1C7
:1035D00035F0B7C136F057EC2CF033C098F134C059
:1035E00099F135C09AF136C09BF178C133F079C1B9
:1035F00034F07AC135F07BC136F098C137F099C10B
:1036000038F09AC139F09BC13AF057EC2CF033C036
:1036100044F134C045F135C046F136C047F1B4C17C
:103620001AF0B5C11BF0B6C11CF0B7C11DF0B4C192
:103630001EF0B5C11FF0B6C120F0B7C121F019ECE2
:1036400022F01AC0B0F11BC0B1F11CC0B2F11DC014
:10365000B3F10E0E0E6EEA0E0F6EDD0E106EB50E8D
:10366000116E4C0E1E6EBB0E1F6E310E206E330E91
:10367000216EB0C11AF0B1C11BF0B2C11CF0B3C1D0
:103680001DF019EC22F01AC00AF01BC00BF01CC090
:103690000CF01DC00DF0B9EC1FF00AC0A4F10BC076
:1036A000A5F10CC0A6F10DC0A7F1550E0E6EB30E1C
:1036B0000F6E8A0E106E380E116EB0C11EF0B1C1C1
:1036C0001FF0B2C120F0B3C121F0A4C11AF0A5C10E
:1036D0001BF0A6C11CF0A7C11DF019EC22F01AC006
:1036E0000AF01BC00BF01CC00CF01DC00DF0B9ECB3
:1036F0001FF00AC054F10BC055F10CC056F10DC0BB
:1037000057F1610E0E6E0B0E0F6E360E106EBB0E65
:10371000116EB0C11EF0B1C11FF0B2C120F0B3C133
:1037200021F054C11AF055C11BF056C11CF057C10D
:103730001DF019EC22F01AC00AF01BC00BF01CC0DF
:103740000CF01DC00DF0B9EC1FF00AC048F10BC021
:1037500049F10CC04AF10DC04BF1AB0E0E6EAA0E32
:103760000F6E2A0E106E3E0E116EB0C11EF0B1C16A
:103770001FF0B2C120F0B3C121F048C11AF049C115
:103780001BF04AC11CF04BC11DF019EC22F01AC00D
:103790000AF01BC00BF01CC00CF01DC00DF0B9EC02
:1037A0001FF00AC038F10BC039F10CC03AF10DC05E
:1037B0003BF1B4C133F0B5C134F0B6C135F0B7C197
:1037C00036F0B0C11EF0B1C11FF0B2C120F0B3C1DC
:1037D00021F038C11AF039C11BF03AC11CF03BC1CD
:1037E0001DF019EC22F01AC037F01BC038F01CC0D5
:1037F00039F01DC03AF057EC2CF033C084F134C0DE
:1038000085F135C086F136C087F1000E0E6E000ED0
:103810000F6E000E106EC00E116E84C10AF085C1CD
:103820000BF086C10CF087C10DF0B9EC1FF00AC097
:103830003FF00BC040F00CC041F00DC042F084C11D
:103840001EF085C11FF086C120F087C121F0B4C1F0
:103850001AF0B5C11BF0B6C11CF0B7C11DF019ECD0
:1038600022F01AC03BF01BC03CF01CC03DF01DC054
:103870003EF02EEC24F03BC03CF13CC03DF13DC09D
:103880003EF13EC03FF144C10EF045C10FF046C1CC
:1038900010F047C111F044C11EF045C11FF046C1F0
:1038A00020F047C121F0B4C11AF0B5C11BF0B6C178
:1038B0001CF0B7C11DF019EC22F01AC00AF01BC0B1
:1038C0000BF01CC00CF01DC00DF0B9EC1FF00AC0CD
:1038D00018F10BC019F10CC01AF10DC01BF13CC15D
:1038E00033F03DC134F03EC135F03FC136F018C170
:1038F00037F019C138F01AC139F01BC13AF057EC52
:103900002CF033C04CF134C04DF135C04EF136C00F
:103910004FF1B4C137F0B5C138F0B6C139F0B7C115
:103920003AF04CC133F04DC134F04EC135F04FC1C7
:1039300036F057EC2CF033C098F134C099F135C013
:103940009AF136C09BF1000E336E000E346E800E7D
:10395000356E3F0E366E98C137F099C138F09AC176
:1039600039F09BC13AF057EC2CF033C0B4F134C0BD
:10397000B5F135C0B6F136C0B7F1B4C1B8F1B5C1D3
:10398000B9F1B6C1BAF1B7C1BBF1B8C1ACF1B9C1B7
:10399000ADF1BAC1AEF1BBC1AFF180C195F081C14B
:1039A00096F082C197F083C198F0170ED89000016D
:1039B0009537963797379837E82ED6EF1CF0955104
:1039C0000101AC27000196510101AD23000197517F
:1039D0000101AE23000198510101AF23170E000130
:1039E000956FACC196F0ADC197F0AEC198F0AFC184
:1039F00099F09567FEEF1CF006EF1DF099359933AD
:103A0000983397339633952FF9EF1CF0000199BF47
:103A100016EF1DF099519811971106E19605D8B04F
:103A200014EF1DF016EF1DF02EEF1DF0B4C133F0B2
:103A3000B5C134F0B6C135F0B7C136F080C137F04A
:103A400081C138F02EEC27F033C0B4F134C0B5F1A9
:103A500035C0B6F136C0B7F13EEF1DF0ACC1B8F1DC
:103A6000ADC1B9F1AEC1BAF1AFC1BBF1B8C1B4F1EA
:103A7000B9C1B5F1BAC1B6F1BBC1B7F188C11AF08D
:103A800089C11BF08AC11CF08BC11DF0B4C11EF0AE
:103A9000B5C11FF0B6C120F0B7C121F019EC22F07A
:103AA0001AC08DF01BC08EF01CC08FF01DC090F0AE
:103AB000120047C071F048C072F049C073F04AC0AC
:103AC00074F071C089F072C08AF073C08BF074C05A
:103AD0008CF0000E00018915606F000E8A15616F71
:103AE000800E8B15626F7F0E8C15636F800E6219CE
:103AF00009E17F0E631960116111D8A482EF1DF0F6
:103B000084EF1DF0B2EF1DF047C01EF048C01FF05B
:103B100049C020F04AC021F047C01AF048C01BF04D
:103B200049C01CF04AC01DF019EC22F01AC00AF07E
:103B30001BC00BF01CC00CF01DC00DF047C00EF0F8
:103B400048C00FF049C010F04AC011F0B9EC1FF0A6
:103B50000AC047F00BC048F00CC049F00DC04AF055
:103B6000B8EF1FF08CBFC1EF1DF08C518B118A1183
:103B700006E18905D8B0BFEF1DF0C1EF1DF0FDEFE4
:103B80001DF0FF0E8915606FFF0E8A15616FFF0E25
:103B90008B15626F7F0E8C15636F6051611162111E
:103BA0006311D8A4D6EF1DF0D8EF1DF0E2EF1DF0A1
:103BB00047C047F048C048F049C049F04AC04AF001
:103BC000B8EF1FF08CBFE9EF1DF0E7EF1DF0FDEF40
:103BD0001DF0000EB76F210EB66F7D0E0A6E100E2F
:103BE0000B6EC8EC2CF00AC047F00BC048F00CC0BC
:103BF00049F00DC04AF0B8EF1FF0170E606F89C092
:103C000061F08AC062F08BC063F08CC064F06067C2
:103C10000CEF1EF014EF1EF064356433633362332F
:103C20006133602F07EF1EF061C081F062C082F047
:103C300063C083F064C084F000018151821183115C
:103C40008411D8A426EF1EF028EF1EF058EF1EF0C6
:103C5000000E6D6F000E6E6F000E6F6F000E706FB6
:103C60003DEF1EF0D89089378A378B378C37010E9D
:103C70006D27000E6E236F2370238BAF42EF1EF073
:103C800044EF1EF032EF1EF0FF0E6D25606FFF0E49
:103C90006E21616FFF0E6F21626FFF0E7021636FE7
:103CA0006051815F6151825B6251835B6351845BD0
:103CB000810E8127FF0E8223FF0E8323FF0E8423B4
:103CC000FF0E8915606FFF0E8A15616F7F0E8B15D1
:103CD000626F000E8C15636F000E6011896F000E0D
:103CE00061118A6F800E62118B6F000E63118C6FF1
:103CF00081A17DEF1EF07FEF1EF087EF1EF089514E
:103D000089278A518A238B518B238C518C238435AC
:103D10008433833382338133895189278A518A23BB
:103D20008B518B238C518C23000E696F000E6A6FB0
:103D3000000E6B6F000E6C6F69C075F06AC076F094
:103D40006BC077F06CC078F0000E856F000E866F48
:103D5000000E876F010E886FF6EF1EF08551692502
:103D6000796F86516A217A6F87516B217B6F8851F9
:103D70006C217C6F7951895D7A518A597B518B59BD
:103D80008C51800A606F7C51800A6059D8A0CBEFBB
:103D90001EF0CDEF1EF0E9EF1EF085517925696F19
:103DA00086517A216A6F87517B216B6F88517C2104
:103DB0006C6F7951895F7A518A5B7B518B5B7C5147
:103DC0008C5B8551752786517623875177238851DF
:103DD0007823895189278A518A238B518B238C51CF
:103DE0008C23D89088338733863385338551861169
:103DF00087118811D8A4FFEF1EF001EF1FF0AEEF7E
:103E00001EF089518A118B118C11D8B40AEF1FF062
:103E10000CEF1FF06DEF1FF0000E7D6F000E7E6F38
:103E2000800E7F6F3F0E806F7DC03BF07EC03CF008
:103E30007FC03DF080C03EF0000E3F6E000E406E31
:103E4000800E416E3F0E426E49EC2AF0D8A02BEF57
:103E50001FF02DEF1FF06DEF1FF0000E00017D6FC2
:103E6000000E7E6F800E7F6F3F0E806F000E3B6EE8
:103E7000000E3C6E800E3D6E3F0E3E6E7DC03FF0EC
:103E80007EC040F07FC041F080C042F049EC2AF093
:103E9000D8B04DEF1FF04FEF1FF058EF1FF0020E9C
:103EA00000017527000E7623772378236DEF1FF02E
:103EB000010E00017515606F000E7615616F000E22
:103EC0007715626F000E7815636F60517527615129
:103ED0007623625177236351782375C060F076C0F2
:103EE00061F077C062F078C063F00001633563333E
:103EF000623361336033000E6025896F000E6121EB
:103F00008A6F000E62218B6F3F0E63218C6F81C020
:103F100060F082C061F083C062F084C063F0170E6D
:103F2000D8906037613762376337E82E90EF1FF023
:103F30006051892761518A2362518B2363518C23FD
:103F400089C071F08AC072F08BC073F08CC074F0BD
:103F500071C07DF072C07EF073C07FF074C080F0DD
:103F60007DC047F07EC048F07FC049F080C04AF075
:103F700012000D50800B166E0D500D24186E0CAEF5
:103F8000C4EF1FF0C6EF1FF0C7EF1FF018801850E6
:103F9000D8B4CDEF1FF0CFEF1FF0E4EF1FF01828DB
:103FA000D8A4D5EF1FF0D7EF1FF0DFEF1FF0000E02
:103FB0000A6E000E0B6E000E0C6E000E0D6E0C8E57
:103FC000000E0D6EECEF1FF0000E0A6E000E0B6E71
:103FD000000E0C6E000E0D6E1150800B176E1650F9
:103FE0001718D8B4F6EF1FF0F8EF1FF0F9EF1FF035
:103FF000168C11501124176E10AE01EF20F003EF54
:1040000020F004EF20F017801750D8B40AEF20F00A
:104010000CEF20F021EF20F01728D8A412EF20F0A9
:1040200014EF20F01CEF20F0000E0E6E000E0F6E4D
:10403000000E106E000E116E108E000E116E29EF24
:1040400020F0000E0E6E000E0F6E000E106E000EB1
:10405000116E1850175CD8B030EF20F032EF20F01E
:1040600059EF20F016AC37EF20F039EF20F03BEF9E
:1040700020F0800E161A18C019F017C018F019C0D9
:1040800017F00AC019F00EC00AF019C00EF00BC0EC
:1040900019F00FC00BF019C00FF00CC019F010C0D0
:1040A0000CF019C010F00DC019F011C00DF019C0BE
:1040B00011F0000E196E185017C012F0136A125E3C
:1040C000000E135A13BE6EEF20F0135009E11A0EC2
:1040D000125CD8A06EEF20F070EF20F0A7EF20F078
:1040E0000A500B100C100D10D8A479EF20F07CEFC3
:1040F00020F0010E7DEF20F0000E196E000E0A6E0A
:10410000000E0B6E000E0C6E000E0D6E17C018F038
:10411000B0EF20F019A08FEF20F091EF20F097EF93
:1041200020F0D89019300109196E99EF20F0D8903D
:1041300019320AA09EEF20F0A0EF20F0A1EF20F0AE
:10414000198E0D340D320C320B320A32182A1750E8
:10415000185CD8A0AEEF20F0B0EF20F08AEF20F08E
:1041600016BCB5EF20F0B7EF20F0F7EF20F01850B5
:10417000D8A4BDEF20F0BFEF20F0C9EF20F0000E73
:104180000A6E000E0B6E000E0C6E000E0D6E18EF18
:1041900022F00E500A260F500B2210500C22115004
:1041A0000D220DA0D6EF20F0D8EF20F084EF21F003
:1041B00019A0DDEF20F0DFEF20F0E5EF20F0D89040
:1041C00019300109196EE7EF20F0D89019320AA0D2
:1041D000ECEF20F0EEEF20F0EFEF20F0198E0D3431
:1041E0000D320C320B320A32182A84EF21F00E50B5
:1041F0000A5C0F500B5810500C580D50800A126E6C
:104200001150800A1258D8B008EF21F00AEF21F0BF
:1042100035EF21F00A500E5C126E0B500F58136EE2
:104220000C501058146E0D501158156EFF0E1224BC
:104230000A6EFF0E13200B6EFF0E14200C6EFF0E85
:1042400015200D6E800E161A196C1950D8A42BEF7C
:1042500021F02DEF21F03DEF21F0010E0A26000E96
:104260000B220C220D223DEF21F00E500A5E0F5062
:104270000B5A10500C5A11500D5A0A500B100C10BA
:104280000D10D8A446EF21F048EF21F07DEF21F08A
:104290001950D8A44EEF21F050EF21F07DEF21F01E
:1042A000000E0A6E000E0B6E000E0C6E000E0D6EF0
:1042B00018EF22F0D8900A360B360C360D3619AEB0
:1042C00064EF21F066EF21F067EF21F00A8019A07A
:1042D0006CEF21F06EEF21F072EF21F0D8801936EB
:1042E00074EF21F0D89019361850D8B47AEF21F035
:1042F0007CEF21F07DEF21F018060CAE82EF21F06B
:1043000084EF21F05AEF21F0000E176E19AE8BEFFB
:1043100021F08DEF21F0A5EF21F019C012F07F0EF2
:104320001216D8B496EF21F098EF21F09CEF21F00F
:10433000010E176EA5EF21F00AA0A1EF21F0A3EF67
:1043400021F0A5EF21F098EF21F01750D8B4ABEF92
:1043500021F0ADEF21F0D8EF21F0010E0A26000E7A
:104360000B220C220D220DA0B8EF21F0BAEF21F0A4
:10437000D8EF21F00AC012F00BC013F00CC014F0FB
:104380000DC015F01534153214321332123212C02A
:104390000AF013C00BF014C00CF015C00DF0182873
:1043A000D8B4D5EF21F0D7EF21F0D8EF21F0182ABB
:1043B0001828D8B4DEEF21F0E0EF21F0E8EF21F08B
:1043C0001850D8A4E6EF21F0E8EF21F0FAEF21F041
:1043D000000E0A6E000E0B6E000E0C6E000E0D6EBF
:1043E0001850D8A4F6EF21F0F8EF21F0FAEF21F001
:1043F000000E166E18A0FFEF21F001EF22F004EF7F
:1044000022F00C8E05EF22F00C9ED89018300D6E25
:1044100016AE0DEF22F00FEF22F010EF22F00D8E0E
:104420000AC00AF00BC00BF00CC00CF00DC00DF070
:1044300012001D50800B266E1D501D242C6E1CAECC
:1044400024EF22F026EF22F027EF22F02C802C50D0
:10445000D8B42DEF22F02FEF22F042EF22F02C28DB
:10446000D8A435EF22F037EF22F03FEF22F0000E14
:104470001A6E000E1B6E000E1C6E000E1D6E1C8E42
:104480004AEF22F0000E1A6E000E1B6E000E1C6E1C
:10449000000E1D6E2150800B261A215021242B6EF8
:1044A00020AE55EF22F057EF22F058EF22F02B808C
:1044B0002B50D8B45EEF22F060EF22F073EF22F0C1
:1044C0002B28D8A466EF22F068EF22F070EF22F0DC
:1044D000000E1E6E000E1F6E000E206E000E216E6E
:1044E000208E7BEF22F0000E1E6E000E1F6E000E5F
:1044F000206E000E216E2B50D8B481EF22F083EF96
:1045000022F08BEF22F02C50D8A489EF22F08BEF11
:1045100022F095EF22F0000E1A6E000E1B6E000EB8
:104520001C6E000E1D6E2DEF24F020501A02F3CFEA
:1045300031F0F4CF32F03150276E286A296A2A6AA6
:1045400032502D6E2E6A2F6A306A1F501B02F3CF35
:1045500031F0F4CF32F031502726000E28222922E4
:104560002A2232502D26000E2E222F2230221E50BB
:104570001C02F3CF31F0F4CF32F031502726000E79
:10458000282229222A2232502D26000E2E222F22C6
:10459000302229C02AF028C029F027C028F0276A35
:1045A0001E501B02F3CF31F0F4CF32F031502726EA
:1045B00032502822000E2922000E2A221F501A02F1
:1045C000F3CF31F0F4CF32F0315027263250282289
:1045D000000E2922000E2A2229C02AF028C029F024
:1045E00027C028F0276A1E501A02F3CF31F0F4CF0B
:1045F00032F03150272632502822000E2922000E98
:104600002A2220501B02F3CF31F0F4CF32F0315088
:104610002D2632502E22000E2F22000E30221F5047
:104620001C02F3CF31F0F4CF32F031502D2632504E
:104630002E22000E2F22000E302220501C02F3CF1B
:1046400031F0F4CF32F03150226E3250236E246AB2
:10465000256A24C025F023C024F022C023F0226A5A
:1046600022502D2623502E2224502F222550302236
:1046700027C022F028C023F029C024F02AC025F04A
:10468000190E48EF23F0D8902532243223322232FB
:10469000E82E43EF23F022502D2623502E222450C3
:1046A0002F222550302229C02AF028C029F027C007
:1046B00028F0276A2B502CC022F0236A2226000EF5
:1046C0002322820E2224316EFF0E2320326E7EEFD3
:1046D00023F0D8902D362E362F3630362AAE73EF93
:1046E00023F075EF23F076EF23F02D80D890273656
:1046F000283629362A363106D8A032062FAE83EF67
:1047000023F085EF23F069EF23F0000E2B6E2AAE25
:104710008CEF23F08EEF23F0B2EF23F0FF0E27147F
:10472000226EFF0E2814236EFF0E2914246E7F0EB6
:104730002A14256E2250231024102510D8B4A3EF7C
:1047400023F0A5EF23F0A9EF23F0010E2B6EB2EFBB
:1047500023F02DA0AEEF23F0B0EF23F0B2EF23F063
:10476000A5EF23F02B50D8B4B8EF23F0BAEF23F025
:10477000DEEF23F0010E2D26000E2E222F223022F6
:1047800030A0C5EF23F0C7EF23F0DEEF23F02DC0FC
:1047900022F02EC023F02FC024F030C025F02534A5
:1047A000253224322332223222C02DF023C02EF0B3
:1047B00024C02FF025C030F0314A322A32BEE9EF52
:1047C00023F0325008E13128D8A0E9EF23F0EBEFD5
:1047D00023F0F5EF23F0000E2D6E000E2E6E800EEE
:1047E0002F6E7F0E306E23EF24F032BE02EF24F0E6
:1047F000325006E13104D8B000EF24F002EF24F08B
:104800000EEF24F0000E2D6E000E2E6E000E2F6E99
:10481000000E306E000E266E23EF24F031C02CF017
:10482000FF0E2D16FF0E2E167F0E2F16000E3016C1
:104830002CA01DEF24F01FEF24F020EF24F02F8E8A
:10484000D8902C30306E265030122DC01AF02EC069
:104850001BF02FC01CF030C01DF012003E50800B2A
:104860000001646F3E503E246B6F3DAE3AEF24F082
:104870003CEF24F03DEF24F06B816B51D8B443EF53
:1048800024F045EF24F05AEF24F06B29D8A44BEF25
:1048900024F04DEF24F055EF24F0000E3B6E000E97
:1048A0003C6E000E3D6E000E3E6E3D8E000E3E6E66
:1048B00062EF24F0000E3B6E000E3C6E000E3D6E6B
:1048C000000E3E6E4250800B641B425042246C6FBF
:1048D00041AE6DEF24F06FEF24F070EF24F06C81A7
:1048E0006C51D8B476EF24F078EF24F08DEF24F0FB
:1048F0006C29D8A47EEF24F080EF24F088EF24F018
:10490000000E3F6E000E406E000E416E000E426EB5
:10491000418E000E426E95EF24F0000E3F6E000EA9
:10492000406E000E416E000E426E3F50401041102E
:104930004210D8A49EEF24F0A0EF24F0B8EF24F0AA
:10494000000E3B6E000E3C6E000E3D6E000E3E6E85
:10495000800E3D127F0E3E1264513E123BC03BF072
:104960003CC03CF03DC03DF03EC03EF0FBEF25F0CA
:104970006B51D8A4BEEF24F0C0EF24F0CAEF24F0AE
:10498000000E3B6E000E3C6E000E3D6E000E3E6E45
:10499000FBEF25F06C516BC043F0446A435E000EA0
:1049A000445A7F0E4324656F000E4420666F3BC05F
:1049B00060F03CC061F03DC062F03EC063F0000EAC
:1049C0003B6E000E3C6E000E3D6E000E3E6E000E05
:1049D000676F000E686F000E696F000E6A6F000E41
:1049E0006C6F2BEF25F06C51D8B4F9EF24F0FBEF8E
:1049F00024F012EF25F0D8906037613762376337C3
:104A0000D8903B363C363D363E366AAF0AEF25F04D
:104A10000CEF25F00DEF25F03B80D8906737683715
:104A200069376A373F50605D405061594150625963
:104A300042506359D8A01FEF25F021EF25F02AEF4F
:104A400025F06A8D3F50605F4050615B4150625B72
:104A50004250635B6C2B190E6C6531EF25F033EF20
:104A600025F0F3EF24F06051611162116311D8B4A5
:104A70003CEF25F03EEF25F056EF25F0678156EF2D
:104A800025F0D8903B363C363D363E366AAF4BEF8C
:104A900025F04DEF25F04EEF25F03B80D89067379D
:104AA000683769376A376507D8A066073DAE5BEFA0
:104AB00025F05DEF25F041EF25F0000E6C6F6AAF39
:104AC00064EF25F066EF25F08AEF25F0FF0E6715FD
:104AD000436EFF0E6815446EFF0E6915456E7F0E1E
:104AE0006A15466E4350441045104610D8B47BEF0B
:104AF00025F07DEF25F081EF25F0010E6C6F8AEF38
:104B000025F03BA086EF25F088EF25F08AEF25F011
:104B10007DEF25F06C51D8B490EF25F092EF25F0A1
:104B2000B6EF25F0010E3B26000E3C223D223E2230
:104B30003EA09DEF25F09FEF25F0B6EF25F03BC09E
:104B400043F03CC044F03DC045F03EC046F0463422
:104B5000463245324432433243C03BF044C03CF01D
:104B600045C03DF046C03EF0654B662B66BFC1EFC9
:104B700025F0665108E16529D8A0C1EF25F0C3EF03
:104B800025F0CEEF25F0000E666F6569000E3B6ED6
:104B9000000E3C6E000E3D6E000E3E6E66BFDBEFFB
:104BA00025F0665106E16505D8B0D9EF25F0DBEFB9
:104BB00025F0E9EF25F0000E666F000E656F000E20
:104BC0003B6E000E3C6E000E3D6E000E3E6E000E03
:104BD000646F65C06BF06BA1F0EF25F0F2EF25F08C
:104BE000F5EF25F03D8EF6EF25F03D9ED8906B3128
:104BF0003E6EACEF24F0120051C08CFF04EF27F0A2
:104C00004F505010D8B407EF26F009EF26F00EEF02
:104C100026F0512A010E526E2DEF27F04D504E1006
:104C2000D8B415EF26F017EF26F02DEF27F0510638
:104C3000040E526E2DEF27F0505009E1650E4F5CC7
:104C4000D8A025EF26F027EF26F02BEF26F0020E56
:104C5000526E2DEF27F04F505010D8A432EF26F0AF
:104C600034EF26F02DEF27F04D504E10D8B43BEF27
:104C700026F03DEF26F03FEF26F018EF26F0000E6D
:104C8000526E2DEF27F00001BF51D8B44AEF26F045
:104C90004CEF26F04FEF26F0512A000EBF6FF50EB5
:104CA0004F5C010E5058D8A058EF26F05AEF26F06E
:104CB0005EEF26F0030E526E2DEF27F04F5050108E
:104CC000D8A465EF26F067EF26F02DEF27F04D50C2
:104CD0004E10D8B46EEF26F070EF26F03FEF26F0BE
:104CE00018EF26F00001BE51D8B479EF26F07BEF23
:104CF00026F07EEF26F0512A000EBE6F4F50501066
:104D0000D8A485EF26F087EF26F02DEF27F04D5041
:104D10004E10D8B48EEF26F090EF26F03FEF26F03D
:104D200018EF26F04E5009E1650E4D5CD8A09BEFC0
:104D300026F09DEF26F0A1EF26F0050E526E2DEF26
:104D400027F04D504E10D8A4A8EF26F0AAEF26F079
:104D50002DEF27F04F505010D8B4B1EF26F0B3EF3D
:104D600026F03FEF26F00AEF26F00001BD51D8B43F
:104D7000BCEF26F0BEEF26F0C1EF26F05106000E84
:104D8000BD6FF50E4D5C010E4E58D8A0CAEF26F04F
:104D9000CCEF26F0D0EF26F0060E526E2DEF27F066
:104DA0004D504E10D8A4D7EF26F0D9EF26F02DEFB6
:104DB00027F04F505010D8B4E0EF26F0E2EF26F085
:104DC0003FEF26F00AEF26F00001BC51D8B4EBEF1C
:104DD00026F0EDEF26F0F0EF26F05106000EBC6F46
:104DE0004D504E10D8A4F7EF26F0F9EF26F02DEF36
:104DF00027F04F505010D8B400EF27F002EF27F003
:104E00003FEF26F00AEF26F052500A6E0B6A0B5065
:104E1000000AD8B40EEF27F02DEF27F00A50000A51
:104E2000D8B400EF26F0010AD8B41CEF26F0030A2C
:104E3000D8B443EF26F0010AD8B472EF26F0070A7F
:104E4000D8B492EF26F0010AD8B4B5EF26F0030AE1
:104E5000D8B4E4EF26F02DEF27F0120033C041F074
:104E600034C042F035C043F036C044F038BE42EFA3
:104E700027F0385009E1800E375CD8A042EF27F0C8
:104E800044EF27F0A2EF27F041C01AF042C01BF018
:104E900043C01CF044C01DF0000E1E6E000E1F6EBD
:104EA000000E206E7F0E216E19EC22F01AC041F028
:104EB0001BC042F01CC043F01DC044F0810E3726D9
:104EC000FF0E382238BE6EEF27F0385009E1800E11
:104ED000375CD8A06EEF27F070EF27F00CEF28F0CA
:104EE00041C01AF042C01BF043C01CF044C01DF08A
:104EF000000E1E6E000E1F6E000E206E7F0E216EC5
:104F000019EC22F01AC041F01BC042F01CC043F063
:104F10001DC044F0810E3726FF0E382238BE9AEFAE
:104F200027F0385009E1800E375CD8A09AEF27F0BF
:104F30009CEF27F00CEF28F0000E386E7F0E376ED6
:104F40000CEF28F038AEAEEF27F0820E375CFF0E84
:104F50003858D8B0AEEF27F0B0EF27F00CEF28F0BC
:104F600041C01AF042C01BF043C01CF044C01DF009
:104F7000000E1E6E000E1F6E800E206E0C0E216E37
:104F800019EC22F01AC041F01BC042F01CC043F0E3
:104F90001DC044F0660E3726000E382238AEDAEF18
:104FA00027F0820E375CFF0E3858D8B0DAEF27F0C2
:104FB000DCEF27F00CEF28F041C01AF042C01BF0E4
:104FC00043C01CF044C01DF0000E1E6E000E1F6E8C
:104FD000800E206E0C0E216E19EC22F01AC041F0EA
:104FE0001BC042F01CC043F01DC044F0660E3726C3
:104FF000000E382238AE06EF28F0820E375CFF0E26
:105000003858D8B006EF28F008EF28F00CEF28F059
:10501000FF0E386E820E376E7F0E3724396E000E0B
:1050200038203A6E3B6A3C6A170ED89039363A36C9
:105030003B363C36E82E15EF28F039C03DF03AC03B
:105040003EF03BC03FF03CC040F03DC01AF03EC0D7
:105050001BF03FC01CF040C01DF041C01EF042C01C
:105060001FF043C020F044C021F019EC22F01AC018
:1050700033F01BC034F01CC035F01DC036F033C017
:1050800033F034C034F035C035F036C036F012009D
:10509000126E1250D8B44FEF28F051EF28F073EF92
:1050A00028F00DBE58EF28F056EF28F073EF28F0E7
:1050B0000AC00EF00BC00FF00CC010F00DC011F0C4
:1050C0000E1E0F1E101E111E0E2A000E0F22102281
:1050D00011220EC014F00FC015F010C016F011C050
:1050E00017F07BEF28F00AC014F00BC015F00CC0CD
:1050F00016F00DC017F00A500B100C100D10D8A4AC
:1051000084EF28F086EF28F090EF28F0000E0A6E6A
:10511000000E0B6E000E0C6E000E0D6E21EF29F0CE
:10512000960E136E9AEF28F0132AD8901732163283
:1051300015321432000E14140E6E000E15140F6E7C
:10514000000E1614106EFE0E1714116E0E500F1076
:1051500010101110D8A4AFEF28F0B1EF28F094EFA1
:1051600028F0BFEF28F0132A010E1426000E152296
:1051700016221722D8901732163215321432000E2A
:1051800014140E6E000E15140F6E000E1614106E11
:10519000FF0E1714116E0E500F1010101110D8A41E
:1051A000D4EF28F0D6EF28F0B3EF28F0DEEF28F0A8
:1051B0001306D890143615361636173616BEE3EF9A
:1051C00028F0E5EF28F0EDEF28F0020E1360EBEF8A
:1051D00028F0EDEF28F0D8EF28F013B0F2EF28F028
:1051E000F4EF28F0F5EF28F0169ED890133213C094
:1051F0000EF00F6A106A116A0EC011F0106A0F6A81
:105200000E6A0E5014120F50151210501612115033
:1052100017121250D8B40FEF29F011EF29F019EF3F
:1052200029F00DBE18EF29F016EF29F019EF29F03B
:10523000178E14C00AF015C00BF016C00CF017C082
:105240000DF012002FEC2CF001C006F002C007F0A8
:1052500006EC2CF001C008F002C009F0020E06189E
:105260000710D8A436EF29F038EF29F06CEF29F0B9
:10527000000E4E6E000E4D6E4F4A502A4FC001F088
:1052800050C002F0C2C003F0C3C004F0A4EC2BF085
:1052900001500210D8A44FEF29F051EF29F054EF3C
:1052A00029F0010E0001BE6F4FC001F050C002F0A6
:1052B000C4C003F0C5C004F0A4EC2BF001500210F0
:1052C000D8A465EF29F067EF29F0C4EF29F0010EAB
:1052D0000001BF6FC4EF29F0020E08180910D8A40E
:1052E00074EF29F076EF29F0AAEF29F0000E506E46
:1052F000000E4F6E4D4A4E2A4DC001F04EC002F0D6
:10530000C2C003F0C3C004F0A4EC2BF001500210A3
:10531000D8A48DEF29F08FEF29F092EF29F0010E3C
:105320000001BC6F4DC001F04EC002F0C4C003F0DC
:10533000C5C004F0A4EC2BF001500210D8A4A3EFD8
:1053400029F0A5EF29F0C4EF29F0010E0001BD6F8F
:10535000C4EF29F008040910D8B4B1EF29F0B3EF75
:1053600029F0BCEF29F006040710D8A4BAEF29F001
:10537000BCEF29F0C4EF29F0000E506E000E4F6E06
:10538000000E4E6E000E4D6E12000001A035A135CC
:105390004C6E4C50D8A4CFEF29F0D1EF29F0DBEFC1
:1053A00029F0000E9E6F000E9F6F000EA06F000E82
:1053B000A16F48EF2AF09EC0A2F09FC0A3F0A0C04A
:1053C000A4F0A1C0A5F0200EEBEF29F0D890A533F2
:1053D000A433A333A233E82EE6EF29F0A2514B6E9B
:1053E000A08FFF0E9E17FF0E9F17FF0EA017000E37
:1053F000A117960E4C5E4CBE02EF2AF000EF2AF089
:1054000018EF2AF04C50800A970FD8B00AEF2AF014
:105410000CEF2AF00EEF2AF0D1EF29F0D890A1334B
:10542000A0339F339E334C3E0EEF2AF030EF2AF02C
:105430001F0E4C641EEF2AF020EF2AF028EF2AF00E
:10544000D1EF29F0D8909E379F37A037A1374C066F
:105450004C50D8A42EEF2AF030EF2AF022EF2AF099
:105460004B50D8B436EF2AF038EF2AF040EF2AF04C
:10547000A11FA01F9F1F9E6D000E9F23A023A1238D
:105480009EC09EF09FC09FF0A0C0A0F0A1C0A1F060
:105490001200000E3B14436E000E3C14446E800E4E
:1054A0003D14456E7F0E3E14466E43504410451029
:1054B0004610D8A45EEF2AF060EF2AF068EF2AF0D9
:1054C000000E3B6E000E3C6E000E3D6E000E3E6EFA
:1054D000000E3F14436E000E4014446E800E4114C3
:1054E000456E7F0E4214466E4350441045104610E0
:1054F000D8A47DEF2AF07FEF2AF087EF2AF0000E84
:105500003F6E000E406E000E416E000E426E3EAECB
:105510008CEF2AF08EEF2AF097EF2AF03B6C3C1EBE
:10552000D8B03C2A3D1ED8B03D2A800E3E5642AE31
:105530009CEF2AF09EEF2AF0A7EF2AF03F6C401E66
:10554000D8B0402A411ED8B0412A800E4256000EE3
:105550003B1A000E3C1A000E3D1A800E3E1A000E39
:105560003F1A000E401A000E411A800E421A3F5098
:105570003B5C40503C5841503D5842503E58D8B09A
:10558000C4EF2AF0C6EF2AF0C9EF2AF0D890CAEF8C
:105590002AF0D8801200C70ED56E000E0001916F60
:1055A000000E926F400E936F400E946F000E8D6F41
:1055B000000E8E6F200E8F6F410E906F40EC08F042
:1055C0008DC0A8F08EC0A9F08FC0AAF090C0ABF03B
:1055D000000E1E6E000E1F6EA00E206E410E216E7C
:1055E000A8C01AF0A9C01BF0AAC01CF0ABC01DF0E7
:1055F00019EC22F01AC09EF01BC09FF01CC0A0F056
:105600001DC0A1F0C5EC29F09EC0ACF09FC0ADF06C
:10561000ACC00AF0ADC00BF0010E0D6E000E0C6EAA
:1056200042EC2BF00AC0B0F00BC0B1F00001B1BFEA
:1056300022EF2BF0B105D8B020EF2BF022EF2BF0AA
:105640002CEF2BF0B051FF08BA6FB151D8A0E82A67
:105650000008BB6F41EF2BF0D59CB051FF08AE6F37
:10566000B151D8A0E82AFF08AF6FAE51BA6FBB6B3B
:10567000BA51AE5DA66FBB51AF59A76FA751B86FB6
:10568000B96B1200000E0F6E0DBE4BEF2BF049EF01
:105690002BF051EF2BF00C6C0D1ED8B00D2A010E23
:1056A0000F6E0BBE58EF2BF056EF2BF05EEF2BF08A
:1056B0000A6C0B1ED8B00B2A010E0F1A000E116EC9
:1056C000000E106E0C500D10D8B469EF2BF06BEF7C
:1056D0002BF093EF2BF0010E0E6E73EF2BF0D890A2
:1056E0000C360D360E2A0DAE78EF2BF07AEF2BF03C
:1056F0006FEF2BF0D890103611360C500A5C0D501D
:105700000B58D8A086EF2BF088EF2BF08DEF2BF005
:105710000C500A5E0D500B5A1080D8900D320C328E
:105720000E2E7AEF2BF00F50D8B499EF2BF09BEFA1
:105730002BF09FEF2BF0106C111ED8B0112A10C067
:105740000AF011C00BF0120003500410D8B4ABEFF4
:105750002BF0ADEF2BF0D1EF2BF0010E056EB5EF76
:105760002BF0D89003360436052A04AEBAEF2BF09E
:10577000BCEF2BF0B1EF2BF00350015C045002584A
:10578000D8A0C5EF2BF0C7EF2BF0CBEF2BF00350D9
:10579000015E0450025AD89004320332052EBCEF49
:1057A0002BF001C001F002C002F01200F80EF66EFC
:1057B000590EF76E000EF86E00EEC2F010EE09F012
:1057C0000900F5CFEEFFE550E150FAE1080EF66E64
:1057D0005A0EF76E000EF86E0900F5CF53F009006F
:1057E000F5CF54F00900F5CF55F000EEB2F0100EF1
:1057F000EE6AE806FDE1526A516A506A4F6A4E6AE3
:105800004D6A569056920001D9EF2CF053C0CAF061
:10581000000E81B0010E536E0001CA515318D8A476
:1058200014EF2CF016EF2CF02AEF2CF05350D8B4D4
:105830001CEF2CF01EEF2CF024EF2CF0000E026E6B
:10584000010E016E2EEF2CF0000E026E020E016EA4
:105850002EEF2CF0000E026E000E016E120054C0EE
:1058600055F0000E80BA010E546E55505418D8A44D
:105870003CEF2CF03EEF2CF052EF2CF05450D8B40B
:1058800044EF2CF046EF2CF04CEF2CF0000E026EA3
:10589000010E016E56EF2CF0000E026E020E016E2C
:1058A00056EF2CF0000E026E000E016E1200000E7C
:1058B000371A000E381A000E391A800E3A1A33C001
:1058C0000AF034C00BF035C00CF036C00DF037C014
:1058D0000EF038C00FF039C010F03AC011F0B9EC3A
:1058E0001FF00AC033F00BC034F00CC035F00DC00F
:1058F00036F012000A500B100C100D10D8B483EFC4
:105900002CF085EF2CF08DEF2CF0000E0A1A000E13
:105910000B1A000E0C1A800E0D1A0AC00AF00BC0EA
:105920000BF00CC00CF00DC00DF01200B2C00EF068
:10593000B3C00FF0B4C010F0B5C011F00AC00EF043
:105940000BC00FF00CC010F00DC011F0119E0EC076
:105950000AF00FC00BF010C00CF011C00DF01200D7
:105960000600F2AAB6EF2CF0B8EF2CF0C6EF2CF040
:10597000F2A4BDEF2CF0BFEF2CF0C6EF2CF0F294A8
:10598000BAC0D6FFB8C0D7FF22EC29F0569211005A
:10599000FF0E0E6EFF0E0F6EFF0E106E7F0E116E5D
:1059A0000EC00AF00FC00BF010C00CF011C00DF0CB
:1059B0001200E7EC2CF0F0EC2CF001EC2DF0F7EC01
:1059C0002CF0FCEC25F0E1EF2CF007EF00F0000EDE
:1059D000956E000E8C6E928A93800F0EC16E12002F
:1059E000CBEC2AF0BAC0D6FFB8C0D7FF1200770EB2
:1059F000D36E0F0E9B6E12000A003200F401640099
:015A000001A4
:095A0200F28AF28E12000101018A
:020000040020DA
:08000000FFFFFFFFFFFFFFFF00
:020000040030CA
:0E000000FF09191EF38381FFFFC0FFE0FF40E0
:00000001FF
