:020000040000FA
:0400000007EF00F016
:0A0008005682B8ED2EF090EF2DF0B7
:101000000000000000DCCFD1350000000000C0155A
:101010003F6042A20D70A5EC363BAAB83F4F387630
:101020003F3CAA38338CBEBF350072313F18723155
:101030003F4CBB31330EEADDB555B38A38610B3610
:10104000BBABAA2A3E42F1533E55326C3E05A38B00
:101050003EABAAAA3EB76DDB3E9A99193F6042A209
:101060000DCAF249710000804B0000803F0000C0B3
:101070003F00AAB83FC623F6B80040763F496E63EA
:101080007265617365202020004465637265617339
:10109000650A00496E6372656173650A00008DC060
:1010A000B8F18EC0B9F18FC0BAF190C0BBF1B8C130
:1010B00060F1B9C161F1BAC162F1BBC163F191C024
:1010C000B8F192C0B9F193C0BAF194C0BBF1B8C104
:1010D0007CF1B9C17DF1BAC17EF1BBC17FF1FF0ED8
:1010E00001016015A86FFF0E6115A96FFF0E621553
:1010F000AA6F7F0E6315AB6FFF0E7C15906FFF0E0E
:101100007D15916FFF0E7E15926F7F0E7F15936F89
:101110009051911192119311D8A491EF08F093EF8F
:1011200008F09EEF08F0000E00018D6F000E8E6F2C
:10113000800E8F6F3F0E906F67EF1DF0800E62196B
:1011400009E13F0E631960116111D8A4AAEF08F0FC
:10115000ACEF08F0B7EF08F0000E00018D6F000E45
:101160008E6F800E8F6F3F0E906F67EF1DF0ABBFDD
:10117000C8EF08F0A805000EA959800EAA597F0EE5
:10118000AB59D8B0C6EF08F0C8EF08F0D9EF08F0B7
:1011900093BFD7EF08F09005000E9159800E925939
:1011A0007F0E9359D8A0D7EF08F0D9EF08F0F5EFEC
:1011B00008F08DC00AF08EC00BF08FC00CF090C00C
:1011C0000DF091C00EF092C00FF093C010F094C0DB
:1011D00011F0C8EC1FF00AC08DF00BC08EF00CC0EF
:1011E0008FF00DC090F067EF1DF0000E506F000EF5
:1011F000516F000E526F000E536F63BF04EF09F082
:1012000002EF09F0D0EF09F093BF10EF09F0800E64
:10121000925D4B0E9359D8A010EF09F012EF09F030
:101220001CEF09F0020E506F000E516F000E526F4E
:10123000000E536FD0EF09F093BF28EF09F0800E36
:10124000925D3F0E9359D8A028EF09F02AEF09F0DC
:10125000D0EF09F0170E0001956F90C196F091C183
:1012600097F092C198F093C199F095673AEF09F021
:1012700042EF09F099359933983397339633952F88
:1012800035EF09F0810E000196250101A06FFF0ED8
:10129000000197210101A16FFF0E000198210101BA
:1012A000A26FFF0E000199210101A36FA051170841
:1012B0000001956F90C196F091C197F092C198F09E
:1012C00093C199F0956767EF09F06FEF09F09935D1
:1012D0009933983397339633952F62EF09F096C080
:1012E000ACF197C0ADF198C0AEF199C0AFF101017A
:1012F000A05117080001956FACC196F0ADC197F0F1
:10130000AEC198F0AFC199F0952B8CEF09F0D89051
:101310009637973798379937952F87EF09F001015E
:1013200090510001961913E10101915100019719A3
:101330000EE1010192510001981909E10101935157
:1013400000019919D8A4A7EF09F0A9EF09F0D0EF8F
:1013500009F0010E0101AC150001956F000E0101AD
:10136000AD150001966F000E0101AE150001976FDB
:10137000000E0101AF150001986F9551020801019F
:10138000506F000E000196550101516F000E0001D3
:1013900097550101526F000E000198550101536FDE
:1013A000800E0101921909E17F0E9319901191119C
:1013B000D8A4DDEF09F0DFEF09F04BEF0AF0800E63
:1013C000AA1909E13F0EAB19A811A911D8A4EBEF96
:1013D00009F0EDEF09F0F8EF09F0000E00018D6F54
:1013E000000E8E6F800E8F6F3F0E906F67EF1DF0B7
:1013F000ABBF07EF0AF0A805000EA959800EAA5945
:101400003F0EAB59D8A007EF0AF009EF0AF025EF1D
:101410000AF07FBF10EF0AF00EEF0AF01BEF0AF0A0
:10142000000E00018D6F000E8E6F000E8F6F000E8C
:10143000906F67EF1DF091C08DF092C08EF093C059
:101440008FF094C090F067EF1DF07FBF2CEF0AF093
:101450002AEF0AF040EF0AF091C00AF092C00BF0B8
:1014600093C00CF094C00DF082EC2EF00AC08DF009
:101470000BC08EF00CC08FF00DC090F067EF1DF028
:10148000000E00018D6F000E8E6F000E8F6F000E2C
:10149000906F67EF1DF0800E921909E13F0E9319CE
:1014A00090119111D8A457EF0AF059EF0AF086EF86
:1014B0000AF07FBF60EF0AF05EEF0AF07CEF0AF0FF
:1014C000000E3B6E000E3C6E800E3D6E3F0E3E6E7B
:1014D0008DC03FF08EC040F08FC041F090C042F010
:1014E0003DEC24F03BC08DF03CC08EF03DC08FF051
:1014F0003EC090F067EF1DF08DC08DF08EC08EF075
:101500008FC08FF090C090F067EF1DF0400E7F19F4
:101510007C117D117E11D8A490EF0AF092EF0AF0B1
:10152000AEEF0AF08DC01AF08EC01BF08FC01CF019
:1015300090C01DF08DC01EF08EC01FF08FC020F037
:1015400090C021F028EC22F01AC08DF01BC08EF064
:101550001CC08FF01DC090F067EF1DF03F0E7F198B
:101560007C117D117E11D8A4B8EF0AF0BAEF0AF011
:10157000D5EF0AF063BFBFEF0AF0C1EF0AF0D5EF75
:101580000AF08DC047F08EC048F08FC049F090C07F
:101590004AF068EC1DF047C08DF048C08EF049C09D
:1015A0008FF04AC090F067EF1DF08DC00AF08EC03A
:1015B0000BF08FC00CF090C00DF09EEC2EF00AC026
:1015C00070F10BC071F10CC072F10DC073F1800E9F
:1015D0000101AA190BE17F0EAB19A811A911D8B40A
:1015E000F4EF0AF0F6EF0AF00FEF0BF0A851A91193
:1015F000AA11AB11D8B4FFEF0AF001EF0BF00FEF17
:101600000BF0800EAA1909E13F0EAB19A811A91120
:10161000D8A40DEF0BF00FEF0BF0DAEF0BF070C169
:10162000B4F171C1B5F172C1B6F173C1B7F17FBF49
:101630001EEF0BF01CEF0BF038EF0BF0000E3B6EC3
:10164000000E3C6E800E3D6E3F0E3E6EB4C13FF00C
:10165000B5C140F0B6C141F0B7C142F03DEC24F055
:101660003BC0B4F13CC0B5F13DC0B6F13EC0B7F1EE
:10167000010163BF40EF0BF03EEF0BF0D0EF0BF03A
:10168000000EA8250001956F000E0101A92100019F
:10169000966F800E0101AA210001976FC00E010113
:1016A000AB210001986F0101505100019511996F14
:1016B00001015151000196119A6F0101525100012F
:1016C00097119B6F01015351000198119C6F995123
:1016D0009A119B119C11D8A470EF0BF072EF0BF0D4
:1016E000B2EF0BF0B4C137F0B5C138F0B6C139F084
:1016F000B7C13AF0B4C133F0B5C134F0B6C135F07A
:10170000B7C136F040EC2EF033C03BF034C03CF0B3
:1017100035C03DF036C03EF0B4C137F0B5C138F049
:10172000B6C139F0B7C13AF0B4C133F0B5C134F045
:10173000B6C135F0B7C136F040EC2EF033C03FF003
:1017400034C040F035C041F036C042F03DEC24F0EA
:101750003BC0B4F13CC0B5F13DC0B6F13EC0B7F1FD
:10176000D0EF0BF001015005511152115311D8A4C3
:10177000BCEF0BF0BEEF0BF0D0EF0BF0B4C10AF0F2
:10178000B5C10BF0B6C10CF0B7C10DF082EC2EF074
:101790000AC0B4F10BC0B5F10CC0B6F10DC0B7F181
:1017A000B4C18DF0B5C18EF0B6C18FF0B7C190F065
:1017B00067EF1DF0000E886F000E896F800E8A6F34
:1017C0003F0E8B6F63BFE9EF0BF0E7EF0BF047EFD6
:1017D0000CF05051511152115311D8A4F2EF0BF0EB
:1017E000F4EF0BF034EF0CF08DC037F08EC038F012
:1017F0008FC039F090C03AF08DC033F08EC034F015
:101800008FC035F090C036F040EC2EF033C03BF086
:1018100034C03CF035C03DF036C03EF08DC037F0EE
:101820008EC038F08FC039F090C03AF08DC033F0E0
:101830008EC034F08FC035F090C036F040EC2EF002
:1018400033C03FF034C040F035C041F036C042F004
:101850003DEC24F03BC08DF03CC08EF03DC08FF0DD
:101860003EC090F067EF1DF0500551115211531119
:10187000D8A43DEF0CF03FEF0CF047EF0CF0000E5A
:10188000886F000E896F800E8A6FBF0E8B6F93BFBB
:1018900056EF0CF09005000E9159000E92594D0E26
:1018A0009359D8A056EF0CF058EF0CF0DDEF0EF086
:1018B000ABBF6AEF0CF0F80EA85DFF0EA9597F0EC2
:1018C000AA593F0EAB59D8B068EF0CF06AEF0CF094
:1018D000DDEF0CF07FBF6FEF0CF071EF0CF0A7EFB6
:1018E0000CF0600E1E6E420E1F6EA20E206E0D0ECC
:1018F000216E88C11AF089C11BF08AC11CF08BC10E
:101900001DF028EC22F01AC0A4F11BC0A5F11CC0E8
:10191000A6F11DC0A7F1A4C11AF0A5C11BF0A6C174
:101920001CF0A7C11DF0600E1E6E420E1F6EA20EAF
:10193000206E0D0E216E28EC22F01AC08DF01BC017
:101940008EF01CC08FF01DC090F067EF1DF0CA0E26
:101950001E6EF20E1F6E490E206E710E216E88C132
:101960001AF089C11BF08AC11CF08BC11DF028EC54
:1019700022F01AC0A4F11BC0A5F11CC0A6F11DC025
:10198000A7F1A4C11AF0A5C11BF0A6C11CF0A7C104
:101990001DF0CA0E1E6EF20E1F6E490E206E710EE5
:1019A000216E28EC22F01AC08DF01BC08EF01CC0F6
:1019B0008FF01DC090F067EF1DF0ABBFEDEF0CF0A6
:1019C000080EA85D000EA959800EAA593F0EAB590A
:1019D000D8A0EDEF0CF0EFEF0CF06AEF0DF07FBF49
:1019E000FEEF0CF07F517E117D1106E17C05D8B031
:1019F000FCEF0CF0FEEF0CF034EF0DF0600E1E6EFD
:101A0000420E1F6EA20E206E0D0E216E88C11AF0BE
:101A100089C11BF08AC11CF08BC11DF028EC22F09B
:101A20001AC0A4F11BC0A5F11CC0A6F11DC0A7F1EE
:101A3000A4C11AF0A5C11BF0A6C11CF0A7C11DF0DE
:101A4000600E1E6E420E1F6EA20E206E0D0E216ED7
:101A500028EC22F01AC08DF01BC08EF01CC08FF055
:101A60001DC090F067EF1DF0CA0E1E6EF20E1F6EC5
:101A7000490E206E710E216E88C11AF089C11BF0CB
:101A80008AC11CF08BC11DF028EC22F01AC0A4F111
:101A90001BC0A5F11CC0A6F11DC0A7F1A4C11AF07E
:101AA000A5C11BF0A6C11CF0A7C11DF0CA0E1E6E79
:101AB000F20E1F6E490E206E710E216E28EC22F080
:101AC0001AC08DF01BC08EF01CC08FF01DC090F0AE
:101AD00067EF1DF070C10AF071C10BF072C10CF01C
:101AE00073C10DF0000E0E6E000E0F6E800E106EA4
:101AF000BF0E116EC8EC1FF00AC0B0F10BC0B1F1FF
:101B00000CC0B2F10DC0B3F1000E1E6E000E1F6EC0
:101B1000800E206E3E0E216EB0C11AF0B1C11BF0D6
:101B2000B2C11CF0B3C11DF028EC22F01AC037F08E
:101B30001BC038F01CC039F01DC03AF0AB0E336E3C
:101B4000AA0E346EAA0E356E3E0E366E40EC2EF0A6
:101B500033C0A4F134C0A5F135C0A6F136C0A7F159
:101B6000B0C11EF0B1C11FF0B2C120F0B3C121F06D
:101B7000B0C11AF0B1C11BF0B2C11CF0B3C11DF06D
:101B800028EC22F01AC054F11BC055F11CC056F1CC
:101B90001DC057F1B0C11EF0B1C11FF0B2C120F09D
:101BA000B3C121F0A4C11AF0A5C11BF0A6C11CF05D
:101BB000A7C11DF028EC22F01AC037F01BC038F086
:101BC0001CC039F01DC03AF0000E336E000E346EAA
:101BD000000E356E3F0E366E40EC2EF033C048F1ED
:101BE00034C049F135C04AF136C04BF154C11AF046
:101BF00055C11BF056C11CF057C11DF048C11EF065
:101C000049C11FF04AC120F04BC121F028EC22F05D
:101C10001AC044F11BC045F11CC046F11DC047F17C
:101C2000B0C11AF0B1C11BF0B2C11CF0B3C11DF0BC
:101C3000000E1E6EAA0E1F6EB80E206E3F0E216E95
:101C400028EC22F01AC074F11BC075F11CC076F1AB
:101C50001DC077F1700E1E6EA50E1F6EEC0E206E6D
:101C6000360E216EB0C11AF0B1C11BF0B2C11CF02A
:101C7000B3C11DF028EC22F01AC033F01BC034F0C1
:101C80001CC035F01DC036F03B0E1E6EAA0E1F6E36
:101C9000B80E206E3F0E216E44C11AF045C11BF0F4
:101CA00046C11CF047C11DF028EC22F01AC037F0E5
:101CB0001BC038F01CC039F01DC03AF040EC2EF0CB
:101CC00033C078F134C079F135C07AF136C07BF198
:101CD00074C10AF075C10BF076C10CF077C10DF03C
:101CE00078C10EF079C10FF07AC110F07BC111F00C
:101CF000C8EC1FF00AC084F10BC085F10CC086F15E
:101D00000DC087F184C1B8F185C1B9F186C1BAF1BE
:101D100087C1BBF1B8C194F1B9C195F1BAC196F1CF
:101D2000BBC197F1000E01019415B86FF00E951527
:101D3000B96FFF0E9615BA6FFF0E9715BB6FB8C13E
:101D400084F1B9C185F1BAC186F1BBC187F174C113
:101D500037F075C138F076C139F077C13AF084C1F7
:101D600033F085C134F086C135F087C136F040ECE0
:101D70002EF033C098F134C099F135C09AF136C0D5
:101D80009BF178C133F079C134F07AC135F07BC171
:101D900036F098C137F099C138F09AC139F09BC13B
:101DA0003AF040EC2EF033C01CF134C01DF135C0C8
:101DB0001EF136C01FF15DEF16F0000E806F000EB1
:101DC000816F000E826F000E836FABBFF3EF0EF0DA
:101DD000AB5107E1800EAA5DD8B0F1EF0EF0F3EF42
:101DE0000EF026EF0FF070C11AF071C11BF072C136
:101DF0001CF073C11DF0000E1E6E000E1F6E800ED3
:101E0000206E4B0E216E28EC22F01AC070F11BC020
:101E100071F11CC072F11DC073F1E80E0101802741
:101E2000FF0E8123FF0E8223FF0E832370C1B8F1C2
:101E300071C1B9F172C1BAF173C1BBF1B8C1A8F1F6
:101E4000B9C1A9F1BAC1AAF1BBC1ABF1170E00012A
:101E5000956FA8C196F0A9C197F0AAC198F0ABC13F
:101E600099F0956736EF0FF03EEF0FF09935993303
:101E7000983397339633952F31EF0FF0810E000191
:101E800096259A6FFF0E97219B6FFF0E98219C6FEE
:101E9000FF0E99219D6F9A510101802700019B51EE
:101EA0000101812300019C510101822300019D5108
:101EB00001018323FF0EA815AC6FFF0EA915AD6FAE
:101EC0007F0EAA15AE6F000EAB15AF6F000EAC11F2
:101ED000A86F000EAD11A96F800EAE11AA6F3F0E54
:101EE000AF11AB6FAFBF84EF0FF0AF510BE1720ECC
:101EF000AC5DC40EAD591C0EAE59D8B082EF0FF0D8
:101F000084EF0FF08EEF0FF0000EA06F000EA16FA8
:101F1000000EA26F000EA36FC0EF0FF0AFBFA0EFD7
:101F20000FF0AF510BE1D70EAC5DB30EAD595D0EA6
:101F3000AE59D8B09EEF0FF0A0EF0FF0AAEF0FF060
:101F4000010EA06F000EA16F000EA26F000EA36F16
:101F5000C0EF0FF0000EA06F000EA16F000EA26F79
:101F6000000EA36F010E8027000E8123822383239E
:101F7000000EA827000EA923800EAA23FF0EAB2374
:101F8000A8C1B8F1A9C1B9F1AAC1BAF1ABC1BBF1FD
:101F9000B8C170F1B9C171F1BAC172F1BBC173F1CD
:101FA00070C133F071C134F072C135F073C136F0D5
:101FB000A0C195F0A1C196F00001D8909537963751
:101FC000D89095379637690E9525F66E100E9621A6
:101FD000F76EF86A000EF8220900F5CF37F0090015
:101FE000F5CF38F00900F5CF39F00A00F5CF3AF017
:101FF00040EC2EF033C074F134C075F135C076F189
:1020000036C077F1000E3B6E000E3C6E800E3D6ECA
:102010003F0E3E6E70C10EF071C10FF072C110F034
:1020200073C111F0A0C195F0A1C196F00001D89044
:1020300095379637D89095379637690E9525F66E71
:10204000100E9621F76EF86A000EF8220900F5CFFF
:102050000AF00900F5CF0BF00900F5CF0CF00A00EB
:10206000F5CF0DF0C8EC1FF00AC03FF00BC040F0F8
:102070000CC041F00DC042F03DEC24F03BC078F1C3
:102080003CC079F13DC07AF13EC07BF174C11AF0D9
:1020900075C11BF076C11CF077C11DF078C11EF030
:1020A00079C11FF07AC120F07BC121F028EC22F029
:1020B0001AC05CF11BC05DF11CC05EF11DC05FF178
:1020C0005CC16CF15DC16DF15EC16EF15FC16FF11C
:1020D0006CC1B8F16DC1B9F16EC1BAF16FC1BBF19C
:1020E000B8C194F1B9C195F1BAC196F1BBC197F1EC
:1020F000000E01019415B86FF00E9515B96FFF0E23
:102100009615BA6FFF0E9715BB6FB8C16CF1B9C1C8
:102110006DF1BAC16EF1BBC16FF1A8C195F0A9C153
:1021200096F0AAC197F0ABC198F0000198359833AA
:10213000973396339533000E9515996FF00E9615DB
:102140009A6FFF0E97159B6FFF0E98159C6F000EF0
:1021500099110101946F000E00019A110101956F10
:10216000000E00019B110101966F200E00019C11D1
:102170000101976FA0C195F0A1C196F0A2C197F09F
:10218000A3C198F0150ED890000195379637973770
:102190009837E82EC3EF10F0010194510001952506
:1021A000996F01019551000196219A6F0101965195
:1021B000000197219B6F01019751000198219C6FAD
:1021C000000E99250101B86F000E00019A2101014E
:1021D000B96F400E00019B210101BA6F000E000192
:1021E0009C210101BB6FB8C168F1B9C169F1BAC1E5
:1021F0006AF1BBC16BF1A0C195F0A1C196F00001DD
:10220000D89095379637D89095379637690E95259B
:10221000F66E100E9621F76EF86A000EF82209008D
:10222000F5CF37F00900F5CF38F00900F5CF39F0D8
:102230000A00F5CF3AF068C133F069C134F06AC1E1
:1022400035F06BC136F040EC2EF033C098F134C05D
:1022500099F135C09AF136C09BF170C133F071C16C
:1022600034F072C135F073C136F098C137F099C1BE
:1022700038F09AC139F09BC13AF040EC2EF033C0EF
:1022800034F134C035F135C036F136C037F168C1AC
:102290001EF069C11FF06AC120F06BC121F06CC152
:1022A0001AF06DC11BF06EC11CF06FC11DF028EC5F
:1022B00022F01AC037F01BC038F01CC039F01DC026
:1022C0003AF074C133F075C134F076C135F077C19E
:1022D00036F040EC2EF033C098F134C099F135C09F
:1022E0009AF136C09BF134C11EF035C11FF036C1E2
:1022F00020F037C121F06CC11AF06DC11BF06EC126
:102300001CF06FC11DF028EC22F01AC037F01BC082
:1023100038F01CC039F01DC03AF098C133F099C1B3
:1023200034F09AC135F09BC136F040EC2EF033C04A
:1023300054F134C055F135C056F136C057F154C18F
:102340001AF055C11BF056C11CF057C11DF078C1E1
:102350001EF079C11FF07AC120F07BC121F028EC7A
:1023600022F01AC030F11BC031F11CC032F11DC087
:1023700033F15CC11AF05DC11BF05EC11CF05FC19E
:102380001DF05CC11EF05DC11FF05EC120F05FC199
:1023900021F028EC22F01AC08CF11BC08DF11CC07A
:1023A0008EF11DC08FF1550E0E6E320E0F6E6C0E3B
:1023B000106E3E0E116E420E1E6EF10E1F6E530E0B
:1023C000206E3E0E216E8CC11AF08DC11BF08EC1A5
:1023D0001CF08FC11DF028EC22F01AC00AF01BC0BF
:1023E0000BF01CC00CF01DC00DF0C8EC1FF00AC0B3
:1023F000A4F10BC0A5F10CC0A6F10DC0A7F1050E0C
:102400000E6EA30E0F6E8B0E106E3E0E116E8CC1F3
:102410001EF08DC11FF08EC120F08FC121F0A4C12C
:102420001AF0A5C11BF0A6C11CF0A7C11DF028EC35
:1024300022F01AC00AF01BC00BF01CC00CF01DC02B
:102440000DF0C8EC1FF00AC054F10BC055F10CC0E0
:1024500056F10DC057F1AB0E0E6EAA0E0F6EAA0EFE
:10246000106E3E0E116E8CC11EF08DC11FF08EC11C
:1024700020F08FC121F054C11AF055C11BF056C194
:102480001CF057C11DF028EC22F01AC00AF01BC046
:102490000BF01CC00CF01DC00DF0C8EC1FF00AC002
:1024A00048F10BC049F10CC04AF10DC04BF1B70E19
:1024B0000E6E6D0E0F6EDB0E106E3E0E116E8CC129
:1024C0001EF08DC11FF08EC120F08FC121F048C1D8
:1024D0001AF049C11BF04AC11CF04BC11DF028EC99
:1024E00022F01AC00AF01BC00BF01CC00CF01DC07B
:1024F0000DF0C8EC1FF00AC038F10BC039F10CC068
:102500003AF10DC03BF19A0E0E6E990E0F6E190E38
:10251000106E3F0E116E8CC11EF08DC11FF08EC16A
:1025200020F08FC121F038C11AF039C11BF03AC137
:102530001CF03BC11DF028EC22F01AC00AF01BC0B1
:102540000BF01CC00CF01DC00DF0C8EC1FF00AC051
:1025500000F10BC001F10CC002F10DC003F18CC100
:102560001EF08DC11FF08EC120F08FC121F08CC1F3
:102570001AF08DC11BF08EC11CF08FC11DF028EC2C
:1025800022F01AC004F11BC005F11CC006F11DC0E9
:1025900007F100C11AF001C11BF002C11CF003C118
:1025A0001DF004C11EF005C11FF006C120F007C1D7
:1025B00021F028EC22F01AC04CF11BC04DF11CC0D8
:1025C0004EF11DC04FF130C11EF031C11FF032C1BC
:1025D00020F033C121F05CC10EF05DC10FF05EC18F
:1025E00010F05FC111F06CC10AF06DC10BF06EC14B
:1025F0000CF06FC10DF0C8EC1FF00AC01AF00BC050
:102600001BF00CC01CF00DC01DF028EC22F01AC00D
:1026100058F11BC059F11CC05AF11DC05BF14CC1EF
:102620000AF04DC10BF04EC10CF04FC10DF058C176
:102630000EF059C10FF05AC110F05BC111F0C8EC97
:102640001FF00AC04CF10BC04DF10CC04EF10DC093
:102650004FF16CC11AF06DC11BF06EC11CF06FC15F
:102660001DF06CC11EF06DC11FF06EC120F06FC176
:1026700021F028EC22F01AC08CF11BC08DF11CC097
:102680008EF11DC08FF1000E0E6E000E0F6E400E0B
:10269000106E400E116E8CC10AF08DC10BF08EC110
:1026A0000CF08FC10DF0C8EC1FF00AC058F10BC040
:1026B00059F10CC05AF10DC05BF158C10AF059C173
:1026C0000BF05AC10CF05BC10DF04CC10EF04DC1C6
:1026D0000FF04EC110F04FC111F0C8EC1FF00AC04E
:1026E00068F10BC069F10CC06AF10DC06BF168C1F3
:1026F000B8F169C1B9F16AC1BAF16BC1BBF1B8C136
:1027000094F1B9C195F1BAC196F1BBC197F1000E30
:1027100001019415B86FF00E9515B96FFF0E96155F
:10272000BA6FFF0E9715BB6FB8C168F1B9C169F1F7
:10273000BAC16AF1BBC16BF1000E0E6E000E0F6ED6
:10274000400E106EC00E116E68C10AF069C10BF028
:102750006AC10CF06BC10DF0C8EC1FF00AC03CF16F
:102760000BC03DF10CC03EF10DC03FF18CC137F004
:102770008DC138F08EC139F08FC13AF03CC133F0D1
:102780003DC134F03EC135F03FC136F040EC2EF093
:1027900033C040F134C041F135C042F136C043F19D
:1027A0004CC133F04DC134F04EC135F04FC136F05D
:1027B00040C137F041C138F042C139F043C13AF06D
:1027C00040EC2EF033C034F134C035F135C036F171
:1027D00036C037F16CC11AF06DC11BF06EC11CF030
:1027E0006FC11DF068C11EF069C11FF06AC120F001
:1027F0006BC121F028EC22F01AC074F11BC075F1F6
:102800001CC076F11DC077F168C11EF069C11FF0D0
:102810006AC120F06BC121F030C11AF031C11BF048
:1028200032C11CF033C11DF028EC22F01AC00AF0AE
:102830001BC00BF01CC00CF01DC00DF05CC11EF0E5
:102840005DC11FF05EC120F05FC121F034C11AF0FC
:1028500035C11BF036C11CF037C11DF028EC22F049
:102860001AC00EF01BC00FF01CC010F01DC011F0FC
:10287000C8EC1FF00AC078F10BC079F10CC07AF1F6
:102880000DC07BF174C10AF075C10BF076C10CF07C
:1028900077C10DF078C10EF079C10FF07AC110F058
:1028A0007BC111F0C8EC1FF00AC09CF10BC09DF178
:1028B0000CC09EF10DC09FF19CC1B8F19DC1B9F152
:1028C0009EC1BAF19FC1BBF1B8C194F1B9C195F1F4
:1028D000BAC196F1BBC197F1000E01019415B86F12
:1028E000F00E9515B96FFF0E9615BA6FFF0E97157E
:1028F000BB6FB8C19CF1B9C19DF1BAC19EF1BBC11A
:102900009FF174C137F075C138F076C139F077C1E5
:102910003AF09CC133F09DC134F09EC135F09FC1A7
:1029200036F040EC2EF033C098F134C099F135C048
:102930009AF136C09BF178C133F079C134F07AC195
:1029400035F07BC136F098C137F099C138F09AC1A3
:1029500039F09BC13AF040EC2EF033C064F134C042
:1029600065F135C066F136C067F19CC11AF09DC1B2
:102970001BF09EC11CF09FC11DF0000E1E6E400E8C
:102980001F6E760E206E3F0E216E28EC22F01AC0CC
:1029900020F11BC021F11CC022F11DC023F14F0EFC
:1029A0001E6E380E1F6E760E206E3F0E216E64C1B5
:1029B0001AF065C11BF066C11CF067C11DF028EC60
:1029C00022F01AC00EF01BC00FF01CC010F01DC08A
:1029D00011F0C60E1E6E230E1F6EF60E206EB80E80
:1029E000216E9CC11AF09DC11BF09EC11CF09FC1BD
:1029F0001DF028EC22F01AC00AF01BC00BF01CC01E
:102A00000CF01DC00DF0C8EC1FF00AC058F10BC04F
:102A100059F10CC05AF10DC05BF158C10AF059C10F
:102A20000BF05AC10CF05BC10DF0A0C195F0A1C133
:102A300096F00001D89095379637D890953796370D
:102A4000010E9525F66E100E9621F76EF86A000EAF
:102A5000F8220900F5CF0EF00900F5CF0FF00900BC
:102A6000F5CF10F00A00F5CF11F0C8EC1FF00AC046
:102A700024F10BC025F10CC026F10DC027F180C157
:102A80000AF081C10BF082C10CF083C10DF0010E80
:102A90006CEC28F00AC0B0F10BC0B1F10CC0B2F17F
:102AA0000DC0B3F124C10EF025C10FF026C110F006
:102AB00027C111F020C10AF021C10BF022C10CF096
:102AC00023C10DF0C8EC1FF00AC058F10BC059F13A
:102AD0000CC05AF10DC05BF1A0C195F0A1C196F0F8
:102AE0000001D89095379637D89095379637090ECC
:102AF0009525F66E100E9621F76EF86A000EF822F4
:102B00000900F5CF0EF00900F5CF0FF00900F5CF61
:102B100010F00A00F5CF11F058C10AF059C10BF0BE
:102B20005AC10CF05BC10DF0C8EC1FF00AC008F1EF
:102B30000BC009F10CC00AF10DC00BF108C10AF07D
:102B400009C10BF00AC10CF00BC10DF0B0C10EF0C1
:102B5000B1C10FF0B2C110F0B3C111F0C8EC1FF059
:102B60000AC084F10BC085F10CC086F10DC087F15D
:102B700084C1B8F185C1B9F186C1BAF187C1BBF191
:102B8000B8C194F1B9C195F1BAC196F1BBC197F141
:102B9000000E01019415B86FF00E9515B96FFF0E78
:102BA0009615BA6FFF0E9715BB6FB8C184F1B9C106
:102BB00085F1BAC186F1BBC187F1B0C137F0B1C1AF
:102BC00038F0B2C139F0B3C13AF084C133F085C1F5
:102BD00034F086C135F087C136F040EC2EF033C0BA
:102BE00098F134C099F135C09AF136C09BF1A0C17B
:102BF00095F0A1C196F00001D89095379637D890FE
:102C000095379637090E9525F66E100E9621F76EBC
:102C1000F86A000EF8220900F5CF37F00900F5CF69
:102C200038F00900F5CF39F00A00F5CF3AF098C135
:102C300033F099C134F09AC135F09BC136F040ECC5
:102C40002EF033C040F134C041F135C042F136C0FE
:102C500043F120C137F021C138F022C139F023C13E
:102C60003AF040C133F041C134F042C135F043C1C4
:102C700036F040EC2EF033C00CF134C00DF135C00D
:102C80000EF136C00FF124C133F025C134F026C156
:102C900035F027C136F00CC137F00DC138F00EC148
:102CA00039F00FC13AF040EC2EF033C01CF134C0C3
:102CB0001DF135C01EF136C01FF191C0B8F192C0B0
:102CC000B9F193C0BAF194C0BBF1B8C194F1B9C1E4
:102CD00095F1BAC196F1BBC197F1000E01019415AF
:102CE000B86FF00E9515B96FFF0E9615BA6FFF0EFF
:102CF0009715BB6FB8C128F1B9C129F1BAC12AF142
:102D0000BBC12BF184C11EF085C11FF086C120F02C
:102D100087C121F028C137F029C138F02AC139F024
:102D20002BC13AF091C033F092C034F093C035F02B
:102D300094C036F040EC2EF033C01AF034C01BF0D3
:102D400035C01CF036C01DF028EC22F01AC010F17E
:102D50001BC011F11CC012F11DC013F110C10AF00B
:102D600011C10BF012C10CF013C10DF01CC11EF00B
:102D70001DC11FF01EC120F01FC121F091C01AF02B
:102D800092C01BF093C01CF094C01DF028EC22F000
:102D90001AC00EF01BC00FF01CC010F01DC011F0C7
:102DA000C8EC1FF00AC064F10BC065F10CC066F1FD
:102DB0000DC067F128C11AF029C11BF02AC11CF00F
:102DC0002BC11DF084C11EF085C11FF086C120F00B
:102DD00087C121F028EC22F01AC09CF11BC09DF1A4
:102DE0001CC09EF11DC09FF164C10AF065C10BF0CB
:102DF00066C10CF067C10DF09CC10EF09DC10FF0D3
:102E00009EC110F09FC111F0C8EC1FF00AC0B4F1D0
:102E10000BC0B5F10CC0B6F10DC0B7F1B4C1B8F13B
:102E2000B5C1B9F1B6C1BAF1B7C1BBF1B8C1ACF126
:102E3000B9C1ADF1BAC1AEF1BBC1AFF10101AFBFD4
:102E40002EEF17F0AC05000EAD59000EAE59430E33
:102E5000AF59D8A02EEF17F030EF17F066EF17F04C
:102E6000CA0E1E6EF20E1F6E490E206E710E216E7E
:102E700088C11AF089C11BF08AC11CF08BC11DF0FA
:102E800028EC22F01AC0A4F11BC0A5F11CC0A6F1C9
:102E90001DC0A7F1A4C11AF0A5C11BF0A6C11CF06A
:102EA000A7C11DF0CA0E1E6EF20E1F6E490E206ED7
:102EB000710E216E28EC22F01AC08DF01BC08EF02E
:102EC0001CC08FF01DC090F067EF1DF0430EAF19CE
:102ED000AC11AD11AE11D8A470EF17F072EF17F06E
:102EE000E5EF17F09CC137F09DC138F09EC139F075
:102EF0009FC13AF0B4C133F0B5C134F0B6C135F07A
:102F0000B7C136F040EC2EF033C03BF034C03CF09B
:102F100035C03DF036C03EF03C0E0E6EAA0E0F6E70
:102F2000380E106E330E116E64C10AF065C10BF0DD
:102F300066C10CF067C10DF0C8EC1FF00AC03FF08D
:102F40000BC040F00CC041F00DC042F06DEC2AF017
:102F5000D8B0ADEF17F0AFEF17F0AFEF18F0CA0E23
:102F60001E6EF20E1F6E490E206E710E216E88C10C
:102F70001AF089C11BF08AC11CF08BC11DF028EC2E
:102F800022F01AC0A4F11BC0A5F11CC0A6F11DC0FF
:102F9000A7F1A4C11AF0A5C11BF0A6C11CF0A7C1DE
:102FA0001DF0CA0E1E6EF20E1F6E490E206E710EBF
:102FB000216E28EC22F01AC08DF01BC08EF01CC0D0
:102FC0008FF01DC090F067EF1DF0FF0EAC150001F3
:102FD000956FFF0E0101AD150001966FFF0E010107
:102FE000AE150001976F7F0E0101AF150001986FBC
:102FF00098BF07EF18F09505000E9659160E9759D1
:10300000430E9859D8A007EF18F009EF18F03FEFDA
:1030100018F0600E1E6E420E1F6EA20E206E0D0E78
:10302000216E88C11AF089C11BF08AC11CF08BC1C6
:103030001DF028EC22F01AC0A4F11BC0A5F11CC0A1
:10304000A6F11DC0A7F1A4C11AF0A5C11BF0A6C12D
:103050001CF0A7C11DF0600E1E6E420E1F6EA20E68
:10306000206E0D0E216E28EC22F01AC08DF01BC0D0
:103070008EF01CC08FF01DC090F067EF1DF0160E93
:103080000101AE1909E1C30EAF19AC11AD11D8A4FD
:103090004CEF18F04EEF18F0AFEF18F09CC137F07E
:1030A0009DC138F09EC139F09FC13AF0B4C133F0F0
:1030B000B5C134F0B6C135F0B7C136F040EC2EF0F2
:1030C00033C03BF034C03CF035C03DF036C03EF07C
:1030D00064C13FF065C140F066C141F067C142F094
:1030E0006DEC2AF0D8A077EF18F079EF18F0AFEF79
:1030F00018F0600E1E6E420E1F6EA20E206E0D0E98
:10310000216E88C11AF089C11BF08AC11CF08BC1E5
:103110001DF028EC22F01AC0A4F11BC0A5F11CC0C0
:10312000A6F11DC0A7F1A4C11AF0A5C11BF0A6C14C
:103130001CF0A7C11DF0600E1E6E420E1F6EA20E87
:10314000206E0D0E216E28EC22F01AC08DF01BC0EF
:103150008EF01CC08FF01DC090F067EF1DF0FF0EC9
:103160000101AC152C6FFF0EAD152D6FFF0EAE15C6
:103170002E6F7F0EAF152F6F170E0001956F2CC1AC
:1031800096F02DC197F02EC198F02FC199F0956758
:10319000CCEF18F0D4EF18F0993599339833973372
:1031A0009633952FC7EF18F0810E00019625010187
:1031B000A06FFF0E000197210101A16FFF0E00011A
:1031C00098210101A26FFF0E000199210101A36F57
:1031D000000E806F000E816F000E826F000E836FF5
:1031E0002FBFFFEF18F02C05000E2D59000E2E59A1
:1031F0003F0E2F59D8A0FFEF18F001EF19F005EF9F
:103200001AF0A0C195F0010E00019527000E966FEF
:10321000000E976F800E986F000E996F956713EFF1
:1032200019F01BEF19F0993599339833973396338A
:10323000952F0EEF19F00101AC5100019625010107
:10324000806FAD51000197210101816FAE510001E6
:1032500098210101826FAF51000199210101836F13
:10326000810E0001956FFF0E966FFF0E976FFF0E98
:10327000986F170E996F80C19AF081C19BF082C13F
:103280009CF083C19DF0996748EF19F050EF19F059
:103290009D359D339C339B339A33992F43EF19F01F
:1032A00000019A5195250101A06F000E00019621A1
:1032B0000101A16F000E000197210101A26F000E14
:1032C000000198210101A36FA0C195F0FF0E00013C
:1032D000966FFF0E976F7F0E986F000E996F956730
:1032E00074EF19F07CEF19F09935993398339733CF
:1032F0009633952F6FEF19F00001961D9A6F971D69
:103300009B6F981D9C6F991D9D6F0101805100015D
:103310009A150101B86F815100019B150101B96F28
:10332000825100019C150101BA6F835100019D1566
:103330000101BB6FB8C1B0F1B9C1B1F1BAC1B2F10D
:10334000BBC1B3F1A05117080001956FFF0E010139
:1033500080150001966FFF0E010181150001976F26
:103360007F0E010182150001986F000E0101831587
:103370000001996F000E96119A6F000E97119B6FC6
:10338000800E98119C6F000E99119D6F9567CBEF81
:1033900019F0D3EF19F09D359D339C339B339A334D
:1033A000952FC6EF19F09AC080F19BC081F19CC0A7
:1033B00082F19DC083F10101AFBFE3EF19F0E1EFAE
:1033C00019F0EBEF19F0831F821F811F806D000E33
:1033D0008123822383239CC133F09DC134F09EC19D
:1033E00035F09FC136F0B0C137F0B1C138F0B2C18D
:1033F00039F0B3C13AF040EC2EF033C09CF134C048
:103400009DF135C09EF136C09FF164C10AF065C1DF
:103410000BF066C10CF067C10DF09CC10EF09DC1B0
:103420000FF09EC110F09FC111F0C8EC1FF00AC050
:10343000B0F10BC0B1F10CC0B2F10DC0B3F1B0C12D
:10344000B8F1B1C1B9F1B2C1BAF1B3C1BBF1B8C100
:1034500094F1B9C195F1BAC196F1BBC197F1000ED3
:1034600001019415B86F800E9515B96FFF0E961572
:10347000BA6FFF0E9715BB6FB8C1B0F1B9C1B1F10A
:10348000BAC1B2F1BBC1B3F1B0C11AF0B1C11BF006
:10349000B2C11CF0B3C11DF0000E1E6E720E1F6E85
:1034A000310E206E3F0E216E28EC22F01AC074F10E
:1034B0001BC075F11CC076F11DC077F19CC137F0BF
:1034C0009DC138F09EC139F09FC13AF0B0C133F0D0
:1034D000B1C134F0B2C135F0B3C136F040EC2EF0DA
:1034E00033C098F134C099F135C09AF136C09BF1E0
:1034F000180E1E6E720E1F6E310E206E3F0E216E64
:1035000098C137F099C138F09AC139F09BC13AF0AF
:1035100064C133F065C134F066C135F067C136F07F
:1035200040EC2EF033C01AF034C01BF035C01CF054
:1035300036C01DF028EC22F01AC014F11BC015F1A2
:103540001CC016F11DC017F114C10AF015C10BF013
:1035500016C10CF017C10DF08C0E1E6EBE0E1F6E44
:10356000BF0E206E350E216EB0C11AF0B1C11BF036
:10357000B2C11CF0B3C11DF028EC22F01AC00EF04D
:103580001BC00FF01CC010F01DC011F0C8EC1FF0E4
:103590000AC078F10BC079F10CC07AF10DC07BF153
:1035A00074C10AF075C10BF076C10CF077C10DF053
:1035B00078C10EF079C10FF07AC110F07BC111F023
:1035C000C8EC1FF00AC0B4F10BC0B5F10CC0B6F1E5
:1035D0000DC0B7F174C137F075C138F076C139F05C
:1035E00077C13AF0B4C133F0B5C134F0B6C135F0AB
:1035F000B7C136F040EC2EF033C098F134C099F1E9
:1036000035C09AF136C09BF178C133F079C134F0FE
:103610007AC135F07BC136F098C137F099C138F0E6
:103620009AC139F09BC13AF040EC2EF033C044F11E
:1036300034C045F135C046F136C047F1B4C11AF087
:10364000B5C11BF0B6C11CF0B7C11DF0B4C11EF06E
:10365000B5C11FF0B6C120F0B7C121F028EC22F0AF
:103660001AC0B0F11BC0B1F11CC0B2F11DC0B3F162
:103670000E0E0E6EEA0E0F6EDD0E106EB50E116E92
:103680004C0E1E6EBB0E1F6E310E206E330E216E61
:10369000B0C11AF0B1C11BF0B2C11CF0B3C11DF032
:1036A00028EC22F01AC00AF01BC00BF01CC00CF072
:1036B0001DC00DF0C8EC1FF00AC0A4F10BC0A5F1AD
:1036C0000CC0A6F10DC0A7F1550E0E6EB30E0F6E15
:1036D0008A0E106E380E116EB0C11EF0B1C11FF00F
:1036E000B2C120F0B3C121F0A4C11AF0A5C11BF0F2
:1036F000A6C11CF0A7C11DF028EC22F01AC00AF0E8
:103700001BC00BF01CC00CF01DC00DF0C8EC1FF06E
:103710000AC054F10BC055F10CC056F10DC057F161
:10372000610E0E6E0B0E0F6E360E106EBB0E116E0E
:10373000B0C11EF0B1C11FF0B2C120F0B3C121F081
:1037400054C11AF055C11BF056C11CF057C11DF0F1
:1037500028EC22F01AC00AF01BC00BF01CC00CF0C1
:103760001DC00DF0C8EC1FF00AC048F10BC049F1B4
:103770000CC04AF10DC04BF1AB0E0E6EAA0E0F6ECF
:103780002A0E106E3E0E116EB0C11EF0B1C11FF0B8
:10379000B2C120F0B3C121F048C11AF049C11BF0F9
:1037A0004AC11CF04BC11DF028EC22F01AC00AF0EF
:1037B0001BC00BF01CC00CF01DC00DF0C8EC1FF0BE
:1037C0000AC038F10BC039F10CC03AF10DC03BF121
:1037D000B4C133F0B5C134F0B6C135F0B7C136F07D
:1037E000B0C11EF0B1C11FF0B2C120F0B3C121F0D1
:1037F00038C11AF039C11BF03AC11CF03BC11DF0B1
:1038000028EC22F01AC037F01BC038F01CC039F089
:103810001DC03AF040EC2EF033C084F134C085F185
:1038200035C086F136C087F1000E0E6E000E0F6EA9
:10383000000E106EC00E116E84C10AF085C10BF02F
:1038400086C10CF087C10DF0C8EC1FF00AC03FF034
:103850000BC040F00CC041F00DC042F084C11EF01E
:1038600085C11FF086C120F087C121F0B4C11AF0D4
:10387000B5C11BF0B6C11CF0B7C11DF028EC22F099
:103880001AC03BF01BC03CF01CC03DF01DC03EF018
:103890003DEC24F03BC03CF13CC03DF13DC03EF16D
:1038A0003EC03FF144C10EF045C10FF046C110F0DB
:1038B00047C111F044C11EF045C11FF046C120F0C0
:1038C00047C121F0B4C11AF0B5C11BF0B6C11CF05C
:1038D000B7C11DF028EC22F01AC00AF01BC00BF093
:1038E0001CC00CF01DC00DF0C8EC1FF00AC018F190
:1038F0000BC019F10CC01AF10DC01BF13CC133F023
:103900003DC134F03EC135F03FC136F018C137F04B
:1039100019C138F01AC139F01BC13AF040EC2EF051
:1039200033C04CF134C04DF135C04EF136C04FF1CB
:10393000B4C137F0B5C138F0B6C139F0B7C13AF00B
:103940004CC133F04DC134F04EC135F04FC136F0AB
:1039500040EC2EF033C098F134C099F135C09AF1A3
:1039600036C09BF1000E336E000E346E800E356E45
:103970003F0E366E98C137F099C138F09AC139F0D0
:103980009BC13AF040EC2EF033C0B4F134C0B5F135
:1039900035C0B6F136C0B7F1B4C1B8F1B5C1B9F1AF
:1039A000B6C1BAF1B7C1BBF1B8C1ACF1B9C1ADF1A3
:1039B000BAC1AEF1BBC1AFF180C195F081C196F043
:1039C00082C197F083C198F0170ED8900001953707
:1039D000963797379837E82EE5EF1CF0955101019F
:1039E000AC27000196510101AD230001975101015F
:1039F000AE23000198510101AF23170E0001956F0E
:103A0000ACC196F0ADC197F0AEC198F0AFC199F0DE
:103A100095670DEF1DF015EF1DF09935993398332B
:103A200097339633952F08EF1DF0000199BF25EFCE
:103A30001DF099519811971106E19605D8B023EF22
:103A40001DF025EF1DF03DEF1DF0B4C133F0B5C101
:103A500034F0B6C135F0B7C136F080C137F081C15E
:103A600038F052EC27F033C0B4F134C0B5F135C0B2
:103A7000B6F136C0B7F14DEF1DF0ACC1B8F1ADC134
:103A8000B9F1AEC1BAF1AFC1BBF1B8C1B4F1B9C1BE
:103A9000B5F1BAC1B6F1BBC1B7F188C11AF089C19D
:103AA0001BF08AC11CF08BC11DF0B4C11EF0B5C162
:103AB0001FF0B6C120F0B7C121F028EC22F01AC0E7
:103AC0008DF01BC08EF01CC08FF01DC090F0120056
:103AD00047C071F048C072F049C073F04AC074F03A
:103AE00071C089F072C08AF073C08BF074C08CF022
:103AF000000E00018915606F000E8A15616F800E3F
:103B00008B15626F7F0E8C15636F800E621909E151
:103B10007F0E631960116111D8A491EF1DF093EF2E
:103B20001DF0C1EF1DF047C01EF048C01FF049C096
:103B300020F04AC021F047C01AF048C01BF049C02D
:103B40001CF04AC01DF028EC22F01AC00AF01BC07D
:103B50000BF01CC00CF01DC00DF047C00EF048C0AB
:103B60000FF049C010F04AC011F0C8EC1FF00AC0B5
:103B700047F00BC048F00CC049F00DC04AF0C7EF49
:103B80001FF08CBFD0EF1DF08C518B118A1106E114
:103B90008905D8B0CEEF1DF0D0EF1DF00CEF1EF070
:103BA000FF0E8915606FFF0E8A15616FFF0E8B1572
:103BB000626F7F0E8C15636F60516111621163112A
:103BC000D8A4E5EF1DF0E7EF1DF0F1EF1DF047C0C1
:103BD00047F048C048F049C049F04AC04AF0C7EF32
:103BE0001FF08CBFF8EF1DF0F6EF1DF00CEF1EF08C
:103BF000000ED76F210ED66F920E0A6E100E0B6E4E
:103C000007EC2FF00AC047F00BC048F00CC049F099
:103C10000DC04AF0C7EF1FF0170E606F89C061F04A
:103C20008AC062F08BC063F08CC064F060671BEFE9
:103C30001EF023EF1EF06435643363336233613367
:103C4000602F16EF1EF061C081F062C082F063C089
:103C500083F064C084F000018151821183118411CA
:103C6000D8A435EF1EF037EF1EF067EF1EF0000E00
:103C70006D6F000E6E6F000E6F6F000E706F4CEF69
:103C80001EF0D89089378A378B378C37010E6D2715
:103C9000000E6E236F2370238BAF51EF1EF053EF96
:103CA0001EF041EF1EF0FF0E6D25606FFF0E6E21BE
:103CB000616FFF0E6F21626FFF0E7021636F6051A5
:103CC000815F6151825B6251835B6351845B810ED2
:103CD0008127FF0E8223FF0E8323FF0E8423FF0E16
:103CE0008915606FFF0E8A15616F7F0E8B15626FED
:103CF000000E8C15636F000E6011896F000E61114C
:103D00008A6F800E62118B6F000E63118C6F81A120
:103D10008CEF1EF08EEF1EF096EF1EF08951892772
:103D20008A518A238B518B238C518C238435843385
:103D3000833382338133895189278A518A238B5176
:103D40008B238C518C23000E696F000E6A6F000E5E
:103D50006B6F000E6C6F69C075F06AC076F06BC057
:103D600077F06CC078F0000E856F000E866F000E45
:103D7000876F010E886F05EF1FF085516925796FF8
:103D800086516A217A6F87516B217B6F88516C2134
:103D90007C6F7951895D7A518A597B518B598C514D
:103DA000800A606F7C51800A6059D8A0DAEF1EF05B
:103DB000DCEF1EF0F8EF1EF085517925696F865112
:103DC0007A216A6F87517B216B6F88517C216C6FE0
:103DD0007951895F7A518A5B7B518B5B7C518C5B1B
:103DE000855175278651762387517723885178230B
:103DF000895189278A518A238B518B238C518C239B
:103E0000D89088338733863385338551861187115F
:103E10008811D8A40EEF1FF010EF1FF0BDEF1EF0B9
:103E200089518A118B118C11D8B419EF1FF01BEF37
:103E30001FF07CEF1FF0000E7D6F000E7E6F800E76
:103E40007F6F3F0E806F7DC03BF07EC03CF07FC037
:103E50003DF080C03EF0000E3F6E000E406E800EC2
:103E6000416E3F0E426E6DEC2AF0D8A03AEF1FF083
:103E70003CEF1FF07CEF1FF0000E00017D6F000E85
:103E80007E6F800E7F6F3F0E806F000E3B6E000EC8
:103E90003C6E800E3D6E3F0E3E6E7DC03FF07EC09C
:103EA00040F07FC041F080C042F06DEC2AF0D8B005
:103EB0005CEF1FF05EEF1FF067EF1FF0020E0001D6
:103EC0007527000E7623772378237CEF1FF0010EF1
:103ED00000017515606F000E7615616F000E771585
:103EE000626F000E7815636F6051752761517623FC
:103EF000625177236351782375C060F076C061F01A
:103F000077C062F078C063F00001633563336233D9
:103F100061336033000E6025896F000E61218A6F66
:103F2000000E62218B6F3F0E63218C6F81C060F0A9
:103F300082C061F083C062F084C063F0170ED89035
:103F40006037613762376337E82E9FEF1FF06051AB
:103F5000892761518A2362518B2363518C2389C045
:103F600071F08AC072F08BC073F08CC074F071C0B5
:103F70007DF072C07EF073C07FF074C080F07DC0B1
:103F800047F07EC048F07FC049F080C04AF0120080
:103F90000D50800B166E0D500D24186E0CAED3EF25
:103FA0001FF0D5EF1FF0D6EF1FF018801850D8B4CF
:103FB000DCEF1FF0DEEF1FF0F3EF1FF01828D8A49E
:103FC000E4EF1FF0E6EF1FF0EEEF1FF0000E0A6EB9
:103FD000000E0B6E000E0C6E000E0D6E0C8E000EA1
:103FE0000D6EFBEF1FF0000E0A6E000E0B6E000E42
:103FF0000C6E000E0D6E1150800B176E16501718B8
:10400000D8B405EF20F007EF20F008EF20F0168C71
:1040100011501124176E10AE10EF20F012EF20F0A7
:1040200013EF20F017801750D8B419EF20F01BEFD2
:1040300020F030EF20F01728D8A421EF20F023EF54
:1040400020F02BEF20F0000E0E6E000E0F6E000E13
:10405000106E000E116E108E000E116E38EF20F0F3
:10406000000E0E6E000E0F6E000E106E000E116E22
:104070001850175CD8B03FEF20F041EF20F068EF08
:1040800020F016AC46EF20F048EF20F04AEF20F089
:10409000800E161A18C019F017C018F019C017F0C2
:1040A0000AC019F00EC00AF019C00EF00BC019F0CA
:1040B0000FC00BF019C00FF00CC019F010C00CF0BD
:1040C00019C010F00DC019F011C00DF019C011F099
:1040D000000E196E185017C012F0136A125E000E0F
:1040E000135A13BE7DEF20F0135009E11A0E125C33
:1040F000D8A07DEF20F07FEF20F0B6EF20F00A503F
:104100000B100C100D10D8A488EF20F08BEF20F0CE
:10411000010E8CEF20F0000E196E000E0A6E000EDC
:104120000B6E000E0C6E000E0D6E17C018F0BFEF78
:1041300020F019A09EEF20F0A0EF20F0A6EF20F0D5
:10414000D89019300109196EA8EF20F0D8901932D3
:104150000AA0ADEF20F0AFEF20F0B0EF20F0198E05
:104160000D340D320C320B320A32182A1750185CFB
:10417000D8A0BDEF20F0BFEF20F099EF20F016BCE3
:10418000C4EF20F0C6EF20F006EF21F01850D8A4BD
:10419000CCEF20F0CEEF20F0D8EF20F0000E0A6E2A
:1041A000000E0B6E000E0C6E000E0D6E27EF22F04F
:1041B0000E500A260F500B2210500C2211500D22C7
:1041C0000DA0E5EF20F0E7EF20F093EF21F019A02C
:1041D000ECEF20F0EEEF20F0F4EF20F0D890193063
:1041E0000109196EF6EF20F0D89019320AA0FBEF02
:1041F00020F0FDEF20F0FEEF20F0198E0D340D328F
:104200000C320B320A32182A93EF21F00E500A5C5E
:104210000F500B5810500C580D50800A126E115050
:10422000800A1258D8B017EF21F019EF21F044EFAF
:1042300021F00A500E5C126E0B500F58136E0C508A
:104240001058146E0D501158156EFF0E12240A6E80
:10425000FF0E13200B6EFF0E14200C6EFF0E1520A8
:104260000D6E800E161A196C1950D8A43AEF21F071
:104270003CEF21F04CEF21F0010E0A26000E0B223C
:104280000C220D224CEF21F00E500A5E0F500B5AFB
:1042900010500C5A11500D5A0A500B100C100D10E2
:1042A000D8A455EF21F057EF21F08CEF21F01950F1
:1042B000D8A45DEF21F05FEF21F08CEF21F0000E2C
:1042C0000A6E000E0B6E000E0C6E000E0D6E27EFC8
:1042D00022F0D8900A360B360C360D3619AE73EF35
:1042E00021F075EF21F076EF21F00A8019A07BEF25
:1042F00021F07DEF21F081EF21F0D880193683EF96
:1043000021F0D89019361850D8B489EF21F08BEFEE
:1043100021F08CEF21F018060CAE91EF21F093EF15
:1043200021F069EF21F0000E176E19AE9AEF21F01F
:104330009CEF21F0B4EF21F019C012F07F0E12169D
:10434000D8B4A5EF21F0A7EF21F0ABEF21F0010EDB
:10435000176EB4EF21F00AA0B0EF21F0B2EF21F018
:10436000B4EF21F0A7EF21F01750D8B4BAEF21F045
:10437000BCEF21F0E7EF21F0010E0A26000E0B2220
:104380000C220D220DA0C7EF21F0C9EF21F0E7EFBD
:1043900021F00AC012F00BC013F00CC014F00DC0D5
:1043A00015F01534153214321332123212C00AF0DD
:1043B00013C00BF014C00CF015C00DF01828D8B4C1
:1043C000E4EF21F0E6EF21F0E7EF21F0182A1828BA
:1043D000D8B4EDEF21F0EFEF21F0F7EF21F0185016
:1043E000D8A4F5EF21F0F7EF21F009EF22F0000E4D
:1043F0000A6E000E0B6E000E0C6E000E0D6E185045
:10440000D8A405EF22F007EF22F009EF22F0000E0A
:10441000166E18A00EEF22F010EF22F013EF22F02C
:104420000C8E14EF22F00C9ED89018300D6E16AE44
:104430001CEF22F01EEF22F01FEF22F00D8E0AC0BB
:104440000AF00BC00BF00CC00CF00DC00DF0120008
:104450001D50800B266E1D501D242C6E1CAE33EF9C
:1044600022F035EF22F036EF22F02C802C50D8B419
:104470003CEF22F03EEF22F051EF22F02C28D8A49E
:1044800044EF22F046EF22F04EEF22F0000E1A6EBB
:10449000000E1B6E000E1C6E000E1D6E1C8E59EF62
:1044A00022F0000E1A6E000E1B6E000E1C6E000E27
:1044B0001D6E2150800B261A215021242B6E20AE18
:1044C00064EF22F066EF22F067EF22F02B802B5092
:1044D000D8B46DEF22F06FEF22F082EF22F02B289C
:1044E000D8A475EF22F077EF22F07FEF22F0000ED4
:1044F0001E6E000E1F6E000E206E000E216E208EAE
:104500008AEF22F0000E1E6E000E1F6E000E206E4F
:10451000000E216E2B50D8B490EF22F092EF22F0D3
:104520009AEF22F02C50D8A498EF22F09AEF22F0C4
:10453000A4EF22F0000E1A6E000E1B6E000E1C6E11
:10454000000E1D6E3CEF24F020501A02F3CF31F024
:10455000F4CF32F03150276E286A296A2A6A325025
:104560002D6E2E6A2F6A306A1F501B02F3CF31F076
:10457000F4CF32F031502726000E282229222A2299
:1045800032502D26000E2E222F2230221E501C02C9
:10459000F3CF31F0F4CF32F031502726000E28222D
:1045A00029222A2232502D26000E2E222F2230229E
:1045B00029C02AF028C029F027C028F0276A1E50F9
:1045C0001B02F3CF31F0F4CF32F0315027263250B6
:1045D0002822000E2922000E2A221F501A02F3CF91
:1045E00031F0F4CF32F03150272632502822000E1D
:1045F0002922000E2A2229C02AF028C029F027C02B
:1046000028F0276A1E501A02F3CF31F0F4CF32F0AF
:104610003150272632502822000E2922000E2A224D
:1046200020501B02F3CF31F0F4CF32F031502D2661
:1046300032502E22000E2F22000E30221F501C025C
:10464000F3CF31F0F4CF32F031502D2632502E22FC
:10465000000E2F22000E302220501C02F3CF31F02A
:10466000F4CF32F03150226E3250236E246A256A24
:1046700024C025F023C024F022C023F0226A225057
:104680002D2623502E2224502F222550302227C0A1
:1046900022F028C023F029C024F02AC025F0190EEA
:1046A00057EF23F0D8902532243223322232E82EDD
:1046B00052EF23F022502D2623502E2224502F2259
:1046C0002550302229C02AF028C029F027C028F020
:1046D000276A2B502CC022F0236A2226000E2322A8
:1046E000820E2224316EFF0E2320326E8DEF23F0D6
:1046F000D8902D362E362F3630362AAE82EF23F064
:1047000084EF23F085EF23F02D80D89027362836CC
:1047100029362A363106D8A032062FAE92EF23F082
:1047200094EF23F078EF23F0000E2B6E2AAE9BEF70
:1047300023F09DEF23F0C1EF23F0FF0E2714226E2C
:10474000FF0E2814236EFF0E2914246E7F0E2A14E8
:10475000256E2250231024102510D8B4B2EF23F078
:10476000B4EF23F0B8EF23F0010E2B6EC1EF23F06E
:104770002DA0BDEF23F0BFEF23F0C1EF23F0B4EF86
:1047800023F02B50D8B4C7EF23F0C9EF23F0EDEF9F
:1047900023F0010E2D26000E2E222F22302230A0D3
:1047A000D4EF23F0D6EF23F0EDEF23F02DC022F06D
:1047B0002EC023F02FC024F030C025F02534253240
:1047C00024322332223222C02DF023C02EF024C006
:1047D0002FF025C030F0314A322A32BEF8EF23F0F4
:1047E000325008E13128D8A0F8EF23F0FAEF23F097
:1047F00004EF24F0000E2D6E000E2E6E800E2F6E34
:104800007F0E306E32EF24F032BE11EF24F03250C2
:1048100006E13104D8B00FEF24F011EF24F01DEFC2
:1048200024F0000E2D6E000E2E6E000E2F6E000E68
:10483000306E000E266E32EF24F031C02CF0FF0EE9
:104840002D16FF0E2E167F0E2F16000E30162CA0E2
:104850002CEF24F02EEF24F02FEF24F02F8ED890A1
:104860002C30306E265030122DC01AF02EC01BF0A6
:104870002FC01CF030C01DF012003E50800B000114
:10488000646F3E503E246B6F3DAE49EF24F04BEF1A
:1048900024F04CEF24F06B816B51D8B452EF24F02C
:1048A00054EF24F069EF24F06B29D8A45AEF24F0D8
:1048B0005CEF24F064EF24F0000E3B6E000E3C6EC3
:1048C000000E3D6E000E3E6E3D8E000E3E6E71EF90
:1048D00024F0000E3B6E000E3C6E000E3D6E000E8E
:1048E0003E6E4250800B641B425042246C6F41AEBE
:1048F0007CEF24F07EEF24F07FEF24F06C816C518C
:10490000D8B485EF24F087EF24F09CEF24F06C29D5
:10491000D8A48DEF24F08FEF24F097EF24F0000E51
:104920003F6E000E406E000E416E000E426E418ED4
:10493000000E426EA4EF24F0000E3F6E000E406E9B
:10494000000E416E000E426E3F504010411042106A
:10495000D8A4ADEF24F0AFEF24F0C7EF24F0000EA1
:104960003B6E000E3C6E000E3D6E000E3E6E800EE5
:104970003D127F0E3E1264513E123BC03BF03CC0E4
:104980003CF03DC03DF03EC03EF00AEF26F06B51DA
:10499000D8A4CDEF24F0CFEF24F0D9EF24F0000E0F
:1049A0003B6E000E3C6E000E3D6E000E3E6E0AEF3A
:1049B00026F06C516BC043F0446A435E000E445ACB
:1049C0007F0E4324656F000E4420666F3BC060F08D
:1049D0003CC061F03DC062F03EC063F0000E3B6E33
:1049E000000E3C6E000E3D6E000E3E6E000E676FB8
:1049F000000E686F000E696F000E6A6F000E6C6F1C
:104A00003AEF25F06C51D8B408EF25F00AEF25F005
:104A100021EF25F0D8906037613762376337D8903F
:104A20003B363C363D363E366AAF19EF25F01BEF7C
:104A300025F01CEF25F03B80D89067376837693741
:104A40006A373F50605D4050615941506259425051
:104A50006359D8A02EEF25F030EF25F039EF25F07F
:104A60006A8D3F50605F4050615B4150625B4250D5
:104A7000635B6C2B190E6C6540EF25F042EF25F05F
:104A800002EF25F06051611162116311D8B44BEF50
:104A900025F04DEF25F065EF25F0678165EF25F0F6
:104AA000D8903B363C363D363E366AAF5AEF25F05D
:104AB0005CEF25F05DEF25F03B80D89067376837D5
:104AC00069376A376507D8A066073DAE6AEF25F0FB
:104AD0006CEF25F050EF25F0000E6C6F6AAF73EFAE
:104AE00025F075EF25F099EF25F0FF0E6715436E61
:104AF000FF0E6815446EFF0E6915456E7F0E6A1530
:104B0000466E4350441045104610D8B48AEF25F045
:104B10008CEF25F090EF25F0010E6C6F99EF25F0EA
:104B20003BA095EF25F097EF25F099EF25F08CEF5E
:104B300025F06C51D8B49FEF25F0A1EF25F0C5EF1B
:104B400025F0010E3B26000E3C223D223E223EA0D7
:104B5000ACEF25F0AEEF25F0C5EF25F03BC043F0FC
:104B60003CC044F03DC045F03EC046F046344632BD
:104B700045324432433243C03BF044C03CF045C070
:104B80003DF046C03EF0654B662B66BFD0EF25F08A
:104B9000665108E16529D8A0D0EF25F0D2EF25F0C5
:104BA000DDEF25F0000E666F6569000E3B6E000EAE
:104BB0003C6E000E3D6E000E3E6E66BFEAEF25F0C5
:104BC000665106E16505D8B0E8EF25F0EAEF25F07B
:104BD000F8EF25F0000E666F000E656F000E3B6E5D
:104BE000000E3C6E000E3D6E000E3E6E000E646FB9
:104BF00065C06BF06BA1FFEF25F001EF26F004EF2D
:104C000026F03D8E05EF26F03D9ED8906B313E6E2E
:104C1000BBEF24F0120051C08CFF28EF27F04F505B
:104C20005010D8B416EF26F018EF26F02CEF26F02F
:104C3000512A930E236E100E246ED0EC2EF0800EAF
:104C40002CEC2DF07D0E116E100E126E63EC2EF01A
:104C5000010E526E51EF27F04D504E10D8B433EF85
:104C600026F035EF26F051EF27F05106890E236E1E
:104C7000100E246ED0EC2EF0040E526E51EF27F081
:104C8000505009E1650E4F5CD8A049EF26F04BEF7C
:104C900026F04FEF26F0020E526E51EF27F04F50E4
:104CA0005010D8A456EF26F058EF26F051EF27F019
:104CB0004D504E10D8B45FEF26F061EF26F063EF51
:104CC00026F03CEF26F0000E526E51EF27F0000167
:104CD000E751D8B46EEF26F070EF26F073EF26F0B0
:104CE000512A000EE76FF50E4F5C010E5058D8A008
:104CF0007CEF26F07EEF26F082EF26F0030E526E58
:104D000051EF27F04F505010D8A489EF26F08BEFC9
:104D100026F051EF27F04D504E10D8B492EF26F008
:104D200094EF26F063EF26F03CEF26F00001E65109
:104D3000D8B49DEF26F09FEF26F0A2EF26F0512A7F
:104D4000000EE66F4F505010D8A4A9EF26F0ABEF3D
:104D500026F051EF27F04D504E10D8B4B2EF26F0A8
:104D6000B4EF26F063EF26F03CEF26F04E5009E159
:104D7000650E4D5CD8A0BFEF26F0C1EF26F0C5EF61
:104D800026F0050E526E51EF27F04D504E10D8A46C
:104D9000CCEF26F0CEEF26F051EF27F04F50501019
:104DA000D8B4D5EF26F0D7EF26F063EF26F028EF42
:104DB00026F00001E551D8B4E0EF26F0E2EF26F04E
:104DC000E5EF26F05106000EE56FF50E4D5C010E85
:104DD0004E58D8A0EEEF26F0F0EF26F0F4EF26F0D4
:104DE000060E526E51EF27F04D504E10D8A4FBEF37
:104DF00026F0FDEF26F051EF27F04F505010D8B4B9
:104E000004EF27F006EF27F063EF26F028EF26F0F7
:104E10000001E451D8B40FEF27F011EF27F014EFA1
:104E200027F05106000EE46F4D504E10D8A41BEF32
:104E300027F01DEF27F051EF27F04F505010D8B456
:104E400024EF27F026EF27F063EF26F028EF26F077
:104E50005250296E2A6A2A50000AD8B432EF27F03D
:104E600051EF27F02950000AD8B40FEF26F0010ABD
:104E7000D8B440EF26F0030AD8B467EF26F0010A51
:104E8000D8B496EF26F0070AD8B4B6EF26F0010A98
:104E9000D8B4D9EF26F0030AD8B408EF27F051EFC1
:104EA00027F0120033C041F034C042F035C043F067
:104EB00036C044F038BE66EF27F0385009E1800E66
:104EC000375CD8A066EF27F068EF27F0C6EF27F031
:104ED00041C01AF042C01BF043C01CF044C01DF09A
:104EE000000E1E6E000E1F6E000E206E7F0E216ED5
:104EF00028EC22F01AC041F01BC042F01CC043F065
:104F00001DC044F0810E3726FF0E382238BE92EFC6
:104F100027F0385009E1800E375CD8A092EF27F0D7
:104F200094EF27F030EF28F041C01AF042C01BF098
:104F300043C01CF044C01DF0000E1E6E000E1F6E1C
:104F4000000E206E7F0E216E28EC22F01AC041F078
:104F50001BC042F01CC043F01DC044F0810E372638
:104F6000FF0E382238BEBEEF27F0385009E1800E20
:104F7000375CD8A0BEEF27F0C0EF27F030EF28F065
:104F8000000E386E7F0E376E30EF28F038AED2EF5D
:104F900027F0820E375CFF0E3858D8B0D2EF27F0DA
:104FA000D4EF27F030EF28F041C01AF042C01BF0D8
:104FB00043C01CF044C01DF0000E1E6E000E1F6E9C
:104FC000800E206E0C0E216E28EC22F01AC041F0EB
:104FD0001BC042F01CC043F01DC044F0660E3726D3
:104FE000000E382238AEFEEF27F0820E375CFF0E3F
:104FF0003858D8B0FEEF27F000EF28F030EF28F057
:1050000041C01AF042C01BF043C01CF044C01DF068
:10501000000E1E6E000E1F6E800E206E0C0E216E96
:1050200028EC22F01AC041F01BC042F01CC043F033
:105030001DC044F0660E3726000E382238AE2AEF27
:1050400028F0820E375CFF0E3858D8B02AEF28F0CF
:105050002CEF28F030EF28F0FF0E386E820E376EFE
:105060007F0E3724396E000E38203A6E3B6A3C6A58
:10507000170ED89039363A363B363C36E82E39EFA3
:1050800028F039C03DF03AC03EF03BC03FF03CC094
:1050900040F03DC01AF03EC01BF03FC01CF040C0C5
:1050A0001DF041C01EF042C01FF043C020F044C0BC
:1050B00021F028EC22F01AC033F01BC034F01CC0E1
:1050C00035F01DC036F033C033F034C034F035C095
:1050D00035F036C036F01200126E1250D8B473EFAD
:1050E00028F075EF28F097EF28F00DBE7CEF28F040
:1050F0007AEF28F097EF28F00AC00EF00BC00FF0FF
:105100000CC010F00DC011F00E1E0F1E101E111E4F
:105110000E2A000E0F22102211220EC014F00FC012
:1051200015F010C016F011C017F09FEF28F00AC05C
:1051300014F00BC015F00CC016F00DC017F00A509B
:105140000B100C100D10D8A4A8EF28F0AAEF28F02F
:10515000B4EF28F0000E0A6E000E0B6E000E0C6EFF
:10516000000E0D6E45EF29F0960E136EBEEF28F07F
:10517000132AD8901732163215321432000E141436
:105180000E6E000E15140F6E000E1614106EFE0E2D
:105190001714116E0E500F1010101110D8A4D3EF69
:1051A00028F0D5EF28F0B8EF28F0E3EF28F0132A25
:1051B000010E1426000E152216221722D89017323F
:1051C000163215321432000E14140E6E000E151421
:1051D0000F6E000E1614106EFF0E1714116E0E5087
:1051E0000F1010101110D8A4F8EF28F0FAEF28F0E3
:1051F000D7EF28F002EF29F01306D89014361536B1
:105200001636173616BE07EF29F009EF29F011EF11
:1052100029F0020E13600FEF29F011EF29F0FCEFD7
:1052200028F013B016EF29F018EF29F019EF29F044
:10523000169ED890133213C00EF00F6A106A116ACE
:105240000EC011F0106A0F6A0E6A0E5014120F5041
:10525000151210501612115017121250D8B433EF05
:1052600029F035EF29F03DEF29F00DBE3CEF29F094
:105270003AEF29F03DEF29F0178E14C00AF015C05F
:105280000BF016C00CF017C00DF0120018EC2EF049
:1052900001C006F002C007F0EFEC2DF001C008F0ED
:1052A00002C009F0020E06180710D8A45AEF29F020
:1052B0005CEF29F090EF29F0000E4E6E000E4D6E5F
:1052C0004F4A502A4FC001F050C002F0EAC003F02C
:1052D000EBC004F05EEC2DF001500210D8A473EF87
:1052E00029F075EF29F078EF29F0010E0001E66F43
:1052F0004FC001F050C002F0ECC003F0EDC004F06C
:105300005EEC2DF001500210D8A489EF29F08BEF4C
:1053100029F0E8EF29F0010E0001E76FE8EF29F02E
:10532000020E08180910D8A498EF29F09AEF29F076
:10533000CEEF29F0000E506E000E4F6E4D4A4E2AF1
:105340004DC001F04EC002F0EAC003F0EBC004F023
:105350005EEC2DF001500210D8A4B1EF29F0B3EFAC
:1053600029F0B6EF29F0010E0001E46F4DC001F005
:105370004EC002F0ECC003F0EDC004F05EEC2DF086
:1053800001500210D8A4C7EF29F0C9EF29F0E8EFC7
:1053900029F0010E0001E56FE8EF29F0080409107B
:1053A000D8B4D5EF29F0D7EF29F0E0EF29F00604C3
:1053B0000710D8A4DEEF29F0E0EF29F0E8EF29F09C
:1053C000000E506E000E4F6E000E4E6E000E4D6EB3
:1053D00012000001A035A1354C6E4C50D8A4F3EF5B
:1053E00029F0F5EF29F0FFEF29F0000E9E6F000E77
:1053F0009F6F000EA06F000EA16F6CEF2AF09EC091
:10540000A2F09FC0A3F0A0C0A4F0A1C0A5F0200E00
:105410000FEF2AF0D890A533A433A333A233E82E9C
:105420000AEF2AF0A2514B6EA08FFF0E9E17FF0EBF
:105430009F17FF0EA017000EA117960E4C5E4CBED4
:1054400026EF2AF024EF2AF03CEF2AF04C50800A95
:10545000970FD8B02EEF2AF030EF2AF032EF2AF073
:10546000F5EF29F0D890A133A0339F339E334C3E03
:1054700032EF2AF054EF2AF01F0E4C6442EF2AF06C
:1054800044EF2AF04CEF2AF0F5EF29F0D8909E3740
:105490009F37A037A1374C064C50D8A452EF2AF0C2
:1054A00054EF2AF046EF2AF04B50D8B45AEF2AF0C6
:1054B0005CEF2AF064EF2AF0A11FA01F9F1F9E6DD2
:1054C000000E9F23A023A1239EC09EF09FC09FF0AB
:1054D000A0C0A0F0A1C0A1F01200000E3B14436ECA
:1054E000000E3C14446E800E3D14456E7F0E3E143B
:1054F000466E4350441045104610D8A482EF2AF05F
:1055000084EF2AF08CEF2AF0000E3B6E000E3C6E0A
:10551000000E3D6E000E3E6E000E3F14436E000EF8
:105520004014446E800E4114456E7F0E4214466E48
:105530004350441045104610D8A4A1EF2AF0A3EF21
:105540002AF0ABEF2AF0000E3F6E000E406E000E08
:10555000416E000E426E3EAEB0EF2AF0B2EF2AF07E
:10556000BBEF2AF03B6C3C1ED8B03C2A3D1ED8B0A5
:105570003D2A800E3E5642AEC0EF2AF0C2EF2AF01E
:10558000CBEF2AF03F6C401ED8B0402A411ED8B065
:10559000412A800E4256000E3B1A000E3C1A000EA5
:1055A0003D1A800E3E1A000E3F1A000E401A000EE1
:1055B000411A800E421A3F503B5C40503C584150CB
:1055C0003D5842503E58D8B0E8EF2AF0EAEF2AF0B2
:1055D000EDEF2AF0D890EEEF2AF0D880120017C035
:1055E000D9FF18C0DAFFDECFF6FFDDCFF7FF000EE0
:1055F000F86E0800F550250AD8A401EF2BF003EF50
:105600002BF04DEF2BF017C0D9FF18C0DAFFDE2AC0
:10561000000EDD22000E0001DB6F000EDA6FDAC033
:10562000DEF0DBC0DFF0DC69DD6917C0D9FF18C030
:10563000DAFFDECFF6FFDDCFF7FF000EF86E0800D1
:10564000F550250AD8A427EF2BF029EF2BF040EFD7
:105650002BF017C0D9FF18C0DAFFDE2A000EDD22BA
:10566000000E0D6E250E0C6E15C00EF016C00FF05C
:1056700044EC2CF0000E166E010E156E6AEF2BF046
:1056800017C0D9FF18C0DAFFDE2A000EDD22000E97
:10569000166E000E156E6AEF2BF017C0D9FF18C0FA
:1056A000DAFFDECFF6FFDDCFF7FF000EF86E080061
:1056B000F5500C6E0D6A15C00EF016C00FF044ECDC
:1056C0002CF017C0D9FF18C0DAFFDE2A000EDD2249
:1056D0003AEF2BF01200C70ED56E000E0001916F4D
:1056E000000E926F400E936F400E946F000E8D6F00
:1056F000000E8E6F200E8F6F410E906F4FEC08F0F2
:105700008DC0A8F08EC0A9F08FC0AAF090C0ABF0F9
:10571000000E1E6E000E1F6EA00E206E410E216E3A
:10572000A8C01AF0A9C01BF0AAC01CF0ABC01DF0A5
:1057300028EC22F01AC09EF01BC09FF01CC0A0F005
:105740001DC0A1F0E9EC29F09EC0ACF09FC0ADF007
:10575000ACC00AF0ADC00BF0010E0D6E000E0C6E69
:10576000E2EC2BF00AC0B0F00BC0B1F00001B1BF09
:10577000C2EF2BF0B105D8B0C0EF2BF0C2EF2BF089
:10578000CCEF2BF0B051FF08E26FB151D8A0E82A5E
:105790000008E36FE1EF2BF0D59CB051FF08AE6F2E
:1057A000B151D8A0E82AFF08AF6FAE51E26FE36BAA
:1057B000E251AE5DA66FE351AF59A76FA751E06FFD
:1057C000E16B1200000E0F6E0DBEEBEF2BF0E9EF58
:1057D0002BF0F1EF2BF00C6C0D1ED8B00D2A010E42
:1057E0000F6E0BBEF8EF2BF0F6EF2BF0FEEF2BF069
:1057F0000A6C0B1ED8B00B2A010E0F1A000E116E88
:10580000000E106E0C500D10D8B409EF2CF00BEFF9
:105810002CF033EF2CF0010E0E6E13EF2CF0D8901D
:105820000C360D360E2A0DAE18EF2CF01AEF2CF0B8
:105830000FEF2CF0D890103611360C500A5C0D503A
:105840000B58D8A026EF2CF028EF2CF02DEF2CF0E1
:105850000C500A5E0D500B5A1080D8900D320C324D
:105860000E2E1AEF2CF00F50D8B439EF2CF03BEF7E
:105870002CF03FEF2CF0106C111ED8B0112A10C084
:105880000AF011C00BF012000E500F10D8B44BEFFD
:105890002CF04DEF2CF056EF2CF00E500F10D8A43A
:1058A00054EF2CF056EF2CF05BEF2CF00C505CEC2E
:1058B0002FF08EEF2CF020EE04F00E50D9260F5072
:1058C000DA22DE50DE10D8B468EF2CF06AEF2CF04C
:1058D00085EF2CF020EE04F00E50D9260F50DA227E
:1058E00010EE02F00E50E1260F50E222DE50E65C90
:1058F000E650800A146EDE50800A1458D8B083EF48
:105900002CF085EF2CF08EEF2CF020EE02F00E50F4
:10591000D9260F50DA22DE2A000EDD2212000A6E8E
:105920000AC00CF0000E0B6E0AAE99EF2CF09BEF44
:105930002CF09EEF2CF08B8A9FEF2CF08B9A8BA88B
:10594000A4EF2CF0A6EF2CF0AAEF2CF0D8800C36A8
:10595000ADEF2CF00C500C240C6E8B8600F000F098
:1059600000F000F000F000F000F000F000F000F0B7
:1059700000F000F08B96D8900A360B2A070E0B64C5
:10598000C4EF2CF0C6EF2CF094EF2CF012001DC0E9
:1059900021F01EC022F0000E0001D96F000ED86F5A
:1059A000E5EF2CF01BC015F01CC016F0210E176E91
:1059B000000E186E1FC019F020C01AF0EFEC2AF08C
:1059C00015500001D8271650D92321C0F6FF22C058
:1059D000F7FF000EF86E0800F5500009D8A4F3EFA9
:1059E0002CF0F5EF2CF0D2EF2CF0D8C01BF0D9C082
:1059F0001CF01200106E0D0E0F6EFC0EE82EFED77E
:105A00000F2EFCD7800E0D6E120E25EC2FF0030E1C
:105A10000F6E980EE82EFED70F2EFCD710C00DF09B
:105A2000130E25EC2FF0030E0F6E980EE82EFED706
:105A30000F2EFCD7C00E0D6E120E25EC2FF0030EAC
:105A40000F6E980EE82EFED70F2EFCD7000E0D6EAF
:105A5000120E25EC2FF01200106E0D0E0F6EFC0EC4
:105A6000E82EFED70F2EFCD7000E0D6E120E25EC81
:105A70002FF0030E0F6E980EE82EFED70F2EFCD7D8
:105A800010C00DF0130E25EC2FF0030E0F6E980EC4
:105A9000E82EFED70F2EFCD7400E0D6E120E25EC11
:105AA0002FF0030E0F6E980EE82EFED70F2EFCD7A8
:105AB000000E0D6E120E25EC2FF012000350041094
:105AC000D8B465EF2DF067EF2DF08BEF2DF0010EC0
:105AD000056E6FEF2DF0D89003360436052A04AE1C
:105AE00074EF2DF076EF2DF06BEF2DF00350015C8D
:105AF00004500258D8A07FEF2DF081EF2DF085EFF4
:105B00002DF00350015E0450025AD8900432033243
:105B1000052E76EF2DF001C001F002C002F0120058
:105B2000C20EF66E5E0EF76E000EF86E00EEEAF034
:105B300010EE09F00900F5CFEEFFE550E150FAE173
:105B4000D40EF66E5E0EF76E000EF86E0900F5CFFD
:105B500053F00900F5CF54F00900F5CF55F000EEF1
:105B6000B2F0380EEE6AE806FDE1526A516A506AF8
:105B70004F6A4E6A4D6A569056920001E3EF2EF03E
:105B800047EC2FF0979C8E9C0D0E116EFC0EE82EAC
:105B9000FED7112EFCD78E8C000E18EC2FF0010EC4
:105BA00018EC2FF0000E0D6E120E25EC2FF0270EC4
:105BB000116EF50EE82EFED7112EFCD700F0320E36
:105BC0002CEC2DF03C0E2CEC2DF00C0E2CEC2DF0D2
:105BD000010E2CEC2DF0060E2CEC2DF0120053C013
:105BE000F2F0000E81B0010E536E0001F251531815
:105BF000D8A4FDEF2DF0FFEF2DF013EF2EF0535052
:105C0000D8B405EF2EF007EF2EF00DEF2EF0000EBA
:105C1000026E010E016E17EF2EF0000E026E020EE4
:105C2000016E17EF2EF0000E026E000E016E1200D4
:105C300054C055F0000E80BA010E546E55505418E1
:105C4000D8A425EF2EF027EF2EF03BEF2EF0545086
:105C5000D8B42DEF2EF02FEF2EF035EF2EF0000EF2
:105C6000026E010E016E3FEF2EF0000E026E020E6C
:105C7000016E3FEF2EF0000E026E000E016E12005C
:105C8000000E371A000E381A000E391A800E3A1A12
:105C900033C00AF034C00BF035C00CF036C00DF044
:105CA00037C00EF038C00FF039C010F03AC011F014
:105CB000C8EC1FF00AC033F00BC034F00CC035F054
:105CC0000DC036F0120071EF2EF011C0F6FF12C0B9
:105CD000F7FF000EF86E0800F550FAEC2CF0114AB0
:105CE000122A11C0F6FF12C0F7FF000EF86E08006E
:105CF000F5500009D8A47FEF2EF081EF2EF065EF6C
:105D00002EF012000A500B100C100D10D8B48BEFAF
:105D10002EF08DEF2EF095EF2EF0000E0A1A000EE9
:105D20000B1A000E0C1A800E0D1A0AC00AF00BC0D6
:105D30000BF00CC00CF00DC00DF01200D2C00EF034
:105D4000D3C00FF0D4C010F0D5C011F00AC00EF0CF
:105D50000BC00FF00CC010F00DC011F0119E0EC062
:105D60000AF00FC00BF010C00CF011C00DF01200C3
:105D70000600F2AABEEF2EF0C0EF2EF0CEEF2EF00E
:105D8000F2A4C5EF2EF0C7EF2EF0CEEF2EF0F29476
:105D9000E2C0D6FFE0C0D7FF46EC29F056921100D2
:105DA000250E276E000E286E000E1B6E000E1C6E58
:105DB00023C01DF024C01EF0270E1F6E000E206EA3
:105DC000C7EC2CF01200F5EC2EF050EC2FF066EC46
:105DD0002FF057EC2FF03DEC2FF0C0EC2DF00BEC3A
:105DE00026F0EFEF2EF007EF00F0000E956E000E9C
:105DF0008C6E000E896EF30E926E000E8A6E9368A2
:105E0000000E8B6ED70E946E0F0EC16E1200FF0E39
:105E10000E6EFF0E0F6EFF0E106E7F0E116E0EC017
:105E20000AF00FC00BF010C00CF011C00DF0120002
:105E30000D6E8994400E8FEC2CF00D508FEC2CF0F1
:105E4000000E8FEC2CF0898412000E6E8994400EA7
:105E50008FEC2CF00E508FEC2CF00D508FEC2CF0C2
:105E6000898412000A6E9EA838EF2FF03AEF2FF0C7
:105E700033EF2FF00AC0ADFF1200800EAB6E260E7E
:105E8000AC6EAF68000EAD6E000EAE6E1200929456
:105E90009488949A949689848B888B9A8B96120016
:105EA0006BEC2BF0E2C0D6FFE0C0D7FF1200770EFC
:105EB000D36E0F0E9B6E12000B6E0B5032EC2FF058
:0B5EC00012000A003200F4016400012F
:0B5ECC00F28AF28EF28C12000101013C
:020000040020DA
:08000000FFFFFFFFFFFFFFFF00
:020000040030CA
:0E000000FF09191EF38381FFFFC0FFE0FF40E0
:00000001FF
