:020000040000FA
:0400000007EF00F016
:0A000800598286ED2CF006EF2CF073
:101000000000000000DCCFD1350000000000C0155A
:101010003F6042A20D70A5EC363BAAB83F4F387630
:101020003F3CAA38338CBEBF350072313F18723155
:101030003F4CBB31330EEADDB555B38A38610B3610
:10104000BBABAA2A3E42F1533E55326C3E05A38B00
:101050003EABAAAA3EB76DDB3E9A99193F6042A209
:101060000DCAF249710000804B0000803F0000C0B3
:0F1070003F00AAB83FC623F6B80040763F000005
:1010800088C0B8F189C0B9F18AC0BAF18BC0BBF190
:10109000B8C160F1B9C161F1BAC162F1BBC163F11C
:1010A0008CC0B8F18DC0B9F18EC0BAF18FC0BBF160
:1010B000B8C17CF1B9C17DF1BAC17EF1BBC17FF18C
:1010C000FF0E01016015A86FFF0E6115A96FFF0EDD
:1010D0006215AA6F7F0E6315AB6FFF0E7C15906FC4
:1010E000FF0E7D15916FFF0E7E15926F7F0E7F159F
:1010F000936F9051911192119311D8A482EF08F03F
:1011000084EF08F08FEF08F0000E0001886F000EEA
:10111000896F800E8A6F3F0E8B6F58EF1DF0800E27
:10112000621909E13F0E631960116111D8A49BEFA8
:1011300008F09DEF08F0A8EF08F0000E0001886F9E
:10114000000E896F800E8A6F3F0E8B6F58EF1DF077
:10115000ABBFB9EF08F0A805000EA959800EAA5937
:101160007F0EAB59D8B0B7EF08F0B9EF08F0CAEF6F
:1011700008F093BFC8EF08F09005000E9159800E5B
:1011800092597F0E9359D8A0C8EF08F0CAEF08F023
:10119000E6EF08F088C007F089C008F08AC009F0BF
:1011A0008BC00AF08CC00BF08DC00CF08EC00DF01F
:1011B0008FC00EF0B9EC1FF007C088F008C089F0AE
:1011C00009C08AF00AC08BF058EF1DF0000E506F76
:1011D000000E516F000E526F000E536F63BFF5EF9C
:1011E00008F0F3EF08F0C1EF09F093BF01EF09F049
:1011F000800E925D4B0E9359D8A001EF09F003EFDA
:1012000009F00DEF09F0020E506F000E516F000E45
:10121000526F000E536FC1EF09F093BF19EF09F041
:10122000800E925D3F0E9359D8A019EF09F01BEF85
:1012300009F0C1EF09F0170E0001906F90C191F015
:1012400091C192F092C193F093C194F090672BEF0B
:1012500009F033EF09F0943594339333923391339B
:10126000902F26EF09F0810E000191250101A06F5A
:10127000FF0E000192210101A16FFF0E00019321D9
:101280000101A26FFF0E000194210101A36FA05183
:1012900017080001906F90C191F091C192F092C136
:1012A00093F093C194F0906758EF09F060EF09F064
:1012B00094359433933392339133902F53EF09F055
:1012C00091C0ACF192C0ADF193C0AEF194C0AFF15A
:1012D0000101A05117080001906FACC191F0ADC1A0
:1012E00092F0AEC193F0AFC194F0902B7DEF09F076
:1012F000D8909137923793379437902F78EF09F041
:10130000010190510001911913E101019151000176
:1013100092190EE1010192510001931909E10101B5
:10132000935100019419D8A498EF09F09AEF09F0AD
:10133000C1EF09F0010E0101AC150001906F000E24
:101340000101AD150001916F000E0101AE15000104
:10135000926F000E0101AF150001936F90510208CA
:101360000101506F000E000191550101516F000EF7
:10137000000192550101526F000E000193550101C9
:10138000536F800E0101921909E17F0E931990119C
:101390009111D8A4CEEF09F0D0EF09F03CEF0AF09C
:1013A000800EAA1909E13F0EAB19A811A911D8A402
:1013B000DCEF09F0DEEF09F0E9EF09F0000E0001C3
:1013C000886F000E896F800E8A6F3F0E8B6F58EF0B
:1013D0001DF0ABBFF8EF09F0A805000EA959800E6B
:1013E000AA593F0EAB59D8A0F8EF09F0FAEF09F06F
:1013F00016EF0AF07FBF01EF0AF0FFEF09F00CEFE4
:101400000AF0000E0001886F000E896F000E8A6FCF
:10141000000E8B6F58EF1DF08CC088F08DC089F0E6
:101420008EC08AF08FC08BF058EF1DF07FBF1DEF8C
:101430000AF01BEF0AF031EF0AF08CC007F08DC004
:1014400008F08EC009F08FC00AF050EC2CF007C0F5
:1014500088F008C089F009C08AF00AC08BF058EF04
:101460001DF0000E0001886F000E896F000E8A6F5C
:10147000000E8B6F58EF1DF0800E921909E13F0EA0
:10148000931990119111D8A448EF0AF04AEF0AF08D
:1014900077EF0AF07FBF51EF0AF04FEF0AF06DEFE0
:1014A0000AF0000E386E000E396E800E3A6E3F0E56
:1014B0003B6E88C03CF089C03DF08AC03EF08BC0D6
:1014C0003FF02EEC24F038C088F039C089F03AC0E3
:1014D0008AF03BC08BF058EF1DF088C088F089C0BF
:1014E00089F08AC08AF08BC08BF058EF1DF0400E57
:1014F0007F197C117D117E11D8A481EF0AF083EF52
:101500000AF09FEF0AF088C017F089C018F08AC06F
:1015100019F08BC01AF088C01BF089C01CF08AC07B
:101520001DF08BC01EF019EC22F017C088F018C017
:1015300089F019C08AF01AC08BF058EF1DF03F0EE9
:101540007F197C117D117E11D8A4A9EF0AF0ABEFB1
:101550000AF0C6EF0AF063BFB0EF0AF0B2EF0AF08C
:10156000C6EF0AF088C044F089C045F08AC046F052
:101570008BC047F059EC1DF044C088F045C089F09D
:1015800046C08AF047C08BF058EF1DF088C007F0C6
:1015900089C008F08AC009F08BC00AF06CEC2CF00E
:1015A00007C070F108C071F109C072F10AC073F18F
:1015B000800E0101AA190BE17F0EAB19A811A91128
:1015C000D8B4E5EF0AF0E7EF0AF000EF0BF0A8510E
:1015D000A911AA11AB11D8B4F0EF0AF0F2EF0AF09A
:1015E00000EF0BF0800EAA1909E13F0EAB19A8110C
:1015F000A911D8A4FEEF0AF000EF0BF0CBEF0BF02F
:1016000070C1B4F171C1B5F172C1B6F173C1B7F176
:101610007FBF0FEF0BF00DEF0BF029EF0BF0000E7B
:10162000386E000E396E800E3A6E3F0E3B6EB4C1BE
:101630003CF0B5C13DF0B6C13EF0B7C13FF02EEC75
:1016400024F038C0B4F139C0B5F13AC0B6F13BC0AE
:10165000B7F1010163BF31EF0BF02FEF0BF0C1EFDA
:101660000BF0000EA8250001906F000E0101A921CA
:101670000001916F800E0101AA210001926FC00E3E
:101680000101AB210001936F010150510001901144
:10169000946F0101515100019111956F0101525157
:1016A00000019211966F0101535100019311976F40
:1016B0009451951196119711D8A461EF0BF063EF37
:1016C0000BF0A3EF0BF0B4C134F0B5C135F0B6C1E7
:1016D00036F0B7C137F0B4C130F0B5C131F0B6C1A2
:1016E00032F0B7C133F02DEC2CF030C038F031C0FF
:1016F00039F032C03AF033C03BF0B4C134F0B5C178
:1017000035F0B6C136F0B7C137F0B4C130F0B5C16D
:1017100031F0B6C132F0B7C133F02DEC2CF030C04F
:101720003CF031C03DF032C03EF033C03FF02EEC13
:1017300024F038C0B4F139C0B5F13AC0B6F13BC0BD
:10174000B7F1C1EF0BF001015005511152115311C6
:10175000D8A4ADEF0BF0AFEF0BF0C1EF0BF0B4C1BD
:1017600007F0B5C108F0B6C109F0B7C10AF050ECF6
:101770002CF007C0B4F108C0B5F109C0B6F10AC039
:10178000B7F1B4C188F0B5C189F0B6C18AF0B7C16C
:101790008BF058EF1DF0000E886F000E896F800EE1
:1017A0008A6F3F0E8B6F63BFDAEF0BF0D8EF0BF051
:1017B00038EF0CF05051511152115311D8A4E3EFEE
:1017C0000BF0E5EF0BF025EF0CF088C034F089C08A
:1017D00035F08AC036F08BC037F088C030F089C051
:1017E00031F08AC032F08BC033F02DEC2CF030C0D9
:1017F00038F031C039F032C03AF033C03BF088C025
:1018000034F089C035F08AC036F08BC037F088C01C
:1018100030F089C031F08AC032F08BC033F02DEC4B
:101820002CF030C03CF031C03DF032C03EF033C04F
:101830003FF02EEC24F038C088F039C089F03AC06F
:101840008AF03BC08BF058EF1DF05005511152113A
:101850005311D8A42EEF0CF030EF0CF038EF0CF051
:10186000000E886F000E896F800E8A6FBF0E8B6F1F
:1018700093BF47EF0CF09005000E9159000E92595E
:101880004D0E9359D8A047EF0CF049EF0CF0CEEF76
:101890000EF0ABBF5BEF0CF0F80EA85DFF0EA95980
:1018A0007F0EAA593F0EAB59D8B059EF0CF05BEF41
:1018B0000CF0CEEF0CF07FBF60EF0CF062EF0CF09D
:1018C00098EF0CF0600E1B6E420E1C6EA20E1D6E89
:1018D0000D0E1E6E88C117F089C118F08AC119F06B
:1018E0008BC11AF019EC22F017C0A4F118C0A5F1B1
:1018F00019C0A6F11AC0A7F1A4C117F0A5C118F02C
:10190000A6C119F0A7C11AF0600E1B6E420E1C6E24
:10191000A20E1D6E0D0E1E6E19EC22F017C088F07F
:1019200018C089F019C08AF01AC08BF058EF1DF06A
:10193000CA0E1B6EF20E1C6E490E1D6E710E1E6ECF
:1019400088C117F089C118F08AC119F08BC11AF04B
:1019500019EC22F017C0A4F118C0A5F119C0A6F126
:101960001AC0A7F1A4C117F0A5C118F0A6C119F0BB
:10197000A7C11AF0CA0E1B6EF20E1C6E490E1D6E28
:10198000710E1E6E19EC22F017C088F018C089F095
:1019900019C08AF01AC08BF058EF1DF0ABBFDEEF14
:1019A0000CF0080EA85D000EA959800EAA593F0E32
:1019B000AB59D8A0DEEF0CF0E0EF0CF05BEF0DF0D0
:1019C0007FBFEFEF0CF07F517E117D1106E17C05AA
:1019D000D8B0EDEF0CF0EFEF0CF025EF0DF0600E4E
:1019E0001B6E420E1C6EA20E1D6E0D0E1E6E88C169
:1019F00017F089C118F08AC119F08BC11AF019ECDF
:101A000022F017C0A4F118C0A5F119C0A6F11AC0A0
:101A1000A7F1A4C117F0A5C118F0A6C119F0A7C17C
:101A20001AF0600E1B6E420E1C6EA20E1D6E0D0E85
:101A30001E6E19EC22F017C088F018C089F019C08A
:101A40008AF01AC08BF058EF1DF0CA0E1B6EF20E12
:101A50001C6E490E1D6E710E1E6E88C117F089C175
:101A600018F08AC119F08BC11AF019EC22F017C0D6
:101A7000A4F118C0A5F119C0A6F11AC0A7F1A4C11C
:101A800017F0A5C118F0A6C119F0A7C11AF0CA0E27
:101A90001B6EF20E1C6E490E1D6E710E1E6E19EC41
:101AA00022F017C088F018C089F019C08AF01AC057
:101AB0008BF058EF1DF070C107F071C108F072C1D2
:101AC00009F073C10AF0000E0B6E000E0C6E800E52
:101AD0000D6EBF0E0E6EB9EC1FF007C0B0F108C05E
:101AE000B1F109C0B2F10AC0B3F1000E1B6E000ED5
:101AF0001C6E800E1D6E3E0E1E6EB0C117F0B1C181
:101B000018F0B2C119F0B3C11AF019EC22F017C0E5
:101B100034F018C035F019C036F01AC037F0AB0EEB
:101B2000306EAA0E316EAA0E326E3E0E336E2DEC62
:101B30002CF030C0A4F131C0A5F132C0A6F133C001
:101B4000A7F1B0C11BF0B1C11CF0B2C11DF0B3C10F
:101B50001EF0B0C117F0B1C118F0B2C119F0B3C195
:101B60001AF019EC22F017C054F118C055F119C041
:101B700056F11AC057F1B0C11BF0B1C11CF0B2C18F
:101B80001DF0B3C11EF0A4C117F0A5C118F0A6C185
:101B900019F0A7C11AF019EC22F017C034F018C0E0
:101BA00035F019C036F01AC037F0000E306E000E56
:101BB000316E000E326E3F0E336E2DEC2CF030C0C5
:101BC00048F131C049F132C04AF133C04BF154C140
:101BD00017F055C118F056C119F057C11AF048C195
:101BE0001BF049C11CF04AC11DF04BC11EF019EC9D
:101BF00022F017C044F118C045F119C046F11AC0CF
:101C000047F1B0C117F0B1C118F0B2C119F0B3C1BA
:101C10001AF0000E1B6EAA0E1C6EB80E1D6E3F0E43
:101C20001E6E19EC22F017C074F118C075F119C0BE
:101C300076F11AC077F1700E1B6EA50E1C6EEC0EBD
:101C40001D6E360E1E6EB0C117F0B1C118F0B2C1D4
:101C500019F0B3C11AF019EC22F017C030F018C017
:101C600031F019C032F01AC033F03B0E1B6EAA0ED1
:101C70001C6EB80E1D6E3F0E1E6E44C117F045C19E
:101C800018F046C119F047C11AF019EC22F017C03C
:101C900034F018C035F019C036F01AC037F02DEC0A
:101CA0002CF030C078F131C079F132C07AF133C014
:101CB0007BF174C107F075C108F076C109F077C1F6
:101CC0000AF078C10BF079C10CF07AC10DF07BC13C
:101CD0000EF0B9EC1FF007C084F108C085F109C00F
:101CE00086F10AC087F184C1B8F185C1B9F186C116
:101CF000BAF187C1BBF1B8C194F1B9C195F1BAC1CC
:101D000096F1BBC197F1000E01019415B86FF00E6A
:101D10009515B96FFF0E9615BA6FFF0E9715BB6F2D
:101D2000B8C184F1B9C185F1BAC186F1BBC187F1EF
:101D300074C134F075C135F076C136F077C137F033
:101D400084C130F085C131F086C132F087C133F0F3
:101D50002DEC2CF030C098F131C099F132C09AF1DD
:101D600033C09BF178C130F079C131F07AC132F0E3
:101D70007BC133F098C134F099C135F09AC136F087
:101D80009BC137F02DEC2CF030C01CF131C01DF19F
:101D900032C01EF133C01FF14EEF16F0000E806FFF
:101DA000000E816F000E826F000E836FABBFE4EFF9
:101DB0000EF0AB5107E1800EAA5DD8B0E2EF0EF055
:101DC000E4EF0EF017EF0FF070C117F071C118F0CB
:101DD00072C119F073C11AF0000E1B6E000E1C6E5A
:101DE000800E1D6E4B0E1E6E19EC22F017C070F1A6
:101DF00018C071F119C072F11AC073F1E80E010137
:101E00008027FF0E8123FF0E8223FF0E832370C1E4
:101E1000B8F171C1B9F172C1BAF173C1BBF1B8C106
:101E2000A8F1B9C1A9F1BAC1AAF1BBC1ABF1170EB2
:101E30000001906FA8C191F0A9C192F0AAC193F0DE
:101E4000ABC194F0906727EF0FF02FEF0FF09435B0
:101E50009433933392339133902F22EF0FF0810E0E
:101E600000019125956FFF0E9221966FFF0E932131
:101E7000976FFF0E9421986F955101018027000103
:101E80009651010181230001975101018223000134
:101E9000985101018323FF0EA815AC6FFF0EA91501
:101EA000AD6F7F0EAA15AE6F000EAB15AF6F000EB3
:101EB000AC11A86F000EAD11A96F800EAE11AA6F04
:101EC0003F0EAF11AB6FAFBF75EF0FF0AF510BE12E
:101ED000720EAC5DC40EAD591C0EAE59D8B073EF86
:101EE0000FF075EF0FF07FEF0FF0000EA06F000EF8
:101EF000A16F000EA26F000EA36FB1EF0FF0AFBF86
:101F000091EF0FF0AF510BE1D70EAC5DB30EAD59B1
:101F10005D0EAE59D8B08FEF0FF091EF0FF09BEF41
:101F20000FF0010EA06F000EA16F000EA26F000E49
:101F3000A36FB1EF0FF0000EA06F000EA16F000EA7
:101F4000A26F000EA36F010E8027000E8123822353
:101F50008323000EA827000EA923800EAA23FF0EBC
:101F6000AB23A8C1B8F1A9C1B9F1AAC1BAF1ABC1FB
:101F7000BBF1B8C170F1B9C171F1BAC172F1BBC1A5
:101F800073F170C130F071C131F072C132F073C1C0
:101F900033F0A0C190F0A1C191F00001D89090372A
:101FA0009137D89090379137690E9025F66E100EC4
:101FB0009121F76EF86A000EF8220900F5CF34F08F
:101FC0000900F5CF35F00900F5CF36F00A00F5CF5E
:101FD00037F02DEC2CF030C074F131C075F132C007
:101FE00076F133C077F1000E386E000E396E800E38
:101FF0003A6E3F0E3B6E70C10BF071C10CF072C1B6
:102000000DF073C10EF0A0C190F0A1C191F00001DC
:10201000D89090379137D89090379137690E9025A6
:10202000F66E100E9121F76EF86A000EF822090084
:10203000F5CF07F00900F5CF08F00900F5CF09F05A
:102040000A00F5CF0AF0B9EC1FF007C03CF008C059
:102050003DF009C03EF00AC03FF02EEC24F038C03D
:1020600078F139C079F13AC07AF13BC07BF174C1A3
:1020700017F075C118F076C119F077C11AF078C160
:102080001BF079C11CF07AC11DF07BC11EF019EC68
:1020900022F017C05CF118C05DF119C05EF11AC0E2
:1020A0005FF15CC16CF15DC16DF15EC16EF15FC14C
:1020B0006FF16CC1B8F16DC1B9F16EC1BAF16FC108
:1020C000BBF1B8C194F1B9C195F1BAC196F1BBC1E8
:1020D00097F1000E01019415B86FF00E9515B96FC8
:1020E000FF0E9615BA6FFF0E9715BB6FB8C16CF156
:1020F000B9C16DF1BAC16EF1BBC16FF1A8C190F069
:10210000A9C191F0AAC192F0ABC193F0000193353F
:102110009333923391339033000E9015946FF00EF9
:102120009115956FFF0E9215966FFF0E9315976F91
:10213000000E94110101946F000E00019511010130
:10214000956F000E000196110101966F200E00019F
:1021500097110101976FA0C190F0A1C191F0A2C1A8
:1021600092F0A3C193F0150ED890000190379137EB
:1021700092379337E82EB4EF10F00101945100012B
:102180009025946F0101955100019121956F0101F6
:10219000965100019221966F010197510001932100
:1021A000976F000E94250101B86F000E0001952174
:1021B0000101B96F400E000196210101BA6F000EB6
:1021C000000197210101BB6FB8C168F1B9C169F184
:1021D000BAC16AF1BBC16BF1A0C190F0A1C191F08D
:1021E0000001D89090379137D89090379137690E89
:1021F0009025F66E100E9121F76EF86A000EF82207
:102200000900F5CF34F00900F5CF35F00900F5CF1E
:1022100036F00A00F5CF37F068C130F069C131F00F
:102220006AC132F06BC133F02DEC2CF030C098F164
:1022300031C099F132C09AF133C09BF170C130F0D6
:1022400071C131F072C132F073C133F098C134F012
:1022500099C135F09AC136F09BC137F02DEC2CF0C6
:1022600030C034F131C035F132C036F133C037F10E
:1022700068C11BF069C11CF06AC11DF06BC11EF082
:102280006CC117F06DC118F06EC119F06FC11AF072
:1022900019EC22F017C034F018C035F019C036F030
:1022A0001AC037F074C130F075C131F076C132F028
:1022B00077C133F02DEC2CF030C098F131C099F19A
:1022C00032C09AF133C09BF134C11BF035C11CF010
:1022D00036C11DF037C11EF06CC117F06DC118F08A
:1022E0006EC119F06FC11AF019EC22F017C034F06A
:1022F00018C035F019C036F01AC037F098C130F068
:1023000099C131F09AC132F09BC133F02DEC2CF021
:1023100030C054F131C055F132C056F133C057F1DD
:1023200054C117F055C118F056C119F057C11AF031
:1023300078C11BF079C11CF07AC11DF07BC11EF081
:1023400019EC22F017C030F118C031F119C032F188
:102350001AC033F15CC117F05DC118F05EC119F00D
:102360005FC11AF05CC11BF05DC11CF05EC11DF0C5
:102370005FC11EF019EC22F017C08CF118C08DF16E
:1023800019C08EF11AC08FF1550E0B6E320E0C6E05
:102390006C0E0D6E3E0E0E6E420E1B6EF10E1C6E1E
:1023A000530E1D6E3E0E1E6E8CC117F08DC118F0BF
:1023B0008EC119F08FC11AF019EC22F017C007F086
:1023C00018C008F019C009F01AC00AF0B9EC1FF0E3
:1023D00007C0A4F108C0A5F109C0A6F10AC0A7F181
:1023E000050E0B6EA30E0C6E8B0E0D6E3E0E0E6E5A
:1023F0008CC11BF08DC11CF08EC11DF08FC11EF071
:10240000A4C117F0A5C118F0A6C119F0A7C11AF010
:1024100019EC22F017C007F018C008F019C009F035
:102420001AC00AF0B9EC1FF007C054F108C055F10A
:1024300009C056F10AC057F1AB0E0B6EAA0E0C6E16
:10244000AA0E0D6E3E0E0E6E8CC11BF08DC11CF0DF
:102450008EC11DF08FC11EF054C117F055C118F088
:1024600056C119F057C11AF019EC22F017C007F045
:1024700018C008F019C009F01AC00AF0B9EC1FF032
:1024800007C048F108C049F109C04AF10AC04BF140
:10249000B70E0B6E6D0E0C6EDB0E0D6E3E0E0E6EDD
:1024A0008CC11BF08DC11CF08EC11DF08FC11EF0C0
:1024B00048C117F049C118F04AC119F04BC11AF0D0
:1024C00019EC22F017C007F018C008F019C009F085
:1024D0001AC00AF0B9EC1FF007C038F108C039F192
:1024E00009C03AF10AC03BF19A0E0B6E990E0C6EC0
:1024F000190E0D6E3F0E0E6E8CC11BF08DC11CF0BF
:102500008EC11DF08FC11EF038C117F039C118F00F
:102510003AC119F03BC11AF019EC22F017C007F0CC
:1025200018C008F019C009F01AC00AF0B9EC1FF081
:1025300007C000F108C001F109C002F10AC003F1AF
:102540008CC11BF08DC11CF08EC11DF08FC11EF01F
:102550008CC117F08DC118F08EC119F08FC11AF01F
:1025600019EC22F017C004F118C005F119C006F1EA
:102570001AC007F100C117F001C118F002C119F02B
:1025800003C11AF004C11BF005C11CF006C11DF007
:1025900007C11EF019EC22F017C04CF118C04DF124
:1025A00019C04EF11AC04FF130C11BF031C11CF0FF
:1025B00032C11DF033C11EF05CC10BF05DC10CF0E7
:1025C0005EC10DF05FC10EF06CC107F06DC108F087
:1025D0006EC109F06FC10AF0B9EC1FF007C017F027
:1025E00008C018F009C019F00AC01AF019EC22F05E
:1025F00017C058F118C059F119C05AF11AC05BF14F
:102600004CC107F04DC108F04EC109F04FC10AF0AE
:1026100058C10BF059C10CF05AC10DF05BC10EF05E
:10262000B9EC1FF007C04CF108C04DF109C04EF1E4
:102630000AC04FF16CC117F06DC118F06EC119F0EE
:102640006FC11AF06CC11BF06DC11CF06EC11DF0A2
:102650006FC11EF019EC22F017C08CF118C08DF17B
:1026600019C08EF11AC08FF1000E0B6E000E0C6EA9
:10267000400E0D6E400E0E6E8CC107F08DC108F03D
:102680008EC109F08FC10AF0B9EC1FF007C058F1F4
:1026900008C059F109C05AF10AC05BF158C107F0EE
:1026A00059C108F05AC109F05BC10AF04CC10BF0E6
:1026B0004DC10CF04EC10DF04FC10EF0B9EC1FF042
:1026C00007C068F108C069F109C06AF10AC06BF17E
:1026D00068C1B8F169C1B9F16AC1BAF16BC1BBF1A6
:1026E000B8C194F1B9C195F1BAC196F1BBC197F1E6
:1026F000000E01019415B86FF00E9515B96FFF0E1D
:102700009615BA6FFF0E9715BB6FB8C168F1B9C1C6
:1027100069F1BAC16AF1BBC16BF1000E0B6E000E1C
:102720000C6E400E0D6EC00E0E6E68C107F069C1D2
:1027300008F06AC109F06BC10AF0B9EC1FF007C0DC
:102740003CF108C03DF109C03EF10AC03FF18CC127
:1027500034F08DC135F08EC136F08FC137F03CC1F9
:1027600030F03DC131F03EC132F03FC133F02DECCD
:102770002CF030C040F131C041F132C042F133C0E1
:1027800043F14CC130F04DC131F04EC132F04FC178
:1027900033F040C134F041C135F042C136F043C19D
:1027A00037F02DEC2CF030C034F131C035F132C0AF
:1027B00036F133C037F16CC117F06DC118F06EC13E
:1027C00019F06FC11AF068C11BF069C11CF06AC131
:1027D0001DF06BC11EF019EC22F017C074F118C087
:1027E00075F119C076F11AC077F168C11BF069C1A3
:1027F0001CF06AC11DF06BC11EF030C117F031C171
:1028000018F032C119F033C11AF019EC22F017C0D8
:1028100007F018C008F019C009F01AC00AF05CC12E
:102820001BF05DC11CF05EC11DF05FC11EF034C124
:1028300017F035C118F036C119F037C11AF019EC8C
:1028400022F017C00BF018C00CF019C00DF01AC020
:102850000EF0B9EC1FF007C078F108C079F109C09B
:102860007AF10AC07BF174C107F075C108F076C136
:1028700009F077C10AF078C10BF079C10CF07AC188
:102880000DF07BC10EF0B9EC1FF007C09CF108C041
:102890009DF109C09EF10AC09FF19CC1B8F19DC194
:1028A000B9F19EC1BAF19FC1BBF1B8C194F1B9C1F0
:1028B00095F1BAC196F1BBC197F1000E01019415D3
:1028C000B86FF00E9515B96FFF0E9615BA6FFF0E23
:1028D0009715BB6FB8C19CF1B9C19DF1BAC19EF10A
:1028E000BBC19FF174C134F075C135F076C136F0CB
:1028F00077C137F09CC130F09DC131F09EC132F0FC
:102900009FC133F02DEC2CF030C098F131C099F11B
:1029100032C09AF133C09BF178C130F079C131F007
:102920007AC132F07BC133F098C134F099C135F0EF
:102930009AC136F09BC137F02DEC2CF030C064F119
:1029400031C065F132C066F133C067F19CC117F048
:102950009DC118F09EC119F09FC11AF0000E1B6EA8
:10296000400E1C6E760E1D6E3F0E1E6E19EC22F090
:1029700017C020F118C021F119C022F11AC023F1AB
:102980004F0E1B6E380E1C6E760E1D6E3F0E1E6EA9
:1029900064C117F065C118F066C119F067C11AF07B
:1029A00019EC22F017C00BF018C00CF019C00DF094
:1029B0001AC00EF0C60E1B6E230E1C6EF60E1D6E98
:1029C000B80E1E6E9CC117F09DC118F09EC119F083
:1029D0009FC11AF019EC22F017C007F018C008F0D8
:1029E00019C009F01AC00AF0B9EC1FF007C058F17D
:1029F00008C059F109C05AF10AC05BF158C107F08B
:102A000059C108F05AC109F05BC10AF0A0C190F0A9
:102A1000A1C191F00001D89090379137D8909037AC
:102A20009137010E9025F66E100E9121F76EF86A1F
:102A3000000EF8220900F5CF0BF00900F5CF0CF0DD
:102A40000900F5CF0DF00A00F5CF0EF0B9EC1FF03C
:102A500007C024F108C025F109C026F10AC027F1FA
:102A600080C107F081C108F082C109F083C10AF07A
:102A7000010E44EC28F007C0B0F108C0B1F109C064
:102A8000B2F10AC0B3F124C10BF025C10CF026C18C
:102A90000DF027C10EF020C107F021C108F022C1BE
:102AA00009F023C10AF0B9EC1FF007C058F108C0C3
:102AB00059F109C05AF10AC05BF1A0C190F0A1C15F
:102AC00091F00001D89090379137D8909037913796
:102AD000090E9025F66E100E9121F76EF86A000E21
:102AE000F8220900F5CF0BF00900F5CF0CF0090032
:102AF000F5CF0DF00A00F5CF0EF058C107F059C11F
:102B000008F05AC109F05BC10AF0B9EC1FF007C028
:102B100008F108C009F109C00AF10AC00BF108C1A7
:102B200007F009C108F00AC109F00BC10AF0B0C1F1
:102B30000BF0B1C10CF0B2C10DF0B3C10EF0B9ECA5
:102B40001FF007C084F108C085F109C086F10AC0F2
:102B500087F184C1B8F185C1B9F186C1BAF187C1E5
:102B6000BBF1B8C194F1B9C195F1BAC196F1BBC13D
:102B700097F1000E01019415B86FF00E9515B96F1D
:102B8000FF0E9615BA6FFF0E9715BB6FB8C184F193
:102B9000B9C185F1BAC186F1BBC187F1B0C134F0CA
:102BA000B1C135F0B2C136F0B3C137F084C130F0F5
:102BB00085C131F086C132F087C133F02DEC2CF0A5
:102BC00030C098F131C099F132C09AF133C09BF115
:102BD000A0C190F0A1C191F00001D8909037913739
:102BE000D89090379137090E9025F66E100E9121EE
:102BF000F76EF86A000EF8220900F5CF34F00900EC
:102C0000F5CF35F00900F5CF36F00A00F5CF37F0F3
:102C100098C130F099C131F09AC132F09BC133F0C4
:102C20002DEC2CF030C040F131C041F132C042F106
:102C300033C043F120C134F021C135F022C136F058
:102C400023C137F040C130F041C131F042C132F010
:102C500043C133F02DEC2CF030C00CF131C00DF13C
:102C600032C00EF133C00FF124C130F025C131F074
:102C700026C132F027C133F00CC134F00DC135F05C
:102C80000EC136F00FC137F02DEC2CF030C01CF126
:102C900031C01DF132C01EF133C01FF18CC0B8F13C
:102CA0008DC0B9F18EC0BAF18FC0BBF1B8C194F13B
:102CB000B9C195F1BAC196F1BBC197F1000E0101FE
:102CC0009415B86FF00E9515B96FFF0E9615BA6F83
:102CD000FF0E9715BB6FB8C128F1B9C129F1BAC170
:102CE0002AF1BBC12BF184C11BF085C11CF086C148
:102CF0001DF087C11EF028C134F029C135F02AC16A
:102D000036F02BC137F08CC030F08DC031F08EC062
:102D100032F08FC033F02DEC2CF030C017F031C002
:102D200018F032C019F033C01AF019EC22F017C0B5
:102D300010F118C011F119C012F11AC013F110C12D
:102D400007F011C108F012C109F013C10AF01CC14B
:102D50001BF01DC11CF01EC11DF01FC11EF08CC058
:102D600017F08DC018F08EC019F08FC01AF019EC52
:102D700022F017C00BF018C00CF019C00DF01AC0EB
:102D80000EF0B9EC1FF007C064F108C065F109C08E
:102D900066F10AC067F128C117F029C118F02AC1ED
:102DA00019F02BC11AF084C11BF085C11CF086C13B
:102DB0001DF087C11EF019EC22F017C09CF118C05D
:102DC0009DF119C09EF11AC09FF164C107F065C161
:102DD00008F066C109F067C10AF09CC10BF09DC103
:102DE0000CF09EC10DF09FC10EF0B9EC1FF007C0B2
:102DF000B4F108C0B5F109C0B6F10AC0B7F1B4C169
:102E0000B8F1B5C1B9F1B6C1BAF1B7C1BBF1B8C13A
:102E1000ACF1B9C1ADF1BAC1AEF1BBC1AFF10101C5
:102E2000AFBF1FEF17F0AC05000EAD59000EAE5945
:102E3000430EAF59D8A01FEF17F021EF17F057EF4F
:102E400017F0CA0E1B6EF20E1C6E490E1D6E710E2F
:102E50001E6E88C117F089C118F08AC119F08BC1A4
:102E60001AF019EC22F017C0A4F118C0A5F119C08E
:102E7000A6F11AC0A7F1A4C117F0A5C118F0A6C108
:102E800019F0A7C11AF0CA0E1B6EF20E1C6E490E85
:102E90001D6E710E1E6E19EC22F017C088F018C05E
:102EA00089F019C08AF01AC08BF058EF1DF0430E5C
:102EB000AF19AC11AD11AE11D8A461EF17F063EFEB
:102EC00017F0D6EF17F09CC134F09DC135F09EC1CC
:102ED00036F09FC137F0B4C130F0B5C131F0B6C1A2
:102EE00032F0B7C133F02DEC2CF030C038F031C0E7
:102EF00039F032C03AF033C03BF03C0E0B6EAA0EF4
:102F00000C6E380E0D6E330E0E6E64C107F065C187
:102F100008F066C109F067C10AF0B9EC1FF007C0FC
:102F20003CF008C03DF009C03EF00AC03FF058EC4C
:102F30002AF0D8B09EEF17F0A0EF17F0A0EF18F02E
:102F4000CA0E1B6EF20E1C6E490E1D6E710E1E6EA9
:102F500088C117F089C118F08AC119F08BC11AF025
:102F600019EC22F017C0A4F118C0A5F119C0A6F100
:102F70001AC0A7F1A4C117F0A5C118F0A6C119F095
:102F8000A7C11AF0CA0E1B6EF20E1C6E490E1D6E02
:102F9000710E1E6E19EC22F017C088F018C089F06F
:102FA00019C08AF01AC08BF058EF1DF0FF0EAC1557
:102FB0000001906FFF0E0101AD150001916FFF0E32
:102FC0000101AE150001926F7F0E0101AF150001E6
:102FD000936F93BFF8EF17F09005000E9159160EFE
:102FE0009259430E9359D8A0F8EF17F0FAEF17F063
:102FF00030EF18F0600E1B6E420E1C6EA20E1D6E9E
:103000000D0E1E6E88C117F089C118F08AC119F023
:103010008BC11AF019EC22F017C0A4F118C0A5F169
:1030200019C0A6F11AC0A7F1A4C117F0A5C118F0E4
:10303000A6C119F0A7C11AF0600E1B6E420E1C6EDD
:10304000A20E1D6E0D0E1E6E19EC22F017C088F038
:1030500018C089F019C08AF01AC08BF058EF1DF023
:10306000160E0101AE1909E1C30EAF19AC11AD1175
:10307000D8A43DEF18F03FEF18F0A0EF18F09CC176
:1030800034F09DC135F09EC136F09FC137F0B4C118
:1030900030F0B5C131F0B6C132F0B7C133F02DEC2C
:1030A0002CF030C038F031C039F032C03AF033C0C3
:1030B0003BF064C13CF065C13DF066C13EF067C1C4
:1030C0003FF058EC2AF0D8A068EF18F06AEF18F03B
:1030D000A0EF18F0600E1B6E420E1C6EA20E1D6E4D
:1030E0000D0E1E6E88C117F089C118F08AC119F043
:1030F0008BC11AF019EC22F017C0A4F118C0A5F189
:1031000019C0A6F11AC0A7F1A4C117F0A5C118F003
:10311000A6C119F0A7C11AF0600E1B6E420E1C6EFC
:10312000A20E1D6E0D0E1E6E19EC22F017C088F057
:1031300018C089F019C08AF01AC08BF058EF1DF042
:10314000FF0E0101AC152C6FFF0EAD152D6FFF0E9C
:10315000AE152E6F7F0EAF152F6F170E0001906FFB
:103160002CC191F02DC192F02EC193F02FC194F09B
:103170009067BDEF18F0C5EF18F094359433933392
:1031800092339133902FB8EF18F0810E0001912502
:103190000101A06FFF0E000192210101A16FFF0E3E
:1031A000000193210101A26FFF0E00019421010192
:1031B000A36F000E806F000E816F000E826F000EF5
:1031C000836F2FBFF0EF18F02C05000E2D59000E65
:1031D0002E593F0E2F59D8A0F0EF18F0F2EF18F04B
:1031E000F6EF19F0A0C190F0010E00019027000E3B
:1031F000916F000E926F800E936F000E946F906728
:1032000004EF19F00CEF19F09435943393339233A3
:103210009133902FFFEF18F00101AC51000191257F
:103220000101806FAD51000192210101816FAE510A
:10323000000193210101826FAF510001942101012E
:10324000836F810E0001906FFF0E916FFF0E926FE2
:10325000FF0E936F170E946F80C195F081C196F0A9
:1032600082C197F083C198F0946739EF19F041EF6C
:1032700019F098359833973396339533942F34EF6C
:1032800019F00001955190250101A06F000E000179
:1032900091210101A16F000E000192210101A26F95
:1032A000000E000193210101A36FA0C190F0FF0E59
:1032B0000001916FFF0E926F7F0E936F000E946F5F
:1032C000906765EF19F06DEF19F0943594339333EF
:1032D00092339133902F60EF19F00001911D956F9B
:1032E000921D966F931D976F941D986F01018051E9
:1032F000000195150101B86F81510001961501017A
:10330000B96F8251000197150101BA6F8351000115
:1033100098150101BB6FB8C1B0F1B9C1B1F1BAC123
:10332000B2F1BBC1B3F1A05117080001906FFF0EBD
:10333000010180150001916FFF0E0101811500014F
:10334000926F7F0E010182150001936F000E010143
:1033500083150001946F000E9111956F000E92116C
:10336000966F800E9311976F000E9411986F90676F
:10337000BCEF19F0C4EF19F09835983397339633B2
:103380009533902FB7EF19F095C080F196C081F179
:1033900097C082F198C083F10101AFBFD4EF19F05B
:1033A000D2EF19F0DCEF19F0831F821F811F806DAF
:1033B000000E8123822383239CC130F09DC131F014
:1033C0009EC132F09FC133F0B0C134F0B1C135F0CD
:1033D000B2C136F0B3C137F02DEC2CF030C09CF107
:1033E00031C09DF132C09EF133C09FF164C107F03E
:1033F00065C108F066C109F067C10AF09CC10BF015
:103400009DC10CF09EC10DF09FC10EF0B9EC1FF0F4
:1034100007C0B0F108C0B1F109C0B2F10AC0B3F100
:10342000B0C1B8F1B1C1B9F1B2C1BAF1B3C1BBF128
:10343000B8C194F1B9C195F1BAC196F1BBC197F188
:10344000000E01019415B86F800E9515B96FFF0E2F
:103450009615BA6FFF0E9715BB6FB8C1B0F1B9C121
:10346000B1F1BAC1B2F1BBC1B3F1B0C117F0B1C192
:1034700018F0B2C119F0B3C11AF0000E1B6E720E33
:103480001C6E310E1D6E3F0E1E6E19EC22F017C021
:1034900074F118C075F119C076F11AC077F19CC1AA
:1034A00034F09DC135F09EC136F09FC137F0B0C1F8
:1034B00030F0B1C131F0B2C132F0B3C133F02DEC14
:1034C0002CF030C098F131C099F132C09AF133C07C
:1034D0009BF1180E1B6E720E1C6E310E1D6E3F0E90
:1034E0001E6E98C134F099C135F09AC136F09BC177
:1034F00037F064C130F065C131F066C132F067C1A8
:1035000033F02DEC2CF030C017F031C018F032C081
:1035100019F033C01AF019EC22F017C014F118C0DA
:1035200015F119C016F11AC017F114C107F015C131
:1035300008F016C109F017C10AF08C0E1B6EBE0E02
:103540001C6EBF0E1D6E350E1E6EB0C117F0B1C1E0
:1035500018F0B2C119F0B3C11AF019EC22F017C07B
:103560000BF018C00CF019C00DF01AC00EF0B9EC39
:103570001FF007C078F108C079F109C07AF10AC0DC
:103580007BF174C107F075C108F076C109F077C10D
:103590000AF078C10BF079C10CF07AC10DF07BC153
:1035A0000EF0B9EC1FF007C0B4F108C0B5F109C0C6
:1035B000B6F10AC0B7F174C134F075C135F076C107
:1035C00036F077C137F0B4C130F0B5C131F0B6C1D3
:1035D00032F0B7C133F02DEC2CF030C098F131C08F
:1035E00099F132C09AF133C09BF178C130F079C1C2
:1035F00031F07AC132F07BC133F098C134F099C117
:1036000035F09AC136F09BC137F02DEC2CF030C06C
:1036100044F131C045F132C046F133C047F1B4C185
:1036200017F0B5C118F0B6C119F0B7C11AF0B4C19E
:103630001BF0B5C11CF0B6C11DF0B7C11EF019ECEE
:1036400022F017C0B0F118C0B1F119C0B2F11AC020
:10365000B3F10E0E0B6EEA0E0C6EDD0E0D6EB50E96
:103660000E6E4C0E1B6EBB0E1C6E310E1D6E330E9D
:103670001E6EB0C117F0B1C118F0B2C119F0B3C1DC
:103680001AF019EC22F017C007F018C008F019C0A2
:1036900009F01AC00AF0B9EC1FF007C0A4F108C085
:1036A000A5F109C0A6F10AC0A7F1550E0B6EB30E25
:1036B0000C6E8A0E0D6E380E0E6EB0C11BF0B1C1CD
:1036C0001CF0B2C11DF0B3C11EF0A4C117F0A5C11A
:1036D00018F0A6C119F0A7C11AF019EC22F017C012
:1036E00007F018C008F019C009F01AC00AF0B9ECC8
:1036F0001FF007C054F108C055F109C056F10AC0C7
:1037000057F1610E0B6E0B0E0C6E360E0D6EBB0E6E
:103710000E6EB0C11BF0B1C11CF0B2C11DF0B3C13F
:103720001EF054C117F055C118F056C119F057C119
:103730001AF019EC22F017C007F018C008F019C0F1
:1037400009F01AC00AF0B9EC1FF007C048F108C030
:1037500049F109C04AF10AC04BF1AB0E0B6EAA0E3B
:103760000C6E2A0E0D6E3E0E0E6EB0C11BF0B1C176
:103770001CF0B2C11DF0B3C11EF048C117F049C121
:1037800018F04AC119F04BC11AF019EC22F017C019
:1037900007F018C008F019C009F01AC00AF0B9EC17
:1037A0001FF007C038F108C039F109C03AF10AC06A
:1037B0003BF1B4C130F0B5C131F0B6C132F0B7C1A0
:1037C00033F0B0C11BF0B1C11CF0B2C11DF0B3C1E8
:1037D0001EF038C117F039C118F03AC119F03BC1D9
:1037E0001AF019EC22F017C034F018C035F019C0E7
:1037F00036F01AC037F02DEC2CF030C084F131C017
:1038000085F132C086F133C087F1000E0B6E000ED9
:103810000C6E000E0D6EC00E0E6E84C107F085C1D9
:1038200008F086C109F087C10AF0B9EC1FF007C0A3
:103830003CF008C03DF009C03EF00AC03FF084C132
:103840001BF085C11CF086C11DF087C11EF0B4C1FC
:1038500017F0B5C118F0B6C119F0B7C11AF019ECDC
:1038600022F017C038F018C039F019C03AF01AC069
:103870003BF02EEC24F038C03CF139C03DF13AC0A9
:103880003EF13BC03FF144C10BF045C10CF046C1D5
:103890000DF047C10EF044C11BF045C11CF046C1FC
:1038A0001DF047C11EF0B4C117F0B5C118F0B6C184
:1038B00019F0B7C11AF019EC22F017C007F018C0C0
:1038C00008F019C009F01AC00AF0B9EC1FF007C0DF
:1038D00018F108C019F109C01AF10AC01BF13CC166
:1038E00030F03DC131F03EC132F03FC133F018C17C
:1038F00034F019C135F01AC136F01BC137F02DEC88
:103900002CF030C04CF131C04DF132C04EF133C01B
:103910004FF1B4C134F0B5C135F0B6C136F0B7C11E
:1039200037F04CC130F04DC131F04EC132F04FC1D3
:1039300033F02DEC2CF030C098F131C099F132C049
:103940009AF133C09BF1000E306E000E316E800E86
:10395000326E3F0E336E98C134F099C135F09AC182
:1039600036F09BC137F02DEC2CF030C0B4F131C0F3
:10397000B5F132C0B6F133C0B7F1B4C1B8F1B5C1D9
:10398000B9F1B6C1BAF1B7C1BBF1B8C1ACF1B9C1B7
:10399000ADF1BAC1AEF1BBC1AFF180C190F081C150
:1039A00091F082C192F083C193F0170ED89000017C
:1039B0009037913792379337E82ED6EF1CF090511D
:1039C0000101AC27000191510101AD230001925189
:1039D0000101AE23000193510101AF23170E000135
:1039E000906FACC191F0ADC192F0AEC193F0AFC198
:1039F00094F09067FEEF1CF006EF1DF094359433C1
:103A0000933392339133902FF9EF1CF0000194BF60
:103A100016EF1DF094519311921106E19105D8B063
:103A200014EF1DF016EF1DF02EEF1DF0B4C130F0B5
:103A3000B5C131F0B6C132F0B7C133F080C134F056
:103A400081C135F02AEC27F030C0B4F131C0B5F1B6
:103A500032C0B6F133C0B7F13EEF1DF0ACC1B8F1E2
:103A6000ADC1B9F1AEC1BAF1AFC1BBF1B8C1B4F1EA
:103A7000B9C1B5F1BAC1B6F1BBC1B7F188C117F090
:103A800089C118F08AC119F08BC11AF0B4C11BF0BA
:103A9000B5C11CF0B6C11DF0B7C11EF019EC22F083
:103AA00017C088F018C089F019C08AF01AC08BF0CE
:103AB000120044C06CF045C06DF046C06EF047C0C7
:103AC0006FF06CC084F06DC085F06EC086F06FC082
:103AD00087F0000E00018415486E000E8515496EB2
:103AE000800E86154A6E7F0E87154B6E800E4A1823
:103AF00009E17F0E4B1848104910D8A482EF1DF041
:103B000084EF1DF0B2EF1DF044C01BF045C01CF067
:103B100046C01DF047C01EF044C017F045C018F065
:103B200046C019F047C01AF019EC22F017C007F090
:103B300018C008F019C009F01AC00AF044C00BF010
:103B400045C00CF046C00DF047C00EF0B9EC1FF0B8
:103B500007C044F008C045F009C046F00AC047F06D
:103B6000B8EF1FF087BFC1EF1DF087518611851197
:103B700006E18405D8B0BFEF1DF0C1EF1DF0FDEFE9
:103B80001DF0FF0E8415486EFF0E8515496EFF0E61
:103B900086154A6E7F0E87154B6E485049104A10A5
:103BA0004B10D8A4D6EF1DF0D8EF1DF0E2EF1DF0BA
:103BB00044C044F045C045F046C046F047C047F019
:103BC000B8EF1FF087BFE9EF1DF0E7EF1DF0FDEF45
:103BD0001DF0000EB06F210EAF6F7D0E076E100E40
:103BE000086E9EEC2CF007C044F008C045F009C0F8
:103BF00046F00AC047F0B8EF1FF0170E486E84C0B9
:103C000049F085C04AF086C04BF087C04CF048664A
:103C10000CEF1EF014EF1EF04C344C324B324A3293
:103C20004932482E07EF1EF049C07CF04AC07DF0B3
:103C30004BC07EF04CC07FF000017C517D117E11A5
:103C40007F11D8A426EF1EF028EF1EF058EF1EF0CB
:103C5000000E686F000E696F000E6A6F000E6B6FCA
:103C60003DEF1EF0D8908437853786378737010EB1
:103C70006827000E69236A236B2386AF42EF1EF08C
:103C800044EF1EF032EF1EF0FF0E6825486EFF0E67
:103C90006921496EFF0E6A214A6EFF0E6B214B6E41
:103CA00048507C5F49507D5B4A507E5B4B507F5B48
:103CB000810E7C27FF0E7D23FF0E7E23FF0E7F23C8
:103CC000FF0E8415486EFF0E8515496E7F0E861512
:103CD0004A6E000E87154B6E000E4810846F000E62
:103CE0004910856F800E4A10866F000E4B10876F4B
:103CF0007CA17DEF1EF07FEF1EF087EF1EF0845158
:103D000084278551852386518623875187237F35D4
:103D10007F337E337D337C338451842785518523E3
:103D20008651862387518723000E646F000E656FCE
:103D3000000E666F000E676F64C070F065C071F0B2
:103D400066C072F067C073F0000E806F000E816F66
:103D5000000E826F010E836FF6EF1EF08051642516
:103D6000746F81516521756F82516621766F835121
:103D70006721776F7451845D7551855976518659E5
:103D80008751800A486E7751800A4858D8A0CBEFF7
:103D90001EF0CDEF1EF0E9EF1EF080517425646F28
:103DA00081517521656F82517621666F835177212C
:103DB000676F7451845F7551855B7651865B77516F
:103DC000875B805170278151712382517223835107
:103DD00073238451842785518523865186238751F7
:103DE0008723D8908333823381338033805181118C
:103DF00082118311D8A4FFEF1EF001EF1FF0AEEF88
:103E00001EF08451851186118711D8B40AEF1FF076
:103E10000CEF1FF06DEF1FF0000E786F000E796F42
:103E2000800E7A6F3F0E7B6F78C038F079C039F022
:103E30007AC03AF07BC03BF0000E3C6E000E3D6E47
:103E4000800E3E6E3F0E3F6E58EC2AF0D8A02BEF4E
:103E50001FF02DEF1FF06DEF1FF0000E0001786FC7
:103E6000000E796F800E7A6F3F0E7B6F000E386EFA
:103E7000000E396E800E3A6E3F0E3B6E78C03CF0FD
:103E800079C03DF07AC03EF07BC03FF058EC2AF09C
:103E9000D8B04DEF1FF04FEF1FF058EF1FF0020E9C
:103EA00000017027000E7123722373236DEF1FF042
:103EB000010E00017015486E000E7115496E000E5E
:103EC00072154A6E000E73154B6E4850702749509C
:103ED00071234A5072234B50732370C048F071C055
:103EE00049F072C04AF073C04BF04B344B324A3247
:103EF00049324832000E48240001846F000E4920E8
:103F0000856F000E4A20866F3F0E4B20876F7CC066
:103F100048F07DC049F07EC04AF07FC04BF0170EDC
:103F2000D890483649364A364B36E82E90EF1FF087
:103F300048508427495085234A5086234B50872375
:103F400084C06CF085C06DF086C06EF087C06FF0E5
:103F50006CC078F06DC079F06EC07AF06FC07BF005
:103F600078C044F079C045F07AC046F07BC047F095
:103F700012000A50800B136E0A500A24156E09AE07
:103F8000C4EF1FF0C6EF1FF0C7EF1FF015801550EC
:103F9000D8B4CDEF1FF0CFEF1FF0E4EF1FF01528DE
:103FA000D8A4D5EF1FF0D7EF1FF0DFEF1FF0000E02
:103FB000076E000E086E000E096E000E0A6E098E66
:103FC000000E0A6EECEF1FF0000E076E000E086E7A
:103FD000000E096E000E0A6E0E50800B146E135008
:103FE0001418D8B4F6EF1FF0F8EF1FF0F9EF1FF038
:103FF000138C0E500E24146E0DAE01EF20F003EF63
:1040000020F004EF20F014801450D8B40AEF20F010
:104010000CEF20F021EF20F01428D8A412EF20F0AC
:1040200014EF20F01CEF20F0000E0B6E000E0C6E53
:10403000000E0D6E000E0E6E0D8E000E0E6E29EF30
:1040400020F0000E0B6E000E0C6E000E0D6E000EBA
:104050000E6E1550145CD8B030EF20F032EF20F027
:1040600059EF20F013AC37EF20F039EF20F03BEFA1
:1040700020F0800E131A15C016F014C015F016C0EB
:1040800014F007C016F00BC007F016C00BF008C004
:1040900016F00CC008F016C00CF009C016F00DC0E8
:1040A00009F016C00DF00AC016F00EC00AF016C0D6
:1040B0000EF0000E166E155014C00FF0106A0F5E51
:1040C000000E105A10BE6EEF20F0105009E11A0ECB
:1040D0000F5CD8A06EEF20F070EF20F0A7EF20F07B
:1040E0000750081009100A10D8A479EF20F07CEFCF
:1040F00020F0010E7DEF20F0000E166E000E076E10
:10410000000E086E000E096E000E0A6E14C015F047
:10411000B0EF20F016A08FEF20F091EF20F097EF96
:1041200020F0D89016300109166E99EF20F0D89043
:10413000163207A09EEF20F0A0EF20F0A1EF20F0B4
:10414000168E0A340A32093208320732152A145000
:10415000155CD8A0AEEF20F0B0EF20F08AEF20F091
:1041600013BCB5EF20F0B7EF20F0F7EF20F01550BB
:10417000D8A4BDEF20F0BFEF20F0C9EF20F0000E73
:10418000076E000E086E000E096E000E0A6E18EF24
:1041900022F00B5007260C5008220D5009220E5019
:1041A0000A220AA0D6EF20F0D8EF20F084EF21F009
:1041B00016A0DDEF20F0DFEF20F0E5EF20F0D89043
:1041C00016300109166EE7EF20F0D890163207A0DE
:1041D000ECEF20F0EEEF20F0EFEF20F0168E0A3437
:1041E0000A32093208320732152A84EF21F00B50C7
:1041F000075C0C5008580D5009580A50800A0F6E81
:104200000E50800A0F58D8B008EF21F00AEF21F0C5
:1042100035EF21F007500B5C0F6E08500C58106EF4
:1042200009500D58116E0A500E58126EFF0E0F24D1
:10423000076EFF0E1020086EFF0E1120096EFF0E94
:1042400012200A6E800E131A166C1650D8A42BEF8B
:1042500021F02DEF21F03DEF21F0010E0726000E99
:10426000082209220A223DEF21F00B50075E0C5074
:10427000085A0D50095A0E500A5A075008100910D2
:104280000A10D8A446EF21F048EF21F07DEF21F08D
:104290001650D8A44EEF21F050EF21F07DEF21F021
:1042A000000E076E000E086E000E096E000E0A6EFC
:1042B00018EF22F0D8900736083609360A3616AEBF
:1042C00064EF21F066EF21F067EF21F0078016A080
:1042D0006CEF21F06EEF21F072EF21F0D8801636EE
:1042E00074EF21F0D89016361550D8B47AEF21F03B
:1042F0007CEF21F07DEF21F0150609AE82EF21F071
:1043000084EF21F05AEF21F0000E146E16AE8BEF01
:1043100021F08DEF21F0A5EF21F016C00FF07F0EF8
:104320000F16D8B496EF21F098EF21F09CEF21F012
:10433000010E146EA5EF21F007A0A1EF21F0A3EF6D
:1043400021F0A5EF21F098EF21F01450D8B4ABEF95
:1043500021F0ADEF21F0D8EF21F0010E0726000E7D
:10436000082209220A220AA0B8EF21F0BAEF21F0B0
:10437000D8EF21F007C00FF008C010F009C011F00D
:104380000AC012F012341232113210320F320FC042
:1043900007F010C008F011C009F012C00AF015288B
:1043A000D8B4D5EF21F0D7EF21F0D8EF21F0152ABE
:1043B0001528D8B4DEEF21F0E0EF21F0E8EF21F08E
:1043C0001550D8A4E6EF21F0E8EF21F0FAEF21F044
:1043D000000E076E000E086E000E096E000E0A6ECB
:1043E0001550D8A4F6EF21F0F8EF21F0FAEF21F004
:1043F000000E136E15A0FFEF21F001EF22F004EF85
:1044000022F0098E05EF22F0099ED89015300A6E31
:1044100013AE0DEF22F00FEF22F010EF22F00A8E14
:1044200007C007F008C008F009C009F00AC00AF088
:1044300012001A50800B236E1A501A24296E19AEDE
:1044400024EF22F026EF22F027EF22F029802950D6
:10445000D8B42DEF22F02FEF22F042EF22F02928DE
:10446000D8A435EF22F037EF22F03FEF22F0000E14
:10447000176E000E186E000E196E000E1A6E198E51
:104480004AEF22F0000E176E000E186E000E196E25
:10449000000E1A6E1E50800B231A1E501E24286E0A
:1044A0001DAE55EF22F057EF22F058EF22F0288092
:1044B0002850D8B45EEF22F060EF22F073EF22F0C4
:1044C0002828D8A466EF22F068EF22F070EF22F0DF
:1044D000000E1B6E000E1C6E000E1D6E000E1E6E7A
:1044E0001D8E7BEF22F0000E1B6E000E1C6E000E68
:1044F0001D6E000E1E6E2850D8B481EF22F083EF9F
:1045000022F08BEF22F02950D8A489EF22F08BEF14
:1045100022F095EF22F0000E176E000E186E000EBE
:10452000196E000E1A6E2DEF24F01D501702F3CFF6
:104530002EF0F4CF2FF02E50246E256A266A276ABB
:104540002F502A6E2B6A2C6A2D6A1C501802F3CF4A
:104550002EF0F4CF2FF02E502426000E25222622F6
:1045600027222F502A26000E2B222C222D221B50D0
:104570001902F3CF2EF0F4CF2FF02E502426000E88
:104580002522262227222F502A26000E2B222C22DB
:104590002D2226C027F025C026F024C025F0246A4D
:1045A0001B501802F3CF2EF0F4CF2FF02E502426FC
:1045B0002F502522000E2622000E27221C50170203
:1045C000F3CF2EF0F4CF2FF02E5024262F5025229B
:1045D000000E2622000E272226C027F025C026F036
:1045E00024C025F0246A1B501702F3CF2EF0F4CF1D
:1045F0002FF02E5024262F502522000E2622000EAA
:1046000027221D501802F3CF2EF0F4CF2FF02E509A
:104610002A262F502B22000E2C22000E2D221C5059
:104620001902F3CF2EF0F4CF2FF02E502A262F5060
:104630002B22000E2C22000E2D221D501902F3CF2A
:104640002EF0F4CF2FF02E501F6E2F50206E216AC7
:10465000226A21C022F020C021F01FC020F01F6A72
:104660001F502A2620502B2221502C2222502D224E
:1046700024C01FF025C020F026C021F027C022F062
:10468000190E48EF23F0D8902232213220321F3207
:10469000E82E43EF23F01F502A2620502B222150D2
:1046A0002C2222502D2226C027F025C026F024C01F
:1046B00025F0246A285029C01FF0206A1F26000E0A
:1046C0002022820E1F242E6EFF0E20202F6E7EEFE2
:1046D00023F0D8902A362B362C362D3627AE73EFA2
:1046E00023F075EF23F076EF23F02A80D89024365C
:1046F0002536263627362E06D8A02F062CAE83EF79
:1047000023F085EF23F069EF23F0000E286E27AE2B
:104710008CEF23F08EEF23F0B2EF23F0FF0E241482
:104720001F6EFF0E2514206EFF0E2614216E7F0EC5
:104730002714226E1F50201021102210D8B4A3EF8E
:1047400023F0A5EF23F0A9EF23F0010E286EB2EFBE
:1047500023F02AA0AEEF23F0B0EF23F0B2EF23F066
:10476000A5EF23F02850D8B4B8EF23F0BAEF23F028
:10477000DEEF23F0010E2A26000E2B222C222D2202
:104780002DA0C5EF23F0C7EF23F0DEEF23F02AC002
:104790001FF02BC020F02CC021F02DC022F02234BD
:1047A0002232213220321F321FC02AF020C02BF0CB
:1047B00021C02CF022C02DF02E4A2F2A2FBEE9EF67
:1047C00023F02F5008E12E28D8A0E9EF23F0EBEFDB
:1047D00023F0F5EF23F0000E2A6E000E2B6E800EF4
:1047E0002C6E7F0E2D6E23EF24F02FBE02EF24F0EF
:1047F0002F5006E12E04D8B000EF24F002EF24F091
:104800000EEF24F0000E2A6E000E2B6E000E2C6EA2
:10481000000E2D6E000E236E23EF24F02EC029F023
:10482000FF0E2A16FF0E2B167F0E2C16000E2D16CD
:1048300029A01DEF24F01FEF24F020EF24F02C8E90
:10484000D89029302D6E23502D122AC017F02BC07E
:1048500018F02CC019F02DC01AF012003B50800B3C
:10486000486E3B503B244F6E3AAE39EF24F03BEF9D
:1048700024F03CEF24F04F804F50D8B442EF24F0A6
:1048800044EF24F059EF24F04F28D8A44AEF24F045
:104890004CEF24F054EF24F0000E386E000E396E09
:1048A000000E3A6E000E3B6E3A8E000E3B6E61EFCC
:1048B00024F0000E386E000E396E000E3A6E000EB7
:1048C0003B6E3F50800B481A3F503F24506E3EAE27
:1048D0006CEF24F06EEF24F06FEF24F05080505016
:1048E000D8B475EF24F077EF24F08CEF24F0502843
:1048F000D8A47DEF24F07FEF24F087EF24F0000EA2
:104900003C6E000E3D6E000E3E6E000E3F6E3E8E03
:10491000000E3F6E94EF24F0000E3C6E000E3D6ED4
:10492000000E3E6E000E3F6E3C503D103E103F109C
:10493000D8A49DEF24F09FEF24F0B7EF24F0000EF1
:10494000386E000E396E000E3A6E000E3B6E800E11
:104950003A127F0E3B1248503B1238C038F039C033
:1049600039F03AC03AF03BC03BF0FAEF25F04F5037
:10497000D8A4BDEF24F0BFEF24F0C9EF24F0000E5F
:10498000386E000E396E000E3A6E000E3B6EFAEF76
:1049900025F050504FC040F0416A405E000E415A31
:1049A0007F0E4024496E000E41204A6E38C044F00C
:1049B00039C045F03AC046F03BC047F0000E386EB3
:1049C000000E396E000E3A6E000E3B6E000E4B6EFE
:1049D000000E4C6E000E4D6E000E4E6E000E506EB0
:1049E0002AEF25F05050D8B4F8EF24F0FAEF24F075
:1049F00011EF25F0D8904436453646364736D890E4
:104A0000383639363A363B364EAE09EF25F00BEFE5
:104A100025F00CEF25F03880D8904B364C364D36CB
:104A20004E363C50445C3D5045583E5046583F50F1
:104A30004758D8A01EEF25F020EF25F029EF25F0EC
:104A40004E8C3C50445E3D50455A3E50465A3F5075
:104A5000475A502A190E506430EF25F032EF25F0F6
:104A6000F2EF24F04450451046104710D8B43BEF05
:104A700025F03DEF25F055EF25F04B8055EF25F063
:104A8000D890383639363A363B364EAE4AEF25F0B6
:104A90004CEF25F04DEF25F03880D8904B364C3652
:104AA0004D364E364906D8A04A063AAE5AEF25F0A2
:104AB0005CEF25F040EF25F0000E506E4EAE63EF38
:104AC00025F065EF25F089EF25F0FF0E4B14406EC1
:104AD000FF0E4C14416EFF0E4D14426E7F0E4E14AD
:104AE000436E4050411042104310D8B47AEF25F085
:104AF0007CEF25F080EF25F0010E506E89EF25F058
:104B000038A085EF25F087EF25F089EF25F07CEFC1
:104B100025F05050D8B48FEF25F091EF25F0B5EF88
:104B200025F0010E3826000E39223A223B223BA006
:104B30009CEF25F09EEF25F0B5EF25F038C040F052
:104B400039C041F03AC042F03BC043F043344332F5
:104B500042324132403240C038F041C039F042C0A8
:104B60003AF043C03BF0494A4A2A4ABEC0EF25F01A
:104B70004A5008E14928D8A0C0EF25F0C2EF25F03F
:104B8000CDEF25F0000E4A6E4968000E386E000E1B
:104B9000396E000E3A6E000E3B6E4ABEDAEF25F01B
:104BA0004A5006E14904D8B0D8EF25F0DAEF25F0F5
:104BB000E8EF25F0000E4A6E000E496E000E386ECA
:104BC000000E396E000E3A6E000E3B6E000E486EFF
:104BD00049C04FF04FA0EFEF25F0F1EF25F0F4EFD3
:104BE00025F03A8EF5EF25F03A9ED8904F303B6E87
:104BF000ABEF24F01200C1C08CFFFFEF26F0555040
:104C00005610D8B406EF26F008EF26F00DEF26F088
:104C1000C12B010EC26F29EF27F053505410D8B4A6
:104C200014EF26F016EF26F029EF27F0C107040E47
:104C3000C26F29EF27F0565009E1650E555CD8A0E8
:104C400024EF26F026EF26F02AEF26F0020EC26FA0
:104C500029EF27F055505610D8A431EF26F033EF46
:104C600026F029EF27F053505410D8B43AEF26F02D
:104C70003CEF26F03EEF26F017EF26F0000EC26F55
:104C800029EF27F0BE51D8B448EF26F04AEF26F0BE
:104C90004DEF26F0C12B000EBE6FF50E555C010ED8
:104CA0005658D8A056EF26F058EF26F05CEF26F0C5
:104CB000030EC26F29EF27F055505610D8A463EFAA
:104CC00026F065EF26F029EF27F053505410D8B4A2
:104CD0006CEF26F06EEF26F03EEF26F017EF26F091
:104CE000BD51D8B476EF26F078EF26F07BEF26F0B2
:104CF000C12B000EBD6F55505610D8A482EF26F080
:104D000084EF26F029EF27F053505410D8B48BEFDE
:104D100026F08DEF26F03EEF26F017EF26F05450E8
:104D200009E1650E535CD8A098EF26F09AEF26F0C3
:104D30009EEF26F0050EC26F29EF27F05350541056
:104D4000D8A4A5EF26F0A7EF26F029EF27F05550BD
:104D50005610D8B4AEEF26F0B0EF26F03EEF26F0B6
:104D600009EF26F0BC51D8B4B8EF26F0BAEF26F020
:104D7000BDEF26F0C107000EBC6FF50E535C010EAF
:104D80005458D8A0C6EF26F0C8EF26F0CCEF26F096
:104D9000060EC26F29EF27F053505410D8A4D3EF5A
:104DA00026F0D5EF26F029EF27F055505610D8B44D
:104DB000DCEF26F0DEEF26F03EEF26F009EF26F0DE
:104DC000BB51D8B4E6EF26F0E8EF26F0EBEF26F083
:104DD000C107000EBB6F53505410D8A4F2EF26F059
:104DE000F4EF26F029EF27F055505610D8B4FBEF1A
:104DF00026F0FDEF26F03EEF26F009EF26F0000149
:104E0000C251076E086A0850000AD8B40AEF27F0AA
:104E100029EF27F00750000AD8B4FFEF25F0010A68
:104E2000D8B41BEF26F0030AD8B442EF26F0010AEB
:104E3000D8B470EF26F0070AD8B48FEF26F0010A35
:104E4000D8B4B2EF26F0030AD8B4E0EF26F029EF89
:104E500027F0120030C03EF031C03FF032C040F0C9
:104E600033C041F035BE3EEF27F0355009E1800EEA
:104E7000345CD8A03EEF27F040EF27F09EEF27F0FC
:104E80003EC017F03FC018F040C019F041C01AF002
:104E9000000E1B6E000E1C6E000E1D6E7F0E1E6E31
:104EA00019EC22F017C03EF018C03FF019C040F0D6
:104EB0001AC041F0810E3426FF0E352235BE6AEF4E
:104EC00027F0355009E1800E345CD8A06AEF27F056
:104ED0006CEF27F008EF28F03EC017F03FC018F045
:104EE00040C019F041C01AF0000E1B6E000E1C6E7F
:104EF000000E1D6E7F0E1E6E19EC22F017C03EF0E4
:104F000018C03FF019C040F01AC041F0810E34269D
:104F1000FF0E352235BE96EF27F0355009E1800EA1
:104F2000345CD8A096EF27F098EF27F008EF28F030
:104F3000000E356E7F0E346E08EF28F035AEAAEF06
:104F400027F0820E345CFF0E3558D8B0AAEF27F058
:104F5000ACEF27F008EF28F03EC017F03FC018F084
:104F600040C019F041C01AF0000E1B6E000E1C6EFE
:104F7000800E1D6E0C0E1E6E19EC22F017C03EF056
:104F800018C03FF019C040F01AC041F0660E342638
:104F9000000E352235AED6EF27F0820E345CFF0EC0
:104FA0003558D8B0D6EF27F0D8EF27F008EF28F023
:104FB0003EC017F03FC018F040C019F041C01AF0D1
:104FC000000E1B6E000E1C6E800E1D6E0C0E1E6EF3
:104FD00019EC22F017C03EF018C03FF019C040F0A5
:104FE0001AC041F0660E3426000E352235AE02EFAF
:104FF00028F0820E345CFF0E3558D8B002EF28F04E
:1050000004EF28F008EF28F0FF0E356E820E346EA4
:105010007F0E3424366E000E3520376E386A396ABA
:10502000170ED8903636373638363936E82E11EF27
:1050300028F036C03AF037C03BF038C03CF039C0F9
:105040003DF03AC017F03BC018F03CC019F03DC02D
:105050001AF03EC01BF03FC01CF040C01DF041C024
:105060001EF019EC22F017C030F018C031F019C052
:1050700032F01AC033F030C030F031C031F032C0FD
:1050800032F033C033F012000F6E0F50D8B44BEF34
:1050900028F04DEF28F06FEF28F00ABE54EF28F00B
:1050A00052EF28F06FEF28F007C00BF008C00CF0AB
:1050B00009C00DF00AC00EF00B1E0C1E0D1E0E1EB8
:1050C0000B2A000E0C220D220E220BC011F00CC078
:1050D00012F00DC013F00EC014F077EF28F007C0E7
:1050E00011F008C012F009C013F00AC014F0075004
:1050F000081009100A10D8A480EF28F082EF28F0D9
:105100008CEF28F0000E076E000E086E000E096E80
:10511000000E0A6E1DEF29F0960E106E96EF28F025
:10512000102AD8901432133212321132000E111498
:105130000B6E000E12140C6E000E13140D6EFE0E8C
:1051400014140E6E0B500C100D100E10D8A4ABEFF3
:1051500028F0ADEF28F090EF28F0BBEF28F0102AF0
:10516000010E1126000E122213221422D89014329E
:10517000133212321132000E11140B6E000E121483
:105180000C6E000E13140D6EFF0E14140E6E0B50E9
:105190000C100D100E10D8A4D0EF28F0D2EF28F08C
:1051A000AFEF28F0DAEF28F01006D890113612365B
:1051B0001336143613BEDFEF28F0E1EF28F0E9EFE5
:1051C00028F0020E1060E7EF28F0E9EF28F0D4EFA6
:1051D00028F010B0EEEF28F0F0EF28F0F1EF28F013
:1051E000139ED890103210C00BF00C6A0D6A0E6A34
:1051F0000BC00EF00D6A0C6A0B6A0B5011120C50AA
:1052000012120D5013120E5014120F50D8B40BEF8F
:1052100029F00DEF29F015EF29F00ABE14EF29F05F
:1052200012EF29F015EF29F0148E11C007F012C00B
:1052300008F013C009F014C00AF01200DDEC2BF0E6
:1052400001C003F002C004F0B4EC2BF001C005F083
:1052500002C006F0020E03180410D8A432EF29F0A1
:1052600034EF29F069EF29F0000E546E000E536EF2
:10527000000E0001B46F000EB36F000EB26F000E8F
:10528000B16F554A562AB74BB82BB54BB62B0A0E01
:10529000B519B611D8A44FEF29F051EF29F057EF07
:1052A00029F0000EB66F000EB56F010EBD6F320E05
:1052B000B719B811D8A45FEF29F061EF29F0D3EF47
:1052C00029F0000EB86F000EB76F010EBE6FD3EF5E
:1052D00029F0020E05180610D8A471EF29F073EF1B
:1052E00029F0A8EF29F0000E566E000E556E000E44
:1052F0000001B86F000EB76F000EB66F000EB56FED
:10530000534A542AB34BB42BB14BB22B0A0EB119EA
:10531000B211D8A48EEF29F090EF29F096EF29F082
:10532000000EB26F000EB16F010EBB6F320EB319DB
:10533000B411D8A49EEF29F0A0EF29F0D3EF29F003
:10534000000EB46F000EB36F010EBC6FD3EF29F0E7
:1053500005040610D8B4AFEF29F0B1EF29F0BAEF89
:1053600029F003040410D8A4B8EF29F0BAEF29F00B
:10537000D3EF29F0000E566E000E556E000E0001A0
:10538000B86F000EB76F000EB66F000EB56F000E4F
:10539000546E000E536E000EB46F000EB36F000E0D
:1053A000B26F000EB16F120000019B359C35526E3A
:1053B0005250D8A4DEEF29F0E0EF29F0EAEF29F00F
:1053C000000E996F000E9A6F000E9B6F000E9C6F7F
:1053D00057EF2AF099C09DF09AC09EF09BC09FF0B5
:1053E0009CC0A0F0200EFAEF29F0D890A0339F3394
:1053F0009E339D33E82EF5EF29F09D51516E9B8F22
:10540000FF0E9917FF0E9A17FF0E9B17000E9C17A1
:10541000960E525E52BE11EF2AF00FEF2AF027EFE0
:105420002AF05250800A970FD8B019EF2AF01BEFDC
:105430002AF01DEF2AF0E0EF29F0D8909C339B333F
:105440009A339933523E1DEF2AF03FEF2AF01F0E98
:1054500052642DEF2AF02FEF2AF037EF2AF0E0EF19
:1054600029F0D89099379A379B379C37520652507B
:10547000D8A43DEF2AF03FEF2AF031EF2AF0515047
:10548000D8B445EF2AF047EF2AF04FEF2AF09C1FDF
:105490009B1F9A1F996D000E9A239B239C2399C0F2
:1054A00099F09AC09AF09BC09BF09CC09CF01200AF
:1054B000000E3814406E000E3914416E800E3A14FE
:1054C000426E7F0E3B14436E405041104210431019
:1054D000D8A46DEF2AF06FEF2AF077EF2AF0000ED4
:1054E000386E000E396E000E3A6E000E3B6E000EE6
:1054F0003C14406E000E3D14416E800E3E14426E10
:105500007F0E3F14436E4050411042104310D8A408
:105510008CEF2AF08EEF2AF096EF2AF0000E3C6E08
:10552000000E3D6E000E3E6E000E3F6E3BAE9BEFDA
:105530002AF09DEF2AF0A6EF2AF0386C391ED8B079
:10554000392A3A1ED8B03A2A800E3B563FAEABEF0E
:105550002AF0ADEF2AF0B6EF2AF03C6C3D1ED8B031
:105560003D2A3E1ED8B03E2A800E3F56000E381A05
:10557000000E391A000E3A1A800E3B1A000E3C1A21
:10558000000E3D1A000E3E1A800E3F1A3C50385C49
:105590003D5039583E503A583F503B58D8B0D3EF61
:1055A0002AF0D5EF2AF0D8EF2AF0D890D9EF2AF0D8
:1055B000D8801200C70ED56E000E00018C6F000E51
:1055C0008D6F400E8E6F400E8F6F000E886F000E35
:1055D000896F200E8A6F410E8B6F40EC08F088C0F7
:1055E000A1F089C0A2F08AC0A3F08BC0A4F0000E85
:1055F0001B6E000E1C6EA00E1D6E410E1E6EA1C015
:1056000017F0A2C018F0A3C019F0A4C01AF019EC4A
:1056100022F017C099F018C09AF019C09BF01AC078
:105620009CF0D4EC29F099C0A5F09AC0A6F0A5C0D2
:1056300007F0A6C008F0010E0A6E000E096E52ECCB
:105640002BF007C0A9F008C0AAF00001AABF31EFF3
:105650002BF0AA05D8B02FEF2BF031EF2BF036EF5F
:105660002BF0A951FF0ABA6F51EF2BF0D59CA9512D
:10567000FF08A76FAA51D8A0E82AFF08A86FA7C003
:10568000BAF0BA51A75D076EA851D8A0A805086E58
:10569000010E0A6E000E096E52EC2BF0075000014D
:1056A000B96F1200000E0C6E0ABE5BEF2BF059EFC3
:1056B0002BF061EF2BF0096C0A1ED8B00A2A010EFC
:1056C0000C6E08BE68EF2BF066EF2BF06EEF2BF040
:1056D000076C081ED8B0082A010E0C1A000E0E6EB8
:1056E000000E0D6E09500A10D8B479EF2BF07BEF45
:1056F0002BF0A3EF2BF0010E0B6E83EF2BF0D89065
:1057000009360A360B2A0AAE88EF2BF08AEF2BF007
:105710007FEF2BF0D8900D360E360950075C0A50FB
:105720000858D8A096EF2BF098EF2BF09DEF2BF0B8
:105730000950075E0A50085A0D80D8900A32093283
:105740000B2E8AEF2BF00C50D8B4A9EF2BF0ABEF57
:105750002BF0AFEF2BF00D6C0E1ED8B00E2A0DC043
:1057600007F00EC008F0120057C0C3F0000E81B061
:10577000010E576E0001C3515718D8A4C2EF2BF089
:10578000C4EF2BF0D8EF2BF05750D8B4CAEF2BF062
:10579000CCEF2BF0D2EF2BF0000E026E010E016E5B
:1057A000DCEF2BF0000E026E020E016EDCEF2BF030
:1057B000000E026E000E016E120058C0C4F0000E02
:1057C00080BA010E586E0001C4515818D8A4EBEFEE
:1057D0002BF0EDEF2BF001EF2CF05850D8B4F3EF95
:1057E0002BF0F5EF2BF0FBEF2BF0000E026E010E0D
:1057F000016E05EF2CF0000E026E020E016E05EF39
:105800002CF0000E026E000E016E1200A80EF66E55
:10581000590EF76E000EF86E0900F5CFC3F00900BF
:10582000F5CFC4F0A60EF66E590EF76E000EF86EA8
:105830000900F5CF57F00900F5CF58F000EEABF0B6
:10584000180EEE6AE806FDE1566A556A546A536A14
:10585000599059920001AFEF2CF0000E341A000E4F
:10586000351A000E361A800E371A30C007F031C0D4
:1058700008F032C009F033C00AF034C00BF035C074
:105880000CF036C00DF037C00EF0B9EC1FF007C0B9
:1058900030F008C031F009C032F00AC033F0120015
:1058A0000750081009100A10D8B459EF2CF05BEF1C
:1058B0002CF063EF2CF0000E071A000E081A000EF1
:1058C000091A800E0A1A07C007F008C008F009C0BC
:1058D00009F00AC00AF01200ABC00BF0ACC00CF02B
:1058E000ADC00DF0AEC00EF007C00BF008C00CF05C
:1058F00009C00DF00AC00EF00E9E0BC007F00CC0E0
:1059000008F00DC009F00EC00AF012000600F2AA5D
:105910008CEF2CF08EEF2CF09CEF2CF0F2A493EF98
:105920002CF095EF2CF09CEF2CF0F294BAC0D6FF3F
:10593000B9C0D7FF1EEC29F059921100FF0E0B6E73
:10594000FF0E0C6EFF0E0D6E7F0E0E6E0BC007F07D
:105950000CC008F00DC009F00EC00AF01200BDEC3A
:105960002CF0C6EC2CF0D0EC2CF0CDEC2CF0FBECB9
:1059700025F0B7EF2CF007EF00F0000E956E000E4B
:105980008C6E928A93800F0EC16E1200DAEC2AF0B0
:10599000BAC0D6FFB9C0D7FF1200700ED36E120086
:0A59A000F28AF28E120001010101EB
:020000040020DA
:08000000FFFFFFFFFFFFFFFF00
:020000040030CA
:0E000000FF09191EF38381FFFFC0FFE0FF40E0
:00000001FF
