:020000040000FA
:0400000007EF00F016
:0A0008003C8243ED08F0AAEF19F066
:101000000049443A20313731303336342020202013
:1010100020004C544420636F6E74726F6C6C657268
:101020002020004552524F52202D205455524E2020
:101030004F46460020202020202020202020202055
:101040002020005365742073756363657373667540
:101050006C00486561742050756D70005365742094
:1010600074696D650046696E6973680048656174EE
:1010700065720049444C450046333A0045520048E9
:101080003A00543A00000600E1CF1FF0E2CF20F012
:10109000D9CF21F0DACF22F0F3CF23F0F4CF24F030
:1010A000F2AA55EF08F057EF08F07AEF08F0F2A433
:1010B0005CEF08F05EEF08F07AEF08F0F294640E4F
:1010C000D66E010E00018427000E85238623872318
:1010D000384A392AE80E381807E1030E3918D8A41F
:1010E00074EF08F076EF08F07AEF08F0000E396E32
:1010F000000E386E9DA07FEF08F081EF08F0E5EF5D
:101100000AF09EA086EF08F088EF08F0E5EF0AF0FD
:101110009E90B10ECF6EE00ECE6E690E000190195A
:10112000D8A495EF08F097EF08F0C3EF0AF0E5EFC9
:101130000AF090C032F0336A32C001F033C002F0DE
:10114000000E046E0F0E036EB9EC1BF06C0E012442
:10115000D96E010E0220DA6EDECF25F0DECF26F04A
:10116000DDCF27F032C001F033C002F0000E046E74
:101170000F0E036EB9EC1BF0710E0124D96E010E37
:101180000220DA6EDECF28F0DDCF29F025C00AF08C
:1011900026C00BF027C00CF028C00DF029C00EF0BF
:1011A0008FEC17F032C001F033C002F0000E046E75
:1011B0000F0E036EB9EC1BF06F0E0124D96E010EF9
:1011C0000220DA6EDF500001906F32C001F033C0B0
:1011D00002F0000E046E0F0E036EB9EC1BF0680EE9
:1011E0000124D96E010E0220DA6EDE50DE10DE1010
:1011F000DE10D8A4FEEF08F000EF09F005EF09F0CB
:1012000032505DEC13F0C3EF0AF032C001F033C08E
:1012100002F0000E046E0F0E036EB9EC1BF0680EA8
:101220000124D96E010E0220DA6E32C001F033C003
:1012300002F0000E046E0F0E036EB9EC1BF0640E8C
:101240000124E16E010E0220E26EDECFE6FFDECF6A
:10125000E6FFDECFE6FFDECFE6FF000190510F0D87
:10126000640EF324D96E010EF420DA6EDECF2EF078
:10127000DDCF2FF0690E9019D8B441EF09F043EF9C
:1012800009F074EF09F0690E9019D8B44AEF09F02B
:101290004CEF09F090EF09F02EC00FF02FC010F0C6
:1012A000000E10BEFF0E116E126E32C001F033C080
:1012B00002F0000E046E0F0E036EB9EC1BF0640E0C
:1012C0000124D96E010E0220DA6E0F50DE5C105040
:1012D000DE581150DE581250DE58D8B072EF09F0C7
:1012E00074EF09F090EF09F0000190510F6E106A51
:1012F00032C001F033C002F0000E046E0F0E036E18
:10130000B9EC1BF06F0E0124D96E010E0220DA6ECB
:101310000FC0DEFF10C0DDFF32C090F065EF0AF0B5
:10132000000190510F0D6F0EF324D96E010EF420C1
:10133000DA6EDECF30F0DDCF31F090C02CF02D6AC8
:10134000CEEF09F030C001F031C002F0000E046EA3
:101350000F0E036EB9EC1BF0640E0124D96E010E62
:101360000220DA6EDE502E26DD502F2230C02CF007
:1013700031C02DF030C001F031C002F0000E046E1B
:101380000F0E036EB9EC1BF06F0E0124D96E010E27
:101390000220DA6EDECF30F0DDCF31F0690E30188A
:1013A0003110D8B4D6EF09F0D8EF09F024EF0AF0E5
:1013B00030C001F031C002F0000E046E0F0E036E5B
:1013C000B9EC1BF0640E0124D96E010E0220DA6E16
:1013D000DECF0FF0DECF10F0DECF11F0DECF12F057
:1013E0002EC013F02FC014F0000E14BEFF0E156EA9
:1013F000166E0F501324176E10501420186E1150D3
:101400001520196E125016201A6E32C001F033C02A
:1014100002F0000E046E0F0E036EB9EC1BF0640EAA
:101420000124D96E010E0220DA6E1750DE5C1850CE
:10143000DE581950DE581A50DE58D8B022EF0AF0A4
:1014400024EF0AF0A2EF09F02CC001F02DC002F049
:10145000000E046E0F0E036EB9EC1BF06F0E01242C
:10146000D96E010E0220DA6E32C0DEFF33C0DDFF1E
:1014700032C001F033C002F0000E046E0F0E036E96
:10148000B9EC1BF06F0E0124D96E010E0220DA6E4A
:1014900030C0DEFF31C0DDFF32C001F033C002F0EA
:1014A000000E046E0F0E036EB9EC1BF0640E0124E7
:1014B000D96E010E0220DA6E2E50DE5E2F50DE5AFB
:1014C000000E2FBEFF0EDE5ADE5A32C001F033C0CE
:1014D00002F0000E046E0F0E036EB9EC1BF06F0EDF
:1014E0000124D96E010E0220DA6E690EDE18DE10BC
:1014F000D8B47DEF0AF07FEF0AF0C3EF0AF032C0F4
:1015000001F033C002F0000E046E0F0E036EB9EC52
:101510001BF06F0E0124D96E010E0220DA6EDECFB1
:101520002AF0DDCF2BF032C001F033C002F0000E04
:10153000046E0F0E036EB9EC1BF0640E0124D96E1D
:10154000010E0220DA6EDECF0FF0DECF10F0DECF1C
:1015500011F0DECF12F02AC001F02BC002F0000E15
:10156000046E0F0E036EB9EC1BF0640E0124D96EED
:10157000010E0220DA6E0F50DE5E1050DE5A11505E
:10158000DE5A1250DE5A000190510F0D640EF32402
:10159000D96E010EF420DA6EDE50DE10DE10DE10A1
:1015A000D8B4D5EF0AF0D7EF0AF099EF08F09051D0
:1015B0000F0D640EF324D96E010EF420DA6E0A0EBC
:1015C000DE5E000EDE5ADE5ADE5A24C0F4FF23C06F
:1015D000F3FF22C0DAFF21C0D9FF20C0E2FF1FC005
:1015E000E1FF3C921100CEEF0CF09B51D8B4FBEF21
:1015F0000AF0FDEF0AF0ECEF0CF0000E9B6F010E0D
:10160000976F39EC1CF09CC088F09DC089F09EC09B
:101610008AF09FC08BF053EC1CF0000E00019D6F10
:10162000010E9C6FB7EC1AF0000E0001A76F340E8C
:10163000A86F100EA96F000E54EC1AF0000E0001F6
:10164000A76F6C0EA86F100EA96F000E54EC1AF065
:10165000ECEF0CF039EC1CF0000188519C5DAB6F95
:1016600089519D59AC6F8A519E59AD6F8B519F59CD
:10167000AE6FAE51AD110BE1310EAB5D750EAC59D5
:10168000D8A045EF0BF047EF0BF057EF0BF0010E32
:1016900096EC1AF0000E0001A76F230EA86F100E33
:1016A000A96F000E54EC1AF0030E0001976F9551CC
:1016B000D8B45DEF0BF05FEF0BF0ECEF0CF0000E29
:1016C000956F9451D8A467EF0BF069EF0BF07CEFA6
:1016D0000BF0000EA76F340EA86F100EA96F000E4E
:1016E00054EC1AF0000E0001A76F520EA86F100EF6
:1016F000A96F000E54EC1AF0020E0001976F39EC3E
:101700001CF09CC088F09DC089F09EC08AF09FC0EC
:101710008BF057EC1CF0000E00019D6F010E9C6FCA
:101720002DEC1AF055EC1CF0000E00019D6F020E1E
:101730009C6FB7EC1AF0ECEF0CF039EC1CF00001E8
:1017400088519C5DAB6F89519D59AC6F8A519E59F0
:10175000AD6F8B519F59AE6FAE51AD110BE1310E94
:10176000AB5D750EAC59D8A0B8EF0BF0BAEF0BF02B
:10177000CAEF0BF0010E96EC1AF0000E0001A76FF5
:10178000230EA86F100EA96F000E54EC1AF0030E72
:101790000001976F9551D8B4D0EF0BF0D2EF0BF05A
:1017A000ECEF0CF0000E956F9451D8A4DAEF0BF02B
:1017B000DCEF0BF0EFEF0BF0000EA76F340EA86F0D
:1017C000100EA96F000E54EC1AF0000E0001A76F66
:1017D0006C0EA86F100EA96F000E54EC1AF0010EDB
:1017E0000001976F39EC1CF09CC088F09DC089F017
:1017F0009EC08AF09FC08BF059EC1CF0000E0001D7
:101800009D6F020E9C6F2DEC1AF053EC1CF0000E35
:1018100000019D6F010E9C6FB7EC1AF0ECEF0CF01D
:10182000000EA76F340EA86F100EA96F000E54ECB7
:101830001AF0000E0001A76F650EA86F100EA96FB9
:10184000000E54EC1AF0000E0001A76F820EA86F74
:10185000100EA96F010E54EC1AF0060E0001A76FCE
:101860007F0EA86F100EA96F010E54EC1AF098C0ED
:10187000AFF00001B06B99C0B1F0B26B030EA76F6F
:10188000AFC09CF0B0C09DF0000E9F6F0A0E9E6F1F
:10189000C2EC15F000019C51300FA86F010EF7EC5F
:1018A0001AF0040E0001A76FAFC09CF0B0C09DF00D
:1018B000000E9F6F0A0E9E6F86EC16F000019C5181
:1018C000300FA86F010EF7EC1AF0080E0001A76F99
:1018D000B1C09CF0B2C09DF0000E9F6F0A0E9E6FCB
:1018E000C2EC15F000019C51300FA86F010EF7EC0F
:1018F0001AF0090E0001A76FB1C09CF0B2C09DF0B4
:10190000000E9F6F0A0E9E6F86EC16F000019C5130
:10191000300FA86F010EF7EC1AF0150E0001AC6F36
:101920004B0EAB6FBE0EE82EFED7AB2FFCD7AC2F05
:10193000FAD700F057EC1CF0000E00019D6F010E6D
:101940009C6F2DEC1AF059EC1CF0000E00019D6FFD
:10195000020E9C6F2DEC1AF0000E0001886F000E35
:10196000896F000E8A6F000E8B6F000E976F000E4E
:101970009B6F000EA76F340EA86F100EA96F000E9C
:1019800054EC1AF0000E0001A76F730EA86F100E32
:10199000A96F000E54EC1AF0ECEF0CF00001975117
:1019A000AB6FAC6BAC51000AD8B4D9EF0CF0ECEFD4
:1019B0000CF0AB51000AD8B4F5EF0AF0010AD8B424
:1019C0002AEF0BF0030AD8B49DEF0BF0010AD8B44C
:1019D00010EF0CF0ECEF0CF012000BEC1CF0000917
:1019E000D8B4F5EF0CF0F7EF0CF0FAEF0CF06D0E49
:1019F000BCEF0EF0000E0001C16FC1510F0D6C0E57
:101A0000F324D96E010EF420DA6EDE50DE10DE1003
:101A1000D8A40DEF0DF00FEF0DF011EF0DF01AEF50
:101A20000DF0C12B130EC16518EF0DF01AEF0DF07C
:101A3000FDEF0CF0140EC119D8A421EF0DF023EF27
:101A40000DF025EF0DF0F7EF0CF0C1510F0D640E06
:101A5000F324D96E010EF420DA6EA6C0DEFFA7C013
:101A6000DEFFA8C0DEFFA9C0DEFFC1510F0D680E6A
:101A7000F324D96E010EF420DA6EA2C0DEFFA3C0FB
:101A8000DEFFA4C0DEFFA5C0DEFFC1510F0D6C0E4E
:101A9000F324D96E010EF420DA6EAAC0DEFFABC0CB
:101AA000DEFFACC0DEFFC1510F0D710EF324D96E05
:101AB000010EF420DA6EADC0DEFFAEC0DDFF912B6B
:101AC00090510F0D640EF324D96E010EF420DA6EDE
:101AD000DECFBDF0DDCFBEF0690E9019D8B473EF44
:101AE0000DF075EF0DF096EF0DF0690E9019D8B46A
:101AF0007CEF0DF07EEF0DF0A9EF0DF0BDC0AFF063
:101B0000BEC0B0F0000EB0BFFF0EB16FB26FAF51EC
:101B1000A65DB051A759B151A859B251A959D8B031
:101B200094EF0DF096EF0DF0A9EF0DF09051AF6F1F
:101B3000B06BC1510F0D6F0EF324D96E010EF4205E
:101B4000DA6EAFC0DEFFB0C0DDFFC1C090F078EF4D
:101B50000EF090510F0D6F0EF324D96E010EF4208C
:101B6000DA6EDECFBFF0DDCFC0F090C0BBF0BC6B53
:101B7000E8EF0DF0BFC09CF0C0C09DF0000E9F6F5D
:101B80000F0E9E6FA5EC1BF0640E00019C25D96E14
:101B9000010E9D21DA6EDE50BD27DD50BE23BFC091
:101BA000BBF0C0C0BCF0BFC09CF0C0C09DF0000E38
:101BB0009F6F0F0E9E6FA5EC1BF06F0E00019C2512
:101BC000D96E010E9D21DA6EDECFBFF0DDCFC0F001
:101BD000690EBF19C011D8B4F0EF0DF0F2EF0DF09F
:101BE0002FEF0EF0BFC09CF0C0C09DF0000E9F6FA5
:101BF0000F0E9E6FA5EC1BF0640E00019C25D96EA4
:101C0000010E9D21DA6EDECFAFF0DECFB0F0DECF79
:101C1000B1F0DECFB2F0BDC0B3F0BEC0B4F0000E84
:101C2000B4BFFF0EB56FB66FAF51B325B76FB051EC
:101C3000B421B86FB151B521B96FB251B621BA6FA5
:101C4000B751A65DB851A759B951A859BA51A95968
:101C5000D8B02DEF0EF02FEF0EF0BAEF0DF0C1510E
:101C6000AF6FB06BBBC09CF0BCC09DF0000E9F6F0F
:101C70000F0E9E6FA5EC1BF06F0E00019C25D96E18
:101C8000010E9D21DA6EAFC0DEFFB0C0DDFFC15195
:101C90000F0D6F0EF324D96E010EF420DA6EBFC063
:101CA000DEFFC0C0DDFFBDC0AFF0BEC0B0F0000EB3
:101CB000B0BFFF0EB16FB26FAF51A65DB36FB05141
:101CC000A759B46FB151A859B56FB251A959B66FA0
:101CD000C1510F0D640EF324D96E010EF420DA6E9B
:101CE000B3C0DEFFB4C0DEFFB5C0DEFFB6C0DEFFAE
:101CF000C1510F0D6F0EF324D96E010EF420DA6E70
:101D0000690EDE18DE10D8B488EF0EF08AEF0EF000
:101D1000BBEF0EF0C1510F0D640EF324D96E010E0E
:101D2000F420DA6EDECFAFF0DECFB0F0DECFB1F070
:101D3000DECFB2F0C1510F0D6F0EF324D96E010E3C
:101D4000F420DA6EDECF9CF0DDCF9DF0000E9F6FA9
:101D50000F0E9E6FA5EC1BF0640E00019C25D96E42
:101D6000010E9D21DA6EAF51DE5EB051DE5AB151E7
:101D7000DE5AB251DE5AC151120004EC1AF09CC076
:101D8000A2F09DC0A3F0DBEC19F09CC0A4F09DC0B4
:101D9000A5F0020E0001A219A311D8A4D2EF0EF0F3
:101DA000D4EF0EF078EF0FF0000E926F000E786F08
:101DB000000E796F000E7A6F000E7B6F000E746F4D
:101DC000000E756F000E766F000E776F5BEF0FF0F1
:101DD000010E9B6F010E936F5CEF10F0010E8027D8
:101DE000000E81238223832383518211811109E113
:101DF0000C0E805DD8A0FFEF0EF001EF0FF05CEF4E
:101E000010F0010E9B6F020E936F5CEF10F0010E4D
:101E10008027000E812382238323010E7C27000E5E
:101E20007D237E237F23070E7C197D117E117F1178
:101E3000D8A41DEF0FF01FEF0FF029EF0FF0010EE8
:101E40009B6F000E7C6F000E7D6F000E7E6F000E8C
:101E50007F6F83518211811109E1250E805DD8A029
:101E600034EF0FF036EF0FF05CEF10F0010E9B6FC8
:101E7000030E936F5CEF10F0010E8027000E81239C
:101E80008223832383518211811109E1020E805D37
:101E9000D8A04DEF0FF04FEF0FF05CEF10F0010EF8
:101EA0009B6F000E806F000E816F000E826F000E20
:101EB000836F5CEF10F09351A06FA16BA151000AEA
:101EC000D8B465EF0FF05CEF10F0A051000AD8B461
:101ED000E8EF0EF0010AD8B4EEEF0EF0030AD8B422
:101EE00007EF0FF0010AD8B43CEF0FF05CEF10F0F1
:101EF000020EA419A511D8A480EF0FF082EF0FF005
:101F000026EF10F0000E936F000E806F000E816FB1
:101F1000000E826F000E836F000E7C6F000E7D6FCF
:101F2000000E7E6F000E7F6F09EF10F0010E9A6FAA
:101F3000010E926F5CEF10F0010E7827000E7923EE
:101F40007A237B237B517A11791109E10C0E785D9C
:101F5000D8A0ADEF0FF0AFEF0FF05CEF10F0010E77
:101F60009A6F020E926F5CEF10F0010E7827000E50
:101F700079237A237B23010E7427000E75237623A1
:101F80007723070E7419751176117711D8A4CBEF4A
:101F90000FF0CDEF0FF0D7EF0FF0010E9A6F000E9C
:101FA000746F000E756F000E766F000E776F7B51A9
:101FB0007A11791109E1250E785DD8A0E2EF0FF0D2
:101FC000E4EF0FF05CEF10F0010E9A6F030E926FCA
:101FD0005CEF10F0010E7827000E79237A237B2323
:101FE0007B517A11791109E1020E785DD8A0FBEFDF
:101FF0000FF0FDEF0FF05CEF10F0010E9A6F000E86
:10200000786F000E796F000E7A6F000E7B6F5CEFB9
:1020100010F09251A06FA16BA151000AD8B413EF38
:1020200010F05CEF10F0A051000AD8B496EF0FF05A
:10203000010AD8B49CEF0FF0030AD8B4B5EF0FF043
:10204000010AD8B4EAEF0FF05CEF10F0A405A51177
:10205000D8B42DEF10F02FEF10F038EF10F0A205EC
:10206000A311D8A436EF10F038EF10F05CEF10F0A9
:10207000000E806F000E816F000E826F000E836F66
:10208000000E7C6F000E7D6F000E7E6F000E7F6F66
:10209000000E786F000E796F000E7A6F000E7B6F66
:1020A000000E746F000E756F000E766F000E776F66
:1020B000000E936F000E926F1200A4EF11F09A5170
:1020C000D8B465EF10F067EF10F0BEEF11F0000E1E
:1020D0009A6F010E946F010E966F010E96EC1AF036
:1020E000000E0001A76F5C0EA86F100EA96F000E06
:1020F00054EC1AF0CEC09CF0CFC09DF0030E00014E
:102100009F6FE80E9E6FC2EC15F09CC0C4F09DC09E
:10211000C5F00A0E0001A76FC4C09CF0C5C09DF0B9
:10212000000E9F6F0A0E9E6FC2EC15F000019C51CD
:10213000300FA86F000EF7EC1AF00B0E0001A76F1E
:10214000C4C09CF0C5C09DF0000E9F6F0A0E9E6F2C
:1021500086EC16F000019C51300FA86F000EF7ECD2
:102160001AF00C0E0001A76F730EA86F000EF7ECAB
:102170001AF0150E0001C36F4B0EC26FBE0EE82E93
:10218000FED7C22FFCD7C32FFAD700F0BEEF11F055
:102190009B51D8B4CEEF10F0D0EF10F026EF11F035
:1021A000000E9B6FE80ECE27030ECF23CFBFE2EFCA
:1021B00010F0200ECE5D4E0ECF59D8A0E2EF10F0F9
:1021C000E4EF10F0E8EF10F0030ECF6FE80ECE6FE3
:1021D000CEC09CF0CFC09DF0030E9F6FE80E9E6FA7
:1021E000C2EC15F09CC0C6F09DC0C7F00A0E0001FD
:1021F000A76FC6C09CF0C7C09DF0000E9F6F0A0E6F
:102200009E6FC2EC15F000019C51300FA86F000EBC
:10221000F7EC1AF00B0E0001A76FC6C09CF0C7C008
:102220009DF0000E9F6F0A0E9E6F86EC16F0000167
:102230009C51300FA86F000EF7EC1AF00C0E000145
:10224000A76F730EA86F000EF7EC1AF000019A51F9
:10225000D8B42DEF11F02FEF11F0BEEF11F0000EFA
:102260009A6F615190EC12F0CEC0A2F0CFC0A3F0F3
:102270000001000EA3BFFF0EA46FA56F000EA66F96
:10228000000EA76F000EA86F000EA96FBE0EAA6FFA
:102290002D0EAB6F000EAC6F000EAD6F000EAE6F6B
:1022A000EDEC0CF00001616F020E966FBEEF11F0C5
:1022B000000E946F000E966F000EA76F430EA86F6E
:1022C000100EA96F000E54EC1AF0150E0001C36F2A
:1022D0004B0EC26FBE0EE82EFED7C22FFCD7C32F07
:1022E000FAD700F0000E0001A76F340EA86F100E91
:1022F000A96F000E54EC1AF000019705D8A483EFE3
:1023000011F085EF11F090EF11F0000EA76F6C0E39
:10231000A86F100EA96F000E54EC1AF0BEEF11F06A
:10232000020E9719D8A497EF11F099EF11F0BEEFB4
:1023300011F0000EA76F520EA86F100EA96F000EBD
:1023400054EC1AF0BEEF11F000019651C26FC36B4E
:10235000C351000AD8B4AFEF11F0BEEF11F0C25173
:10236000000AD8B45FEF10F0010AD8B4C8EF10F03B
:10237000030AD8B458EF11F0BEEF11F0120091EC3F
:102380001BF0320E0001A26F000EA36F000EA46FAF
:10239000000EA56F000EA66F000EA76F000EA86FAF
:1023A000000EA96F7A0EAA6F1D0EAB6F000EAC6FF8
:1023B000000EAD6F000EAE6FEDEC0CF00001606F23
:1023C000CEC0A2F0CFC0A3F0000EA3BFFF0EA46F3B
:1023D000A56F880EA66F130EA76F000EA86F000ED4
:1023E000A96FBE0EAA6F2D0EAB6F000EAC6F000E64
:1023F000AD6F000EAE6FEDEC0CF00001616FA00E42
:10240000A26F0F0EA36F000EA46F000EA56F1C0E1F
:10241000A66F0C0EA76F000EA86F000EA96F6C0EB2
:10242000AA6F300EAB6F000EAC6F000EAD6F000EDA
:10243000AE6FEDEC0CF00001626FA00EA26F0F0EFC
:10244000A36F000EA46F000EA56FE40EA66F0C0E16
:10245000A76F000EA86F000EA96FA00EAA6F360E10
:10246000AB6F000EAC6F000EAD6F000EAE6FEDECFB
:102470000CF00001636FA00EA26F0F0EA36F000E91
:10248000A46F000EA56FDC0EA66F050EA76F000EE1
:10249000A86F000EA96F4A0EAA6F2C0EAB6F000E2C
:1024A000AC6F000EAD6F000EAE6FEDEC0CF00001E6
:1024B000646F000EA76F120EA86F100EA96F000EAA
:1024C00054EC1AF0000E0001A76F010EA86F100E59
:1024D000A96F010E54EC1AF0150E0001C96F4B0ED6
:1024E000C86FBE0EE82EFED7C82FFCD7C92FFAD76B
:1024F00000F0010E96EC1AF0000E0001A76F730EAB
:10250000A86F100EA96F000E54EC1AF05DEC10F0DD
:10251000F3EC0AF078EC19F086EF12F007EF00F018
:102520000001A16F18EC1CF00009D8A49AEF12F07A
:102530009CEF12F05CEF13F00001A1510F0D6C0E37
:10254000F324D96E010EF420DA6EDE50DE10DE10B8
:10255000D8A4ADEF12F0AFEF12F0B1EF12F05CEFD4
:1025600013F0A1510F0D640EF324D96E010EF42067
:10257000DA6EDE6ADE6ADE6ADD6AA1510F0D680E70
:10258000F324D96E010EF420DA6EDE6ADE6ADE6AAA
:10259000DD6AA1510F0D6C0EF324D96E010EF420EB
:1025A000DA6E000EDE6E000EDE6E000EDE6EA151E3
:1025B0000F0D710EF324D96E010EF420DA6E000EA9
:1025C000DE6E000EDD6E91079051A119D8A4EBEFDD
:1025D00012F0EDEF12F005EF13F0A1510F0D6F0E99
:1025E000F324D96E010EF420DA6EDF50906FA15102
:1025F0000F0D6F0EF324D96E010EF420DA6E690E02
:10260000DE6E000EDD6E5CEF13F090C0A0F013EFF5
:1026100013F0A0510F0D6F0EF324D96E010EF420AC
:10262000DA6EDF50A06FA0510F0D6F0EF324D96E3C
:10263000010EF420DA6E690EDE18DE10D8B423EF36
:1026400013F025EF13F03CEF13F0A0510F0D6F0EB8
:10265000F324D96E010EF420DA6EA1519E6F9F6BA8
:10266000DE509E1907E1DE509F19D8A43AEF13F00F
:102670003CEF13F009EF13F0A1510F0D6F0EF3248F
:10268000D96E010EF420DA6EA0510F0D6F0EF324F7
:10269000E16E010EF420E26EDECFE6FFDDCFE5FF56
:1026A000A1510F0D6F0EF324D96E010EF420DA6ED6
:1026B000690EDE6E000EDD6E1200056E24EC1CF05D
:1026C0000009D8A466EF13F068EF13F028EF14F0B8
:1026D00005500F0D6C0EF324D96E010EF420DA6E46
:1026E000DE50DE10DE10D8A478EF13F07AEF13F08E
:1026F0007CEF13F028EF14F005500F0D640EF32457
:10270000D96E010EF420DA6EDE6ADE6ADE6ADD6AF8
:1027100005500F0D680EF324D96E010EF420DA6E09
:10272000DE6ADE6ADE6ADD6A05500F0D6C0EF32488
:10273000D96E010EF420DA6E000EDE6E000EDE6E33
:10274000000EDE6E05500F0D710EF324D96E010ED2
:10275000F420DA6E000EDE6E000EDD6E00019107D1
:1027600090510518D8A4B7EF13F0B9EF13F0D1EFDB
:1027700013F005500F0D6F0EF324D96E010EF420E7
:10278000DA6EDF50906F05500F0D6F0EF324D96E87
:10279000010EF420DA6E690EDE6E000EDD6E28EF9B
:1027A00014F090C006F0DFEF13F006500F0D6F0E1F
:1027B000F324D96E010EF420DA6EDF50066E065057
:1027C0000F0D6F0EF324D96E010EF420DA6E690E30
:1027D000DE18DE10D8B4EFEF13F0F1EF13F008EFCE
:1027E00014F006500F0D6F0EF324D96E010EF42075
:1027F000DA6E0550036E046ADE50031807E1DE50FE
:102800000418D8A406EF14F008EF14F0D5EF13F075
:1028100005500F0D6F0EF324D96E010EF420DA6E01
:1028200006500F0D6F0EF324E16E010EF420E26EE0
:10283000DECFE6FFDDCFE5FF05500F0D6F0EF32471
:10284000D96E010EF420DA6E690EDE6E000EDD6EBA
:102850001200000E0001A66F500EA56F95908C908F
:10286000340E0001A26FF10EE82EFED7A22FFCD786
:1028700000D08C800D0EE82EFED700F0958051EF31
:1028800014F00001A507D8A0A607A551A611D8A449
:102890004CEF14F04EEF14F051EF14F0000ECAEFAD
:1028A00014F083B056EF14F058EF14F041EF14F029
:1028B000000E0001A66F500EA56F6DEF14F0A50776
:1028C000D8A0A607A551A611D8A469EF14F06BEF04
:1028D00014F06DEF14F04EEF14F083A072EF14F0CB
:1028E00075EF14F0010E76EF14F0000EA26FA36BDB
:1028F000A2B17DEF14F07FEF14F05FEF14F0000E43
:10290000A66F500EA56F93EF14F0A507D8A0A607E9
:10291000A551A611D8A48FEF14F091EF14F093EF06
:1029200014F04EEF14F083B098EF14F09AEF14F017
:1029300085EF14F052EC15F000018C6F52EC15F09D
:1029400000018D6F52EC15F000018E6F52EC15F006
:1029500000018F6F52EC15F00001A46FA429D8A4D8
:10296000B4EF14F0B8EF14F0A26BA22BBAEF14F08E
:102970000001A26B8D518F258C258E25A215000993
:10298000D8B4C5EF14F0C7EF14F0C9EF14F04EEF50
:1029900014F0010E1200CFEC18F0000E0001A56F2C
:1029A000000EA46FA4C09CF0A5C09DF0000E9F6F08
:1029B0000F0E9E6FA5EC1BF0640E00019C25D96ED6
:1029C000010E9D21DA6EDE6ADE6ADE6ADD6AA4C06F
:1029D0009CF0A5C09DF0000E9F6F0F0E9E6FA5ECA2
:1029E0001BF0680E00019C25D96E010E9D21DA6E48
:1029F000DE6ADE6ADE6ADD6AA4C09CF0A5C09DF0D6
:102A0000000E9F6F0F0E9E6FA5EC1BF06C0E000169
:102A10009C25D96E010E9D21DA6E000EDE6E000E31
:102A2000DE6E000EDE6EA4C09CF0A5C09DF0000E10
:102A30009F6F0F0E9E6FA5EC1BF0710E00019C2581
:102A4000D96E010E9D21DA6E000EDE6E000EDD6E77
:102A5000A4C09CF0A5C09DF0000E9F6F0F0E9E6F4E
:102A6000A5EC1BF06F0E00019C25D96E010E9D2177
:102A7000DA6E690EDE6E000EDD6EA44BA52BA5BFCF
:102A80004BEF15F0A55109E1140EA45DD8A04BEF52
:102A900015F04DEF15F0D2EF14F0000E916F690EA6
:102AA000906F1200000E0001A16F66EF15F09F07F6
:102AB000D8A0A0079F51A011D8A461EF15F063EF33
:102AC00015F066EF15F0000EC1EF15F083A06BEF67
:102AD00015F06DEF15F057EF15F0140EE82EFED738
:102AE00083B075EF15F077EF15F08BEF15F000015F
:102AF000A15107089C6F010E9D6F9C2B82EF15F072
:102B0000D8909D379C2F80EF15F000019D51FF0A52
:102B10009E17B7EF15F00001A15107089C6F010E39
:102B20009D6F9C2B96EF15F0D8909D379C2F94EFBE
:102B300015F000019D519E13000EA06F500E9F6F67
:102B4000B0EF15F09F07D8A0A0079F51A011D8A4FF
:102B5000ACEF15F0AEEF15F0B0EF15F063EF15F038
:102B600083B0B5EF15F0B7EF15F0A2EF15F0A12B7C
:102B7000070EA165BEEF15F0C0EF15F066EF15F07A
:102B80009E511200000E0001A16F9FBFCCEF15F007
:102B9000CAEF15F0D2EF15F09E6D9F1FD8B09F2B96
:102BA000010EA16F9DBFD9EF15F0D7EF15F0DFEF44
:102BB00015F09C6D9D1FD8B09D2B010EA11B000E22
:102BC000A36F000EA26F9E519F11D8B4EAEF15F0CB
:102BD000ECEF15F014EF16F0010EA06FF4EF15F006
:102BE000D8909E379F37A02B9FAFF9EF15F0FBEFE2
:102BF00015F0F0EF15F0D890A237A3379E519C5DE9
:102C00009F519D59D8A007EF16F009EF16F00EEF6F
:102C100016F09E519C5F9F519D5BA281D8909F337F
:102C20009E33A02FFBEF15F0A151D8B41AEF16F088
:102C30001CEF16F020EF16F0A26DA31FD8B0A32B47
:102C4000A2C09CF0A3C09DF01200000E0001A76F6F
:102C5000820EA86F100EA96F010E54EC1AF0060E2A
:102C60000001A76F7F0EA86F100EA96F010E54EC24
:102C70001AF0030E0001A76F98C09CF09D6B000E28
:102C80009F6F0A0E9E6FC2EC15F000019C51300F31
:102C9000A86F010EF7EC1AF0040E0001A76F98C0A0
:102CA0009CF09D6B000E9F6F0A0E9E6F86EC16F0D7
:102CB00000019C51300FA86F010EF7EC1AF0080EBE
:102CC0000001A76F99C09CF09D6B000E9F6F0A0ECC
:102CD0009E6FC2EC15F000019C51300FA86F010EE1
:102CE000F7EC1AF0090E0001A76F99C09CF09D6BDC
:102CF000000E9F6F0A0E9E6F86EC16F000019C512D
:102D0000300FA86F010EF7EC1AF01200000E000150
:102D1000A16F9DBF90EF16F08EEF16F096EF16F0B4
:102D20009C6D9D1FD8B09D2B010EA16F9FBF9DEF85
:102D300016F09BEF16F0A1EF16F09E6D9F1FD8B016
:102D40009F2B9E519F11D8B4A8EF16F0AAEF16F052
:102D5000CEEF16F0010EA06FB2EF16F0D8909E37AE
:102D60009F37A02B9FAFB7EF16F0B9EF16F0AEEF7D
:102D700016F09E519C5D9F519D59D8A0C2EF16F050
:102D8000C4EF16F0C8EF16F09E519C5F9F519D5BFB
:102D9000D8909F339E33A02FB9EF16F0A151D8B42D
:102DA000D4EF16F0D6EF16F0DAEF16F09C6D9D1FFB
:102DB000D8B09D2B9CC09CF09DC09DF012004F0E82
:102DC00000019865E6EF16F0E8EF16F0FCEF16F05C
:102DD0000B0E9961EEEF16F0F0EF16F0FCEF16F027
:102DE0009751D8B4F6EF16F0F8EF16F0FCEF16F0A6
:102DF000030E976F36EF17F00B0E996102EF17F085
:102E000004EF17F011EF17F0020E9719D8A40BEF8B
:102E100017F00DEF17F011EF17F0010E956F36EF69
:102E200017F04F0E986517EF17F019EF17F023EF13
:102E300017F09705D8A41FEF17F021EF17F023EF35
:102E400017F00DEF17F09705D8B429EF17F02BEF17
:102E500017F00DEF17F0020E9719D8A432EF17F004
:102E600034EF17F036EF17F00DEF17F01200000EE9
:102E7000066E02BE40EF17F03EEF17F046EF17F078
:102E8000016C021ED8B0022A010E066E04BE4DEF80
:102E900017F04BEF17F051EF17F0036C041ED8B08A
:102EA000042A03500410D8B458EF17F05AEF17F063
:102EB0007EEF17F0010E056E62EF17F0D890033623
:102EC0000436052A04AE67EF17F069EF17F05EEFDE
:102ED00017F00350015C04500258D8A072EF17F0AD
:102EE00074EF17F078EF17F00350015E0450025AA8
:102EF000D89004320332052E69EF17F00650D8B48B
:102F000084EF17F086EF17F08AEF17F0016C021EBE
:102F1000D8B0022A01C001F002C002F01200FDEC9C
:102F20001BF00009D8B497EF17F099EF17F09BEF5B
:102F300017F0E4EF17F00001CC2906E1CD29D8A461
:102F4000A4EF17F0A6EF17F0AAEF17F0000ECD6F61
:102F5000000ECC6F010ECA25016E000ECB21026E51
:102F6000000E046E140E036E37EC17F001C0CAF0A9
:102F700002C0CBF0CAC001F0CBC002F0000E046E5C
:102F8000050E036EB9EC1BF0000E0124D96E010E84
:102F90000220DA6E0AC0DEFF0BC0DEFF0CC0DEFFCF
:102FA000CAC001F0CBC002F0000E046E050E036E25
:102FB000B9EC1BF0030E0124D96E010E0220DA6E6B
:102FC0000DC0DEFF0EC0DDFF1200000E0001AB6F72
:102FD000000EAC6F000EAD6F000EAE6F000EAF6F47
:102FE00035EC1BF00009D8B4F8EF17F0FAEF17F042
:102FF00005EF18F020EEABF000EEA4F0040EDBCFEE
:10300000EBFFE806FCE235EF18F0CCC0A9F0CDC02C
:10301000AAF0010E0001CC259C6F000ECD219D6F02
:10302000000E9F6F140E9E6F86EC16F09CC0CCF0C5
:103030009DC0CDF0A9C09CF0AAC09DF0000E00017B
:103040009F6F050E9E6FA5EC1BF0000E00019C25E6
:10305000D96E010E9D21DA6E10EEABF0040EDBCFBF
:10306000E3FFE806FCE2FAEF17F012000001970513
:10307000D8B43DEF18F03FEF18F048EF18F0020E0B
:103080009719D8A446EF18F048EF18F083EF18F01E
:1030900099C0ABF0AC6BABC09CF0ACC09DF042EC07
:1030A0001CF00B0E0001A76F780EA86F100EA96F11
:1030B000010E54EC1AF00E0E0001A76FABC09CF08D
:1030C000ACC09DF0000E9F6F0A0E9E6FC2EC15F013
:1030D00000019C51300FA86F010EF7EC1AF00F0E93
:1030E0000001A76FABC09CF0ACC09DF0000E9F6FBD
:1030F0000A0E9E6F86EC16F000019C51300FA86FEF
:10310000010EF7EC1AF012000001A86F040E000186
:10311000A8658DEF18F08FEF18F0ADEF18F0CEEF37
:1031200018F0F28AF294C60ED56E640ED66E000EBA
:10313000846F000E856F000E866F000E876FCEEFD6
:1031400018F0CBEC14F09D809E90810ECD6EB10EE8
:10315000CF6EE00ECE6ECEEF18F0A851A66FA76B23
:10316000A751000AD8B4B7EF18F0CEEF18F0A65167
:10317000000AD8B491EF18F0010AD8B4A1EF18F002
:10318000030AD8B4CEEF18F0010AD8B4CEEF18F085
:10319000070AD8B4CEEF18F0CEEF18F01200000EE8
:1031A0000001A36F000EA26FA2C09CF0A3C09DF00F
:1031B000000E9F6F050E9E6FA5EC1BF0030E000125
:1031C0009C25D96E010E9D21DA6E000EDE6E000E7A
:1031D000DD6EA2C09CF0A3C09DF0000E9F6F050E97
:1031E0009E6FA5EC1BF0000E00019C25D96E010E10
:1031F0009D21DA6E000EDE6E000EDE6E000EDE6EBB
:10320000A24BA32BA3BF0EEF19F0A35109E1140E9B
:10321000A25DD8A00EEF19F010EF19F0D4EF18F05E
:10322000120000019C6F9CC09EF0000E00019D6F7B
:103230009CAF1DEF19F01FEF19F022EF19F08B8AE8
:1032400023EF19F08B9A8BA828EF19F02AEF19F0C9
:103250002EEF19F0D8809E3731EF19F09E519E2540
:103260009E6F8B8600F000F000F000F000F000F0A0
:103270008B960001D8909C379D2B070E9D6543EFE0
:1032800019F045EF19F018EF19F0120030EC1CF0AE
:10329000979C8E9C0D0E0001A26FFB0EE82EFED7B0
:1032A000A22FFCD700D08E8C000EEEEC1BF0010E8E
:1032B000EEEC1BF0000E00019F6F120EDEEC1BF017
:1032C000270E0001A26FF50EE82EFED7A22FFCD725
:1032D000320E96EC1AF03C0E96EC1AF00C0E96ECB0
:1032E0001AF0010E96EC1AF0060E96EC1AF0120087
:1032F0009FEF19F0E5EC17F020EEB0F0040EEBCFE5
:10330000DBFFE806FCE20001B051B111B211D8B404
:103310008CEF19F08EEF19F09FEF19F0B3C09EF00B
:10332000B4C09FF002D89FEF19F00500FA6EB051BB
:10333000FD6EB151FE6EB251FF6EFA50120035ECC7
:103340001BF00009D8B4A7EF19F0A9EF19F07AEF34
:1033500019F01200900EF66E380EF76E000EF86E31
:1033600000EECAF010EE0AF00900F5CFEEFFE550CE
:10337000E150FAE101EE64F011EE2CF0EE6AE55056
:10338000E150FCE1E250FAE101EE00F0640EEE6A79
:10339000E806FDE100EE60F03C0EEE6AE806FDE1B5
:1033A00000EE34F0080EEE6AE806FDE13C903C9237
:1033B0000001BFEF11F0D0C0D1F0000E81B0010EBE
:1033C0000001D06FD151D019D8A4E9EF19F0EBEF7B
:1033D00019F0FFEF19F0D051D8B4F1EF19F0F3EF75
:1033E00019F0F9EF19F0000E9D6F010E9C6F03EFBD
:1033F0001AF0000E9D6F020E9C6F03EF1AF0000E84
:103400009D6F000E9C6F1200D2C0D3F0000E80BAE8
:10341000010E0001D26FD351D219D8A412EF1AF0C5
:1034200014EF1AF028EF1AF0D251D8B41AEF1AF0AC
:103430001CEF1AF022EF1AF0000E9D6F010E9C6F28
:103440002CEF1AF0000E9D6F020E9C6F2CEF1AF0FD
:10345000000E9D6F000E9C6F120038EF1AF08C9ECC
:1034600053EF1AF08C9C53EF1AF08C9A53EF1AF02A
:103470009CC09EF09DC09FF000019F51000AD8B4EF
:1034800044EF1AF053EF1AF09E51010AD8B42FEF0F
:103490001AF0030AD8B432EF1AF0010AD8B435EFA3
:1034A0001AF053EF1AF012000001AA6F030E000188
:1034B000AA615DEF1AF05FEF1AF074EF1AF00F0EC9
:1034C000A76565EF1AF067EF1AF069EF1AF074EF6D
:1034D0001AF0A7C0A2F0AA5116EC1BF0A8C0A2F0E7
:1034E000A9C0A3F0D7EC1AF012000001A16F060EDC
:1034F000E82EFED700D0800E00019F6F120EDEEC8A
:103500001BF000D0A1C09FF0130EDEEC1BF000D02A
:10351000C00E00019F6F120EDEEC1BF000D0000EFB
:1035200000019F6F120EDEEC1BF012000001A16F74
:10353000060EE82EFED700D0000E00019F6F120E7F
:10354000DEEC1BF000D0A1C09FF0130EDEEC1BF0F0
:1035500000D0400E00019F6F120EDEEC1BF000D079
:10356000000E00019F6F120EDEEC1BF01200BFEF89
:103570001AF08C8ED6EF1AF08C8CD6EF1AF09CC015
:103580009EF09DC09FF000019F51000AD8B4CBEF80
:103590001AF0D6EF1AF09E51010AD8B4B9EF1AF01A
:1035A000030AD8B4BCEF1AF0D6EF1AF01200E6EF17
:1035B0001AF0A2C0F6FFA3C0F7FF000EF86E0800D5
:1035C000F55075EC1AF00001A24BA32BA2C0F6FF38
:1035D000A3C0F7FF000EF86E0800F5500009D8A44C
:1035E000F4EF1AF0F6EF1AF0D9EF1AF0120000011A
:1035F000A96F030E0001A96100EF1BF002EF1BF0A1
:1036000015EF1BF00F0EA76508EF1BF00AEF1BF07C
:103610000CEF1BF015EF1BF0A7C0A2F0A95116ECA0
:103620001BF00001A85175EC1AF012000001A36F05
:103630000001A351D8B41FEF1BF021EF1BF029EFBD
:103640001BF0C00EA225A46FA56B000EA5232FEFC3
:103650001BF0800EA225A46FA56B000EA523A4C0AD
:10366000A6F0A65196EC1AF012000001CC2906E152
:10367000CD29D8A43EEF1BF040EF1BF043EF1BF029
:10368000000E4FEF1BF066EC1BF00009D8B44BEFB7
:103690001BF04EEF1BF0010E4FEF1BF0000E12005F
:1036A00029EC14F00009D8A458EF1BF05AEF1BF0D6
:1036B00061EF1BF08F0E0001986F8F0E996F65EF11
:1036C0001BF08EC098F08CC099F012000001CC5114
:1036D000CA5DA26FCD51CB59A36F150EA2259C6F69
:1036E000000EA3219D6F000E9F6F140E9E6F86EC3F
:1036F00016F000019C5112000001CC51CA5D076E0A
:10370000CD51CB59086E150E0724016E000E08200E
:10371000026E000E046E140E036E37EC17F00150AB
:1037200012004DEC1CF0CCEC1BF050EC1CF046EC05
:1037300019F0460E0001996F190E986F000E84EC77
:1037400018F0010E84EC18F0120000019C519E0349
:10375000F3CFA0F0F4CFA1F09C519F03F350A12729
:103760009D519E03F350A127A0C09CF0A1C09DF0E5
:10377000120001500302F3CF05F0F4CF06F0015020
:103780000402F350062602500302F350062605C039
:1037900001F006C002F01200000E8B6ED70E946E80
:1037A0000F0EC16E000E896EF30E926E000E8A6EC1
:1037B0009368000E8C6E000E956E12000001A06FD3
:1037C0008994400E11EC19F00001A05111EC19F090
:1037D00000019F5111EC19F08984120000019F6FC4
:1037E0008994400E11EC19F000019F5111EC19F071
:1037F000000E11EC19F0898412007CEC1BF0096EAC
:10380000140E096006EF1CF009EF1CF0010E0AEF20
:103810001CF0000E1200140E00019119D8B413EF21
:103820001CF016EF1CF0010E17EF1CF0000E12003A
:1038300000019151D8B41FEF1CF022EF1CF0010ED3
:1038400023EF1CF0000E120000019151D8B42BEFB1
:103850001CF02EEF1CF0010E2FEF1CF0000E1200DA
:1038600092949488949A949689848B888B9A8B9658
:10387000120084C09CF085C09DF086C09EF087C079
:103880009FF0120000019C51180DF3CF74FF12003D
:10389000FFFFFFFF102701010101700ED36E120020
:1038A000F28EF28C12008C8012008C8212008C90AE
:0638B00012008C921200D0
:020000040020DA
:08000000FFFFFFFFFFFFFFFF00
:020000040030CA
:0E000000FF09191EF38381FFFFC0FFE0FF40E0
:00000001FF
