:020000040000FA
:0400000007EF00F016
:0A0008003C824DED08F0EEEF1AF017
:101000000049443A20313731303336342020202013
:1010100020004C544420636F6E74726F6C6C657268
:101020002020004552524F52202D205455524E2020
:101030004F46460020202020202020202020202055
:101040002020005365742073756363657373667540
:101050006C005365742068756D696400486561743F
:101060002050756D70005365742074696D65005370
:1010700065742074656D700046696E697368004818
:1010800065617465720049444C450046333A004539
:091090005200483A00543A0000F5
:10109A000600E1CF1FF0E2CF20F0D9CF21F0DACF5E
:1010AA0022F0F3CF23F0F4CF24F0F2AA5FEF08F096
:1010BA0061EF08F082EF08F0F2A466EF08F068EF3B
:1010CA0008F082EF08F0F294820ED66E0A0E000142
:1010DA008427000E852386238723384A392A640EFB
:1010EA0038183910D8A47CEF08F07EEF08F082EFA8
:1010FA0008F0000E396E000E386E9DA087EF08F0DA
:10110A0089EF08F0EDEF0AF09EA08EEF08F090EF5D
:10111A0008F0EDEF0AF09E90B10ECF6EE00ECE6EA3
:10112A00690E00019019D8A49DEF08F09FEF08F00E
:10113A00CBEF0AF0EDEF0AF090C032F0336A32C01A
:10114A0001F033C002F0000E046E0F0E036E00ECC5
:10115A001DF06C0E0124D96E010E0220DA6EDECF6C
:10116A0025F0DECF26F0DDCF27F032C001F033C004
:10117A0002F0000E046E0F0E036E00EC1DF0710EED
:10118A000124D96E010E0220DA6EDECF28F0DDCFFF
:10119A0029F025C00AF026C00BF027C00CF028C0A1
:1011AA000DF029C00EF021EC19F032C001F033C065
:1011BA0002F0000E046E0F0E036E00EC1DF06F0EAF
:1011CA000124D96E010E0220DA6EDF500001906F01
:1011DA0032C001F033C002F0000E046E0F0E036E2F
:1011EA0000EC1DF0680E0124D96E010E0220DA6EA1
:1011FA00DE50DE10DE10DE10D8A406EF09F008EF8C
:10120A0009F00DEF09F0325065EC14F0CBEF0AF05B
:10121A0032C001F033C002F0000E046E0F0E036EEE
:10122A0000EC1DF0680E0124D96E010E0220DA6E60
:10123A0032C001F033C002F0000E046E0F0E036ECE
:10124A0000EC1DF0640E0124E16E010E0220E26E34
:10125A00DECFE6FFDECFE6FFDECFE6FFDECFE6FF3C
:10126A00000190510F0D640EF324D96E010EF42083
:10127A00DA6EDECF2EF0DDCF2FF0690E9019D8B4DA
:10128A0049EF09F04BEF09F07CEF09F0690E90196C
:10129A00D8B452EF09F054EF09F098EF09F02EC0D4
:1012AA000FF02FC010F0000E10BEFF0E116E126E5E
:1012BA0032C001F033C002F0000E046E0F0E036E4E
:1012CA0000EC1DF0640E0124D96E010E0220DA6EC4
:1012DA000F50DE5C1050DE581150DE581250DE58A6
:1012EA00D8B07AEF09F07CEF09F098EF09F0000125
:1012FA0090510F6E106A32C001F033C002F0000E36
:10130A00046E0F0E036E00EC1DF06F0E0124D96EF1
:10131A00010E0220DA6E0FC0DEFF10C0DDFF32C000
:10132A0090F06DEF0AF0000190510F0D6F0EF3244B
:10133A00D96E010EF420DA6EDECF30F0DDCF31F057
:10134A0090C02CF02D6AD6EF09F030C001F031C000
:10135A0002F0000E046E0F0E036E00EC1DF0640E18
:10136A000124D96E010E0220DA6EDE502E26DD50DF
:10137A002F2230C02CF031C02DF030C001F031C026
:10138A0002F0000E046E0F0E036E00EC1DF06F0EDD
:10139A000124D96E010E0220DA6EDECF30F0DDCFE5
:1013AA0031F0690E30183110D8B4DEEF09F0E0EFF1
:1013BA0009F02CEF0AF030C001F031C002F0000E43
:1013CA00046E0F0E036E00EC1DF0640E0124D96E3C
:1013DA00010E0220DA6EDECF0FF0DECF10F0DECF84
:1013EA0011F0DECF12F02EC013F02FC014F0000E51
:1013FA0014BEFF0E156E166E0F501324176E105082
:10140A001420186E11501520196E125016201A6EDB
:10141A0032C001F033C002F0000E046E0F0E036EEC
:10142A0000EC1DF0640E0124D96E010E0220DA6E62
:10143A001750DE5C1850DE581950DE581A50DE5824
:10144A00D8B02AEF0AF02CEF0AF0AAEF09F02CC064
:10145A0001F02DC002F0000E046E0F0E036E00ECB8
:10146A001DF06F0E0124D96E010E0220DA6E32C011
:10147A00DEFF33C0DDFF32C001F033C002F0000EE0
:10148A00046E0F0E036E00EC1DF06F0E0124D96E70
:10149A00010E0220DA6E30C0DEFF31C0DDFF32C03D
:1014AA0001F033C002F0000E046E0F0E036E00EC62
:1014BA001DF0640E0124D96E010E0220DA6E2E5040
:1014CA00DE5E2F50DE5A000E2FBEFF0EDE5ADE5AA7
:1014DA0032C001F033C002F0000E046E0F0E036E2C
:1014EA0000EC1DF06F0E0124D96E010E0220DA6E97
:1014FA00690EDE18DE10D8B485EF0AF087EF0AF01D
:10150A00CBEF0AF032C001F033C002F0000E046ED5
:10151A000F0E036E00EC1DF06F0E0124D96E010E42
:10152A000220DA6EDECF2AF0DDCF2BF032C001F0D6
:10153A0033C002F0000E046E0F0E036E00EC1DF0B5
:10154A00640E0124D96E010E0220DA6EDECF0FF08E
:10155A00DECF10F0DECF11F0DECF12F02AC001F09C
:10156A002BC002F0000E046E0F0E036E00EC1DF08D
:10157A00640E0124D96E010E0220DA6E0F50DE5E6F
:10158A001050DE5A1150DE5A1250DE5A00019051A4
:10159A000F0D640EF324D96E010EF420DA6EDE50BC
:1015AA00DE10DE10DE10D8B4DDEF0AF0DFEF0AF04D
:1015BA00A1EF08F090510F0D640EF324D96E010EBD
:1015CA00F420DA6E0A0EDE5E000EDE5ADE5ADE5AAB
:1015DA0024C0F4FF23C0F3FF22C0DAFF21C0D9FFE1
:1015EA0020C0E2FF1FC0E1FF3C9211003AEF0DF06C
:1015FA009B51D8B403EF0BF005EF0BF05CEF0DF045
:10160A00000E9B6F010E946F010E976F010EDAECBC
:10161A001BF0000E0001A86F660EA96F100EAA6FCC
:10162A00000E98EC1BF0CFC09DF0D0C09EF0030EC8
:10163A000001A06FE80E9F6F52EC17F09DC0C5F035
:10164A009EC0C6F00A0E0001A86FC5C09DF0C6C0B4
:10165A009EF0000EA06F0A0E9F6F52EC17F0000169
:10166A009D51300FA96F000E3BEC1CF00B0E0001D0
:10167A00A86FC5C09DF0C6C09EF0000EA06F0A0EEE
:10168A009F6F70EC18F000019D51300FA96F000E8A
:10169A003BEC1CF00C0E0001A86F730EA96F000E34
:1016AA003BEC1CF0150E0001C46F4B0EC36FBE0E4F
:1016BA00E82EFED7C32FFCD7C42FFAD700F05CEF71
:1016CA000DF09C51D8B46CEF0BF06EEF0BF0C4EF39
:1016DA000BF0000E9C6FE80ECF27030ED023D0BF6D
:1016EA0080EF0BF0200ECF5D4E0ED059D8A080EFC0
:1016FA000BF082EF0BF086EF0BF0030ED06FE80EC3
:10170A00CF6FCFC09DF0D0C09EF0030EA06FE80E41
:10171A009F6F52EC17F09DC0C7F09EC0C8F00A0E2A
:10172A000001A86FC7C09DF0C8C09EF0000EA06F50
:10173A000A0E9F6F52EC17F000019D51300FA96FEE
:10174A00000E3BEC1CF00B0E0001A86FC7C09DF009
:10175A00C8C09EF0000EA06F0A0E9F6F70EC18F0C2
:10176A0000019D51300FA96F000E3BEC1CF00C0ECE
:10177A000001A86F730EA96F000E3BEC1CF000016C
:10178A009B51D8B4CBEF0BF0CDEF0BF05CEF0DF023
:10179A00000E9B6F615198EC13F0CFC0A3F0D0C03C
:1017AA00A4F00001000EA4BFFF0EA56FA66F000EE5
:1017BA00A76F000EA86F000EA96F000EAA6F6A0E1F
:1017CA00AB6F2F0EAC6F000EAD6F000EAE6F000E3A
:1017DA00AF6F57EC0FF00001616F020E976F010EA9
:1017EA00DAEC1BF0000E0001A86F6F0EA96F100E45
:1017FA00AA6F000E98EC1BF00A0E0001A86FD6C063
:10180A009DF09E6B000EA06F0A0E9F6F52EC17F0B0
:10181A0000019D51300FA96F000E3BEC1CF00B0E1E
:10182A000001A86FD6C09DF09E6B000EA06F0A0E35
:10183A009F6F70EC18F000019D51300FA96F000ED8
:10184A003BEC1CF05CEF0DF09C51D8B42FEF0CF080
:10185A0031EF0CF063EF0CF0000E9C6FD62B630E89
:10186A00D6653AEF0CF03CEF0CF03EEF0CF01B0E95
:10187A00D66F0A0EA86FD6C09DF09E6B000EA06FA1
:10188A000A0E9F6F52EC17F000019D51300FA96F9D
:10189A00000E3BEC1CF00B0E0001A86FD6C09DF0A9
:1018AA009E6B000EA06F0A0E9F6F70EC18F000017D
:1018BA009D51300FA96F000E3BEC1CF000019B51AB
:1018CA00D8B46AEF0CF06CEF0CF05CEF0DF0000E80
:1018DA009B6F030E976F010EDAEC1BF0000E0001EE
:1018EA00A86F520EA96F100EAA6F000E98EC1BF08B
:1018FA000A0E0001A86FD5C09DF09E6B000EA06F66
:10190A000A0E9F6F52EC17F000019D51300FA96F1C
:10191A00000E3BEC1CF00B0E0001A86FD5C09DF029
:10192A009E6B000EA06F0A0E9F6F70EC18F00001FC
:10193A009D51300FA96F000E3BEC1CF05CEF0DF0CF
:10194A009C51D8B4ABEF0CF0ADEF0CF0DFEF0CF01C
:10195A00000E9C6FD5070B0ED561B6EF0CF0B8EFF1
:10196A000CF0BAEF0CF0500ED56F0A0EA86FD5C066
:10197A009DF09E6B000EA06F0A0E9F6F52EC17F03F
:10198A0000019D51300FA96F000E3BEC1CF00B0EAD
:10199A000001A86FD5C09DF09E6B000EA06F0A0EC5
:1019AA009F6F70EC18F000019D51300FA96F000E67
:1019BA003BEC1CF000019B51D8B4E6EF0CF0E8EFC9
:1019CA000CF05CEF0DF0000E9B6F040E976F5CEF4E
:1019DA000DF0000E946F000E976F000EA86F430E65
:1019EA00A96F100EAA6F000E98EC1BF0150E0001DD
:1019FA00C46F4B0EC36FBE0EE82EFED7C32FFCD7A3
:101A0A00C42FFAD700F0000E0001A86F340EA96F98
:101A1A00100EAA6F000E98EC1BF000019805D8A4CE
:101A2A0019EF0DF01BEF0DF026EF0DF0000EA86F69
:101A3A007F0EA96F100EAA6F000E98EC1BF05CEFD8
:101A4A000DF0020E9819D8A42DEF0DF02FEF0DF01E
:101A5A005CEF0DF0000EA86F5C0EA96F100EAA6F56
:101A6A00000E98EC1BF05CEF0DF000019751C36F6C
:101A7A00C46BC451000AD8B445EF0DF05CEF0DF009
:101A8A00C351000AD8B4FDEF0AF0010AD8B466EFD0
:101A9A000BF0030AD8B429EF0CF0010AD8B4A5EF69
:101AAA000CF0070AD8B4EEEF0CF05CEF0DF0120060
:101ABA0038EF0FF09C51D8B465EF0DF067EF0DF0D9
:101ACA0056EF0FF0000E9C6F010E986F91EC1DF00F
:101ADA009DC088F09EC089F09FC08AF0A0C08BF09C
:101AEA00A6EC1DF0000E00019E6F010E9D6FFBEC2F
:101AFA001BF0000E0001A86F340EA96F100EAA6F1A
:101B0A00000E98EC1BF0000E0001A86F7F0EA96F63
:101B1A00100EAA6F000E98EC1BF056EF0FF091EC26
:101B2A001DF0000188519D5DAC6F89519E59AD6FC2
:101B3A008A519F59AE6F8B51A059AF6FAF51AE11F9
:101B4A000BE1310EAC5D750EAD59D8A0AFEF0DF0BB
:101B5A00B1EF0DF0C1EF0DF0010EDAEC1BF0000E43
:101B6A000001A86F230EA96F100EAA6F000E98EC41
:101B7A001BF0030E0001986F9651D8B4C7EF0DF011
:101B8A00C9EF0DF056EF0FF0000E966F9451D8A4DE
:101B9A00D1EF0DF0D3EF0DF0E6EF0DF0000EA86FC8
:101BAA00340EA96F100EAA6F000E98EC1BF0000EEF
:101BBA000001A86F5C0EA96F100EAA6F000E98ECB8
:101BCA001BF0020E0001986F91EC1DF09DC088F089
:101BDA009EC089F09FC08AF0A0C08BF0AAEC1DF0CD
:101BEA00000E00019E6F010E9D6F71EC1BF0A8ECB8
:101BFA001DF0000E00019E6F020E9D6FFBEC1BF0A4
:101C0A0056EF0FF091EC1DF0000188519D5DAC6F0D
:101C1A0089519E59AD6F8A519F59AE6F8B51A05908
:101C2A00AF6FAF51AE110BE1310EAC5D750EAD5910
:101C3A00D8A022EF0EF024EF0EF034EF0EF0010ED2
:101C4A00DAEC1BF0000E0001A86F230EA96F100E2C
:101C5A00AA6F000E98EC1BF0030E0001986F9651C4
:101C6A00D8B43AEF0EF03CEF0EF056EF0FF0000E3C
:101C7A00966F9451D8A444EF0EF046EF0EF059EF48
:101C8A000EF0000EA86F340EA96F100EAA6F000E88
:101C9A0098EC1BF0000E0001A86F7F0EA96F100EC2
:101CAA00AA6F000E98EC1BF0010E0001986F91ECE0
:101CBA001DF09DC088F09EC089F09FC08AF0A0C028
:101CCA008BF0ACEC1DF0000E00019E6F020E9D6FB2
:101CDA0071EC1BF0A6EC1DF0000E00019E6F010EC8
:101CEA009D6FFBEC1BF056EF0FF0000EA86F340E41
:101CFA00A96F100EAA6F000E98EC1BF0000E0001DF
:101D0A00A86F780EA96F100EAA6F000E98EC1BF040
:101D1A00000E0001A86F950EA96F100EAA6F010E92
:101D2A0098EC1BF0060E0001A86F920EA96F100E18
:101D3A00AA6F010E98EC1BF099C0B0F00001B16BCC
:101D4A009AC0B2F0B36B030EA86FB0C09DF0B1C0D9
:101D5A009EF0000EA06F0A0E9F6F52EC17F0000162
:101D6A009D51300FA96F010E3BEC1CF0040E0001CF
:101D7A00A86FB0C09DF0B1C09EF0000EA06F0A0E11
:101D8A009F6F70EC18F000019D51300FA96F010E82
:101D9A003BEC1CF0080E0001A86FB2C09DF0B3C066
:101DAA009EF0000EA06F0A0E9F6F52EC17F0000112
:101DBA009D51300FA96F010E3BEC1CF0090E00017A
:101DCA00A86FB2C09DF0B3C09EF0000EA06F0A0EBD
:101DDA009F6F70EC18F000019D51300FA96F010E32
:101DEA003BEC1CF0150E0001AD6F4B0EAC6FBE0E36
:101DFA00E82EFED7AC2FFCD7AD2FFAD700F0AAEC0D
:101E0A001DF0000E00019E6F010E9D6F71EC1BF01C
:101E1A00ACEC1DF0000E00019E6F020E9D6F71EC7E
:101E2A001BF0000E0001886F000E896F000E8A6F8A
:101E3A00000E8B6F000E986F000E9C6F000EA86F3D
:101E4A00340EA96F100EAA6F000E98EC1BF0000E4C
:101E5A000001A86F860EA96F100EAA6F000E98ECEB
:101E6A001BF056EF0FF000019851AC6FAD6BAD51FE
:101E7A00000AD8B443EF0FF056EF0FF0AC51000A46
:101E8A00D8B45FEF0DF0010AD8B494EF0DF0030A4D
:101E9A00D8B407EF0EF0010AD8B47AEF0EF056EF75
:101EAA000FF0120063EC1DF00009D8B45FEF0FF0D9
:101EBA0061EF0FF064EF0FF06D0E26EF11F0000ED8
:101ECA000001C26FC2510F0D6C0EF324D96E010EC0
:101EDA00F420DA6EDE50DE10DE10D8A477EF0FF0B1
:101EEA0079EF0FF07BEF0FF084EF0FF0C22B130E98
:101EFA00C26582EF0FF084EF0FF067EF0FF0140E58
:101F0A00C219D8A48BEF0FF08DEF0FF08FEF0FF0FF
:101F1A0061EF0FF0C2510F0D640EF324D96E010E5A
:101F2A00F420DA6EA7C0DEFFA8C0DEFFA9C0DEFF7C
:101F3A00AAC0DEFFC2510F0D680EF324D96E010E3E
:101F4A00F420DA6EA3C0DEFFA4C0DEFFA5C0DEFF68
:101F5A00A6C0DEFFC2510F0D6C0EF324D96E010E1E
:101F6A00F420DA6EABC0DEFFACC0DEFFADC0DEFF30
:101F7A00C2510F0D710EF324D96E010EF420DA6EE0
:101F8A00AEC0DEFFAFC0DDFF912B90510F0D640E86
:101F9A00F324D96E010EF420DA6EDECFBEF0DDCF67
:101FAA00BFF0690E9019D8B4DDEF0FF0DFEF0FF034
:101FBA0000EF10F0690E9019D8B4E6EF0FF0E8EFD1
:101FCA000FF013EF10F0BEC0B0F0BFC0B1F0000EBA
:101FDA00B1BFFF0EB26FB36FB051A75DB151A8592F
:101FEA00B251A959B351AA59D8B0FEEF0FF000EF78
:101FFA0010F013EF10F09051B06FB16BC2510F0D8A
:10200A006F0EF324D96E010EF420DA6EB0C0DEFF33
:10201A00B1C0DDFFC2C090F0E2EF10F090510F0D99
:10202A006F0EF324D96E010EF420DA6EDECFC0F003
:10203A00DDCFC1F090C0BCF0BD6B52EF10F0C0C054
:10204A009DF0C1C09EF0000EA06F0F0E9F6FECECCA
:10205A001CF0640E00019D25D96E010E9E21DA6ED8
:10206A00DE50BE27DD50BF23C0C0BCF0C1C0BDF0EA
:10207A00C0C09DF0C1C09EF0000EA06F0F0E9F6FF2
:10208A00ECEC1CF06F0E00019D25D96E010E9E210D
:10209A00DA6EDECFC0F0DDCFC1F0690EC019C11112
:1020AA00D8B45AEF10F05CEF10F099EF10F0C0C0FE
:1020BA009DF0C1C09EF0000EA06F0F0E9F6FECEC5A
:1020CA001CF0640E00019D25D96E010E9E21DA6E68
:1020DA00DECFB0F0DECFB1F0DECFB2F0DECFB3F0BC
:1020EA00BEC0B4F0BFC0B5F0000EB5BFFF0EB66FEC
:1020FA00B76FB051B425B86FB151B521B96FB251AC
:10210A00B621BA6FB351B721BB6FB851A75DB951A8
:10211A00A859BA51A959BB51AA59D8B097EF10F08A
:10212A0099EF10F024EF10F0C251B06FB16BBCC040
:10213A009DF0BDC09EF0000EA06F0F0E9F6FECECDD
:10214A001CF06F0E00019D25D96E010E9E21DA6EDC
:10215A00B0C0DEFFB1C0DDFFC2510F0D6F0EF32418
:10216A00D96E010EF420DA6EC0C0DEFFC1C0DDFFF9
:10217A00BEC0B0F0BFC0B1F0000EB1BFFF0EB26F6B
:10218A00B36FB051A75DB46FB151A859B56FB251D1
:10219A00A959B66FB351AA59B76FC2510F0D640E40
:1021AA00F324D96E010EF420DA6EB4C0DEFFB5C096
:1021BA00DEFFB6C0DEFFB7C0DEFFC2510F0D6F0EE5
:1021CA00F324D96E010EF420DA6E690EDE18DE10E1
:1021DA00D8B4F2EF10F0F4EF10F025EF11F0C2517D
:1021EA000F0D640EF324D96E010EF420DA6EDECFE1
:1021FA00B0F0DECFB1F0DECFB2F0DECFB3F0C25135
:10220A000F0D6F0EF324D96E010EF420DA6EDECFB5
:10221A009DF0DDCF9EF0000EA06F0F0E9F6FECECCD
:10222A001CF0640E00019D25D96E010E9E21DA6E06
:10223A00B051DE5EB151DE5AB251DE5AB351DE5AA6
:10224A00C251120048EC1BF09DC0A3F09EC0A4F03E
:10225A001FEC1BF09DC0A5F09EC0A6F0020E000167
:10226A00A319A411D8A43CEF11F03EEF11F0E2EF4C
:10227A0011F0000E926F000E786F000E796F000E4B
:10228A007A6F000E7B6F000E746F000E756F000E72
:10229A00766F000E776FC5EF11F0010E9C6F010E7D
:1022AA00936FC6EF12F0010E8027000E812382235E
:1022BA00832383518211811109E10C0E805DD8A01C
:1022CA0069EF11F06BEF11F0C6EF12F0010E9C6F7F
:1022DA00020E936FC6EF12F0010E8027000E8123C3
:1022EA0082238323010E7C27000E7D237E237F23F6
:1022FA00070E7C197D117E117F11D8A487EF11F08A
:10230A0089EF11F093EF11F0010E9C6F000E7C6FB4
:10231A00000E7D6F000E7E6F000E7F6F835182115B
:10232A00811109E1250E805DD8A09EEF11F0A0EF82
:10233A0011F0C6EF12F0010E9C6F030E936FC6EFF9
:10234A0012F0010E8027000E8123822383238351FA
:10235A008211811109E1020E805DD8A0B7EF11F058
:10236A00B9EF11F0C6EF12F0010E9C6F000E806FEC
:10237A00000E816F000E826F000E836FC6EF12F09F
:10238A009351A16FA26BA251000AD8B4CFEF11F0FA
:10239A00C6EF12F0A151000AD8B452EF11F0010AA7
:1023AA00D8B458EF11F0030AD8B471EF11F0010A4A
:1023BA00D8B4A6EF11F0C6EF12F0020EA519A611B5
:1023CA00D8A4EAEF11F0ECEF11F090EF12F0000E42
:1023DA00936F000E806F000E816F000E826F000EE9
:1023EA00836F000E7C6F000E7D6F000E7E6F000EF5
:1023FA007F6F73EF12F0010E9B6F010E926FC6EFA3
:10240A0012F0010E7827000E79237A237B237B5161
:10241A007A11791109E10C0E785DD8A017EF12F044
:10242A0019EF12F0C6EF12F0010E9B6F020E926FB7
:10243A00C6EF12F0010E7827000E79237A237B2348
:10244A00010E7427000E752376237723070E74195D
:10245A00751176117711D8A435EF12F037EF12F013
:10246A0041EF12F0010E9B6F000E746F000E756F34
:10247A00000E766F000E776F7B517A11791109E1A0
:10248A00250E785DD8A04CEF12F04EEF12F0C6EF91
:10249A0012F0010E9B6F030E926FC6EF12F0010E3F
:1024AA007827000E79237A237B237B517A117911BD
:1024BA0009E1020E785DD8A065EF12F067EF12F01D
:1024CA00C6EF12F0010E9B6F000E786F000E796F47
:1024DA00000E7A6F000E7B6FC6EF12F09251A16F59
:1024EA00A26BA251000AD8B47DEF12F0C6EF12F027
:1024FA00A151000AD8B400EF12F0010AD8B406EFCD
:10250A0012F0030AD8B41FEF12F0010AD8B454EF3C
:10251A0012F0C6EF12F0A505A611D8B497EF12F083
:10252A0099EF12F0A2EF12F0A305A411D8A4A0EF1C
:10253A0012F0A2EF12F0C6EF12F0000E806F000E3A
:10254A00816F000E826F000E836F000E7C6F000E8B
:10255A007D6F000E7E6F000E7F6F000E786F000E8B
:10256A00796F000E7A6F000E7B6F000E746F000E8B
:10257A00756F000E766F000E776F000E936F000E68
:10258A00926F120025EC1DF0320E0001A36F000EAF
:10259A00A46F000EA56F000EA66F000EA76F000EA7
:1025AA00A86F000EA96F000EAA6F4E0EAB6F220E17
:1025BA00AC6F000EAD6F000EAE6F000EAF6F57EC32
:1025CA000FF00001606FCFC0A3F0D0C0A4F0000EDE
:1025DA00A4BFFF0EA56FA66F880EA76F130EA86F74
:1025EA00000EA96F000EAA6F6A0EAB6F2F0EAC6FAA
:1025FA00000EAD6F000EAE6F000EAF6F57EC0FF00E
:10260A000001616FA00EA36F0F0EA46F000EA56FDD
:10261A00000EA66F1C0EA76F0C0EA86F000EA96FF6
:10262A00000EAA6F260EAB6F300EAC6F000EAD6FA8
:10263A00000EAE6F000EAF6F57EC0FF00001626F25
:10264A00A00EA36F0F0EA46F000EA56F000EA66F4B
:10265A00E40EA76F0C0EA86F000EA96F000EAA6FEA
:10266A00560EAB6F390EAC6F000EAD6F000EAE6F2B
:10267A00000EAF6F57EC0FF00001636FA00EA36F4F
:10268A000F0EA46F000EA56F000EA66FDC0EA76FCB
:10269A00050EA86F000EA96F000EAA6FA40EAB6FED
:1026AA002B0EAC6F000EAD6F000EAE6F000EAF6F4B
:1026BA0057EC0FF00001646F000EA86F120EA96F9D
:1026CA00100EAA6F000E98EC1BF0000E0001A86F06
:1026DA00010EA96F100EAA6F010E98EC1BF0150ED1
:1026EA000001CA6F4B0EC96FBE0EE82EFED7C92F66
:1026FA00FCD7CA2FFAD700F0010EDAEC1BF0000E55
:10270A000001A86F860EA96F100EAA6F000E98EC32
:10271A001BF0FBEC0AF05DEC0DF0BCEC1AF08EEF4E
:10272A0013F007EF00F00001A26F70EC1DF0000932
:10273A00D8A4A2EF13F0A4EF13F064EF14F0000191
:10274A00A2510F0D6C0EF324D96E010EF420DA6E2D
:10275A00DE50DE10DE10D8A4B5EF13F0B7EF13F099
:10276A00B9EF13F064EF14F0A2510F0D640EF324C5
:10277A00D96E010EF420DA6EDE6ADE6ADE6ADD6A7E
:10278A00A2510F0D680EF324D96E010EF420DA6EF1
:10279A00DE6ADE6ADE6ADD6AA2510F0D6C0EF32470
:1027AA00D96E010EF420DA6E000EDE6E000EDE6EB9
:1027BA00000EDE6EA2510F0D710EF324D96E010EBA
:1027CA00F420DA6E000EDE6E000EDD6E9107905177
:1027DA00A219D8A4F3EF13F0F5EF13F00DEF14F0EC
:1027EA00A2510F0D6F0EF324D96E010EF420DA6E8A
:1027FA00DF50906FA2510F0D6F0EF324D96E010EA8
:10280A00F420DA6E690EDE6E000EDD6E64EF14F0EF
:10281A0090C0A1F01BEF14F0A1510F0D6F0EF3241D
:10282A00D96E010EF420DA6EDF50A16FA1510F0D9F
:10283A006F0EF324D96E010EF420DA6E690EDE18DB
:10284A00DE10D8B42BEF14F02DEF14F044EF14F08F
:10285A00A1510F0D6F0EF324D96E010EF420DA6E1A
:10286A00A2519F6FA06BDE509F1907E1DE50A0199D
:10287A00D8A442EF14F044EF14F011EF14F0A2516F
:10288A000F0D6F0EF324D96E010EF420DA6EA151EA
:10289A000F0D6F0EF324E16E010EF420E26EDECF0F
:1028AA00E6FFDDCFE5FFA2510F0D6F0EF324D96EBF
:1028BA00010EF420DA6E690EDE6E000EDD6E120075
:1028CA00056E7CEC1DF00009D8A46EEF14F070EFD1
:1028DA0014F030EF15F005500F0D6C0EF324D96E7D
:1028EA00010EF420DA6EDE50DE10DE10D8A480EF7E
:1028FA0014F082EF14F084EF14F030EF15F0055065
:10290A000F0D640EF324D96E010EF420DA6EDE6A1E
:10291A00DE6ADE6ADD6A05500F0D680EF324D96E91
:10292A00010EF420DA6EDE6ADE6ADE6ADD6A0550BE
:10293A000F0D6C0EF324D96E010EF420DA6E000E20
:10294A00DE6E000EDE6E000EDE6E05500F0D710E8D
:10295A00F324D96E010EF420DA6E000EDE6E000E3C
:10296A00DD6E0001910790510518D8A4BFEF14F04D
:10297A00C1EF14F0D9EF14F005500F0D6F0EF324C8
:10298A00D96E010EF420DA6EDF50906F05500F0DEC
:10299A006F0EF324D96E010EF420DA6E690EDE6E24
:1029AA00000EDD6E30EF15F090C006F0E7EF14F080
:1029BA0006500F0D6F0EF324D96E010EF420DA6E55
:1029CA00DF50066E06500F0D6F0EF324D96E010EFE
:1029DA00F420DA6E690EDE18DE10D8B4F7EF14F0C0
:1029EA00F9EF14F010EF15F006500F0D6F0EF324E7
:1029FA00D96E010EF420DA6E0550036E046ADE50B9
:102A0A00031807E1DE500418D8A40EEF15F010EFF2
:102A1A0015F0DDEF14F005500F0D6F0EF324D96E8B
:102A2A00010EF420DA6E06500F0D6F0EF324E16EDC
:102A3A00010EF420E26EDECFE6FFDDCFE5FF0550A2
:102A4A000F0D6F0EF324D96E010EF420DA6E690EA3
:102A5A00DE6E000EDD6E1200000E0001A76F500E32
:102A6A00A66F95908C902F0E0001A36FBF0EE82ED3
:102A7A00FED7A32FFCD700D08C80140EE82EFED7E9
:102A8A00958058EF15F00001A607D8A0A707A65110
:102A9A00A711D8A453EF15F055EF15F058EF15F01C
:102AAA00000ED1EF15F083B05DEF15F05FEF15F072
:102ABA0048EF15F0000E0001A76F500EA66F74EFD5
:102ACA0015F0A607D8A0A707A651A711D8A470EF9A
:102ADA0015F072EF15F074EF15F055EF15F083A0AD
:102AEA0079EF15F07CEF15F0010E7DEF15F0000E71
:102AFA00A36FA46BA3B184EF15F086EF15F066EF10
:102B0A0015F0000EA76F500EA66F9AEF15F0A607E4
:102B1A00D8A0A707A651A711D8A496EF15F098EF49
:102B2A0015F09AEF15F055EF15F083B09FEF15F0F9
:102B3A00A1EF15F08CEF15F0E2EC16F000018C6FA6
:102B4A00E2EC16F000018D6FE2EC16F000018E6FD8
:102B5A00E2EC16F000018F6FE2EC16F00001A56FAF
:102B6A00A529D8A4BBEF15F0BFEF15F0A36BA32BD3
:102B7A00C1EF15F00001A36B8D518F258C258E2591
:102B8A00A3150009D8B4CCEF15F0CEEF15F0D0EFAD
:102B9A0015F055EF15F0010E1200000E0001A86F96
:102BAA00950EA96F100EAA6F010E98EC1BF0060E77
:102BBA000001A86F920EA96F100EAA6F010E98EC71
:102BCA001BF0050E00019919D8A4EEEF15F0F0EFED
:102BDA0015F0FBEF15F0030EA86F8F0EA96F100EFC
:102BEA00AA6F010E98EC1BF020EF16F0030EA86FE7
:102BFA0099C09DF09E6B000EA06F0A0E9F6F52EC5B
:102C0A0017F000019D51300FA96F010E3BEC1CF02B
:102C1A00040E0001A86F99C09DF09E6B000EA06F74
:102C2A000A0E9F6F70EC18F000019D51300FA96FCA
:102C3A00010E3BEC1CF0050E00019A19D8A428EFEE
:102C4A0016F02AEF16F035EF16F0080EA86F8F0E61
:102C5A00A96F100EAA6F010E98EC1BF05AEF16F02E
:102C6A00080EA86F9AC09DF09E6B000EA06F0A0E08
:102C7A009F6F52EC17F000019D51300FA96F010EA2
:102C8A003BEC1CF0090E0001A86F9AC09DF09E6BE8
:102C9A00000EA06F0A0E9F6F70EC18F000019D5194
:102CAA00300FA96F010E3BEC1CF0120013EC1AF066
:102CBA00000E0001A66F000EA56FA5C09DF0A6C06C
:102CCA009EF0000EA06F0F0E9F6FECEC1CF0640ECE
:102CDA0000019D25D96E010E9E21DA6EDE6ADE6A3A
:102CEA00DE6ADD6AA5C09DF0A6C09EF0000EA06F48
:102CFA000F0E9F6FECEC1CF0680E00019D25D96E3B
:102D0A00010E9E21DA6EDE6ADE6ADE6ADD6AA5C01F
:102D1A009DF0A6C09EF0000EA06F0F0E9F6FECEC08
:102D2A001CF06C0E00019D25D96E010E9E21DA6EF3
:102D3A00000EDE6E000EDE6E000EDE6EA5C09DF089
:102D4A00A6C09EF0000EA06F0F0E9F6FECEC1CF059
:102D5A00710E00019D25D96E010E9E21DA6E000EBC
:102D6A00DE6E000EDD6EA5C09DF0A6C09EF0000EC0
:102D7A00A06F0F0E9F6FECEC1CF06F0E00019D25EB
:102D8A00D96E010E9E21DA6E690EDE6E000EDD6EC0
:102D9A00A54BA62BA6BFDBEF16F0A65109E1140E30
:102DAA00A55DD8A0DBEF16F0DDEF16F062EF16F0A6
:102DBA00000E916F690E906F1200000E0001A26F53
:102DCA00F6EF16F0A007D8A0A107A051A111D8A428
:102DDA00F1EF16F0F3EF16F0F6EF16F0000E51EFE2
:102DEA0017F083A0FBEF16F0FDEF16F0E7EF16F0F1
:102DFA00140EE82EFED783B005EF17F007EF17F091
:102E0A001BEF17F00001A25107089D6F010E9E6F7C
:102E1A009D2B12EF17F0D8909E379D2F10EF17F0C9
:102E2A0000019E51FF0A9F1747EF17F00001A251B8
:102E3A0007089D6F010E9E6F9D2B26EF17F0D89005
:102E4A009E379D2F24EF17F000019E519F13000E0D
:102E5A00A16F500EA06F40EF17F0A007D8A0A107EE
:102E6A00A051A111D8A43CEF17F03EEF17F040EFA4
:102E7A0017F0F3EF16F083B045EF17F047EF17F0AE
:102E8A0032EF17F0A22B070EA2654EEF17F050EFA4
:102E9A0017F0F6EF16F09F511200000E0001A26F14
:102EAA00A0BF5CEF17F05AEF17F062EF17F09F6DB3
:102EBA00A01FD8B0A02B010EA26F9EBF69EF17F01A
:102ECA0067EF17F06FEF17F09D6D9E1FD8B09E2B1E
:102EDA00010EA21B000EA46F000EA36F9F51A0113A
:102EEA00D8B47AEF17F07CEF17F0A4EF17F0010EC1
:102EFA00A16F84EF17F0D8909F37A037A12BA0AF0E
:102F0A0089EF17F08BEF17F080EF17F0D890A337FF
:102F1A00A4379F519D5DA0519E59D8A097EF17F0F5
:102F2A0099EF17F09EEF17F09F519D5FA0519E5B9E
:102F3A00A381D890A0339F33A12F8BEF17F0A25112
:102F4A00D8B4AAEF17F0ACEF17F0B0EF17F0A36DF3
:102F5A00A41FD8B0A42BA3C09DF0A4C09EF0120059
:102F6A000001D651995DD8A0BDEF17F0BFEF17F059
:102F7A00D4EF17F09A51D55DD8A0C6EF17F0C8EF75
:102F8A0017F0D4EF17F09851D8B4CEEF17F0D0EF6E
:102F9A0017F0D4EF17F0030E986F12EF18F09A514A
:102FAA00D55DD8A0DBEF17F0DDEF17F0E9EF17F0EA
:102FBA009805D8A4E3EF17F0E5EF17F0E9EF17F05B
:102FCA00000E966F12EF18F0D651995DD8A0F0EF67
:102FDA0017F0F2EF17F0FDEF17F0020E9819D8A4C8
:102FEA00F9EF17F0FBEF17F0FDEF17F0E5EF17F029
:102FFA009805D8B403EF18F005EF18F00EEF18F0A3
:10300A00020E9819D8A40CEF18F00EEF18F012EF70
:10301A0018F0010E966F12EF18F0120000019805D1
:10302A00D8B41AEF18F01CEF18F025EF18F0020EBA
:10303A009819D8A423EF18F025EF18F06FEF18F0BD
:10304A000B0EA86F8B0EA96F100EAA6F010E98ECCB
:10305A001BF0050E00019A19D8A436EF18F038EFC4
:10306A0018F04AEF18F00E0EA86F8F0EA96F100E07
:10307A00AA6F010E98EC1BF0000E00019E6F000E65
:10308A009D6F94EC1CF06FEF18F00E0EA86F9AC0AB
:10309A009DF09E6B000EA06F0A0E9F6F52EC17F008
:1030AA0000019D51300FA96F010E3BEC1CF00F0E71
:1030BA000001A86F9AC09DF09E6B000EA06F0A0EC9
:1030CA009F6F70EC18F000019D51300FA96F010E2F
:1030DA003BEC1CF01200000E0001A26F9EBF7AEFBB
:1030EA0018F078EF18F080EF18F09D6D9E1FD8B099
:1030FA009E2B010EA26FA0BF87EF18F085EF18F084
:10310A008BEF18F09F6DA01FD8B0A02B9F51A01174
:10311A00D8B492EF18F094EF18F0B8EF18F0010E47
:10312A00A16F9CEF18F0D8909F37A037A12BA0AFC2
:10313A00A1EF18F0A3EF18F098EF18F09F519D5DDA
:10314A00A0519E59D8A0ACEF18F0AEEF18F0B2EF2C
:10315A0018F09F519D5FA0519E5BD890A0339F337A
:10316A00A12FA3EF18F0A251D8B4BEEF18F0C0EF08
:10317A0018F0C4EF18F09D6D9E1FD8B09E2B9DC00D
:10318A009DF09EC09EF01200000E066E02BED2EFA7
:10319A0018F0D0EF18F0D8EF18F0016C021ED8B072
:1031AA00022A010E066E04BEDFEF18F0DDEF18F0FA
:1031BA00E3EF18F0036C041ED8B0042A035004107D
:1031CA00D8B4EAEF18F0ECEF18F010EF19F0010E8E
:1031DA00056EF4EF18F0D89003360436052A04AECB
:1031EA00F9EF18F0FBEF18F0F0EF18F00350015C5C
:1031FA0004500258D8A004EF19F006EF19F00AEFAC
:10320A0019F00350015E0450025AD8900432033276
:10321A00052EFBEF18F00650D8B416EF19F018EF88
:10322A0019F01CEF19F0016C021ED8B0022A01C075
:10323A0001F002C002F0120055EC1DF00009D8B4EA
:10324A0029EF19F02BEF19F02DEF19F076EF19F09D
:10325A000001CD2906E1CE29D8A436EF19F038EFBE
:10326A0019F03CEF19F0000ECE6F000ECD6F010E73
:10327A00CB25016E000ECC21026E000E046E140ED8
:10328A00036EC9EC18F001C0CBF002C0CCF0CBC081
:10329A0001F0CCC002F0000E046E050E036E00ECC5
:1032AA001DF0000E0124D96E010E0220DA6E0AC04A
:1032BA00DEFF0BC0DEFF0CC0DEFFCBC001F0CCC0CE
:1032CA0002F0000E046E050E036E00EC1DF0030EF4
:1032DA000124D96E010E0220DA6E0DC0DEFF0EC087
:1032EA00DDFF1200000E0001AC6F000EAD6F000E84
:1032FA00AE6F000EAF6F000EB06F79EC1CF00009D4
:10330A00D8B48AEF19F08CEF19F097EF19F020EE84
:10331A00ACF000EEA5F0040EDBCFEBFFE806FCE212
:10332A00C7EF19F0CDC0AAF0CEC0ABF0010E000174
:10333A00CD259D6F000ECE219E6F000EA06F140E3C
:10334A009F6F70EC18F09DC0CDF09EC0CEF0AAC061
:10335A009DF0ABC09EF0000E0001A06F050E9F6F9E
:10336A00ECEC1CF0000E00019D25D96E010E9E2189
:10337A00DA6E10EEACF0040EDBCFE3FFE806FCE2F7
:10338A008CEF19F012000001A96F040E0001A96563
:10339A00D1EF19F0D3EF19F0F1EF19F012EF1AF09B
:1033AA00F28AF294C70ED56E820ED66E000E846F24
:1033BA00000E856F000E866F000E876F12EF1AF0EF
:1033CA005BEC16F09D809E90810ECD6EB10ECF6E95
:1033DA00E00ECE6E12EF1AF0A951A76FA86BA85192
:1033EA00000AD8B4FBEF19F012EF1AF0A751000A3D
:1033FA00D8B4D5EF19F0010AD8B4E5EF19F0030AE9
:10340A00D8B412EF1AF0010AD8B412EF1AF0070A68
:10341A00D8B412EF1AF012EF1AF01200000E0001DF
:10342A00A46F000EA36FA3C09DF0A4C09EF0000E6F
:10343A00A06F050E9F6FECEC1CF0030E00019D259A
:10344A00D96E010E9E21DA6E000EDE6E000EDD6E62
:10345A00A3C09DF0A4C09EF0000EA06F050E9F6F42
:10346A00ECEC1CF0000E00019D25D96E010E9E2188
:10347A00DA6E000EDE6E000EDE6E000EDE6EA34BFE
:10348A00A42BA4BF52EF1AF0A45109E1140EA35DB4
:10349A00D8A052EF1AF054EF1AF018EF1AF01200EF
:1034AA0000019D6F9DC09FF0000E00019E6F9DAFB1
:1034BA0061EF1AF063EF1AF066EF1AF08B8A67EF82
:1034CA001AF08B9A8BA86CEF1AF06EEF1AF072EF63
:1034DA001AF0D8809F3775EF1AF09F519F259F6F7A
:1034EA008B8600F000F000F000F000F000F08B9600
:1034FA000001D8909D379E2B070E9E6587EF1AF024
:10350A0089EF1AF05CEF1AF0120088EC1DF0979C14
:10351A008E9C0D0E0001A36FFB0EE82EFED7A32F83
:10352A00FCD700D08E8C000E46EC1DF0010E46EC46
:10353A001DF0000E0001A06F120E36EC1DF0270ED2
:10354A000001A36FF50EE82EFED7A32FFCD7320E8B
:10355A00DAEC1BF03C0EDAEC1BF00C0EDAEC1BF08A
:10356A00010EDAEC1BF0060EDAEC1BF01200E3EFA8
:10357A001AF077EC19F020EEB1F0040EEBCFDBFF76
:10358A00E806FCE20001B151B211B311D8B4D0EF90
:10359A001AF0D2EF1AF0E3EF1AF0B4C09FF0B5C0F8
:1035AA00A0F002D8E3EF1AF00500FA6EB151FD6EF1
:1035BA00B251FE6EB351FF6EFA50120079EC1CF054
:1035CA000009D8B4EBEF1AF0EDEF1AF0BEEF1AF0DB
:1035DA001200340EF66E3B0EF76E000EF86E00EE19
:1035EA00CBF010EE0CF00900F5CFEEFFE550E150FC
:1035FA00FAE101EE64F011EE2CF0EE6AE550E150CA
:10360A00FCE1E250FAE101EE00F0640EEE6AE8062F
:10361A00FDE100EE60F03D0EEE6AE806FDE100EE27
:10362A0034F0080EEE6AE806FDE13C903C92000197
:10363A00C7EF12F0D1C0D2F0000E81B0010E000126
:10364A00D16FD251D119D8A42DEF1BF02FEF1BF057
:10365A0043EF1BF0D151D8B435EF1BF037EF1BF015
:10366A003DEF1BF0000E9E6F010E9D6F47EF1BF0A2
:10367A00000E9E6F020E9D6F47EF1BF0000E9E6FAD
:10368A00000E9D6F1200D3C0D4F0000E80BA010E56
:10369A000001D36FD451D319D8A456EF1BF058EFB9
:1036AA001BF06CEF1BF0D351D8B45EEF1BF060EF48
:1036BA001BF066EF1BF0000E9E6F010E9D6F70EF00
:1036CA001BF0000E9E6F020E9D6F70EF1BF0000E36
:1036DA009E6F000E9D6F12007CEF1BF08C9E97EF81
:1036EA001BF08C9C97EF1BF08C9A97EF1BF09DC0F8
:1036FA009FF09EC0A0F00001A051000AD8B488EF44
:10370A001BF097EF1BF09F51010AD8B473EF1BF01F
:10371A00030AD8B476EF1BF0010AD8B479EF1BF08C
:10372A0097EF1BF012000001AB6F030E0001AB61B3
:10373A00A1EF1BF0A3EF1BF0B8EF1BF00F0EA8656B
:10374A00A9EF1BF0ABEF1BF0ADEF1BF0B8EF1BF0CE
:10375A00A8C0A3F0AB515AEC1CF0A9C0A3F0AAC0B0
:10376A00A4F01BEC1CF012000001A26F060EE82E5A
:10377A00FED700D0800E0001A06F120E36EC1DF0AD
:10378A0000D0A2C0A0F0130E36EC1DF000D0C00E7F
:10379A000001A06F120E36EC1DF000D0000E0001E1
:1037AA00A06F120E36EC1DF012000001A26F060E79
:1037BA00E82EFED700D0000E0001A06F120E36ECE4
:1037CA001DF000D0A2C0A0F0130E36EC1DF000D000
:1037DA00400E0001A06F120E36EC1DF000D0000E54
:1037EA000001A06F120E36EC1DF0120003EF1CF060
:1037FA008C8E1AEF1CF08C8C1AEF1CF09DC09FF077
:10380A009EC0A0F00001A051000AD8B40FEF1CF02E
:10381A001AEF1CF09F51010AD8B4FDEF1BF0030AFE
:10382A00D8B400EF1CF01AEF1CF012002AEF1CF0BB
:10383A00A3C0F6FFA4C0F7FF000EF86E0800F5500B
:10384A00B9EC1BF00001A34BA42BA3C0F6FFA4C044
:10385A00F7FF000EF86E0800F5500009D8A438EFFB
:10386A001CF03AEF1CF01DEF1CF012000001AA6FC9
:10387A00030E0001AA6144EF1CF046EF1CF059EF59
:10388A001CF00F0EA8654CEF1CF04EEF1CF050EF29
:10389A001CF059EF1CF0A8C0A3F0AA515AEC1CF076
:1038AA000001A951B9EC1BF012000001A46F00013C
:1038BA00A451D8B463EF1CF065EF1CF06DEF1CF057
:1038CA00C00EA325A56FA66B000EA62373EF1CF0EE
:1038DA00800EA325A56FA66B000EA623A5C0A7F090
:1038EA00A751DAEC1BF012000001CD2906E1CE291E
:1038FA00D8A482EF1CF084EF1CF087EF1CF0000EB6
:10390A0093EF1CF0C1EC1CF00009D8B48FEF1CF047
:10391A0092EF1CF0010E93EF1CF0000E1200000152
:10392A009D51180DF3CF74FF9EBFA4EF1CF09E515A
:10393A0008E19D05D8A0A4EF1CF0A6EF1CF0A9EFA2
:10394A001CF08C8AAAEF1CF08C9A120031EC15F04C
:10395A000009D8A4B3EF1CF0B5EF1CF0B9EF1CF0C6
:10396A000001952BC0EF1CF0000E0001956F8EC070
:10397A0099F08CC09AF012000001CD51CB5DA36F73
:10398A00CE51CC59A46F150EA3259D6F000EA4210C
:10399A009E6F000EA06F140E9F6F70EC18F000015E
:1039AA009D5112000001CD51CB5D076ECE51CC590D
:1039BA00086E150E0724016E000E0820026E000E16
:1039CA00046E140E036EC9EC18F0015012000001C7
:1039DA009D519F03F3CFA1F0F4CFA2F09D51A00314
:1039EA00F350A2279E519F03F350A227A1C09DF036
:1039FA00A2C09EF0120001500302F3CF05F0F4CFEB
:103A0A0006F001500402F350062602500302F35056
:103A1A00062605C001F006C002F01200000E8B6EE9
:103A2A00D70E946E0F0EC16E000E896EF30E926E53
:103A3A00000E8A6E9368000E8C6E000E956E120050
:103A4A00A0EC1DF013EC1DF0A3EC1DF08AEC1AF0AB
:103A5A00460E00019A6F190E996F010EC8EC19F003
:103A6A0012000001A16F8994400E55EC1AF0000172
:103A7A00A15155EC1AF00001A05155EC1AF08984B5
:103A8A0012000001A06F8994400E55EC1AF0000153
:103A9A00A05155EC1AF0000E55EC1AF08984120068
:103AAA00D7EC1CF0096E140E09605EEF1DF061EF91
:103ABA001DF0010E62EF1DF0000E1200140E00013F
:103ACA009119D8B46BEF1DF06EEF1DF0010E6FEF78
:103ADA001DF0000E120000019151D8B477EF1DF0CD
:103AEA007AEF1DF0010E7BEF1DF0000E12000001AF
:103AFA009151D8B483EF1DF086EF1DF0010E87EFC8
:103B0A001DF0000E120092949488949A94968984D7
:103B1A008B888B9A8B96120084C09DF085C09EF08C
:103B2A0086C09FF087C0A0F01200FFFFFFFF10279A
:103B3A00010101011450700ED36E1200F28EF28C44
:103B4A0012008C8012008C8212008C9012008C92CF
:023B5A00120057
:020000040020DA
:08000000FFFFFFFFFFFFFFFF00
:020000040030CA
:0E000000FF09191EF38381FFFFC0FFE0FF40E0
:00000001FF
