:020000040000FA
:0400000072EF09F0A2
:10100000006162630000016E01C003F0000E026E19
:1010100001AE0DEF08F00FEF08F012EF08F08B8A29
:1010200013EF08F08B9A8BA818EF08F01AEF08F06E
:101030001EEF08F0D880033621EF08F00350032498
:10104000036E8B8600F000F000F000F000F000F07E
:1010500000F000F000F000F000F000F08B96D89067
:101060000136022A070E026438EF08F03AEF08F062
:1010700008EF08F01200076E110E066E3A0EE82E09
:10108000FED7062EFCD700D0800E046E120E5CEC4C
:1010900009F0040E066E3E0EE82EFED7062EFCD793
:1010A00007C004F0130E5CEC09F0040E066E3E0E51
:1010B000E82EFED7062EFCD7C00E046E120E5CEC96
:1010C00009F0040E066E3E0EE82EFED7062EFCD763
:1010D000000E046E120E5CEC09F01200076E110E89
:1010E000066E3A0EE82EFED7062EFCD700D0000E74
:1010F000046E120E5CEC09F0040E066E3E0EE82E35
:10110000FED7062EFCD707C004F0130E5CEC09F0E6
:10111000040E066E3E0EE82EFED7062EFCD7400EBD
:10112000046E120E5CEC09F0040E066E3E0EE82E04
:10113000FED7062EFCD7000E046E120E5CEC09F0F2
:10114000120069EC09F0979C8E9C110E086E3A0E05
:10115000E82EFED7082EFCD700D08E8C000E4FEC68
:1011600009F0010E4FEC09F0000E046E120E5CEC5B
:1011700009F0310E086EB20EE82EFED7082EFCD70D
:1011800000D0320E6EEC08F03C0E6EEC08F00C0E47
:101190006EEC08F0010E6EEC08F0060E6EEC08F036
:1011A0001200106E030E1060D8EF08F0DAEF08F0AE
:1011B000EFEF08F00F0E0D64E0EF08F0E2EF08F03B
:1011C000E4EF08F0EFEF08F00DC008F01050F0EC7D
:1011D00008F00EC008F00FC009F00DEC09F0120085
:1011E000096E0950D8B4F7EF08F0F9EF08F001EFF5
:1011F00009F0C00E08240A6E0B6A000E0B2207EFDE
:1012000009F0800E08240A6E0B6A000E0B220AC039
:101210000CF00C506EEC08F0120019EF09F008C049
:10122000F6FF09C0F7FF0800F5503BEC08F0084A4C
:10123000092A08C0F6FF09C0F7FF0800F5500009A9
:10124000D8A425EF09F027EF09F00FEF09F01200FD
:10125000770ED36E0F0E9B6E3DEC09F0A1EC08F0FB
:10126000050E0D6E010E0E6E100E0F6E010ED1ECFE
:1012700008F039EF09F000EF00F0000E956E000E57
:101280008C6E000E896EF30E926E000E8A6E93685D
:10129000000E8B6ED70E946E0F0EC16E1200046E90
:1012A0008994400E03EC08F0045003EC08F0000EA3
:1012B00003EC08F089841200056E8994400E03EC5B
:1012C00008F0055003EC08F0045003EC08F08984A2
:1012D000120092949488949A949689848B888B9A1D
:1012E0008B961200000EF86E100EF76E000128EFBC
:0212F00009F003
:020000040020DA
:08000000FFFFFFFFFFFFFFFF00
:020000040030CA
:0E000000FF09191EF38381FFFFC0FFE0FF40E0
:00000001FF
